:020000040800F2
:1000000000120020A18B0208D7E80608D7E80608EE
:1000100025D50608D7E80608D7E80608D7E8060871
:10002000D7E80608D7E80608D7E80608510200080E
:10003000D7E80608D7E80608E1010008C1C90608A4
:10004000D7E80608D7E80608D7E80608D7E806087C
:10005000D7E80608D7E80608D7E80608D7E806086C
:10006000D7E80608D7E80608D7E80608D7E806085C
:10007000D7E80608D7E80608D7E80608D7E806084C
:10008000D7E80608D7E80608D7E80608D7E806083C
:10009000D7E80608158A0208D7E80608D7E8060850
:1000A000D7E806085986020835860208D7E8060808
:1000B000D7E806085D2F04084D390408F17E0708CB
:1000C000ED7E070835310408FD7E0708F57E070838
:1000D00025390408F97E07088D390408F139040828
:1000E000D7E80608D7E80608D7E80608D7E80608DC
:1000F00031D50608D7E80608D7E80608D7E8060885
:10010000D7E80608D7E80608D7E80608D7E80608BB
:10011000D7E80608D7E80608D7E80608D7E80608AB
:10012000D7E80608D7E80608D7E80608D7E806089B
:10013000D7E80608D7E80608D7E80608D7E806088B
:10014000D7E80608C1500208D7E80608BFD4060859
:100150005D150408D7E80608DF7B0708E57B07087C
:10016000D7E80608D7E80608D7E80608D7E806085B
:100170000B4A1168086806C881F30B88022181F3D5
:100180001488203080F30988BFF36F8F4FF0000090
:1001900080F31188104700BFAFF30080AFF30080F9
:1001A000F0640020000000000000000000000000DB
:1001B00007480068006880F3088862B661B6BFF33C
:1001C0004F8FBFF36F8F02DF00BF00BFAFF3008020
:1001D00008ED00E00000000000000000000000004A
:1001E000EFF309801EF0100F08BF20ED108AEFF327
:1001F0000B82734620E9FC0F114A116808604FF02A
:10020000300080F31188BFF34F8FBFF36F8F1EF064
:100210007BFC4FF0000080F31188094A11680868E0
:10022000B0E8FC0F13F0100F08BFB0EC108A82F397
:100230000B8880F309881847AFF30080AFF3008084
:10024000F06400200000000000000000000000003A
:100250001EF0040F0CBFEFF30880EFF30980044990
:10026000084700BFAFF30080AFF30080AFF300801A
:100270002FBF060800000000000000000000000082
:10028000013800D0FCE770472DE9F04F2DED028BCF
:10029000DFF8C0918DB0B9F800309A0706D440F26B
:1002A0002761654B654A664852F032FCDFF8A8B119
:1002B000DBF8003023B94FF4C561624B5F4AF2E7C7
:1002C0009B88614C8DF81730012394E807005F4D3F
:1002D0000DF1180888E80700B9F800200DF11701A2
:1002E0001A46286877F038F89DF81720DBF80010D8
:1002F000023A0023096892B20C3428680DF1240AEE
:1003000077F02AF894E80700DBF800308AE8070065
:100310001B681C7814F0200421D0286876F046FE73
:1003200000286FD0286876F041FE04460B9851F003
:10033000BBFC064620460F4651F0B6FC02460B4673
:1003400039A1D1E9000151F053FE02460B46304677
:10035000394651F06DFB51F0BBFF0B90012428682A
:1003600076F040FE9DF8173000284FD0981DC00051
:1003700051F0AAFC2EA3D3E9002351F00FFD41EC6C
:10038000180B286876F02EFE03900B9851F08CFC29
:10039000039B064618460F4651F086FC02460B4664
:1003A00051EC180B51F024FE02460B4630463946FC
:1003B00051F03EFB51F08CFF0B90B9F80030DBF8A8
:1003C00000209B062868917926D50B9B03F5FA73CC
:1003D0000B9392F8203022468DF81A301C4B1B7874
:1003E000CDF800A08DF81B30434676F069FB20B1B4
:1003F000022020F0DFFB6CF09FFC0DB0BDEC028B07
:10040000BDE8F08F0B9BC0330B93A7E70B98063327
:1004100000EB43130B93D0E75346224676F03AFBAA
:10042000E5E700BFAFF300800000000060E3664135
:100430000000000080842E41A56F0808EF740808B2
:10044000056E0808CB6F0808D47308087C7000207C
:1004500088180020A4A00020647100200000000083
:10046000754B73B5198811F0010140F0DC8041F63D
:100470000B22724D724BC5E9003105F11003AB60E0
:10048000704B19609A80704B1B6ADB0706D440F2F0
:10049000B9316E4B6E4A6F4852F03AFB284639F03C
:1004A00071FF044620B940F2BD316B4B684AF2E758
:1004B0003BF098FB20B140F2C131684B644AEAE757
:1004C0004FF00111204676F02FFF20B140F2C531E8
:1004D000624B5F4ADFE70221204676F048FD20B1FB
:1004E0004FF472715D4B5A4AD5E720465C493BF0A8
:1004F000F7F820B140F2CB31584B554ACBE70121F8
:10050000204677F0C7F820B14FF47471534B504A2E
:10051000C1E70121204677F0D4F8064620B140F229
:10052000D3314E4B4A4AB6E701463C224D4882F051
:10053000CAFE80233246204605F1140176F022FFE0
:10054000802804D040F2DA31474B414AA3E7474DB7
:10055000012076F09AFA36A3D3E900232C602046D6
:10056000CDE900234FF0FF324FF0FF3376F0A7FDC7
:1005700020B140F21731394B3D4A8CE7314820F029
:10058000C3F90121084620F02DFA0121286876F0F0
:100590003EFC044620B140F26E41304B354A7AE7CA
:1005A000354B364A98801A60354B364A98801A6027
:1005B000354B364A98801A60354A6FF063005A61AD
:1005C0001AF09AFE0B2020F059F9324B186020B92E
:1005D00040F28C41304B274A5DE725F08BFD2146E8
:1005E000286876F04BFE20B140F219411B4B2B4A94
:1005F00051E708222868114676F07CFD044620B1B8
:100600004FF49261264B1B4A45E721F021FA254B16
:1006100025481C70254B1C70254B1C7002B0BDE892
:10062000704066F03CBE02B070BD00BFAFF300800A
:100630000B6020FFE2030000A4A0002088700020CF
:10064000A90C0208807000200080E00FBF7208082B
:1006500064740808056E0808D8720808696D0808EF
:100660007475080828710020E77208087C70002063
:1006700057740808E0740808E8590020C0A8002052
:10068000C059002040A80020105A002042A9002094
:10069000385A0020247100201F7308081D740808B0
:1006A0003A73080835A80020BE73080841A9002045
:1006B00040A900200000000070B505463E4C8AB0FD
:1006C00020B10023008823602EF086FC3B4876F0A2
:1006D0003DFC3B4E3B4B304633603B4B73602EF052
:1006E00057FE0021304639F04DFE31A3D3E90023F7
:1006F000A062C4E9062371F05FF9D4E90623194327
:1007000010434FF0FF33C4E90601CDE900014FF07B
:10071000FF32A06A76F0D3FC02224FF0FF31A06ACC
:1007200076F0E8FC01202EF0E5F94FF4007300228A
:100730002649A06A76F026FEB0F5007F36D1002368
:100740009422CDE9073309933C23CDE90332059385
:100750009623A06A03A906933AF030FA25B3287CC1
:100760002EF0D4FE0546E0B9A06A76F0E5FF2EF043
:1007700075FE2EF0A1F920B14FF4807000212BF00E
:1007800091FC2EF0A9F920B14FF4006000212BF06C
:1007900089FC012076F079F90D4A0E49A06A71F0C2
:1007A00002F928460AB070BDFF20D9E70725F8E70F
:1007B00009D5015520000000C05A0020690345EC0E
:1007C0009484002031F2020888840020888200206E
:1007D0004F1907088F19070870B590B00E460446E8
:1007E00006A909AD81E80C000023179928460F934C
:1007F00045F0E4FB9DF858304FF00001B268204608
:100800000393159B049502939DF850300193079B29
:100810009FED050B0093069B7BF0A9FC284678F022
:10082000FCFA204610B070BD00000000000000007F
:1008300070B590B00E46044606A909AD81E80C00DB
:100840000023179928460F9345F02AFC169B4FF07A
:100850000001B26820460393159B049502939DF80E
:1008600050300193079B9FED060B0093069B7BF096
:10087000A6FD284678F0D1FA204610B070BD00BF22
:10088000000000000000000070B590B00E46044665
:1008900006A909AD81E80C000023179928460F939B
:1008A00047F026FD9DF858304FF00001B268204611
:1008B0000393159B049502939DF850300193079B79
:1008C0009FED050B0093069B78F0AEFD284678F06F
:1008D000A4FA204610B070BD000000000000000027
:1008E00070B590B00E46044606A909AD81E80C002B
:1008F0000023179928460F9347F040FD169B4FF0B1
:100900000001B26820460393159B049502939DF85D
:1009100050300193079B9FED060B0093069B78F0E8
:100920005CFE284678F079FA204610B070BD00BF12
:1009300000000000000000002DE9F04F1F460023DA
:10094000044688464FF0000A4FF0000B2DED028B55
:100950009DB018939F4B13921B681846059382F025
:10096000F7FD0546CDF85C80179B1A782B2A4ED0F0
:100970003BD80D2A34D8082A34D8002A3ED0002388
:100980000A93179E3378302B40F0B080737803F0D1
:10099000DF03582B68D10A9B17A9029720460193C1
:1009A00018AB8D4A009319AB55F0E8FC10F007071F
:1009B000054605D0062F2CD10136002317960A9341
:1009C000139B002B40F08E850A9BEBB152460BF136
:1009D000004343EC102B1DB0BDEC028BBDE8F08F43
:1009E000202ACCD101331793BEE72D2AC7D101228B
:1009F0000A925A1C17925B78002BC2D1139BCDF838
:100A00005C80002B40F06C8552465B46E1E700229B
:100A1000EEE7189A3AB135211AA883F0F4F918993B
:100A2000204655F0CFFF013F042F06D8DFE807F03E
:100A30000A0314170A00DDE91AAB2807C0D54BF0EA
:100A4000004BBDE7DDE91AA3199A23F4801302F2E3
:100A5000334243EA025BF0E7DFF880B1EDE76FF085
:100A6000004B4FF0FF3AE8E7179B5A1C17925B7850
:100A7000302BF9D0002BA3D001234FF000090493B1
:100A80000A22179B4F46CDF81C90089317980678BA
:100A9000A6F13003D9B209292AD92A46059982F04C
:100AA0005FFDA0B3002032463D4603460590652A0F
:100AB00001D0452A18D11DB9049A02439ED00025C1
:100AC000DDF85C8008F10102179298F801202B2ACA
:100AD00075D02D2A7BD04FF0000CA2F130010929EE
:100AE00040F28280CDF85C8000269DE00023C4E7C0
:100AF000082F00F1010007F10107D4BF079902FB9D
:100B000009391790DCBF02FB01330793BEE7179B3F
:100B10005A1917925A5D002F36D03D460590A2F122
:100B20003003092B12D90123C1E7179B01305A1C4E
:100B300017925A78302AF8D0A2F13103082B00F22C
:100B4000D68405900020179B05460893303A00F1A3
:100B5000010313D0059900EB050E19442B460591AE
:100B60000A21734512D12B180135082B05441CDCD2
:100B700007990A2303FB012307930023179A1846BA
:100B8000511C17915278CAE73846D3E7082B04DC8A
:100B9000079E4E4307960133E3E703F1010CBCF1D6
:100BA000100FD8BF01FB09F9F5E7102DDCBF0A23B0
:100BB00003FB0929E1E70023059301237CE74FF0BC
:100BC000000C08F10202179298F8022085E74FF016
:100BD000010CF6E7F01A0908B41609080000F07FC6
:100BE000179A511C17915278302AF9D0A2F131018D
:100BF00008293FF679AFA2F1300E179A0692179A9C
:100C0000511C17915278A2F13006092E37D9069E51
:100C1000891B44F61F66082902DC7645A8BF764684
:100C2000BCF1000F00D07642002D4DD10499014354
:100C30007FF4C6AE002B7FF4E1AE692A27D024DC16
:100C4000492A24D04E2A7FF4D9AE9F4917A882F0B2
:100C500067FF00283FF4D2AE179B1B78282B2DD1BD
:100C60001AAA9A4917A882F06FFF052826D11B9B64
:100C7000DDF868A043F0FF4B4BF4E00BA0E60A213F
:100C800001FB0E2EAEF1300EB9E76E2ADBE790497C
:100C900017A882F045FF00283FF4B0AE179B17A8B5
:100CA0008C49013B179382F03BFF10B9179B01332E
:100CB0001793DFF830B24FF0000A81E6864800F063
:100CC0003FFC5BEC10AB7BE6059B002F08BF2F467B
:100CD000102D0798A6EB0303A846A8BF4FF01008F5
:100CE000069350F0E1FF092D82468B4613DD7B4BC6
:100CF00003EBC80353E9122351F050F882468B46A8
:100D0000484650F0D1FF02460B465046594650F037
:100D10008FFE82468B460F2D38DC069B002B3FF45E
:100D20004FAE24DD162B0BDC6C49524601EBC301A0
:100D30005B46D1E9000151F031F882468B463FE62F
:100D4000C5F12503069A934220DBC5F10F05634CDC
:100D500052465B4604EBC501D1E9000151F01EF893
:100D6000069B5D1B04EBC504D4E90023E3E7069B67
:100D700016330BDB059B504659469E1B574B03EB26
:100D8000C606D6E9002351F033F9D6E7A5EB0808EB
:100D9000069B9844B8F1000F74DD18F00F030AD0D9
:100DA0004E49524601EBC3015B46D1E9000150F0C8
:100DB000F5FF82468B4638F00F084FD0B8F59A7F82
:100DC00022DD00252E46079505952223DFF814B174
:100DD0004FF0000A2360079B002B3FF4F1AD1899F8
:100DE000204655F0EFFD0599204655F0EBFD3146C4
:100DF000204655F0E7FD0799204655F0E3FD2946CA
:100E0000204655F0DFFDDBE5354B4FEA281850460C
:100E10005946049300239946B8F1010F21DC0BB128
:100E200082468B462E4BABF1547B524603EBC909ED
:100E30005B46D9E9000150F0B1FF2A4B0A468246D1
:100E40000B4029498B42BCD8A1F580118B4286BF4B
:100E5000DFF898B04FF0FF3A02F1547B002304937F
:100E600083E018F0010F05D0049BD3E9002350F074
:100E700095FF0123049A09F101094FEA6808083235
:100E80000492C9E7EAD0C8F1000818F00F020AD0AE
:100E9000124B5046594603EBC203D3E9002351F0ED
:100EA000A7F882468B465FEA2818D7D0B8F11F0F03
:100EB0001EDD00252E460795059522234FF0000ADA
:100EC0004FF0000B236086E702440808C8160908A3
:100ED000B1160908571E0908496B0808A81B09081C
:100EE000801B09080000F07F0000A07CFFFFEF7F5F
:100EF00018F0100350465946DFF8A89318BF6A232C
:100F00000493002318F0010F04D0D9E9002350F016
:100F100045FF01235FEA680809F10809F2D10BB126
:100F200082468B46049BC3B1CBF30A525946C2F1A9
:100F30006B03002B11DD1F2B40F32181342B4FF06D
:100F4000000ADBBFC2F14B024FF0FF334FF05C7B76
:100F500003FA02F2D8BF02EA010B00220023504636
:100F6000594651F083F90028A3D1079B3A460899C6
:100F7000204600932B4655F08FFD079000283FF444
:100F800020AF059B00259E1B069B002BB4BF33465C
:100F900000232E460C93069B23EAE3731293079BD0
:100FA0002046596855F0CEFC059000283FF40DAF5F
:100FB000079B0C301A6903F10C010232920082F097
:100FC0005BF91AAA19A920464BEC10AB56F040F871
:100FD00018904BEC18AB00283FF4F7AE01212046E7
:100FE00055F0A4FD064600283FF4EFAE199B049986
:100FF000002BA3EB0108A9BF0C9A129A03EB02097C
:10100000129FB8BFD71A1A9AA14B9044B8BFDDF807
:101010003090C2F1360208F1FF38984580F2C38063
:10102000A3EB080301211F2BA2EB030200F3AE8008
:1010300001FA03F30D930023089309EB0208049BC4
:101040001744C1451F444B46A8BF4346BB42A8BFF7
:101050003B46002BC2BFA8EB0308FF1AA9EB03090C
:101060000C9B002B17DD31461A46204655F01CFE1E
:10107000064600283FF4A9AE0146189A204655F0CE
:101080006BFD0B9000283FF4A0AE1899204655F058
:1010900099FC0B9B1893B8F1000F00F38980069B15
:1010A000002B08DD129A2046059955F0FDFD0590AC
:1010B00000283FF48AAE002F08DD3A460599204605
:1010C00055F04CFE059000283FF47FAEB9F1000FBB
:1010D00008DD31464A46204655F040FE06460028C7
:1010E0003FF473AE059A2046189955F0A7FE0546C1
:1010F00000283FF46AAEC36831460B930023C360F7
:1011000082F032FE00285DDA0B9B53EA0A037FD19E
:10111000CBF31303002B7BD12BF000431B0D1B05DE
:10112000B3F1D66F74D96B6913B92B69012B6FDDDD
:1011300029460122204655F011FE3146054682F02F
:1011400013FE002864DD04995B46524A00297FD0D3
:1011500002EA0B01B1F1D66F7ADCB1F15C7F7FF767
:10116000ACAE4D4B50465946002250F017FE0B4690
:1011700082468B46034304BF222323602FE64FF0B1
:10118000FF3202FA03F303EA0A0AE6E6C8F17F48EF
:101190000D9108F57F0808F57B4808F1E20801FA8F
:1011A00008F3089349E70023089301230D9344E7CC
:1011B00042461899204655F0D1FD189000287FF43A
:1011C0006EAF02E65F466FD10B9ACBF3130342B3C7
:1011D000324A934228D1049B5146EBB12D4B4FF03C
:1011E000FF323B40B3F1D46F19D81B0DC3F16B0331
:1011F00002FA03F3994217D1294B9F4202D10131E0
:101200003FF4E3AD234B4FF0000A3B4003F5801B56
:10121000049B002BA5D1E2E54FF0FF33EAE713462C
:10122000E8E753EA0A038ED0089BDBB13B42EFD0DC
:101230000B9B5046049A5946C3B182F0A5F9024669
:101240000B4651EC180B50F0F3FB82468B46DFE760
:1012500013404FF0FF3AA3F580136FEA135B6FEA78
:101260000B5BD5E70D9B13EA0A0FE0E782F08CF9E0
:1012700002460B4651EC180B50F0D8FB002200231D
:1012800082468B4650F0F2FF0028C1D015E600BF21
:1012900002FCFFFF0000F07F00005039FFFF0F004D
:1012A000FFFFEF7FE01609083146284682F078FDFF
:1012B00000224FF0804310EE100A59EC108B494683
:1012C00050F0E8FF00287AD00B9B002B4AD0002278
:1012D000934B4FF00008DFF84892CDE90823914B7B
:1012E0003B400D930D9A904B9A4240F0B080A7F18D
:1012F000547BDDE908014BEC10ABCDE9080155F05A
:101300002DFEDDE9080153EC102B50F047FD52464D
:101310005B4650F08DFB0B4682498246834A19405A
:10132000914260D918EE903A02F15472934204D17E
:1013300018EE103A01333FF448ADDFF8FCB14FF03E
:10134000FF3A1899204655F03DFB0599204655F087
:1013500039FB3146204655F035FB2946204655F0ED
:1013600031FB1CE6BAF1000F1BD1CBF31303F3B929
:1013700000226B4B4046494650F082FFD0B94046B0
:10138000494600226A4B50F009FD8046894609F122
:101390000043CDF850801593DDE91423CDE90823EF
:1013A0009DE7BAF1010F02D1002F3FF486AD002274
:1013B000604B8EE74FF00008DFF87491E7E75C4B75
:1013C00040464946002250F0E9FC0B9B8046894686
:1013D00033B901F100430E900F93DDE90E23DDE7F1
:1013E000CDE90E89F9E703F1547B049B002BA8D1CA
:1013F0002BF000430D9A1B0D1B059A42A1D14046CC
:10140000494656F04DFC50F09BFC02460B464046C8
:10141000494650F00BFBCBF313030B9A804643EA8B
:101420000A038946134355D035A3D3E9002350F06E
:1014300027FF00287FF4D3AC4046494632A3D3E9C6
:10144000002350F03BFF00283FF47BAFC7E4049B30
:1014500033B30D9BB3F1D46F22D8404649462CA339
:10146000D3E9002350F016FFA0B14946404650F0A2
:101470002FFF012838BF012050F016FC0B9B80463F
:10148000894623BB01F1004310901193DDE910233D
:10149000CDE90823099B0D9A03F1D6639B1A0993A2
:1014A000B0EE480AF0EE680ADDE90801CDE908016E
:1014B00055F054FDDDE9080153EC102B50F06EFCA3
:1014C00053EC182B50F0B4FA82468B468DE7CDE9E9
:1014D0001089DBE710A3D3E9002350F0D1FEB2E777
:1014E00000230A93179B139A1360FFF76DBA652ABE
:1014F0003FF461AB452A3FF45EAB0123FFF796BB97
:101500009535A094FFFFDF3F35E5AF350000E03FA4
:101510000000C0FFFFFFDF419535A094FFFFCF3FE4
:101520000000F03F0000F07F0000E07FFFFF9F7CA5
:101530000000E03F0000F0BFFFFFEF7F0000000071
:101540009FED010B704700BF000000000000F87F16
:101550002DE9F04F1D460023894683462DED048B6F
:10156000D3B019930B9256F017FB03681B781693B0
:10157000B9F80C301C061AD5D9F81030BBB9402187
:10158000584652F0ADF8C9F80000C9F8100058B933
:101590000C23CBF800304FF0FF330D930D9853B070
:1015A000BDEC048BBDE8F08F4023C9F81430002354
:1015B0009FED8D7B0F931193B0EE478AF0EE678A13
:1015C0000D930B9B1C4653F8042B0AB1252AF9D125
:1015D0000B9BA3420DD0E61A0B9A49465846334658
:1015E00082F07BFC013000F0E8800D9B03EBA6034A
:1015F0000D932368002B00F0E0800021221D0A20BB
:101600004FF0FF340E460F4615910C9152F8043BF3
:1016100009930B92099B392B4CD81F2B4FD9099B4F
:10162000203B192B4AD8DFE803F06B494970494940
:1016300049494949736C497A7D49989B9B9B9B9B7F
:101640009B9B9B9B332B39D8DFE813F0EB003800D2
:10165000EB0038003800380038009D0038003800B2
:1016600038003800380038003800380038003800BA
:1016700038002103380038003800380038003800BE
:101680003800380038003800A600D700EB00EB0027
:10169000EB00A000D70038003800A3003800890212
:1016A0009A02A702A3003800C602380016033800C9
:1016B00038004200099B453B332BC3D911B1099B2C
:1016C000002B7AD0099B00200A952A93159081E07F
:1016D00001B11596464B2A460F93F80652F8043B83
:1016E0000A9202D4790648BF9BB2FA0706D52BB1FD
:1016F000302247F002071A92099A1B9202225AE2FC
:101700000EB9099E01210B9A80E747F00107FAE71D
:1017100055F8043B002B0C93F5DA5B420C9347F031
:101720000407F0E70B9A52F8043B2A2B099312D1D5
:1017300055F8044B0B9244EAE474E4E700FB0434EC
:1017400052F8043B0993099B303B092BF6D944EA34
:10175000E4740B925EE70024F5E747F08007D2E7D8
:1017600000230C930C9A099B00FB0233303B0C9333
:101770000B9B1A4652F8043B0993099B0B92303B92
:10178000092BEFD946E747F00807BCE747F04007C9
:10179000B9E747F01007B6E701B115962B1DF8061B
:1017A0000A9327D4286851F0D1F9411C0ED1B9F819
:1017B0000C3043F04003A9F80C30B9F80C3013F0AA
:1017C000400F0D9B18BF4FF0FF33E6E62A90002034
:1017D0002B90159080460124064605460DF1A80A77
:1017E00008E100BFAFF3008000000000000000002F
:1017F000881D09082B682A93E9E701B115962B1D6E
:10180000FA060A9307D52B68002B02DA2D225B42D9
:1018100015920122D1E117F0400F2B6818BF1BB2BF
:10182000F2E701B1159607354FF0FF3225F00703B7
:10183000B3EC027BB0EE478AF0EE678A0A93B0EE13
:10184000479A18EE903A23F0004309EE903AA54BE0
:1018500051EC190B56F0E6F9F0B94FF0FF32A14BFD
:1018600051EC190B50F016FDB0B90022002351ECD9
:10187000180B50F005FD08B12D2315939A4B9B488A
:10188000099A27F080074FF000080324472A94BFE5
:101890009A4682464646D1E353EC182B51EC180B7E
:1018A00056F0C0F940B118EE903A9148002BBCBFF9
:1018B0002D2315938F4BE3E7631C00F00D81099BEB
:1018C00023F02003472B02D1002C08BF012447F44A
:1018D00080730DF1A80818AE17AD0E932823584653
:1018E000CDF81880079319AB03960593099B0295D1
:1018F00004930E9BCDE9004353EC182B82F01AFCA5
:101900004045824640F0EA801999282940F3E68054
:101910008900584651F0E4FE804600283FF447AF66
:10192000199B0295CDE9060319AB58460593099B0F
:10193000CDE903630E9BCDE9004353EC182B82F0F5
:10194000F9FB8246099B189D23F02003472B40F0AA
:10195000D580EE1C199B02DBAC4280F2EB80099B28
:10196000023B09936B1E099A002B18931C92BABF75
:10197000C5F101032D222B22092B1D9240F3D180AA
:101980002AA80A250246043893FBF5F405FB143116
:10199000303142F8041C194623466329F2DC303307
:1019A000A2F1080140F8043C1EA82AAB9942C0F0FD
:1019B000B3800DF1B304A41A0B3A24F0030493424C
:1019C00038BF00241EAB1C441CA8241AA31011937A
:1019D000199B012B03EBA40402DC17F0010501D0D5
:1019E00001340025179E002E00F07D812D230E9FCF
:1019F00000261593A6423346B8BF23460E93159B87
:101A000013B10E9B01330E9317F0020312931EBF06
:101A10000E9B02330E9317F08403139300F065813D
:101A2000159B43B1042315AA4946584682F055FA3E
:101A3000013000F06D81129B43B108231AAA494678
:101A4000584682F04AFA013000F06281139B802BE5
:101A500013D10C9B0E9A9B1A002B10930DDD109B3B
:101A6000254A102B00F369819B00234A49465846BA
:101A700082F033FA013000F04B81361B002E0CDD72
:101A8000102E1D4A00F36481B3001B4A4946584694
:101A900082F023FA013000F03B81F90500F1618109
:101AA000A30052464946584682F017FA013000F02A
:101AB0002F817A0700F17F820E99DDE90C238A429B
:101AC000ACBF9B185B180D93B8F1000F56D0414680
:101AD000584651F0B9FD51E00624F8E64FF00008F1
:101AE00030E700BFFFFFEF7F041D0908141D090840
:101AF000341D0908241D0908141E0908099B662BBA
:101B00007FF430AF07F00103002D43EA04030EDD3C
:101B1000FBB101342C4465E751F8044B40F8044B09
:101B200044E7302220AC13441E921F934CE793B13C
:101B3000023457E79D4205DBFC070ED56C1C67237A
:101B400009934FE7002DD4BFC5F1020401241C44C2
:101B5000F5E72C4646E7012444E72C46EFE701B1C0
:101B600015962B1DF8060A9303D52B680D9A1A605B
:101B700004E07906F9D52B680D9A1A800A9D20E5B4
:101B80002A4617F0100152F8043B0A9203D117F0CD
:101B9000400210D09BB200220DE02A46782147F087
:101BA000020752F8043B09910A923022CDE91A212A
:101BB000A44A0F92022200211591661C00F018829F
:101BC00027F08001002B40F01782002C00F083806A
:101BD000012A40F0148260E02B46002617F0100521
:101BE00053F804AB15960A932DD1621C14D02246EB
:101BF00029465046264681F021FB08B1A0EB0A0693
:101C0000272E0ED9711C5846890051F069FD002815
:101C10003FF4CDAD804607E0504681F099FC064682
:101C2000EEE74FF000082AA834460023B34204D15F
:101C30000026824640F82360DCE61AF8032040F8CC
:101C400023200133F2E7631C11D02246314650466F
:101C500081F010FE804600283FF41CAEA0EB0A087D
:101C60004FEAA8084445A8BF4446B04612E650468D
:101C700081F06FFD0446F8E72A46FE0652F8043B61
:101C80000A9202D47D0600D59BB2012293E701B1EE
:101C900015966D4B1FE5092B04D830330DF5A27A4C
:101CA0005193C3E10DF5A47A0A25B3FBF5F005FBCA
:101CB000103230324AF8042D1A460346092AF4D865
:101CC000B4E103F00F020F981B0950F822204AF8E4
:101CD000042DF6D1AAE11AB9F80701D53023DDE7C2
:101CE0000DF5A47AA2E10E9F84E60C9B0E9A9B1A36
:101CF000002B10937FF794AE109B102B11DC9B00F0
:101D0000524A4946584682F0E8F801307FF488AEDE
:101D1000B8F1000F3FF451AD4146584651F094FCE4
:101D20004BE54023494A4946584682F0D6F80130EF
:101D3000EED0109B103B1093DEE7402349465846F7
:101D400082F0CBF80130E3D0109B103B109386E675
:101D500040234946584682F0C0F80130D8D0103EA2
:101D60008EE6099B652B40F2E4800022002351ECB3
:101D7000180B50F07BFA58B30423354A49465846AD
:101D800082F0ABF80130C3D0DDE918239A4202DBC0
:101D9000FB077FF58EAE042316AA4946584682F00B
:101DA0009CF80130B4D0199C013C002C7FF781AE27
:101DB000284D102C02DCA300264A73E640232A4655
:101DC0004946584682F089F80130A1D0103CF0E72E
:101DD000189B002B40DC04231D4A4946584682F0DC
:101DE0007CF8013094D0DDE91832134307F001028A
:101DF00013433FF45EAE042316AA4946584682F0C8
:101E00006CF8013084D0189C002C0CDA6442114D1F
:101E1000102C0BDCA3000F4A4946584682F05DF8AF
:101E200001303FF475AF199B9B003AE640232A46E8
:101E30004946584682F051F801303FF469AF103CF2
:101E4000E6E700BF881D0908441D0908D41D0908DC
:101E5000CC1D0908141E0908199C44F31D04AC424A
:101E6000A8BF2C46002C1FDC002CACBF2E1B2E461E
:101E7000002E0BDD724C102E1FDCB300704A494659
:101E8000584682F02AF801303FF442AFAD00DDE958
:101E900018239A421CDA042316AA4946584682F0AF
:101EA0001CF8013016D133E7A30052464946584684
:101EB00082F013F80130D7D12AE740232246494661
:101EC000584682F00AF801303FF422AF103ED2E7C4
:101ED000FE07E0D4199BC5EB8304A210189C1C1BC1
:101EE0009442A8BF1446002C09DDA3000AEB0502AA
:101EF0004946584681F0F1FF01303FF409AF002C0C
:101F0000DDE91835A5EB0305A8BF2D1B002D7FF7D4
:101F1000D0AD4B4C102D01DCAB004DE740232246E9
:101F20004946584681F0D9FF01303FF4F1AE103DEB
:101F3000F0E7199B524649465846012B4FF00403DF
:101F400001DCFC071BD581F0C8FF01303FF4E0AE97
:101F5000042316AA4946584681F0BFFF01303FF4DA
:101F6000D7AE199C00220023013C51EC180B50F015
:101F70007DF968B9A3000AF104024946584681F088
:101F8000ACFF01303FF4C4AE119B1CAA9B0089E555
:101F9000002CF9DD2A4D102C02DCA300284AECE7C6
:101FA00040232A464946584681F097FF01303FF4C6
:101FB000AFAE103CEFE70C9B0E9A9C1A002C7FF7FB
:101FC0007BAD102C09DCA3001E4A4946584681F01F
:101FD00084FF01307FF470AD9AE64023194A4946E8
:101FE000584681F07AFF01303FF492AE103CE8E7AA
:101FF0003946002B3FF4ECAD012A3FF44CAE022AE7
:102000000DF5A47A3FF45DAE03F00702DB085046FD
:1020100002F130024AF8042DF6D1CD0706D5302A58
:1020200004D030234AF8043CA0F1080A52AB2646FB
:102030000F464FF00008A3EB0A04A4104546D9E46C
:10204000141E0908D41D09082DE9F04F456A0446FD
:1020500010EE10AA2DED048B93B057EC106BDDF849
:102060008080BB46069109920C9375B9102051F0FF
:10207000B3FA0246606220B9A74BEA21A74850F0A4
:1020800047FDC0E901550560C560636A196851B133
:102090005A680123204693404A608B6054F092FCBA
:1020A000636A00221A603B1EADBF0023012223F0A9
:1020B000004BC8F800309A4BB8BFC8F8002033EA8C
:1020C0000B031BD142F20F730C9A1360CBF3130373
:1020D000334300F08F85219B63B9924B22E0924BF2
:1020E00001930833219A1360019813B0BDEC048B5F
:1020F000BDE8F08F8B4B01930333F3E700220023FD
:102100005046594650F0B2F880464BEC19AB58B1E6
:1021100001230C9A1360219B002B00F068858348F3
:102120001860431E0193DFE7CBF30A5510AA11A9EB
:1021300020464BEC10AB54F08BFF08EE100A002D3C
:1021400000F0828019EE903A5646A5F2FF35CDF8A0
:102150003880C3F3130343F07F5747F4401700223E
:10216000734B304639464FF061FC65A3D3E9002339
:102170004FF014FE64A3D3E900234FF059FC064648
:102180000F4628464FF0A0FD61A3D3E900234FF08E
:1021900005FE02460B46304639464FF049FC0646DE
:1021A0000F4655F055FD0022009000233046394679
:1021B00050F066F850B100984FF086FD32463B462D
:1021C00050F054F810B9009B013B0093009B162B74
:1021D00059D8009A574B03EBC20351EC190BD3E9C2
:1021E000002350F04DF800284FD0009B013B009396
:1021F00000230B93109B5D1B6B1E059349BFC5F11C
:10220000010300230493002354BF04930593009B10
:10221000002B3CDB059B009A13440A920593002394
:102220000793069B092B00F28980052BC5BF043B51
:10223000002501250693069B023B032B00F28980B3
:10224000DFE803F02E3B395ADDE910531D4405F257
:102250003243202BC6BFC3F1400305F21240C3F145
:10226000200305F1FF35C5BF0BFA03F326FA00F092
:1022700006FA03F018434FF017FD01230646A1F1BB
:10228000F8770E936BE70123B3E70B90B2E7049B5B
:10229000009A9B1A04935342079300230A93C0E7C2
:1022A00000230893099B002B56DC01231A46CDE935
:1022B000023309920CE00123F3E70023099A089303
:1022C000009B134402930133012B0393B8BF0123F6
:1022D0000022606A4260042202F1140641689E42B4
:1022E0003ED9204654F02EFB019000283CD1124BE1
:1022F00002464FF4D571C1E60123DFE7AFF300805A
:1023000061436F63A787D23FB3C8608B288AC63FFB
:10231000FB799F501344D33FAC0D0908611E090897
:102320000000F07F5D1E0908541E0908811C090881
:102330000000F83FA81B0908581A090801250023C6
:10234000089506934FF0FF330022CDE902331223A4
:10235000AFE701230893F5E7099BCDE90233B7E71F
:10236000013152004160B7E7636A019A1A60039B2A
:102370000E2B00F29D80002D00F09A80009B002B18
:1023800032DD03F00F03B64A02EBC303D3E9008941
:10239000009BD8054FEA231716D5B24B07F00F075D
:1023A0000325D3E9082351EC190B4FF021FE824697
:1023B0008B46AC4E57B942464B46504659464FF0B5
:1023C00017FE82468B4628E00225F2E7F90708D57A
:1023D000404649460135D6E900234FF0DFFC8046F0
:1023E00089467F100836E5E700F09B80009B0225B8
:1023F0009C4F5E429A4B06F00F02361103EBC2036C
:1024000051EC190BD3E900234FF0C8FC002382469E
:102410008B46002E7AD1002BD3D10B9B002B00F0E2
:1024200082800022904B504659464FF029FF0028E9
:1024300079D0039B002B76D0029B002B36DD009BCE
:102440005046594600225F1E884B4FF0A7FC0135CD
:1024500082468B46029E2846D0464FF035FC5246B7
:102460005B46D9464FF09AFC0022814B4FF0E0FAD0
:102470008246A1F1507B002E58D100227D4B404670
:1024800049464FF0D3FA52465B46804689464FF0A4
:1024900015FF002840F0938252460BF1004340465E
:1024A00049464FF0EDFE002840F087825BEC19AB07
:1024B000119B002BC0F24881009A0E2A00F3448140
:1024C000674B03EBC203D3E90089099B002B80F221
:1024D000D580039B002B00F3D18040F06D82002259
:1024E000644B404649464FF059FC52465B464FF01C
:1024F000DBFE039E3746002840F043823123019DD6
:1025000005F8013B009B013300933EE2F20705D53D
:102510000135D7E900234FF041FC0123761008373D
:1025200077E7022579E7009F039E94E701994C4BDA
:10253000314403EBC6030D91089953E902230029A6
:1025400043D000204C494FF053FD52465B464FF0BC
:102550006DFA019D82468B464946404655F078FB10
:1025600006464FF0B1FB024630360B464046494620
:102570004FF05CFA52465B4605F8016B804689468F
:102580004FF07EFE002863D142464B46002036497C
:102590004FF04CFA52465B464FF072FE002840F076
:1025A000B5800D9B9D4281D00022304B504659464C
:1025B0004FF0F4FB002282468B46404649462B4BA7
:1025C0004FF0ECFB80468946C6E7504659464FF02F
:1025D000E5FB0D9B82468B46019D0F934946404685
:1025E00055F036FB06464FF06FFB02460B46404661
:1025F000494630364FF01AFA0D9B05F8016B8046BC
:102600009D4289464FF0000224D11B4B504659464B
:102610004FF00EFA02460B46404649464FF04EFE3A
:10262000002873D152465B46002013494FF0FEF953
:1026300002460B46404649464FF022FE00283FF432
:1026400035AF0F9D6B1E0F9315F8013C302BF8D062
:10265000009749E0054B4FF0A1FB80468946BDE756
:10266000A81B0908801B09080000F03F0000244057
:1026700000001C40000014400000E03F56465F464A
:10268000019D42464B46304639464FF0B1FC55F06D
:10269000DFFA82464FF018FB42464B464FF07EFB76
:1026A000024630460AF130060B4639464FF0BEF975
:1026B00005F8016B019E0246039F0B46AE1BB74215
:1026C00035D14FF0B5F942464B4606460F464FF01E
:1026D000F5FDD0B942464B46304639464FF0C6FD6F
:1026E00010B11AF0010F10D1204618EE101A54F054
:1026F00069F9002300982B7001300C9B1860219B16
:10270000002B3FF4F1AC1D60EEE4009F2B461D460C
:1027100013F8012D392A06D1019A9A42F7D13022B5
:10272000019901370A701A7801321A7090E7002275
:10273000A44B4FF033FB0022002306460F464FF018
:1027400095FD00289DD0CFE7089A002A00F0D5809B
:10275000069A012A00F3B9800E9A002A00F0B1808F
:1027600003F23343079E049D049A012120461A4434
:102770000492059A1A44059254F0D8F90746002DA0
:102780000CDD059B002B09DDAB42049AA8BF2B464C
:10279000D21AED1A0492059AD31A0593079B1BB31C
:1027A000089B002B00F0AD80002E13DD3946324629
:1027B000204654F079FA18EE102A014607462046C2
:1027C00054F0CAF9804618EE101A204608EE108A16
:1027D00054F0F8F8079B9A1B06D018EE101A204602
:1027E00054F062FA08EE100A0121204654F09EF9D6
:1027F0000A9B0646002B40F386801A460146204677
:1028000054F052FA069B0646012B7FDD4FF000087C
:10281000336906EB8303186981F057FAC0F1200091
:10282000059B184410F01F0000F09180C0F12003B8
:10283000042B40F38980C0F11C00049B0544034431
:102840000493059B03440593049B002B07DD18EEBE
:10285000101A1A46204654F081FA08EE100A059B19
:10286000002B05DD31461A46204654F077FA06461D
:102870000B9B002B6DD0314618EE100A81F074FAD4
:10288000002866DA009B18EE101A0A222046013B47
:102890000093002354F0B8F8089B08EE100A002BB0
:1028A00000F0AF81002339460A22204654F0ACF8EC
:1028B000029B0746002B00F38D80069B022B50DC09
:1028C00088E0109BC3F136034CE7039B5E1E079B19
:1028D000B342B7BF079B9E1B0796F21ABFBF0A9B66
:1028E00000269B180A93039B002BB7BFDDE9032347
:1028F000DDE903359D1A002336E7079E049D089FF6
:102900003DE7079A69E7069B012B18DCBAF1000F37
:1029100015D1CBF3130393B92BF000431B0D1B050B
:1029200083B1049B4FF0010801330493059B0133ED
:1029300005930A9B002B7FF46BAF012070E74FF0EB
:102940000008F6E79846F4E73FF47EAF18461C30DF
:1029500073E7039B002B37DC069B022B34DD039BC4
:102960000293029B6BB931460522204654F04CF885
:102970000146064618EE100A81F0F6F900283FF7E6
:10298000BDAD099B019DDB4300934FF0000831462C
:10299000204654F017F8002F3FF4A6AEB8F1000F10
:1029A00005D0B84503D04146204654F00BF83946CF
:1029B000204654F007F897E600263746E1E70097EF
:1029C00037469BE500002440089B002B00F0CA809E
:1029D000039B0293002D05DD39462A46204654F01C
:1029E000BDF90746B8F1000F5BD07968204653F077
:1029F000A9FF054628B9874B024640F2EA21FFF7B6
:102A00003DBB3A6907F10C010C300232920080F0B4
:102A100033FC01222946204654F0A0F9019BB84618
:102A2000074603F10109DDE90123134405930AF088
:102A300001030493314618EE100A81F0ECFB414685
:102A4000029000F1300A18EE100A09F1FF3B81F004
:102A50008BF93A4603903146204654F0EFF9C268AC
:102A6000054602BB014618EE100A81F07DF90246C8
:102A700029462046079253F0A5FF4D46DDE9063270
:102A800043EA0201049B0B430FD1BAF1390F2AD05C
:102A9000039B002B02DD029B03F1310A8BF800A09F
:102AA00075E73846BAE70122E2E7039B002B04DB17
:102AB00006990B4304990B4322D1002AEEDD18EE50
:102AC000101A0122204654F049F9314608EE100A46
:102AD00081F04AF9002803DCE0D11AF0010FDDD0C3
:102AE000BAF1390FD7D139238BF800302B461D4668
:102AF000013B15F8012C392A70D001321A7046E7D3
:102B0000002A07DDBAF1390FEDD00AF101038BF885
:102B100000303CE7059B09F801AC994546D018EE1A
:102B2000101A00230A22204653F06EFFB84508EE23
:102B3000100A4FF000034FF00A024146204606D12A
:102B400053F062FF8046074609F1010972E753F02E
:102B50005BFF3946804600230A22204653F054FF8B
:102B60000746F1E7039B0293019D314618EE100AD8
:102B700081F051FB019B00F1300A05F801ABEA1A24
:102B8000029B934209DD18EE101A00230A22204608
:102B900053F03AFF08EE100AE7E7029B4FF00008F7
:102BA000002BCCBF1D460125019B1D4418EE101AB9
:102BB0000122204654F0D2F8314608EE100A81F086
:102BC000D3F8002892DC02D11AF0010F8ED12B46E7
:102BD0001D4613F8012D302AFAD0D8E6019A9A4200
:102BE00085D1009B0133009331231370CFE60A4B4C
:102BF000FFF798BA219B002B7FF471AA074BFFF7D0
:102C000091BA029B002BAFDC069B022B3FF7A9AECB
:102C1000AAE700BF581A0908801C0908541E0908B1
:102C200010B5054C237833B9044B13B1044800E0C8
:102C300000BF0123237010BD1860002000000000B9
:102C4000E01E090808B5034B1BB10349034800E027
:102C500000BF08BD000000001C600020E01E090845
:102C6000A3F5803A704700BF174B002B08BF134BEA
:102C70009D46FFF7F5FF00218B460F461348144A87
:102C8000121A80F020FB0E4B002B00D098470D4B02
:102C9000002B00D098470020002104000D000D48B3
:102CA000002802D00C4800E000BF50F0C1FB20001B
:102CB00029006BF073FE4FF0AFFF00BF000008006B
:102CC000000000000000000000120020A81F0020EB
:102CD00000AD0020000000000000000008B5134B0C
:102CE000A8220021184680F0EEFA03221049026162
:102CF000426100F1A8028161C2614FF44072026238
:102D00000022034682624262C262016600F56A7175
:102D10004166084982660267C266426711F8010986
:102D200098540132102AF9D108BD00BF001C0020C0
:102D3000704308088843080870B50D4C0546237891
:102D40000E460BB9FFF7CAFF022D0DD8EFF3118322
:102D50004FF0200181F31188182000FB0544E66242
:102D600083F31188002070BD4FF0FF30FBE700BFF8
:102D7000001C00202DE9F84F0F461646834600251B
:102D8000DFF8949002F1FF3AD8461BF8014BA4B348
:102D90005C2C24D19BF80020A2F10903DBB2172B95
:102DA0000DD95C2A0FD1404680F0D2FB594602462D
:102DB000404680F06EFA1BF8013C23B9E4E729FA9B
:102DC00003F3DB07EFD41DB11BF8023C002BDBD172
:102DD000554511D06B1C47F82580DDB2D4E7093C7E
:102DE000E4B2172CEFD829FA04F4E44314F00104F8
:102DF000E9D10BF8014CC7E70724721BD2B292004D
:102E0000B54288BF0022002107EB850080F05BFA05
:102E10002046BDE8F88F00BF130080002DE9F3477E
:102E20000E46044608B30378302B18D1437803F0DC
:102E3000DF03582B13D10127023400224FF09939B8
:102E400015464FF00A08DFF870A020784FB10DF159
:102E5000070154F05BFFA8B102B0BDE8F08700277E
:102E6000EBE73038C0B2092801D90720F4E79145D3
:102E70007AEB05038DF80700F7D3A2FB082308FBC4
:102E8000053306E0B5F1805FEFD22B0143EA127300
:102E900012019DF807100020891853F1000328BF84
:102EA00001200A461D460028DFD114F8010F002832
:102EB000CBD1C6E90013CFE7999999194FF6FF7264
:102EC00010B500230264024604460A49C0E90E33E5
:102ED00080F84430836442F84C1F4265064A03661A
:102EE000C0E9162000F1580104485CF03DFE204680
:102EF00010BD00BFDD2F00084181050814360020F9
:102F0000F0B58DB004461DF0C3F900230646CDE9A7
:102F100009330B93234601AD04F110072A461868C4
:102F20005968083303C2BB421546F7D105AD03F11A
:102F300010072A4618685968083303C2BB42154671
:102F4000F7D194F8363094F837208DF82C309DF86E
:102F50002D30002162F3C3031E488DF82D300DF093
:102F600019FB054640B3304654F0FBFF04220090A5
:102F70006946284662F047F888B9A18DEB8B8B42F1
:102F800011D315482946B0F8703601AAA4F84A3082
:102F900000F26C60B4F848300DF006FB48B12846EA
:102FA00061F0F8FE08E0284661F0F8FE0028E8D05D
:102FB000F5E7238F01332387E38D04F14C00013BB8
:102FC0009BB2E38523B1216B62F07AFC0DB0F0BDBA
:102FD000A18EF9E714360020A82F0020014855F0F3
:102FE00021B800BF0858002043680BB101481847BA
:102FF00018467047A81F002010B50A460C468AB034
:10300000202307210B4812F0ABFF80B1202120467E
:1030100069F05DFF18B12021204669F058FF202398
:10302000224600930721034802AB12F0A9FF0AB021
:1030300010BD00BFE41F00202DE9F041B4B01F46D1
:103040003A9C2E4B05460E4690460393002C47D0E3
:10305000237814A88DF80B3061F08EFB284604A964
:10306000FFF7CAFF4FF48075BFB214A861F099FB57
:10307000327C31460732D20814A861F098FBB8F1CF
:10308000000F04D03A46414614A861F090FB042298
:1030900003A914A861F08BFB01220DF10B0114A808
:1030A00061F085FB202204A914A861F080FB0CA923
:1030B00014A861F09FFB06F108000CA901905DF0D7
:1030C00040F901985DF0A2F960B19DF80B30013D27
:1030D0000133ADB28DF80B30002DC6D1012406E0CE
:1030E0002346B6E71CB19DF80B302370044614A8A4
:1030F00061F04FFB204634B0BDE8F0817770616E1F
:103100002DE9F047044688070E468AB037D54FF0C0
:103110000009DFF82481DFF81CA104F1080504F19F
:103120006807BD422BD0AB7C99071DD52378EBB146
:10313000CDF80C90504604AA03A959F0DCFBA8B9BD
:103140009DF822305A07F5D49DF821301B07F1D5A0
:10315000204604A9FFF748FF0028EBD1294604A820
:1031600054F0FCFF0028E5D01835DAE72946404640
:103170000EF0A8F8AB7C6FF34103AB74F4E7F507EE
:1031800053D52378002B50D00023294F294E039389
:1031900007F5E568304604AA03A959F0ACFB0028FE
:1031A00043D19DF822305807F4D49DF821301907F7
:1031B000F0D59DF82030402BECD1204604A9FFF734
:1031C00013FF0028E6D1D7F828571DB3294604A8D5
:1031D00054F0C4FF0028DDD16D69F6E79DF8212089
:1031E0002846D3090CBF80219DF82010C2F380022D
:1031F0005DF094FD284604A95DF0A7F90023294657
:103200001A4620460093FFF717FF294640460EF066
:103210001FF8BFE704F1080504F168039D42B9D027
:10322000AA7C9207DAD51835F8E70AB0BDE8F0872E
:10323000A82F00203C540020D03600202DE9F0417A
:10324000D2E9007506460C4600F5816800F20C4193
:1032500006F2144C00F5826043466DB93FB1474514
:1032600008D08F42034602D087425AD163461F4698
:103270001D68F1E70B46FAE74FF6FF73698A2046AF
:10328000994217BF43F27803002303EB4113264909
:1032900018BF5B18C2E9007300212C2280F013F8DC
:1032A0002B46A44605F1100E62461868596808338B
:1032B00003C273459446F7D12B8A47452382E37CAA
:1032C00019D143F00103E3746B69E27C013318BF49
:1032D000012363F34102E2746B695A1C09D06361F4
:1032E000124904F118005DF00AF9AB692362EB6939
:1032F0006362002016E006F20C4297420AD10122D6
:10330000A2742A7E62F30003E374AB8A2385EB8AFE
:103310006385EEE706F58266B7420CBF0222032200
:10332000EEE71720BDE8F081A81F002088410020AB
:1033300008B9086870474FF6FF72438A93421FBF6F
:1033400043F2780000EB4310024BC01808BF002086
:10335000704700BFA81F00202DE9F04F0025174639
:10336000A8464FF6FF7943F2780A87B01E4600F56B
:103370008163029300F20C430393DFF84CB000F535
:10338000826300F214400493059002AB53F8253099
:103390001C683B60C6F8008074B110222046019181
:1033A0007FF05AFF60B13460648A01994C4503D0C4
:1033B0000AEB44145C44EFE70135042DE5D1002409
:1033C000204607B0BDE8F08FA81F0020F0B50E46DC
:1033D000002189B0154602A81222CDE900117FF024
:1033E00072FF104B93F88030DB0716D50E4F6946FD
:1033F000384602AA0BF0E0F9044670B99DF81A307D
:10340000012BF4D11022304602A97FF025FF0028BD
:10341000EDD1BDF81C302B8000E01724204609B008
:10342000F0BD00BFA83F0020B455002030B58FB0DC
:103430002C220C4603A800217FF045FF4FF2BF036A
:1034400002211348ADF82E3062F0CCFC0546E8B1FD
:1034500022461023002162F0CBFB044650B903A89A
:103460005AF0B2FF234600942946094803AA12F0F5
:1034700055FF04460221074862F095F91CB115B1C9
:10348000284661F087FC20460FB030BD0324F1E7E9
:10349000B0370020D41F0020F0B58FB00F4616467D
:1034A00000212C2203A81D467FF00DFF4FF2BF0321
:1034B0001E491F48ADF82E3012F088FE044670B346
:1034C000B5FA85F10222490963F075F900200CF084
:1034D0001BFD0146204663F027FAE8B9204663F059
:1034E00041FA0146C0B910233A46204662F080FBFB
:1034F00090B9082332460321204662F079FB58B97F
:103500007DB903A85AF060FF0023214608480093C4
:1035100003AA12F003FF10B1204661F03BFC0FB08C
:10352000F0BD294603A85AF059FFEDE7884908087D
:10353000B037002070B501F1310323F001035E784C
:103540000546022E0C468EB033D11B7813F0300F97
:1035500006D11378FF2B03D04423304863F037F8AB
:1035600010230021204606AA62F027FB08BB08238F
:103570006A460321204662F020FBD0B9284B294E31
:10358000D3F82847E4B11022204606A97FF064FE54
:1035900028B90822694630467FF05EFE08B96469A2
:1035A000F0E72146204863F0F3FB20B11F4855F0B7
:1035B000CFF90EB070BD21461D480DF083FEF8E72F
:1035C000684602A95CF0D5FE22461A4904A854F0C8
:1035D000DCFF049C002CECD0A37F9B0619D40822AE
:1035E00020460DEB02017FF037FE90B1204606A980
:1035F0000CF008FC68B9A28B0F480AA904F092FBF2
:103600000028D6D16A4628460AAB06A9FFF744FF30
:10361000CFE704A800F028FCDBE700BFB0370020AC
:10362000A82F002078410020645600208C560020EE
:10363000D0360020A81F0020C83F0020F0B58FB072
:103640000F46164600212C2203A81D467FF03BFEA4
:103650004FF2BF0301211B48ADF82E3062F0B4FBDE
:10366000044628B310233A46002162F0C1FAE0B9BB
:10367000082332460321204662F0BAFAA8B912485C
:1036800004F0D4FA02210246204662F0D4FA60B96E
:1036900085B9149903A85AF0A1FE002321460948D0
:1036A000009303AA12F03AFE10B1204661F072FBBB
:1036B0000FB0F0BD062120462A6862F0C8FA002843
:1036C000E7D0F2E7B0370020C83F002070B50646CB
:1036D0008AB008460D46144663F08DF8A8B1284616
:1036E0001023002106AA62F068FA054668B91A4854
:1036F00006A95DF0E4FA024648B12B461034174A99
:103700000094304606A9FFF799FF0AB070BD14492E
:1037100004A854F03AFF049D002DF6D0AB7F9B0621
:1037200016D4EB7F032B13D8284606A90CF0C0FB58
:1037300070B11CF0ADFDAB681034C31A4FF47A7051
:10374000B3FBF0F30094039305F1600203ABD8E7F9
:1037500004A800F089FBDEE7D03600207841002085
:10376000A81F002029B1044BC91AC1F34F1141828F
:1037700070474FF6FF71FAE72050002002686AB1E7
:103780004FF6FF73518A994217BF43F27803002323
:1037900003EB4113024918BF5B18036010467047E2
:1037A000A81F00200A4610B511B9FFF7E7FF10BDAA
:1037B0004FF6FF704C8A8442F9D00A4B03F5405112
:1037C00001EB4411B1F88A10BDE8104081421ABFE4
:1037D00003EB411303F541510021104618BF383166
:1037E000FFF7C0BFA81F002070B5044615460E465F
:1037F0001046194604F58264FFF7D4FFA54206D1AE
:103800003146BDE870400222014857F089B970BDC9
:10381000D03E002000232DE9F04104464FF6FF770B
:10382000061D436000F1080500F58168A84506D033
:1038300029466F82304654F029FD2035F6E70023F3
:103840000B4AC4F80834C4F80C34C4F81034C4F873
:103850001434C4F81824C4F81C44C4F8203404F503
:10386000836104485CF080F92046BDE8F08100BF28
:1038700091830508143600202DE9F043042587B014
:1038800000F58163029300F20C43039300F5826616
:1038900000F21443DFF838800496059302AF441910
:1038A00057F8049B4846FFF769FF014658B14E455B
:1038B00005D101900222404657F032F90199204685
:1038C00054F0E4FCEEE7013DEAD107B0BDE8F08337
:1038D000D03E00202DE9F341164601AB6A4605466D
:1038E0000F46FFF739FD0446F8B1009805F58168E9
:1038F000804503D005F20C45A84205D1238AB34286
:1039000000D02682002011E00199FFF74BFF4FF015
:10391000FF33214640462682636154F0B7FC002203
:103920003946044857F0FCF8ECE7172002B0BDE830
:10393000F08100BFD03E00202DE9F04F07468DB04A
:1039400008460C46904662F048FF002841D01023FC
:103950000021204608AA62F030F9002839D106AECD
:10396000082332460321204662F027F988BB022152
:1039700020460DF10A0262F000F9054648BB062117
:10398000204603AA62F009F910B1172821D1039546
:10399000384605AB04AA08A9FFF7DEFC0546C0B10E
:1039A000DDF810B007F5816ADA4500F1180916D183
:1039B00043695A1C019312D00822314648467FF0D1
:1039C0004BFC019B40B100233246384608A9FFF763
:1039D00063FD0DB0BDE8F08F039A9A42F9D296E8E4
:1039E0000300BDF80A302B82039B89E803006B615A
:1039F00058460599FFF7D6FE2946504654F046FC36
:103A0000424621464423044862F0E1FD0022034877
:103A100008A957F085F8DCE7B0370020D03E002039
:103A200003685A8A4FF6FF739A4217BF43F278032E
:103A3000002303EB4213024A18BF9B180360704730
:103A4000A81F00202DE9F341354C984694F88030AA
:103A500006469B070D46174622D50DF10202FFF7D9
:103A6000B5FCE8B13A4629463046FFF733FFB8B116
:103A7000A4F58053B3F8EC3D9F42ADF802300FD06F
:103A8000394604F1200007F095FE48B9BDF8023030
:103A9000434508D10121304654F0ABFB044650B9F0
:103AA00002B0BDE8F081414604F1200007F082FE3B
:103AB0000028EFD1F4E74FF00008D6F80C3406F2F6
:103AC0000C460193019B4BB11B7E1BB908F1010809
:103AD0001FFA88F801A8FFF7A3FFF3E72B46254656
:103AE00003F1100C2A4618685968083303C263456D
:103AF0001546F7D1B8F1010F4FF0000327820BD81C
:103B00002376032302210748A38261F04CFE21465D
:103B1000304654F0BBFBC3E70122A3822276F6E7CE
:103B2000A83F0020D41F0020F7B50446D0F81004A9
:103B3000D4F8141400B34FF6FF7643F27805114A17
:103B4000438AB34203D005EB43101044F8E7FFF774
:103B500009FE0026D4F810340B4FC4F81464019306
:103B6000019D65B129462046FFF760FC6F612E7606
:103B700001A8FFF755FFF3E7C4F81014E9E703B015
:103B8000F0BD00BFA81F002003000F002DE9F34780
:103B9000054600260124D0F80C340193019A5AB14D
:103BA000938A2BB1013B9BB2938203B91476012611
:103BB00001A8FFF735FFF1E7D5F8143405F21448F2
:103BC0000193DDF804A0BAF1000F0AD0BAF814305E
:103BD0001BB10126013BAAF8143001A8FFF720FF12
:103BE000EFE74FF001091B4F05F58265544620466B
:103BF0002946FFF79DFBA246044600B3838A03B91A
:103C0000FEE7013B9BB201268382002BEFD1C38AE2
:103C100051468382B3409BB2782B28BF782380F82B
:103C20001890C3822846FFF7BDFD2146404654F058
:103C30002DFB02222146384656F072FFD6E736B9F0
:103C40000221054802B0BDE8F04761F0C4BD02B0F2
:103C5000BDE8F087D03E0020D41F0020014800F0CE
:103C60005FB800BFDC56002010B50446024A54F08D
:103C700019FC204610BD00BF5D3C00082DE9F04155
:103C800015460E468CB001AC804617460FCD0FC4CA
:103C90000FCD0FC495E8070084E8070006F1310452
:103CA00024F001046378022B27D1304610F01CF970
:103CB000054610B3362130460DF1010261F04DFF8B
:103CC000D8B9372130460DF1020261F056FFA0B994
:103CD000BDF80230294640469DF8012054F0D3FB40
:103CE000237813F0300F08D13B78FF2B05D0442305
:103CF0003146034801AA62F06AFC0CB0BDE8F081CD
:103D0000B0370020054A0160D2F8C42D114001608F
:103D100009B954F0D2BB54F0D8BB00BFA82F002083
:103D200070B505460446002215F80B1F114857F0E0
:103D300068FAFF26294620465EF0C6FE08B1E67204
:103D4000F8E7E27A237B9A420AD02189606861F021
:103D500071FC014604F11000BDE8704061F0B0BD97
:103D6000A37A002BF1D0013BDBB2A372002BECD184
:103D700070BD00BFC83F00200148FFF7D1BF00BFA2
:103D80006C580020002310B5C0E900338360FF2386
:103D900003730346064A044643F8102F8361054A1D
:103DA0001C3012F0E1F94FF4FA732046238110BD64
:103DB000793D0008B93D0008014854F0C4BB00BF7C
:103DC0006C58002037B5114D044695F84130012B51
:103DD0000AD9022B0ED105F1200006F0F3FD18B12F
:103DE00095F880301B0705D4204603B0BDE830406D
:103DF00054F09FBB08230093054B00211A4604F1A1
:103E00001C0061F058FF03B030BD00BFA83F002088
:103E1000807F0A00024B93F8C23D037354F055BBF8
:103E2000A82F0020002313B5044601A90C480193D4
:103E30000EF058FE88B9019979B123688B420CD0F5
:103E40002046FFF75FFF01A85EF051FE054BB3FB74
:103E5000F0F060602046FFF7DDFF02B010BD00BF4C
:103E6000483C0020C13F0500F8B5036804468BB10B
:103E7000A8270C4D05F50056B6F86832206807FBF8
:103E8000035303F50953A83030339842206002D31E
:103E900000232360F8BD21795AF01CFB0028EBD0E9
:103EA000F8E700BFA81F002010B504460548217997
:103EB00020605AF00FFB20B92046BDE81040FFF704
:103EC000D3BF10BD18420020002313B5064A69462F
:103ED000CDE9002354F087FB044608B15AF0FDFBFE
:103EE000204602B010BD00BF0400FEFF0B4B11F4D2
:103EF0007E4FB3F8EC3D18BFC1F3080110B519436C
:103F00001446012254F081FB014620B120465AF0AC
:103F100072FB002010BD1720FCE700BFA82F002077
:103F200010B586B00C466846094961F091FB9DF8D2
:103F300014303BB9BDF80C20A38B68469A4203D1DC
:103F400011F0E4FF06B010BD61F08BFBEFE700BF9E
:103F5000A81F002010B50C4686B0FFF7E1FF2068CF
:103F6000616801AB03C3D4F8983001A90393A38B14
:103F70000848ADF81030A37FC3F3031343F00403E4
:103F80008DF81230238CADF8133011F0AFFF06B06E
:103F900010BD00BFE41F002070B506460A4811F0AE
:103FA000ADFF80B9344634F8085B65B1A37F1B07C9
:103FB00003D1013DADB2A834F7E721463046FFF703
:103FC000C9FF0028F5D070BDE41F00202DE9F04F97
:103FD00087B06E46002705463349304661F038FB0E
:103FE000B846DFF8C89009F1980A9DF814301FFA16
:103FF00087FB73B10023B8F1000F04D1BBF10A0FA6
:1040000001D8002B4CD0284607B0BDE8F04FFFF791
:10401000C3BF05223146284654F004FB044630B99C
:104020002846FFF751FF044618B90323E3E74FF092
:1040300001084FF0010B20465AF04FFB96E80300B1
:1040400084E8030004F1220055F008FBBDF80C30B1
:104050009DF80E10A383029B41F004012046C4F892
:1040600098300BF04FFEA37F5F446BF30303A377FD
:104070001CF00EF9A0609DF810209DF80F3021462D
:1040800043EA022323845A46484654F07BFD2246E5
:104090000021504609F018FC304661F0E2FAA4E72E
:1040A00007B0BDE8F08F00BFA81F00208C3F0020A4
:1040B00010B5044605485AF065FC18B1044B03449A
:1040C000B3FBF0F000F5FA60206010BDA81F0020DF
:1040D000FF8B864737B5044605226846094954F0E8
:1040E00054FA0025009B43B16846C3E91355A3F871
:1040F00048505D65FFF7B8FEF4E7C4E90133A381DA
:1041000003B030BDA81F00202DE9F84F82461D489E
:104110000C46934669F0FCF805468846D4E91691AA
:10412000A0204E46B4F85070B4F852404743E4FB28
:1041300000613A46304600234EF0EAF8541948EB45
:10414000030641463A46002328464EF0E1F8A41AF9
:1041500066EB0306DAF800305B1948F100089C4270
:1041600076EB080203D23C1946F10006F7E7A4EB10
:104170000903CBF80030DAF800002844201ABDE823
:10418000F88F00BFA81F0020F0B585B005460522B6
:10419000154902A854F0F9F900264FF0FF37029CA8
:1041A000BCB194F84830DB090FD0B4F8503063B19B
:1041B000638FC3F30D0343B12146284601AAFFF7DD
:1041C000A3FF874284BF2646074602A8FFF74CFE9E
:1041D000E5E736B14FF47A710448B7FBF1F15EF0D0
:1041E0001AFF6E6005B0F0BDA81F0020603D0020E2
:1041F000436837B505461BB90024204603B030BDDF
:104200000C6800F10C022146244854F0CCFC002834
:10421000F2D169684B6BAB60002BEDD091F8423066
:1042200013F01F0F94F8223004D191F8482012F0B7
:104230007F0217D043F0020384F8223091F8412026
:1042400023689A7023681B781B070FD56B6820467C
:10425000D96B5FF03FFB6B68204693F840105FF02E
:1042600081FB03E062F3410384F82230696891F82E
:10427000493013B90A4B93F8C23DA371284601AAED
:10428000FFF742FF019BA3616B689B6DE36194F8AC
:1042900022306FF3820384F82230AEE78C3F002097
:1042A000A82F00200E2A7FB506460D461C461CD0BE
:1042B00003D82AB10B2A2BD0FEE70F2A28D0FBE720
:1042C00093F84830009462F3060384F8483094F879
:1042D000423062F3040384F84230134600F10C02CA
:1042E0001F4801F04DF904B070BD0B681B7818072A
:1042F00003D591F82230D9072CD594F848305A1CB0
:1043000002F07F0262F30603032A84F8483022D8C1
:10431000AB88CBB12B689A7884F841201B781A07B8
:1043200012D595F82230DB070ED503A928465FF099
:10433000C1FA039B2846E3630DF10B015FF0FCFA21
:104340009DF80B3084F84030304604B0BDE8704032
:10435000FFF71ABFFEE7002384F84830D8E700BF14
:104360008C3F002000220B4910B5C0E90212014623
:10437000094CC0E9002241F8104FC0E90612026260
:1043800080F82420828590F86E2022F0030280F8C5
:104390006E2010BD2D460008694600082DE9F04149
:1043A000DFF8B0810E4698F8041898B017461D46FD
:1043B00004469DF878201F9B002900F0C18090F8EA
:1043C0002410002940F0BE8090F86E1062F30001C6
:1043D00080F86E107AB1002B48D106A9A8F580505C
:1043E0001CF00EFF06A908465EF081F904F11C01DD
:1043F00006A85EF04AF9209B2360219B636094F835
:104400006E306FF3410384F86E30D8F8C42D226209
:1044100033680BB11A40226210214C4856F0F5FD6A
:104420000646002800F0908080238DF80430022397
:104430008DF80530002387848DF80730CDB94023EF
:1044400094F82D208DF80630F2B1F1238DF8183054
:10445000A36A402A4FEA13418DF81A104FEA13213C
:104460008DF81B108DF81C3005D9FEE71868E06147
:10447000C1E74823E4E7D31C04F12E010DF11D0030
:104480008DF819307EF0F8FE1A2301A88DF800305F
:1044900061F05BFAC5B294F82D0018B106A861F07E
:1044A00054FAC0B205440222694630468DF80150E4
:1044B00060F0A9FD054688B9314601A861F058FAB7
:1044C000054658B994F82D3063B902A80CF0F0FCF9
:1044D000304602A903F062FF054658B1304660F04D
:1044E00059FC29E0314606A861F042FA0546002849
:1044F000EBD0F3E74FF6FF739F420FD1B8F8C03D02
:10450000BB420BD15FF032FD0146114810F064F858
:1045100094F86E3043F0020384F86E30FF23214696
:1045200004F1200001F82C3F5EF0CEFA00280CBF09
:104530000123022384F82430284618B0BDE8F08116
:104540000D25F9E70525F7E70325F5E7C83F002026
:10455000603D0020A82F002090F8243010B5012BDA
:104560000C4606D013F0FD0F14BF0C460024204665
:1045700010BD90F82C100248A1715EF03CFEF6E7E9
:10458000603D002090F8243010B5012B044602D085
:10459000022B06D010BD103011F09EFD0D4856F0D4
:1045A00007F90D485EF039FE94F86E309B070AD586
:1045B0004FF6FF71084810F00FF894F86E306FF363
:1045C000410384F86E3004F10800BDE8104011F09A
:1045D00017BD00BFD03E0020603D002038B590F8E8
:1045E00024300546012B0C4602D0022B18D038BDD2
:1045F00091F82E3043F0800381F82E301BF048FEF6
:10460000094AA06192F85C3F05F1100043F00403F1
:1046100082F85C3F4FF49671BDE8384061F050B9C4
:10462000BDE83840FFF7AEBFA82F0020014854F086
:10463000A7B800BFA84F002090F8243010B5012B78
:1046400004460DD100F12C0120305EF03DFA10B18E
:10465000022384F824300348BDE8104056F0A8B87F
:1046600010BD00BFD03E00200148FFF7E5BF00BFEE
:10467000A84F0020002313B504468DF8043008210C
:104680000123054801AA11F06BFC10B99DF8043014
:10469000A37702B010BD00BFE41F00201FB5837FC9
:1046A00008218DF80830012302AA0093034803ABC8
:1046B00011F066FC05B05DF804FB00BFE41F0020AC
:1046C00030B5837F85B08DF80F300DF10F03009367
:1046D000002300F12C0104461A460848FEF7ACFC02
:1046E000054640B99DF80F30A27F9A4203D020467C
:1046F000A377FFF7D3FF284605B030BD2C38002044
:10470000012310B5437704461BF0C2FD04F12C01D0
:1047100020620248BDE810400CF09ABDD03600205F
:10472000437F10B5022B044607D1037FDB0704D576
:1047300002460949094861F035FC002294F83E30F0
:10474000627762F3000384F83E3004F12C010448E0
:10475000BDE810400CF0B6BDC78A0508B037002090
:10476000D036002070B5044608460D465BF04EFE7C
:1047700018BB04F1240630465BF0C3FD38B90822AB
:10478000294630467EF068FD08B9002070BD3346EA
:104790002868696803C30A4804F12C015CF08FFAA9
:1047A0000028F2D02046FFF7BBFF636A2046636310
:1047B0007368A363FFF7A4FFE7E70720E6E700BFFE
:1047C000D036002070B500F12405044628465BF081
:1047D00098FDD0B90822294604F1340004F12C06D2
:1047E0007EF03AFD70B9314608485CF068FA48B18D
:1047F0002046FFF795FF2046FFF762FF10B92046DD
:10480000FFF77EFF002363626B6070BDD03600202F
:10481000436C052102480BB960F0DDBF60F0C3BFF7
:10482000D41F00201FB5044601A90B4862F09BFA73
:1048300080B9BDF806100120012901D960F0DAFE27
:10484000B4F844300BB1834204D9A4F844002046A4
:10485000FFF7DEFF04B010BD6456002070B50446BB
:1048600015480D4656F07DFA08B9606470BD6A07B8
:1048700006D5124E96F8153153B12046FFF7D2FFF8
:10488000EB07F3D52046BDE87040012154F071B824
:1048900096F84110032903D1204654F06AF8EFE757
:1048A00006F1200057F044FC0028E9D096F8F31FE9
:1048B0000431C9B2F0E700BFC83F0020A83F002084
:1048C000F0B58FB00D46174600212C2203A81E46D6
:1048D0007EF0F9FC4FF2BF0324211248ADF82E30D0
:1048E00061F072FA0446D8B104213A4661F098F9B1
:1048F000014690B92A461023204661F079F9054611
:1049000058B9B18B03A80BF001F92B462146054895
:10491000009503AA11F002FD10B1204660F03AFAAA
:104920000FB0F0BDB037002038B50F4B0025436005
:10493000838B044603F0FE0383830A238560A0F87B
:104940004C308577056245642C305CF0DEF904F16B
:1049500048006562A56254F027F804F14A0054F05B
:1049600023F8204638BD00BFBD4C000838B58B1E6B
:10497000012B04460D4622D8037FDB0704D50246EF
:104980002649274861F00EFB2046FFF7C9FE94F840
:10499000483013B994F8493053B104F1480054F049
:1049A00003F804F14A0053F0FFFF032D02D038BD95
:1049B000032D04D11B4D95F8D83663B9FEE7042DBD
:1049C00001D0012DF2E7184804F12C015CF077F9D1
:1049D0000028EFD0EBE784F83C3004F12C031022E0
:1049E000002118467EF06FFC05F5D96104F124051D
:1049F0005BF0ABFD28465BF084FC40B9636A6363FF
:104A0000A36AA3632046BDE83840FFF779BE20467D
:104A1000FFF756FE0028F5D0C9E700BFC78A050892
:104A2000B0370020A84F0020D03600202DE9F04FED
:104A300093B004462C22002107A87EF044FC4FF2DC
:104A4000BF039248ADF83E3056F08BF900283CD0B9
:104A50004FF6FE738E4FB7F8BC269A4235D0237FAF
:104A6000DD0732D4A7F57E6056F083F938B3894E5E
:104A700096F8803098072BD5637F012B02D194F8EC
:104A800047306BB194F8483013B994F84930E3B12A
:104A9000022204F14A0104F148007EF0DDFBA0B1DE
:104AA00025217D4861F090F90546D0B905212046C1
:104AB00053F070FF4DB1284660F06CF905E0A7F5A2
:104AC0007E6057F035FB0028D1D013B0BDE8F08FE1
:104AD00096F862301907F8D0B6F86430022BF4D19A
:104AE000CAE7637F012B45D194F84730002B41D1B1
:104AF0000DF10C0C624604F12C0304F13C08E6466F
:104B0000186859680833AEE803004345F446F6D107
:104B100010230021284661F06BF8002840F08A80BD
:104B20000823032128465D4A61F062F8002840F01E
:104B30008180022363771BF0ABFB206296F8803004
:104B40009A077BD496F862301B0777D0B6F86430AA
:104B5000022B73D152480DF10B0111F037FC0028E4
:104B600068D19DF80B1049480BAA03F0F9F800280A
:104B70006AD05FE0B4F84C300A2B00D0FEE7002288
:104B8000484903A853F001FDDFF82891DFF828A178
:104B900004F1480B039BC3B1A3EB09084FEAE808F3
:104BA0000AFB08F81FFA88F84146584653F041FFBF
:104BB00028B1414604F14A0053F03BFF18B103A865
:104BC000FFF752F9E6E7A4F84C80B4F84C103648E9
:104BD00053F000FD80460BF0C3F800B9FEE7034632
:104BE0000DF10C0C00F1100E62461868596808337C
:104BF00003C273459446F7D110230021284603AA27
:104C000060F0F6FFB0B908230321284608F16002DE
:104C100060F0EEFF70B91BF03BFBD8F808200621CE
:104C2000801A4FF47A72B0FBF2F2284661F00FF866
:104C3000002883D003287FF43EAF37E7B7F8BC26BF
:104C40001A490BA85BF08CFC07A80AF037FF29462D
:104C5000174B1148009407AA11F060FB0746002883
:104C6000E8D1237F04F10C0543F00103237703AB64
:104C70000FCB85E80F00676496F8801011F00801EB
:104C80007FF423AF03485EF049F81EE7C83F0020D9
:104C9000A84F0020A83F0020B03700207841002016
:104CA00064560020A81F00201042002088410020E8
:104CB000C78A0508184200203DCFF33C0148FFF7A2
:104CC000B5BE00BF8C56002070B501F1310323F052
:104CD000010393F901300546002B0E4688B01FDA18
:104CE000062308AC8DF8073000F10C030FCB04E964
:104CF0000F00524804A962F04BF800287ED05048BB
:104D000004A95BF0DCFF0246002842D09DF8074072
:104D1000062C29D8DFE804F01C2231353939390056
:104D2000042130460DF1070260F017FF044648B930
:104D3000102301460DEB0302304660F03EFF0446AF
:104D40000028D6D02846FFF763FD204608B070BD86
:104D50001BF09EFA032328626B77F3E7384805F1CE
:104D60002C015BF0ACFF08B90024EBE72846FFF705
:104D7000D7FC2846FFF7C4FCF6E72846FFF7D0FC2F
:104D8000F2E7284653F0E4FDEEE72846FFF74AFD38
:104D9000EAE72C4902A853F0F8FB029E86B330469E
:104DA00004A90BF085F868BB02A8FFF75DF8F4E7EB
:104DB000214605F1480053F03CFE28B1012221466E
:104DC00005F14A0053F044FE9DF80720002ACBD09D
:104DD0003346284604A9FFF773FDC5E7304604A90A
:104DE0000BF010F80022214605F1480053F030FE88
:104DF0000022E4E72846FFF715FDE5E70224A1E7D6
:104E000017249FE7104C114B341BE4105C439DF8B2
:104E10000730A4B2062BD7D801A252F823F000BF66
:104E2000B14D0008E54D0008DD4D0008DD4D0008DE
:104E3000F54D0008F54D0008F54D000864560020BA
:104E4000D0360020A81F0020184200203DCFF33CA0
:104E500038B501F1310323F00103054658780C46BB
:104E600002280DD11B7813F0300F03D144230548DD
:104E700061F0ADFB21462846BDE83840FFF724BF6E
:104E800038BD00BFB03700202DE9F041DFF8B08019
:104E9000531EA1EB08042849E4104C43012B05469E
:104EA0001646A4B21ED800F148072146384653F0F2
:104EB000C0FDA0B1B5F84C30A34205D12A461F4928
:104EC000A8F6682061F06EF800222146384653F0BB
:104ED000BFFD0022214605F14A0053F0B9FD012E25
:104EE00027D101E0012A1CD805F1480705F14A063F
:104EF0000222314638467EF0AFF938B9052101204B
:104F000060F067FB0146284653F044FD21463846D1
:104F1000012253F09DFD00222146304653F098FDBA
:104F200007E0032A05D12146483053F082FD0028CE
:104F3000DAD0BDE8F08100BF3DCFF33CC78A050859
:104F4000184200200022C0E9042282610277026236
:104F50000246024942F8241FC2627047FD50000811
:104F60002DE9F04101F1310828F0010898F80130ED
:104F70000446022B0D46164686B070D136212846CF
:104F80000DF1070260F0E9FD002868D137212846BD
:104F900003AA60F0F2FD002861D1382128460DF106
:104FA0000E0260F0EAFD002859D128460EF09CFF61
:104FB0000746002853D0206A08B15FF0EBFE1221AB
:104FC000284860F001FF2062002848D035238DF882
:104FD000103006238DF811300023394604A8CDF88F
:104FE0001230ADF816300EF037FF216A04A860F0D9
:104FF000BFFCA0BB39230222206A02A98DF8083029
:1050000060F001F858BB9DF80730C4E904772377B6
:10501000BDF80C3060772383BDF80E304FF47A7101
:10502000638304F1240060F04BFC06F1200706F1D5
:105030001003224618685968083303C2BB4214465D
:10504000F7D198F8003013F0300F08D13378FF2BE8
:1050500005D0442332462946024861F0B8FA06B02A
:10506000BDE8F081B037002010B58EB004462C2288
:10507000002103A87EF027F94FF2BF03206AADF8A4
:105080002E30C18B637F0139C91A04F11D0201233F
:1050900089B25FF095FF214603A859F09FF90023DC
:1050A000216A0748009303AA11F038F918B1206A61
:1050B00008B15FF06FFE002323620EB010BD00BF89
:1050C000B0370020036A07B5024653B1037F5BB1D6
:1050D0004169009248420140064B528B06485DF000
:1050E0005DFF03B05DF804FB03B05DF804EBFFF770
:1050F000BBBF00BF318B0508603D00200148FFF7B2
:10510000E1BF00BF1C57002038B58B05044610D501
:10511000036A73B1074857F0A8FE054648B9206AEC
:105120005FF038FE256204F12400BDE8384010F03D
:10513000D3BF38BD3C540020037873B50446BBB1DF
:10514000052268460C4953F020FA0026651C009998
:1051500039B128464E6359F007F96846FEF784FED8
:10516000F5E7201D0EF030FF04F10C00FEF7B2FF52
:105170000023237002B070BDA81F00204B8F2DE9C3
:10518000F341C3F30D0306460C4653B36846164974
:1051900060F0CCF91548164B251AED105D43A0F5CB
:1051A0005278ADB2009F5FB1294638465FF0BAFF32
:1051B0004046394655F03AFB684660F08FF8F1E713
:1051C0002146701C676359F0CFF8301D22463946DE
:1051D0000EF010FF06F10C0002B0BDE8F04153F0F4
:1051E000B7BA02B0BDE8F081D03E002018420020DE
:1051F0003DCFF33CF7B58B7F1546DA0907460C46E1
:1052000006D103F00F03072B02D1012253F0BAFCA1
:105210002B0737D4A37FDB0934D0638FC3F30D038F
:1052200083B31949194B651AED105D436846A1F522
:105230005271ADB260F07AF9009E96B129463046BF
:105240005FF05FFF48B1294630465FF06BFF96F88C
:105250002E3043F0800386F82E30684660F03EF82A
:10526000EAE72146781C666359F07EF8381D22462D
:1052700031460EF0BFFE07F10C0003B0BDE8F04070
:1052800053F066BA03B0F0BD184200203DCFF33CA6
:10529000104B73B5CC1A1049E4104C436846A3F583
:1052A00052711646A4B260F041F9009D7DB12146CD
:1052B00028465FF026FF30B14EB195F82E3003F04E
:1052C0000703022B03D0684660F008F8EDE7284694
:1052D00002B070BD184200203DCFF33CF0B5002273
:1052E00087B00C460646FFF7D3FF4FF480430546D0
:1052F0006063238706F10C0053F02AFA95B100276A
:105300002146301D8DF814705DF028FC03A904F1CE
:10531000340053F012FC2A4600913B460221024819
:1053200055F0FDFB07B0F0BDD03E002070B54E6BD0
:1053300005460C46DEB11D491D4B611AC910594383
:10534000304689B25FF0DDFE014680B9224694F80E
:105350003930606343F0800384F83930281D0EF043
:1053600049FE05F10C00BDE8704053F0F1B994F826
:105370003920D20919D121462846FFF789FF8642F4
:1053800013D02EB921462846BDE87040FFF7A6BFCE
:10539000238FC3F30D0343B994F83930224643F009
:1053A0008003012184F83930D8E770BD184200200D
:1053B0003DCFF33C73B50E460E4B0F49D31ADB10AD
:1053C0004B43054699B23046144601915FF099FE71
:1053D00070B1304601995FF0A5FE2146681C58F077
:1053E000AEFF28462146FFF7A1FF002002B070BDA6
:1053F0001720FBE7184200203DCFF33CF7B5937F21
:105400000546DB090F46144600D0FEE71B4E1C493B
:10541000931BDB104B43384699B201915FF071FE4C
:1054200050BB384601995FF08DFE2146681C58F04C
:1054300078FF97F82E3003F00703022B15D0638F07
:10544000C3F30D03012B10D9214601222846FFF793
:105450001FFF014648B1019022462846FFF7AAFFE8
:105460000199A6F5527055F0E1F92146284603B09E
:10547000BDE8F040FFF75ABF03B0F0BD184200206E
:105480003DCFF33C2DE9F0411C4628230E46002178
:1054900094B0154620460DEB03028DF81C108DF8D4
:1054A00026105FF035FD1E4805AA0CA900F05AFE33
:1054B00010A85AF0E3FF60B319480DF11E0210A9BD
:1054C00000F068FE298F2046C1F30D01B4F820805A
:1054D0005FF08BFC4FF6FF7200233146CDE90223CB
:1054E000CDE900320E4805AB224601F0E9FA41460B
:1054F000074620465FF079FC6B8FC3F30D03012B49
:1055000003D9012130465DF075FF384614B0BDE87F
:10551000F0810DF11E0105F1340053F00EFBD1E7CF
:10552000D03E002010B50C46002186B08DF8141036
:1055300002F1340003A90A46019353F0FEFA214612
:10554000019B024801F03AFA06B010BDD03E00209F
:1055500013B5062204460949684653F016F8009927
:1055600051B14B8FC3F30D0313B12046FFF706FE75
:105570006846FEF779FCF2E702B010BDA81F0020D4
:105580002DE9F04F9A46037887B005468846109C6F
:105590005BB313884BB3BAF10B0F666B08D003D81B
:1055A000BAF1000F10D0FEE7AAF10E03012BFAD8D2
:1055B00094F839306FF3861384F83930F6B9214600
:1055C0002846FFF78BFE10E0002EF8D0F28B9A42AF
:1055D00014D9228F043063F30D02214622875DF037
:1055E000BDFA05F10C0053F0B3F82B78002B58D01E
:1055F000284607B0BDE8F04FFFF7AABFDFF8B49028
:10560000294BA4EB0907FF105F43002394F83910DE
:1056100063638022C1F3801104F1280005F1010BBE
:105620008DF8143053F0C4FF01222146584658F03B
:10563000A1FEB8F80430BFB263B103A940465DF0E3
:1056400042FF03A90091534632460121A9F5527049
:1056500055F065FA96F82E305B0710D194F8393082
:1056600013F0400F114B15BFD3F8742FD3F87C2FD4
:105670000132013214BFC3F8742FC3F87C2F3946AE
:1056800030465FF03EFD38B1394630465FF04AFDA6
:105690002146584658F053FE3146054855F0C6F8A5
:1056A0008DE707B0BDE8F08F3DCFF33CA82F002079
:1056B000D03E00201842002037B50025184C29465E
:1056C00004F15000E5655EF07BFC6846C4E91555C1
:1056D000A4F5005109F00EFF009C5CB104F10C0030
:1056E0000021A5615EF06CFC6846C4E9045509F030
:1056F0000FFFF1E7052268460A4952F046FF009D78
:105700005DB105F10C000021AC615EF059FC68460A
:10571000C5E90444FEF7A8FBF1E703B030BD00BFC4
:10572000A83F0020A81F002070B50646B8B004A806
:105730000C4615465EF06CFF0023326801A904A8F0
:105740000193ADF8083003925EF077FF230E8DF8D9
:105750000030230C69468DF8013004A8230A042286
:105760008DF802308DF803405EF06DFF062204A82C
:1057700005495EF068FF294604A85EF06AFF04A8A8
:105780005EF053FF38B070BD8A43080870B5044618
:1057900096B041680EAAFFF7C7FF02AD0EA900221E
:1057A00004F108005EF034FC284653F023FA0AAEF8
:1057B00006A853F01FFA304653F01CFA284612A9E7
:1057C00001225EF025FC616820460EAA0139FFF730
:1057D000ABFF12A906A801225EF01AFC6168204600
:1057E0000EAA0131FFF7A0FF304612A901225EF098
:1057F0000FFC6268082102F07F02CDE900560348E1
:1058000006AB013210F022F816B070BD903D0020BA
:1058100010B50C4628305EF0D3FB2146BDE81040A1
:10582000014810F005B900BF903D0020836A9942FD
:1058300007D3036B01319942816202D3014803F01F
:105840006DBF7047C83F0020C36A426B013393426B
:10585000C36202D3014803F061BF7047C83F002014
:1058600038B50B8804460D46A3B1042268307DF09C
:10587000F3FC30B9BDE838404FF4801106485FF0C2
:105880008ABE2B684FF48011A3660348BDE83840F8
:105890005FF075BE38BD00BFBC1F00200023024969
:1058A0008363443060F00CB880EE360038B543684E
:1058B00004468B420D4606D1BDE838404FF4807156
:1058C00014485FF068BE01338B4210D1C26C00F106
:1058D00044039A420BD090F840302BB1D0E90E230C
:1058E0009A4215D3FFF7DAFF012384F840302046AF
:1058F0006560FFF74BFF20460021FFF789FF00237B
:105900004FF48071E3620348BDE838405FF037BE72
:1059100038BD00BFBC1F002010B50446836B0A4A87
:1059200001338363816C44305FF0C4FFB4F86830A6
:10593000A26B9A4206D361682046BDE8104001314F
:10594000FFF7B4BF10BD00BF80EE36000148FFF77F
:10595000E3BF00BFEC3C002030B50446114887B0DF
:105960000D4605907AB1059853F03FF910230222B5
:10597000CDE9015301231146009305A809231AF02C
:1059800085FD20B1FEE767F0F8F90028EBD020682C
:10599000059B984201D053F028F9059B236007B07E
:1059A00030BD00BF0100020030B50025044685B0BF
:1059B0004560083053F01EF904F1180053F01AF94D
:1059C0004FF41C73E3632346174AC4E90B55C4E93B
:1059D0000D5584F8405043F8442FE36404F154001B
:1059E00053F008F904F16800656653F014F994F86F
:1059F0006C3065F3000384F86C3067F0AEF94FF05B
:105A00000043102123602365684667F060FA2A4648
:105A100069462046FFF7A0FF04F1280029465EF002
:105A2000CFFA204605B030BD4D59000830B50368A7
:105A30000446002B0D4685B00FDB694653F0B6F9DE
:105A40001022294668467DF007FC30B94FF48021CA
:105A50000F485FF0A0FD05B030BD01222946204669
:105A6000FFF77AFF4FF4802109485FF088FD4FF47B
:105A7000807107485FF083FD002320466360FFF7D5
:105A800085FE204605B0BDE83040FFF715BE00BFDB
:105A9000BC1F002030B5036D0446002B0D4685B0B9
:105AA00015DB694653F09CF91022694628467DF0C3
:105AB000D3FB60B94FF400210A485FF06CFD94F805
:105AC0006C3043F0010384F86C3005B030BD2946DA
:105AD000204653F09FF94FF4002102485FF04FFD3C
