S01100006F742D626C652D646D702E73333732
S315080000000012002049670208D39F0508D39F0508F8
S31508000010218C0508D39F0508D39F0508D39F05089B
S31508000020D39F0508D39F0508D39F050851020008EA
S31508000030D39F0508D39F0508E1010008C18005087C
S31508000040D39F0508D39F0508D39F0508D39F0508A6
S31508000050D39F0508D39F0508D39F0508D39F050896
S31508000060D39F0508D39F0508D39F0508D39F050886
S31508000070D39F0508D39F0508D39F0508D39F050876
S31508000080D39F0508D39F0508D39F0508D39F050866
S31508000090D39F0508BD650208D39F0508D39F0508A9
S315080000A0D39F050801620208DD610208D39F05088F
S315080000B0D39F05088D0B04087D150408EB35060843
S315080000C0E7350608650D0408F7350608EF3506080E
S315080000D055150408F3350608BD1504082116040845
S315080000E0D39F0508D39F0508D39F0508D39F050806
S315080000F02D8C0508D39F0508D39F0508D39F0508AF
S31508000100D39F0508D39F0508D39F0508D39F0508E5
S31508000110D39F0508D39F0508D39F0508D39F0508D5
S31508000120D39F0508D39F0508D39F0508D39F0508C5
S31508000130D39F0508D39F0508D39F0508D39F0508B5
S31508000140D39F0508692C0208D39F0508BB8B0508B1
S315080001508DF10308D39F0508D9320608DF32060851
S31508000160D39F0508D39F0508D39F0508D39F050885
S315080001700B4A1168086806C881F30B88022181F3C7
S315080001801488203080F30988BFF36F8F4FF0000082
S3150800019080F31188104700BFAFF30080AFF30080EB
S315080001A0F0600020000000000000000000000000D1
S315080001B007480068006880F3088862B661B6BFF32E
S315080001C04F8FBFF36F8F02DF00BF00BFAFF3008012
S315080001D008ED00E00000000000000000000000003C
S315080001E0EFF309801EF0100F08BF20ED108AEFF319
S315080001F00B82734620E9FC0F114A116808604FF01C
S31508000200300080F31188BFF34F8FBFF36F8F1CF058
S315080002104FFA4FF0000080F31188094A1168086800
S31508000220B0E8FC0F13F0100F08BFB0EC108A82F389
S315080002300B8880F309881847AFF30080AFF3008076
S31508000240F060002000000000000000000000000030
S315080002501EF0040F0CBFEFF30880EFF30980044982
S31508000260084700BFAFF30080AFF30080AFF300800C
S315080002702F760508000000002DE9F04F2DED028BC2
S31508000280DFF8C0918DB0B9F800309A0706D440F26D
S315080002902761654B654A664842F016F8DFF8A8B14B
S315080002A0DBF8003023B94FF4C561624B5F4AF2E7C9
S315080002B09B88614C8DF81730012394E807005F4D41
S315080002C00DF1180888E80700B9F800200DF11701A4
S315080002D01A46286862F0BDFB9DF81720DBF8001067
S315080002E0023A0023096892B20C3428680DF1240AF0
S315080002F062F0AFFB94E80700DBF800308AE80700F5
S315080003001B681C7814F0200421D0286862F0CBF909
S3150800031000286FD0286862F0C6F904460B9841F0A9
S3150800032097FB064620460F4641F092FB02460B46CF
S3150800033039A1D1E9000141F02FFD02460B463046AE
S31508000340394641F049FA41F00FFE0B90012428681E
S3150800035062F0C5F99DF8173000284FD0981DC000E7
S3150800036041F086FB2EA3D3E9002341F0EBFB41ECD9
S31508000370180B286862F0B3F903900B9841F068FBF4
S31508000380039B064618460F4641F062FB02460B469B
S3150800039051EC180B41F000FD02460B463046394633
S315080003A041F01AFA41F0E0FD0B90B9F80030DBF89D
S315080003B000209B062868917926D50B9B03F5FA73CE
S315080003C00B9392F8203022468DF81A301C4B1B7876
S315080003D0CDF800A08DF81B30434661F0EEFE20B143
S315080003E002201EF0BBF958F027F80DB0BDEC028BC1
S315080003F0BDE8F08F0B9BC0330B93A7E70B9806332A
S3150800040000EB43130B93D0E75346224661F0BFFE39
S31508000410E5E700BFAFF300800000000060E3664137
S315080004200000000080842E4191680608DB6D0608EE
S31508000430F1660608B7680608C06C06087C6C0020DA
S315080004400816002064860020646D00200000000065
S31508000450754B73B5198811F0010140F0DC8041F63F
S315080004600B22724D724BC5E9003105F11003AB60E2
S31508000470704B19609A80704B1B6ADB0706D440F2F2
S31508000480B9316E4B6E4A6F4841F01EFF284637F069
S3150800049091FD044620B940F2BD316B4B684AF2E73C
S315080004A039F0B8F920B140F2C131684B644AEAE73D
S315080004B04FF00111204662F0B4FA20B140F2C5317E
S315080004C0624B5F4ADFE70221204662F0CDF820B191
S315080004D04FF472715D4B5A4AD5E720465C4938F0AD
S315080004E017FF20B140F2CB31584B554ACBE70121D3
S315080004F0204662F04CFC20B14FF47471534B504ABD
S31508000500C1E70121204662F059FC064620B140F2B7
S31508000510D3314E4B4A4AB6E701463C224D4863F072
S31508000520FAF880233246204605F1140162F0A7FA4C
S31508000530802804D040F2DA31474B414AA3E7474DB9
S31508000540012061F01FFE36A3D3E900232C60204664
S31508000550CDE900234FF0FF324FF0FF3362F02CF95C
S3150800056020B140F21731394B3D4A8CE731481DF02E
S315080005709FFF012108461EF009F80121286861F04D
S31508000580C3FF044620B140F26E41304B354A7AE744
S31508000590354B364A98801A60354B364A98801A6029
S315080005A0354B364A98801A60354A6FF063005A61AF
S315080005B018F076FC0B201DF035FF324B186020B979
S315080005C040F28C41304B274A5DE723F067FB214612
S315080005D0286862F0D0F920B140F219411B4B2B4A2A
S315080005E051E708222868114662F001F9044620B14D
S315080005F04FF49261264B1B4A45E71EF0FDFF254B3B
S3150800060025481C70254B1C70254B1C7002B0BDE894
S31508000610704052F0C4B902B070BD00BFAFF300809D
S315080006200B6020FFE203000064860020886C00202F
S3150800063051E80108806C00200080E00FAB6B0608CB
S31508000640506D0608F1660608C46B06085566060866
S31508000650606E0608286D0020D36B06087C6C0020A7
S31508000660436D0608CC6D0608E8550020808E0020EC
S31508000670C0550020008E002010560020028F002052
S3150800068038560020246D00200B6C0608096D0608F4
S31508000690266C0608F58D0020AA6C0608018F002036
S315080006A0008F00200000000070B505463E4C8AB059
S315080006B020B10023008823602CF0A6FA3B4861F09D
S315080006C0C2FF3B4E3B4B304633603B4B73602CF0CE
S315080006D077FC0021304637F06DFC31A3D3E90023BF
S315080006E0A062C4E906235CF0E4FCD4E906231943B6
S315080006F010434FF0FF33C4E90601CDE900014FF07E
S31508000700FF32A06A62F058F802224FF0FF31A06A61
S3150800071062F06DF801202CF005F84FF40073002202
S315080007202649A06A62F0ABF9B0F5007F36D10023FE
S315080007309422CDE9073309933C23CDE90332059387
S315080007409623A06A03A9069338F050F825B3287CA7
S315080007502CF0F4FC0546E0B9A06A62F06AFB2CF0BE
S3150800076095FC2BF0C1FF20B14FF48070002129F0D1
S31508000770B1FA2BF0C9FF20B14FF40060002129F02F
S31508000780A9FA012061F0FEFC0D4A0E49A06A5CF048
S3150800079087FC28460AB070BDFF20D9E70725F8E789
S315080007A009D5015520000000C0560020690345EC14
S315080007B09880002061CE02088C8000208C7E002064
S315080007C049D0050889D0050810B5054C237833B9F2
S315080007D0044B13B1044800E000BF0123237010BD89
S315080007E0185C00200000000020D1060808B5034B5D
S315080007F01BB10349034800E000BF08BD0000000024
S315080008001C5C002020D10608A3F5803A704700BF7B
S31508000810174B002B08BF134B9D46FFF7F5FF00212A
S315080008208B460F461348144A121A62F074FF0E4B91
S31508000830002B00D098470D4B002B00D0984700207E
S31508000840002104000D000D48002802D00C4800E0E5
S3150800085000BF41F085FD2000290059F01CFC41F03D
S3150800086059FD00BF0000080000000000000000005D
S3150800087000120020A81B00209C9200200000000007
S315080008800000000008B5134BA8220021184662F0A4
S3150800089042FF032210490261426100F1A802816108
S315080008A0C2614FF4407202620022034682624262CB
S315080008B0C262016600F56A71416608498266026786
S315080008C0C266426711F8010998540132102AF9D113
S315080008D008BD00BF00180020403C0608583C060822
S315080008E070B50D4C054623780E460BB9FFF7CAFFBF
S315080008F0022D0DD8EFF311834FF0200181F31188F3
S31508000900182000FB0544E66283F31188002070BDB9
S315080009104FF0FF30FBE700BF001800202DE9F84F25
S315080009200F46164683460025DFF8949002F1FF3AF3
S31508000930D8461BF8014BA4B35C2C24D19BF80020A5
S31508000940A2F10903DBB2172B0DD95C2A0FD1404659
S3150800095062F0A8FF59460246404662F0C2FE1BF8FE
S31508000960013C23B9E4E729FA03F3DB07EFD41DB109
S315080009701BF8023C002BDBD1554511D06B1C47F800
S315080009802580DDB2D4E7093CE4B2172CEFD829FA62
S3150800099004F4E44314F00104E9D10BF8014CC7E769
S315080009A00724721BD2B29200B54288BF00220021EA
S315080009B007EB850062F0AFFE2046BDE8F88F00BF62
S315080009C0130080002DE9F3470E46044608B3037862
S315080009D0302B18D1437803F0DF03582B13D10127A6
S315080009E0023400224FF0993915464FF00A08DFF80D
S315080009F070A020784FB10DF1070142F007FDA8B1AC
S31508000A0002B0BDE8F0870027EBE73038C0B2092806
S31508000A1001D90720F4E791457AEB05038DF807001D
S31508000A20F7D3A2FB082308FB053306E0B5F1805F80
S31508000A30EFD22B0143EA127312019DF8071000202A
S31508000A40891853F1000328BF01200A461D460028CD
S31508000A50DFD114F8010F0028CBD1C6E90013CFE780
S31508000A60999999194FF6FF7210B500230264024648
S31508000A7004460A49C0E90E3380F84430836442F8D4
S31508000A804C1F4265064A0366C0E9162000F1580164
S31508000A9004484AF0E9FB204610BD00BF850B000854
S31508000AA04138040814320020F0B58DB004461DF014
S31508000AB0C3F900230646CDE909330B93234601AD56
S31508000AC004F110072A4618685968083303C2BB425E
S31508000AD01546F7D105AD03F110072A461868596877
S31508000AE0083303C2BB421546F7D194F8363094F85A
S31508000AF037208DF82C309DF82D30002162F3C30382
S31508000B001E488DF82D300DF019FB054640B33046CA
S31508000B1042F0A7FD04220090694628464FF0F3FDEF
S31508000B2088B9A18DEB8B8B4211D315482946B0F8AD
S31508000B30703601AAA4F84A3000F26C60B4F848305E
S31508000B400DF006FB48B128464FF0A4FC08E02846FD
S31508000B504FF0A4FC0028E8D0F5E7238F013323875C
S31508000B60E38D04F14C00013B9BB2E38523B1216B75
S31508000B7050F026FA0DB0F0BDA18EF9E71432002028
S31508000B80A82B0020014842F0CDBD00BF0854002024
S31508000B9043680BB10148184718467047A81B002040
S31508000BA010B50A460C468AB0202307210B4812F0D6
S31508000BB0ABFF80B12021204657F008FD18B120214F
S31508000BC0204657F003FD20232246009307210348B9
S31508000BD002AB12F0A9FF0AB010BD00BFE41B00204B
S31508000BE02DE9F041B4B01F463A9C2E4B05460E46F9
S31508000BF090460393002C47D0237814A88DF80B3021
S31508000C004FF03AF9284604A9FFF7CAFF4FF4807552
S31508000C10BFB214A84FF045F9327C31460732D208E4
S31508000C2014A84FF044F9B8F1000F04D03A464146EB
S31508000C3014A84FF03CF9042203A914A84FF037F979
S31508000C4001220DF10B0114A84FF031F9202204A955
S31508000C5014A84FF02CF90CA914A84FF04BF906F17B
S31508000C6008000CA901904AF0ECFE01984AF04EFFE4
S31508000C7060B19DF80B30013D0133ADB28DF80B30F4
S31508000C80002DC6D1012406E02346B6E71CB19DF81F
S31508000C900B302370044614A84FF0FBF8204634B0F6
S31508000CA0BDE8F0817770616E2DE9F0470446880744
S31508000CB00E468AB037D54FF00009DFF82481DFF8F1
S31508000CC01CA104F1080504F16807BD422BD0AB7CD2
S31508000CD099071DD52378EBB1CDF80C90504604AA98
S31508000CE003A947F088F9A8B99DF822305A07F5D420
S31508000CF09DF821301B07F1D5204604A9FFF748FFC8
S31508000D000028EBD1294604A842F0A8FD0028E5D022
S31508000D101835DAE7294640460EF0A8F8AB7C6FF39B
S31508000D204103AB74F4E7F50753D52378002B50D06D
S31508000D300023294F294E039307F5E568304604AA90
S31508000D4003A947F058F9002843D19DF822305807DF
S31508000D50F4D49DF821301907F0D59DF82030402BA2
S31508000D60ECD1204604A9FFF713FF0028E6D1D7F8EF
S31508000D7028571DB3294604A842F070FD0028DDD186
S31508000D806D69F6E79DF821202846D3090CBF802116
S31508000D909DF82010C2F380024BF040FB284604A9B8
S31508000DA04AF053FF002329461A4620460093FFF7C8
S31508000DB017FF294640460EF01FF8BFE704F108055D
S31508000DC004F168039D42B9D0AA7C9207DAD5183592
S31508000DD0F8E70AB0BDE8F087A82B00203C500020B1
S31508000DE0D03200202DE9F041D2E9007506460C46BE
S31508000DF000F5816800F20C4106F2144C00F5826099
S31508000E0043466DB93FB1474508D08F42034602D0E5
S31508000E1087425AD163461F461D68F1E70B46FAE733
S31508000E204FF6FF73698A2046994217BF43F2780343
S31508000E30002303EB4113264918BF5B18C2E9007368
S31508000E4000212C2262F067FC2B46A44605F1100E01
S31508000E50624618685968083303C273459446F7D141
S31508000E602B8A47452382E37C19D143F00103E374B7
S31508000E706B69E27C013318BF012363F34102E27414
S31508000E806B695A1C09D06361124904F118004AF0CB
S31508000E90B6FEAB692362EB696362002016E006F2D0
S31508000EA00C4297420AD10122A2742A7E62F30003F9
S31508000EB0E374AB8A2385EB8A6385EEE706F58266DB
S31508000EC0B7420CBF02220322EEE71720BDE8F081E5
S31508000ED0A81B0020883D002008B9086870474FF60F
S31508000EE0FF72438A93421FBF43F2780000EB431018
S31508000EF0024BC01808BF0020704700BFA81B00207F
S31508000F002DE9F04F00251746A8464FF6FF7943F21C
S31508000F10780A87B01E4600F58163029300F20C43F7
S31508000F200393DFF84CB000F5826300F21440049393
S31508000F30059002AB53F825301C683B60C6F8008064
S31508000F4074B110222046019162F0AEFB60B13460A4
S31508000F50648A01994C4503D00AEB44145C44EFE7D4
S31508000F600135042DE5D10024204607B0BDE8F08FF1
S31508000F70A81B0020F0B50E46002189B0154602A828
S31508000F801222CDE9001162F0C6FB104B93F88030AF
S31508000F90DB0716D50E4F6946384602AA0BF0E0F96C
S31508000FA0044670B99DF81A30012BF4D11022304648
S31508000FB002A962F079FB0028EDD1BDF81C302B8020
S31508000FC000E01724204609B0F0BD00BFA83B00206A
S31508000FD0B451002030B58FB02C220C4603A800214E
S31508000FE062F099FB4FF2BF0302211348ADF82E3089
S31508000FF050F078FA0546E8B122461023002150F051
S3150800100077F9044650B903A848F05EFD23460094D4
S315080010102946094803AA12F055FF04460221074843
S315080010204FF041FF1CB115B128464FF033FA204660
S315080010300FB030BD0324F1E7B0330020D41B0020E5
S31508001040F0B58FB00F46164600212C2203A81D4680
S3150800105062F061FB4FF2BF031E491F48ADF82E3000
S3150800106012F088FE044670B3B5FA85F102224909E2
S3150800107050F021FF00200CF01BFD0146204650F0E1
S31508001080D3FFE8B9204650F0EDFF0146C0B910235A
S315080010903A46204650F02CF990B9082332460321E7
S315080010A0204650F025F958B97DB903A848F00CFD3B
S315080010B0002321460848009303AA12F003FF10B143
S315080010C020464FF0E7F90FB0F0BD294603A848F0CF
S315080010D005FDEDE758420608B033002070B501F16A
S315080010E0310323F001035E780546022E0C468EB0C6
S315080010F033D11B7813F0300F06D11378FF2B03D0AA
S315080011004423304850F0E3FD10230021204606AA68
S3150800111050F0D3F808BB08236A460321204650F04E
S31508001120CCF8D0B9284B294ED3F82847E4B1102279
S31508001130204606A962F0B8FA28B908226946304658
S3150800114062F0B2FA08B96469F0E72146204851F01E
S315080011509FF920B11F4842F07BFF0EB070BD2146B3
S315080011601D480DF083FEF8E7684602A94AF081FC9F
S3150800117022461A4904A842F088FD049C002CECD0AB
S31508001180A37F9B0619D4082220460DEB020162F0C4
S315080011908BFA90B1204606A90CF008FC68B9A28B18
S315080011A00F480AA904F092FB0028D6D16A462846B9
S315080011B00AAB06A9FFF744FFCFE704A800F028FC0E
S315080011C0DBE700BFB0330020A82B0020783D0020C5
S315080011D0645200208C520020D0320020A81B002028
S315080011E0C83B0020F0B58FB00F46164600212C22CA
S315080011F003A81D4662F08FFA4FF2BF0301211B4870
S31508001200ADF82E3050F060F9044628B310233A465C
S31508001210002150F06DF8E0B9082332460321204634
S3150800122050F066F8A8B9124804F0D4FA022102462A
S31508001230204650F080F860B985B9149903A848F09B
S315080012404DFC002321460948009303AA12F03AFEF2
S3150800125010B120464FF01EF90FB0F0BD062120460A
S315080012602A6850F074F80028E7D0F2E7B033002077
S31508001270C83B002070B506468AB008460D46144697
S3150800128050F039FEA8B128461023002106AA50F0CE
S3150800129014F8054668B91A4806A94BF090F80246AC
S315080012A048B12B461034174A0094304606A9FFF772
S315080012B099FF0AB070BD144904A842F0E6FC049DE3
S315080012C0002DF6D0AB7F9B0616D4EB7F032B13D8E5
S315080012D0284606A90CF0C0FB70B11CF0ADFDAB6842
S315080012E01034C31A4FF47A70B3FBF0F300940393E7
S315080012F005F1600203ABD8E704A800F089FBDEE736
S31508001300D0320020783D0020A81B002029B1044BCC
S31508001310C91AC1F34F11418270474FF6FF71FAE7B8
S31508001320204C002002686AB14FF6FF73518A994231
S3150800133017BF43F27803002303EB4113024918BF92
S315080013405B18036010467047A81B00200A4610B5B4
S3150800135011B9FFF7E7FF10BD4FF6FF704C8A8442BC
S31508001360F9D00A4B03F5405101EB4411B1F88A1044
S31508001370BDE8104081421ABF03EB411303F5415102
S315080013800021104618BF3831FFF7C0BFA81B002040
S3150800139070B5044615460E461046194604F582648D
S315080013A0FFF7D4FFA54206D13146BDE870400222B8
S315080013B0014844F035BF70BDD03A002000232DE91E
S315080013C0F04104464FF6FF77061D436000F1080515
S315080013D000F58168A84506D029466F82304642F056
S315080013E0D5FA2035F6E700230B4AC4F80834C4F8C2
S315080013F00C34C4F81034C4F81434C4F81824C4F8E7
S315080014001C44C4F8203404F58361044849F02CFFD1
S315080014102046BDE8F08100BF913A04081432002046
S315080014202DE9F043042587B000F58163029300F2A5
S315080014300C43039300F5826600F21443DFF8388004
S315080014400496059302AF441957F8049B4846FFF7DC
S3150800145069FF014658B14E4505D101900222404622
S3150800146044F0DEFE0199204642F090FAEEE7013D8F
S31508001470EAD107B0BDE8F083D03A00202DE9F34160
S31508001480164601AB6A4605460F46FFF739FD044680
S31508001490F8B1009805F58168804503D005F20C453A
S315080014A0A84205D1238AB34200D02682002011E043
S315080014B00199FFF74BFF4FF0FF332146404626823E
S315080014C0636142F063FA00223946044844F0A8FEF4
S315080014D0ECE7172002B0BDE8F08100BFD03A002043
S315080014E02DE9F04F07468DB008460C46904650F059
S315080014F0F4FC002841D010230021204608AA4FF00A
S31508001500DCFE002839D106AE0823324603212046E0
S315080015104FF0D3FE88BB022120460DF10A024FF098
S31508001520ACFE054648BB0621204603AA4FF0B5FE89
S3150800153010B1172821D10395384605AB04AA08A986
S31508001540FFF7DEFC0546C0B1DDF810B007F5816A85
S31508001550DA4500F1180916D143695A1C019312D0CD
S3150800156008223146484662F09FF8019B40B10023A5
S315080015703246384608A9FFF763FD0DB0BDE8F08F7F
S31508001580039A9A42F9D296E80300BDF80A302B82EC
S31508001590039B89E803006B6158460599FFF7D6FE59
S315080015A02946504642F0F2F9424621464423044869
S315080015B050F08DFB0022034808A944F031FEDCE711
S315080015C0B0330020D03A002003685A8A4FF6FF73DA
S315080015D09A4217BF43F27803002303EB4213024AE9
S315080015E018BF9B1803607047A81B00202DE9F3411C
S315080015F0354C984694F8803006469B070D461746A4
S3150800160022D50DF10202FFF7B5FCE8B13A462946A4
S315080016103046FFF733FFB8B1A4F58053B3F8EC3D75
S315080016209F42ADF802300FD0394604F1200007F08A
S3150800163095FE48B9BDF80230434508D10121304628
S3150800164042F057F9044650B902B0BDE8F081414668
S3150800165004F1200007F082FE0028EFD1F4E74FF0EE
S315080016600008D6F80C3406F20C460193019B4BB1E0
S315080016701B7E1BB908F101081FFA88F801A8FFF7B5
S31508001680A3FFF3E72B46254603F1100C2A461868F4
S315080016905968083303C263451546F7D1B8F1010FF7
S315080016A04FF0000327820BD823760323022107482D
S315080016B0A3824FF0F8FB2146304642F067F9C3E7AC
S315080016C00122A3822276F6E7A83B0020D41B00203D
S315080016D0F7B50446D0F81004D4F8141400B34FF63E
S315080016E0FF7643F27805114A438AB34203D005EBE5
S315080016F043101044F8E7FFF709FE0026D4F8103423
S315080017000B4FC4F814640193019D65B12946204620
S31508001710FFF760FC6F612E7601A8FFF755FFF3E728
S31508001720C4F81014E9E703B0F0BD00BFA81B0020F9
S3150800173003000F002DE9F347054600260124D0F8DB
S315080017400C340193019A5AB1938A2BB1013B9BB28F
S31508001750938203B91476012601A8FFF735FFF1E74E
S31508001760D5F8143405F214480193DDF804A0BAF14B
S31508001770000F0AD0BAF814301BB10126013BAAF8AB
S31508001780143001A8FFF720FFEFE74FF001091B4FC0
S3150800179005F58265544620462946FFF79DFBA24675
S315080017A0044600B3838A03B9FEE7013B9BB20126D0
S315080017B08382002BEFD1C38A51468382B3409BB202
S315080017C0782B28BF782380F81890C3822846FFF71D
S315080017D0BDFD2146404642F0D9F802222146384648
S315080017E044F01EFDD6E736B90221054802B0BDE829
S315080017F0F0474FF070BB02B0BDE8F087D03A002042
S31508001800D41B0020014800F05FB800BFDC5200205E
S3150800181010B50446024A42F0C5F9204610BD00BF7D
S31508001820051800082DE9F04115460E468CB001ACA6
S31508001830804617460FCD0FC40FCD0FC495E8070095
S3150800184084E8070006F1310424F001046378022BCA
S3150800185027D1304610F01CF9054610B3362130461C
S315080018600DF101024FF0F9FCD8B9372130460DF1D8
S3150800187002024FF002FDA0B9BDF8023029464046E3
S315080018809DF8012042F07FF9237813F0300F08D134
S315080018903B78FF2B05D044233146034801AA50F074
S315080018A016FA0CB0BDE8F081B0330020054A016095
S315080018B0D2F8C42D1140016009B942F07EB942F050
S315080018C084B900BFA82B002070B50546044600223F
S315080018D015F80B1F114845F014F8FF26294620462F
S315080018E04CF072FC08B1E672F8E7E27A237B9A427A
S315080018F00AD0218960684FF01DFA014604F11000EC
S31508001900BDE870404FF05CBBA37A002BF1D0013BD9
S31508001910DBB2A372002BECD170BD00BFC83B002020
S315080019200148FFF7D1BF00BF6C540020002310B553
S31508001930C0E900338360FF2303730346064A04465F
S3150800194043F8102F8361054A1C3012F0E1F94FF471
S31508001950FA732046238110BD211900086119000871
S31508001960014842F070B900BF6C54002037B5114DDC
S31508001970044695F84130012B0AD9022B0ED105F100
S31508001980200006F0F3FD18B195F880301B0705D442
S31508001990204603B0BDE8304042F04BB90823009317
S315080019A0054B00211A4604F11C004FF004FD03B054
S315080019B030BD00BFA83B0020807F0A00024B93F889
S315080019C0C23D037342F001B9A82B0020002313B5CA
S315080019D0044601A90C4801930EF058FE88B90199EE
S315080019E079B123688B420CD02046FFF75FFF01A828
S315080019F04CF0FDFB054BB3FBF0F060602046FFF7AB
S31508001A00DDFF02B010BD00BF48380020C13F050009
S31508001A10F8B5036804468BB1A8270C4D05F50056A2
S31508001A20B6F86832206807FB035303F50953A83054
S31508001A3030339842206002D300232360F8BD217911
S31508001A4048F0C8F80028EBD0F8E700BFA81B00202C
S31508001A5010B5044605482179206048F0BBF820B93E
S31508001A602046BDE81040FFF7D3BF10BD183E002042
S31508001A70002313B5064A6946CDE9002342F033F937
S31508001A80044608B148F0A9F9204602B010BD00BFC7
S31508001A900400FEFF0B4B11F47E4FB3F8EC3D18BF64
S31508001AA0C1F3080110B519431446012242F02DF975
S31508001AB0014620B1204648F01EF9002010BD172027
S31508001AC0FCE700BFA82B002010B586B00C46684678
S31508001AD009494FF03DF99DF814303BB9BDF80C2083
S31508001AE0A38B68469A4203D111F0E4FF06B010BDF5
S31508001AF04FF037F9EFE700BFA81B002010B50C46DA
S31508001B0086B0FFF7E1FF2068616801AB03C3D4F82C
S31508001B10983001A90393A38B0848ADF81030A37F2A
S31508001B20C3F3031343F004038DF81230238CADF886
S31508001B30133011F0AFFF06B010BD00BFE41B002044
S31508001B4070B506460A4811F0ADFF80B9344634F838
S31508001B50085B65B1A37F1B0703D1013DADB2A8346D
S31508001B60F7E721463046FFF7C9FF0028F5D070BDD4
S31508001B70E41B00202DE9F04F87B06E460027054686
S31508001B80334930464FF0E4F8B846DFF8C89009F113
S31508001B90980A9DF814301FFA87FB73B10023B8F131
S31508001BA0000F04D1BBF10A0F01D8002B4CD02846F0
S31508001BB007B0BDE8F04FFFF7C3BF052231462846F8
S31508001BC042F0B0F8044630B92846FFF751FF0446FC
S31508001BD018B90323E3E74FF001084FF0010B20463D
S31508001BE048F0FBF896E8030084E8030004F12200B5
S31508001BF043F0B4F8BDF80C309DF80E10A383029B91
S31508001C0041F004012046C4F898300BF04FFEA37F3C
S31508001C105F446BF30303A3771CF00EF9A0609DF8ED
S31508001C2010209DF80F30214643EA022323845A46A2
S31508001C30484642F027FB22460021504609F018FC88
S31508001C4030464FF08EF8A4E707B0BDE8F08F00BF26
S31508001C50A81B00208C3B002010B50446054848F018
S31508001C6011FA18B1044B0344B3FBF0F000F5FA601F
S31508001C70206010BDA81B0020FF8B864737B5044699
S31508001C8005226846094942F000F80025009B43B141
S31508001C906846C3E91355A3F848505D65FFF7B8FED3
S31508001CA0F4E7C4E90133A38103B030BDA81B0020C3
S31508001CB02DE9F84F82461D480C46934656F0A7FE76
S31508001CC005468846D4E91691A0204E46B4F85070C9
S31508001CD0B4F852404743E4FB00613A4630460023D5
S31508001CE040F062F9541948EB030641463A46002388
S31508001CF0284640F059F9A41A66EB0306DAF80030CC
S31508001D005B1948F100089C4276EB080203D23C199D
S31508001D1046F10006F7E7A4EB0903CBF80030DAF83A
S31508001D2000002844201ABDE8F88F00BFA81B002031
S31508001D30F0B585B005460522154902A841F0A5FF6C
S31508001D4000264FF0FF37029CBCB194F84830DB09F7
S31508001D500FD0B4F8503063B1638FC3F30D0343B1AA
S31508001D602146284601AAFFF7A3FF874284BF2646D5
S31508001D70074602A8FFF74CFEE5E736B14FF47A713D
S31508001D800448B7FBF1F14CF0C6FC6E6005B0F0BD37
S31508001D90A81B002060390020436837B505461BB9E3
S31508001DA00024204603B030BD0C6800F10C02214621
S31508001DB0244842F078FA0028F2D169684B6BAB6088
S31508001DC0002BEDD091F8423013F01F0F94F8223013
S31508001DD004D191F8482012F07F0217D043F002038D
S31508001DE084F8223091F8412023689A7023681B787A
S31508001DF01B070FD56B682046D96B4DF0EBF86B685F
S31508001E00204693F840104DF02DF903E062F34103A4
S31508001E1084F82230696891F8493013B90A4B93F867
S31508001E20C23DA371284601AAFFF742FF019BA361A1
S31508001E306B689B6DE36194F822306FF3820384F834
S31508001E402230AEE78C3B0020A82B00200E2A7FB557
S31508001E5006460D461C461CD003D82AB10B2A2BD0A1
S31508001E60FEE70F2A28D0FBE793F84830009462F380
S31508001E70060384F8483094F8423062F3040384F881
S31508001E804230134600F10C021F4801F04DF904B028
S31508001E9070BD0B681B78180703D591F82230D9074F
S31508001EA02CD594F848305A1C02F07F0262F30603D8
S31508001EB0032A84F8483022D8AB88CBB12B689A78A5
S31508001EC084F841201B781A0712D595F82230DB07CB
S31508001ED00ED503A928464DF06DF8039B2846E36303
S31508001EE00DF10B014DF0A8F89DF80B3084F8403041
S31508001EF0304604B0BDE87040FFF71ABFFEE700237E
S31508001F0084F84830D8E700BF8C3B002000220B49F4
S31508001F1010B5C0E902120146094CC0E9002241F891
S31508001F20104FC0E90612026280F82420828590F8D4
S31508001F306E2022F0030280F86E2010BDD52100081D
S31508001F40112200082DE9F041DFF8B0810E4698F815
S31508001F50041898B017461D4604469DF878201F9B1E
S31508001F60002900F0C18090F82410002940F0BE80B6
S31508001F7090F86E1062F3000180F86E107AB1002BAB
S31508001F8048D106A9A8F580501CF00EFF06A90846F8
S31508001F904BF02DFF04F11C0106A84BF0F6FE209B22
S31508001FA02360219B636094F86E306FF3410384F8D5
S31508001FB06E30D8F8C42D226233680BB11A402262FB
S31508001FC010214C4844F0A1FB0646002800F09080FA
S31508001FD080238DF8043002238DF80530002387848A
S31508001FE08DF80730CDB9402394F82D208DF80630AA
S31508001FF0F2B1F1238DF81830A36A402A4FEA13414B
S315080020008DF81A104FEA13218DF81B108DF81C3025
S3150800201005D9FEE71868E061C1E74823E4E7D31C61
S3150800202004F12E010DF11D008DF8193061F04CFBFD
S315080020301A2301A88DF800304FF007F8C5B294F8B6
S315080020402D0018B106A84FF000F8C0B205440222C8
S31508002050694630468DF801504EF055FB054688B95D
S31508002060314601A84FF004F8054658B994F82D30C2
S3150800207063B902A80CF0F0FC304602A903F062FF2F
S31508002080054658B130464EF005FA29E0314606A80D
S315080020904EF0EEFF05460028EBD0F3E74FF6FF7348
S315080020A09F420FD1B8F8C03DBB420BD14DF0DEFAC6
S315080020B00146114810F064F894F86E3043F00203B4
S315080020C084F86E30FF23214604F1200001F82C3FE6
S315080020D04CF07AF800280CBF0123022384F8243038
S315080020E0284618B0BDE8F0810D25F9E70525F7E77C
S315080020F00325F5E7C83B002060390020A82B0020FF
S3150800210090F8243010B5012B0C4606D013F0FD0FBD
S3150800211014BF0C460024204610BD90F82C10024827
S31508002120A1714CF0E8FBF6E76039002090F82430FE
S3150800213010B5012B044602D0022B06D010BD103074
S3150800214011F09EFD0D4843F0B3FE0D484CF0E5FB3B
S3150800215094F86E309B070AD54FF6FF71084810F0C1
S315080021600FF894F86E306FF3410384F86E3004F17B
S315080021700800BDE8104011F017BD00BFD03A002096
S315080021806039002038B590F824300546012B0C46F6
S3150800219002D0022B18D038BD91F82E3043F08003B8
S315080021A081F82E301BF048FE094AA06192F85C3F80
S315080021B005F1100043F0040382F85C3F4FF4967172
S315080021C0BDE838404EF0FCBEBDE83840FFF7AEBF6C
S315080021D0A82B0020014841F053BE00BFA84B0020A1
S315080021E090F8243010B5012B04460DD100F12C01CE
S315080021F020304BF0E9FF10B1022384F8243003485D
S31508002200BDE8104043F054BE10BD00BFD03A0020D0
S315080022100148FFF7E5BF00BFA84B0020002313B510
S3150800222004468DF8043008210123054801AA11F057
S315080022306BFC10B99DF80430A37702B010BD00BF3F
S31508002240E41B00201FB5837F08218DF80830012381
S3150800225002AA0093034803AB11F066FC05B05DF8CB
S3150800226004FB00BFE41B002030B5837F85B08DF8E2
S315080022700F300DF10F030093002300F12C010446E3
S315080022801A460848FEF7ACFC054640B99DF80F30DB
S31508002290A27F9A4203D02046A377FFF7D3FF2846AA
S315080022A005B030BD2C340020012310B54377044611
S315080022B01BF0C2FD04F12C0120620248BDE8104063
S315080022C00CF09ABDD0320020437F10B5022B04468D
S315080022D007D1037FDB0704D50246094909484FF0B1
S315080022E0E1F9002294F83E30627762F3000384F83D
S315080022F03E3004F12C010448BDE810400CF0B6BD90
S31508002300C7410408B0330020D032002070B5044617
S3150800231008460D4649F0FAFB18BB04F12406304678
S3150800232049F06FFB38B908222946304661F0BCF9F6
S3150800233008B9002070BD33462868696803C30A488F
S3150800234004F12C014AF03BF80028F2D02046FFF7AA
S31508002350BBFF636A204663637368A363FFF7A4FF42
S31508002360E7E70720E6E700BFD032002070B500F1A6
S3150800237024050446284649F044FBD0B908222946D4
S3150800238004F1340004F12C0661F08EF970B9314677
S3150800239008484AF014F848B12046FFF795FF20464A
S315080023A0FFF762FF10B92046FFF77EFF002363623E
S315080023B06B6070BDD0320020436C052102480BB912
S315080023C04EF089BD4EF06FBDD41B00201FB50446E4
S315080023D001A90B4850F047F880B9BDF8061001204E
S315080023E0012901D94EF086FCB4F844300BB183427A
S315080023F004D9A4F844002046FFF7DEFF04B010BD58
S315080024006452002070B5044615480D4644F029F874
S3150800241008B9606470BD6A0706D5124E96F815317C
S3150800242053B12046FFF7D2FFEB07F3D52046BDE8A8
S315080024307040012141F01DBE96F84110032903D1D1
S31508002440204641F016FEEFE706F1200045F0F0F9C8
S315080024500028E9D096F8F31F0431C9B2F0E700BFA7
S31508002460C83B0020A83B0020F0B58FB00D461746A4
S3150800247000212C2203A81E4661F04DF94FF2BF0336
S3150800248024211248ADF82E304FF01EF80446D8B174
S3150800249004213A464EF044FF014690B92A461023D5
S315080024A020464EF025FF054658B9B18B03A80BF018
S315080024B001F92B4621460548009503AA11F002FDAD
S315080024C010B120464DF0E6FF0FB0F0BDB033002046
S315080024D038B50F4B00254360838B044603F0FE0393
S315080024E083830A238560A0F84C30857705624564A6
S315080024F02C3049F08AFF04F148006562A56241F074
S31508002500D3FD04F14A0041F0CFFD204638BD00BF97
S315080025106528000838B58B1E012B04460D4622D8BF
S31508002520037FDB0704D50246264927484FF0BAF849
S315080025302046FFF7C9FE94F8483013B994F8493095
S3150800254053B104F1480041F0AFFD04F14A0041F0EF
S31508002550ABFD032D02D038BD032D04D11B4D95F8D4
S31508002560D83663B9FEE7042D01D0012DF2E71848E5
S3150800257004F12C0149F023FF0028EFD0EBE784F89B
S315080025803C3004F12C0310220021184661F0C3F8F0
S3150800259005F5D96104F1240549F057FB284649F0A9
S315080025A030FA40B9636A6363A36AA3632046BDE849
S315080025B03840FFF779BE2046FFF756FE0028F5D0CB
S315080025C0C9E700BFC7410408B0330020A84B002064
S315080025D0D03200202DE9F04F93B004462C2200217A
S315080025E007A861F098F84FF2BF039248ADF83E305D
S315080025F043F037FF00283CD04FF6FE738E4FB7F8EE
S31508002600BC269A4235D0237FDD0732D4A7F57E60F3
S3150800261043F02FFF38B3894E96F8803098072BD5AC
S31508002620637F012B02D194F847306BB194F8483098
S3150800263013B994F84930E3B1022204F14A0104F1CE
S31508002640480061F031F8A0B125217D484EF03CFFE5
S315080026500546D0B90521204641F01CFD4DB1284656
S315080026604DF018FF05E0A7F57E6045F0E1F8002873
S31508002670D1D013B0BDE8F08F96F862301907F8D0BC
S31508002680B6F86430022BF4D1CAE7637F012B45D133
S3150800269094F84730002B41D10DF10C0C624604F139
S315080026A02C0304F13C08E646186859680833AEE876
S315080026B003004345F446F6D11023002128464EF080
S315080026C017FE002840F08A800823032128465D4A21
S315080026D04EF00EFE002840F08180022363771BF03F
S315080026E0ABFB206296F880309A077BD496F8623066
S315080026F01B0777D0B6F86430022B73D152480DF118
S315080027000B0111F037FC002868D19DF80B104948D9
S315080027100BAA03F0F9F800286AD05FE0B4F84C3049
S315080027200A2B00D0FEE70022484903A841F0ADFA7B
S31508002730DFF82891DFF828A104F1480B039BC3B101
S31508002740A3EB09084FEAE8080AFB08F81FFA88F815
S315080027504146584641F0EDFC28B1414604F14A008D
S3150800276041F0E7FC18B103A8FFF752F9E6E7A4F829
S315080027704C80B4F84C10364841F0ACFA80460BF061
S31508002780C3F800B9FEE703460DF10C0C00F1100E74
S31508002790624618685968083303C273459446F7D1E8
S315080027A010230021284603AA4EF0A2FDB0B908233B
S315080027B00321284608F160024EF09AFD70B91BF015
S315080027C03BFBD8F808200621801A4FF47A72B0FB32
S315080027D0F2F228464EF0BBFD002883D003287FF48A
S315080027E03EAF37E7B7F8BC261A490BA849F038FABE
S315080027F007A80AF037FF2946174B1148009407AA7D
S3150800280011F060FB07460028E8D1237F04F10C0588
S3150800281043F00103237703AB0FCB85E80F0067640A
S3150800282096F8801011F008017FF423AF03484BF0A7
S31508002830F5FD1EE7C83B0020A84B0020A83B00205A
S31508002840B0330020783D002064520020A81B0020E9
S31508002850103E0020883D0020C7410408183E00208D
S315080028603DCFF33C0148FFF7B5BE00BF8C520020B0
S3150800287070B501F1310323F0010393F901300546E0
S31508002880002B0E4688B01FDA062308AC8DF80730F1
S3150800289000F10C030FCB04E90F00524804A94FF0CE
S315080028A0F7FD00287ED0504804A949F088FD024665
S315080028B0002842D09DF80740062C29D8DFE804F006
S315080028C01C22313539393900042130460DF1070209
S315080028D04EF0C3FC044648B9102301460DEB03022B
S315080028E030464EF0EAFC04460028D6D02846FFF7C4
S315080028F063FD204608B070BD1BF09EFA03232862CC
S315080029006B77F3E7384805F12C0149F058FD08B90B
S315080029100024EBE72846FFF7D7FC2846FFF7C4FC58
S31508002920F6E72846FFF7D0FCF2E7284641F090FB89
S31508002930EEE72846FFF74AFDEAE72C4902A841F0E8
S31508002940A4F9029E86B3304604A90BF085F868BB45
S3150800295002A8FFF75DF8F4E7214605F1480041F0C3
S31508002960E8FB28B10122214605F14A0041F0F0FBB7
S315080029709DF80720002ACBD03346284604A9FFF73E
S3150800298073FDC5E7304604A90BF010F8002221466E
S3150800299005F1480041F0DCFB0022E4E72846FFF792
S315080029A015FDE5E70224A1E717249FE7104C114B14
S315080029B0341BE4105C439DF80730A4B2062BD7D825
S315080029C001A252F823F000BF592900088D290008F2
S315080029D085290008852900089D2900089D290008E1
S315080029E09D29000864520020D0320020A81B002030
S315080029F0183E00203DCFF33C38B501F1310323F0F2
S31508002A000103054658780C4602280DD11B7813F0A9
S31508002A10300F03D1442305484FF059F9214628467B
S31508002A20BDE83840FFF724BF38BD00BFB0330020EB
S31508002A302DE9F041DFF8B080531EA1EB08042849C0
S31508002A40E4104C43012B05461646A4B21ED800F1E5
S31508002A5048072146384641F06CFBA0B1B5F84C3022
S31508002A60A34205D12A461F49A8F668204EF01AFE49
S31508002A7000222146384641F06BFB0022214605F12B
S31508002A804A0041F065FB012E27D101E0012A1CD836
S31508002A9005F1480705F14A0602223146384660F034
S31508002AA003FE38B9052101204EF013F901462846E0
S31508002AB041F0F0FA21463846012241F049FB00224E
S31508002AC02146304641F044FB07E0032A05D121465A
S31508002AD0483041F02EFB0028DAD0BDE8F08100BF6F
S31508002AE03DCFF33CC7410408183E00200022C0E948
S31508002AF004228261027702620246024942F8241FD2
S31508002B00C2627047A52C00082DE9F04101F1310891
S31508002B1028F0010898F801300446022B0D4616469F
S31508002B2086B070D1362128460DF107024EF095FB86
S31508002B30002868D13721284603AA4EF09EFB0028B4
S31508002B4061D1382128460DF10E024EF096FB002879
S31508002B5059D128460EF09CFF0746002853D0206A14
S31508002B6008B14DF097FC122128484EF0ADFC2062C2
S31508002B70002848D035238DF8103006238DF81130FB
S31508002B800023394604A8CDF81230ADF816300EF0F9
S31508002B9037FF216A04A84EF06BFAA0BB392302223C
S31508002BA0206A02A98DF808304DF0ADFD58BB9DF896
S31508002BB00730C4E904772377BDF80C3060772383A0
S31508002BC0BDF80E304FF47A71638304F124004EF099
S31508002BD0F7F906F1200706F1100322461868596826
S31508002BE0083303C2BB421446F7D198F8003013F0F5
S31508002BF0300F08D13378FF2B05D0442332462946B7
S31508002C0002484FF064F806B0BDE8F081B033002002
S31508002C1010B58EB004462C22002103A860F07BFD77
S31508002C204FF2BF03206AADF82E30C18B637F01399E
S31508002C30C91A04F11D02012389B24DF041FD21464E
S31508002C4003A846F04BFF0023216A0748009303AA0E
S31508002C5011F038F918B1206A08B14DF01BFC0023B1
S31508002C6023620EB010BD00BFB0330020036A07B55B
S31508002C70024653B1037F5BB1416900924842014065
S31508002C80064B528B06484BF009FD03B05DF804FB72
S31508002C9003B05DF804EBFFF7BBBF00BF3142040881
S31508002CA0603900200148FFF7E1BF00BF1C53002030
S31508002CB038B58B05044610D5036A73B1074845F045
S31508002CC054FC054648B9206A4DF0E4FB256204F138
S31508002CD02400BDE8384010F0D3BF38BD3C50002072
S31508002CE0037873B50446BBB1052268460C4940F023
S31508002CF0CCFF0026651C009939B128464E6346F07C
S31508002D00B3FE6846FEF784FEF5E7201D0EF030FF99
S31508002D1004F10C00FEF7B2FF0023237002B070BD69
S31508002D20A81B00204B8F2DE9F341C3F30D0306467C
S31508002D300C4653B3684616494DF078FF1548164BAE
S31508002D40251AED105D43A0F55278ADB2009F5FB12C
S31508002D50294638464DF066FD4046394643F0E6F8C2
S31508002D6068464DF03BFEF1E72146701C676346F066
S31508002D707BFE301D224639460EF010FF06F10C0088
S31508002D8002B0BDE8F04141F063B802B0BDE8F08199
S31508002D90D03A0020183E00203DCFF33CF7B58B7F94
S31508002DA01546DA0907460C4606D103F00F03072B2A
S31508002DB002D1012241F066FA2B0737D4A37FDB093B
S31508002DC034D0638FC3F30D0383B31949194B651ABE
S31508002DD0ED105D436846A1F55271ADB24DF026FF80
S31508002DE0009E96B1294630464DF00BFD48B129465E
S31508002DF030464DF017FD96F82E3043F0800386F8DE
S31508002E002E3068464DF0EAFDEAE72146781C6663EF
S31508002E1046F02AFE381D224631460EF0BFFE07F15F
S31508002E200C0003B0BDE8F04041F012B803B0F0BDA5
S31508002E30183E00203DCFF33C104B73B5CC1A104911
S31508002E40E4104C436846A3F552711646A4B24DF0F9
S31508002E50EDFE009D7DB1214628464DF0D2FC30B1ED
S31508002E604EB195F82E3003F00703022B03D06846BF
S31508002E704DF0B4FDEDE7284602B070BD183E0020BF
S31508002E803DCFF33CF0B5002287B00C460646FFF767
S31508002E90D3FF4FF4804305466063238706F10C0091
S31508002EA040F0D6FF95B100272146301D8DF81470E5
S31508002EB04BF0D4F903A904F1340041F0BEF92A46CF
S31508002EC000913B460221024843F0A9F907B0F0BD3C
S31508002ED0D03A002070B54E6B05460C46DEB11D494A
S31508002EE01D4B611AC9105943304689B24DF089FC09
S31508002EF0014680B9224694F83930606343F080036E
S31508002F0084F83930281D0EF049FE05F10C00BDE89D
S31508002F10704040F09DBF94F83920D20919D1214656
S31508002F202846FFF789FF864213D02EB92146284640
S31508002F30BDE87040FFF7A6BF238FC3F30D0343B95F
S31508002F4094F83930224643F08003012184F8393059
S31508002F50D8E770BD183E00203DCFF33C73B50E464A
S31508002F600E4B0F49D31ADB104B43054699B2304630
S31508002F70144601914DF045FC70B1304601994DF06B
S31508002F8051FC2146681C46F05AFD28462146FFF7A3
S31508002F90A1FF002002B070BD1720FBE7183E0020F5
S31508002FA03DCFF33CF7B5937F0546DB090F4614463C
S31508002FB000D0FEE71B4E1C49931BDB104B433846DB
S31508002FC099B201914DF01DFC50BB384601994DF060
S31508002FD039FC2146681C46F024FD97F82E3003F08C
S31508002FE00703022B15D0638FC3F30D03012B10D9EA
S31508002FF0214601222846FFF71FFF014648B10190E6
S3150800300022462846FFF7AAFF0199A6F5527042F014
S315080030108DFF2146284603B0BDE8F040FFF75ABFAA
S3150800302003B0F0BD183E00203DCFF33C2DE9F0413A
S315080030301C4628230E46002194B0154620460DEB63
S3150800304003028DF81C108DF826104DF0E1FA1E4883
S3150800305005AA0CA900F05AFE10A848F08FFD60B327
S3150800306019480DF11E0210A900F068FE298F2046A6
S31508003070C1F30D01B4F820804DF037FA4FF6FF7210
S3150800308000233146CDE90223CDE900320E4805ABCF
S31508003090224601F0E9FA4146074620464DF025FA50
S315080030A06B8FC3F30D03012B03D9012130464BF077
S315080030B021FD384614B0BDE8F0810DF11E0105F179
S315080030C0340041F0BAF8D1E7D03A002010B50C46E2
S315080030D0002186B08DF8141002F1340003A90A46BF
S315080030E0019341F0AAF82146019B024801F03AFAF9
S315080030F006B010BDD03A002013B506220446094989
S31508003100684640F0C2FD009951B14B8FC3F30D03D9
S3150800311013B12046FFF706FE6846FEF779FCF2E78C
S3150800312002B010BDA81B00202DE9F04F9A4603787F
S3150800313087B005468846109C5BB313884BB3BAF133
S315080031400B0F666B08D003D8BAF1000F10D0FEE754
S31508003150AAF10E03012BFAD894F839306FF38613C7
S3150800316084F83930F6B921462846FFF78BFE10E079
S31508003170002EF8D0F28B9A4214D9228F043063F3CA
S315080031800D02214622874BF069F805F10C0040F044
S315080031905FFE2B78002B58D0284607B0BDE8F04FC5
S315080031A0FFF7AABFDFF8B490294BA4EB0907FF1075
S315080031B05F43002394F8391063638022C1F38011BA
S315080031C004F1280005F1010B8DF8143041F070FD6B
S315080031D001222146584646F04DFCB8F80430BFB2E5
S315080031E063B103A940464BF0EEFC03A90091534690
S315080031F032460121A9F5527043F011F896F82E309F
S315080032005B0710D194F8393013F0400F114B15BFF6
S31508003210D3F8742FD3F87C2F0132013214BFC3F8C8
S31508003220742FC3F87C2F394630464DF0EAFA38B188
S31508003230394630464DF0F6FA2146584646F0FFFB29
S315080032403146054842F072FE8DE707B0BDE8F08FBB
S315080032503DCFF33CA82B0020D03A0020183E002092
S3150800326037B50025184C294604F15000E5654CF0A1
S3150800327027FA6846C4E91555A4F5005109F00EFF6A
S31508003280009C5CB104F10C000021A5614CF018FA11
S315080032906846C4E9045509F00FFFF1E705226846B8
S315080032A00A4940F0F2FC009D5DB105F10C000021D1
S315080032B0AC614CF005FA6846C5E90444FEF7A8FB7C
S315080032C0F1E703B030BD00BFA83B0020A81B0020D3
S315080032D070B50646B8B004A80C4615464CF018FD5D
S315080032E00023326801A904A80193ADF808300392B7
S315080032F04CF023FD230E8DF80030230C69468DF81B
S31508003300013004A8230A04228DF802308DF8034000
S315080033104CF019FD062204A805494CF014FD29466F
S3150800332004A84CF016FD04A84CF0FFFC38B070BD9C
S315080033305A3C060870B5044696B041680EAAFFF7CF
S31508003340C7FF02AD0EA9002204F108004CF0E0F90F
S31508003350284640F0CFFF0AAE06A840F0CBFF30461D
S3150800336040F0C8FF284612A901224CF0D1F961683D
S3150800337020460EAA0139FFF7ABFF12A906A80122BB
S315080033804CF0C6F9616820460EAA0131FFF7A0FF86
S31508003390304612A901224CF0BBF96268082102F0F6
S315080033A07F02CDE90056034806AB013210F022F839
S315080033B016B070BD9039002010B50C4628304CF078
S315080033C07FF92146BDE81040014810F005B900BF55
S315080033D090390020836A994207D3036B01319942D9
S315080033E0816202D3014803F06DBF7047C83B0020D5
S315080033F0C36A426B01339342C36202D3014803F0A6
S3150800340061BF7047C83B002038B50B8804460D4697
S31508003410A3B10422683060F047F930B9BDE83840F6
S315080034204FF4801106484DF036BC2B684FF48011D6
S31508003430A3660348BDE838404DF021BC38BD00BF3F
S31508003440BC1B002000230249836344304DF0B8BDFD
S3150800345080EE360038B5436804468B420D4606D1E1
S31508003460BDE838404FF4807114484DF014BC013360
S315080034708B4210D1C26C00F144039A420BD090F8EB
S3150800348040302BB1D0E90E239A4215D3FFF7DAFF65
S31508003490012384F8403020466560FFF74BFF20463D
S315080034A00021FFF789FF00234FF48071E362034888
S315080034B0BDE838404DF0E3BB38BD00BFBC1B00205B
S315080034C010B50446836B0A4A01338363816C443022
S315080034D04DF070FDB4F86830A26B9A4206D3616865
S315080034E02046BDE810400131FFF7B4BF10BD00BF4C
S315080034F080EE36000148FFF7E3BF00BFEC38002036
S3150800350030B50446114887B00D4605907AB105983E
S3150800351040F0EBFE10230222CDE9015301231146A8
S31508003520009305A809231AF085FD20B1FEE754F09B
S31508003530A3FF0028EBD02068059B984201D040F0F5
S31508003540D4FE059B236007B030BD00BF0100020012
S3150800355030B50025044685B04560083040F0CAFEFF
S3150800356004F1180040F0C6FE4FF41C73E3632346CB
S31508003570174AC4E90B55C4E90D5584F8405043F879
S31508003580442FE36404F1540040F0B4FE04F16800EB
S31508003590656640F0C0FE94F86C3065F3000384F865
S315080035A06C3054F059FF4FF0004310212360236517
S315080035B0684655F00BF82A4669462046FFF7A0FFED
S315080035C004F1280029464CF07BF8204605B030BDAA
S315080035D0F534000830B503680446002B0D4685B05F
S315080035E00FDB694640F062FF10222946684660F004
S315080035F05BF830B94FF480210F484DF04CFB05B00D
S3150800360030BD012229462046FFF77AFF4FF4802174
S3150800361009484DF034FB4FF4807107484DF02FFBF5
S31508003620002320466360FFF785FE204605B0BDE807
S315080036303040FFF715BE00BFBC1B002030B5036D38
S315080036400446002B0D4685B015DB694640F048FF59
S3150800365010226946284660F027F860B94FF4002121
S315080036600A484DF018FB94F86C3043F0010384F8CF
S315080036706C3005B030BD2946204640F04BFF4FF46C
S31508003680002102484DF0FBFAEDE700BFBC1B002005
S3150800369038B50446006D0D4688420BD14FF400211B
S315080036A009484DF0F8FA94F86C3043F0010384F8B1
S315080036B06C3038BD40F019FE4FF4002102482565EC
S315080036C04DF0DDFAEFE700BFBC1B002038B5044615
S315080036D000680D46884206D1BDE838404FF480217F
S315080036E00C484DF0D8BA40F000FE4FF48021094846
S315080036F025604DF0C4FA4FF4807106484DF0BFFAC4
S31508003700002320466360FFF715FE2046BDE83840D3
S31508003710FFF7A6BDBC1B002010B5044608304BF0C9
S31508003720EFFF04F154000B4C4BF0EAFF20464BF038
S31508003730E7FF04F110004BF0E3FF04F120004BF023
S31508003740DFFF04F586704BF0DBFFBDE8104010F094
S315080037505FB800BFB4390020107838B51546C206E0
S315080037601C4601D5FE2038BD012916D1C307F9D458
S315080037708107C0F380030BD40BB90207F2D52346A1
S31508003780A28B29780A4855F050F90028EBD0E9E7CA
S31508003790002BF4D00307E5D4F1E70029E2D1850729
S315080037A0E0D44107DED40207DCD401469A8BE9E768
S315080037B0A81B0020002330B5084685B013600D46C7
S315080037C014468DF80C3048F0D9F910B9132005B015
S315080037D030BD01A905F1080048F057F9012206484D
S315080037E001A944F0B2FB20600028EFD0038C022B1D
S315080037F08CBF00201B20EAE7243C0020F0B587B0E8
S31508003800154603AA0F461E46FFF7D4FFD8B9CDF8CA
S3150800381011008DF815008DF8105036B130460DF1AF
S31508003820110141F0D9F98DF8150015B19DF815303B
S315080038305BB904AB0193002339460093044A01237C
S31508003840044803F0BDF907B0F0BD0720FBE700BF49
S31508003850603C0608C83B00202DE9FF41154601AA31
S315080038600E461F46DDF82880FFF7A4FF0446F0B988
S315080038700DB303238DF80830022338468DF8093036
S315080038808DF80A5041F0C9F98DF80B00B8F1000F10
S3150800389004D0404603A941F09FF904460234314654
S315080038A0064802AA8DF8094043F0AFF804462046B8
S315080038B004B0BDE8F0810724F9E700BFC83B002043
S315080038C07FB5154601AA0E461C46FFF773FFE0B9F9
S315080038D0072305B9F4B98DF8083001238DF80A5085
S315080038E08DF8093024B120460DF10B0141F074F929
S315080038F001308DF809003146074802AA43F085F8D9
S31508003900019B24B1227883F8302004B070BD83F877
S315080039103040FAE71846F8E7C83B002070B594B07F
S31508003920144603AA0E461D46FFF744FF60B9402D0C
S315080039300CD8631EDBB2FD2B08D822463146044854
S31508003940009504AB43F029F814B070BD0720FBE7D7
S31508003950C83B00202DE9F04715469846002388B055
S31508003960CDE9053307930E462846572104AB0DF1DA
S3150800397012024DF003FC0446002841D18146BDF8E9
S315080039801270BDF810301F44BFB2BDF81210B9420C
S315080039903AD20223284603AA4CF03AFE044678BBDC
S315080039A09DF80CA0BAF1010F0BD0BAF1020F13D093
S315080039B003A84DF04AFBBDF812301844ADF81200C2
S315080039C0E3E72846BDF812100DF10B024DF02BFC6B
S315080039D00446A8B9D146EBE7BDF8121003A8023190
S315080039E089B201914DF031FBBDF8122001990244CC
S315080039F005AB284692B240F0A1FE04460028D7D06F
S31508003A00204608B0BDE8F087B9F1000F56D0F38B11
S31508003A100222ADF812305923304603A98DF80C302E
S31508003A204CF071FE04460028EAD19DF80B305BBBCA
S31508003A3095F82B3028350693AB788DF81C30284638
S31508003A4041F06BF901461F484AF0DDFE8DF81D006E
S31508003A50284641F062F905A98DF81E00304640F067
S31508003A6075FF68BBBDF81210F28BC1F57F43FE33B4
S31508003A7013449BB2ADF810308DF80D303046022352
S31508003A8003AA4CF01DFEBBE740460DF10B0146F0BC
S31508003A900DF928B90322052130464DF041FCE0E72F
S31508003AA0C3680BB90422F6E782790693837A8DF800
S31508003AB014208DF81C3000F10805C0E706249FE79E
S31508003AC004469DE76039002010B5044606480FF005
S31508003AD0F1FB0246204641F020F9BDE810400146B8
S31508003AE0104641F043B900BF9039002002299FBF14
S31508003AF00A4B0B4A5B5C525C89BF142116210A22C9
S31508003B000223814206D3824206D383422CBF002079
S31508003B10012070470320704702207047613C060861
S31508003B20643C060810B50648144644F0C1FC30B19A
S31508003B302046BDE81040142200215FF0ECBD10BD00
S31508003B403C50002010B50748144607F071FE08B926
S31508003B50A37C33B92046BDE81040142200215FF04B
S31508003B60DABD10BD3C50002070B5044610220E4642
S31508003B7000215FF0D0FD94F83430002523F01F03B0
S31508003B8084F83430234615492561E582A56184F811
S31508003B90245084F82E50256343F8381F2364104BAD
S31508003BA03146C4E9113504F1BC0040F058FB3146F2
S31508003BB004F1D8000EF02CF90FF014FF2946A08264
S31508003BC0102204F14C005FF0A6FD6022294604F19C
S31508003BD05C005FF0A0FD204670BD00BFD93C000820
S31508003BE09540000810B590F8343004469B070CD46D
S31508003BF0012106484AF048FE012384F8BC3094F8AF
S31508003C00343043F0020384F8343010BD60390020A4
S31508003C1010B590F8343004469B072BD5D8304AF0B7
S31508003C202BFB002114484DF056F91448FEF77EFA8E
S31508003C3020464CF0EFFF04F110004CF086FE04F12C
S31508003C40BC00FFF74DF80021602204F15C005FF02C
S31508003C5062FD04F1380010F013F8002194F83430AE
S31508003C60A16123F0120384F834300548BDE81040FA
S31508003C704AF00ABE10BD00BFD41B0020A84B002086
S31508003C806039002091F82F30F7B51B0705460C461A
S31508003C9001D50E6906B9FEE7B04214D10522684679
S31508003CA00C493FF0F2FF05F1BC07009A3AB12146EC
S31508003CB03846FFF753F96846FDF7AAFEF5E7AB69FC
S31508003CC0A34208BFAA612146304603B0BDE8F040CA
S31508003CD04CF098BFA81B0020014842F0F5B800BF79
S31508003CE0D03A002038B504460D4607484AF0CCFDC0
S31508003CF004F1D8001DB1BDE838404AF0BDBABDE8A8
S31508003D0038400EF0E3B800BF60390020084610B509
S31508003D1014461146083047F0B8FE082220460549E1
S31508003D205FF0C2FC28B1044BB3F8EC3D23800123B5
S31508003D30237210BD96390020A82B002038B50B78C1
S31508003D400D46FF2B144605D14FF6FF73238001233A
S31508003D50237238BD064842F0A5FF10B1EB895BBA5D
S31508003D60F4E7214605F10800BDE8384047F08DBE66
S31508003D70C83B0020F0B50E4690F834308BB06FF390
S31508003D80000380F83430054628236A460021304669
S31508003D904CF03EFC9DF80830FF2B02D102200BB0F8
S31508003DA0F0BD264F284605F11C0202A9FFF7AEFF13
S31508003DB097F84130012B0BD806A847F0DFFEE0B193
S31508003DC0284605F1260206A9FFF7B8FF0020E6E710
S31508003DD09DF81820FF2A16D006A847F0CFFE00281F
S31508003DE0EED197F8803003F00A030A2B1DD132462C
S31508003DF06946284601F004F9D1E706A847F05AFFB4
S31508003E000028CBD0DCE7022B06D04FF6FF73EB84F5
S31508003E10012385F82E30D9E796F82F30DB07F4D53D
S31508003E2030464CF068FB0028EFD14FF6FF7107F1DA
S31508003E30200043F067FCE884EAE700BFA83B0020BF
S31508003E4010B49DF804401AB9CA775DF8044B704758
S31508003E500E2AFAD1CA7F0132D2B2CA77002BF4D021
S31508003E608B8BC3F30803002BEFD19442EDD802489D
S31508003E705DF8044B43F010BCC83B00202DE9F34124
S31508003E800F46194690F8343016469A0705469DF8A7
S31508003E90208004D40024204602B0BDE8F081012227
S31508003EA00E4844F052F804460028F3D03B681B78C5
S31508003EB09B06F0D51A2138464BF019FA58B1B8F1D5
S31508003EC0000F08D00F2300933246012321462846C7
S31508003ED0FFF7B6FFDFE70423F5E700BF243C002021
S31508003EE02DE9F0430D468FB00746914619F0A4FF19
S31508003EF095F82E30AE69DC0900F086802A8C002AF7
S31508003F004CD113F00704A0EB060621D1214628233D
S31508003F10284604AA4CF07CFB4D4806A948F04FFAFF
S31508003F20002871D1B6F5FA7F6ED39DF8113013F0DB
S31508003F30300FC3F3011256D195F82E3029466FF388
S31508003F40C713384685F82E3041F0F0FF02245BE0AF
S31508003F50012C23D12946ADF8062004A80DF1060246
S31508003F6041F0B7FEBDF80680294642460DF1060324
S31508003F7002A841F046FF044690B9BDF806309844B9
S31508003F80BDF80C301FFA88F853B1BDF80A20BDF801
S31508003F90101007F15C0042F0E0F9E8B9002433E0BC
S31508003FA0424629462B4841F009FEB6F5FA7FF5D375
S31508003FB070BBBDF80A20BDF8101007F15C0042F08E
S31508003FC0CCF90028B8D0838823F49F6323F007032D
S31508003FD043F49E638380AFE743795B0724D4B9F142
S31508003FE0000F25D1DAE7B6F57A7FA5D2032A0BD0DA
S31508003FF023F0300343F030038DF81130214628238F
S31508004000284604AA4CF05CFB20460FB0BDE8F083B6
S31508004010B6F57A7FCDD201380128BFD8424629465F
S315080040200C4841F0F7FDB9E7B9F1000F84D0022436
S31508004030BDF80C30EA8B1344A3EB0808BDF808302A
S315080040409845A2BF002303608380022CDCD173E766
S31508004050D03200205C39002010B590F83430044680
S31508004060190714D45A0712D4DB0610D441F093FF6B
S31508004070A06160B1038C2BB990F82F3043F0100380
S3150800408080F82F300248BDE810404AF026BB10BD24
S31508004090603900200148FFF7DFBF00BFD03A002093
S315080040A038B51D4683690446ABB193F82E20D2096C
S315080040B000D1FEE741B193F82F206FF3041283F87D
S315080040C02F208369DB8BC382A069E18AC38B8B426D
S315080040D007D94CF00AFA04F14400BDE838400FF05D
S315080040E063BD90F82E3000216FF3C71380F82E3089
S315080040F0A0694CF0FAF94DB1A369802293F82F1004
S3150800410005F12800C1F3001140F0D2FDA16991F82C
S315080041102E3058070AD191F82F30DA064BBFE36CD8
S31508004120636D013301334CBFE364636591F82E3048
S31508004130C3F3C303022B06D00A2B08D02046A16975
S3150800414041F0F4FEC7E70648FEF71CF8F6E791F8D3
S315080041502F30DB07F2D5034842F0C2FDEEE700BF79
S31508004160A84B0020C83B002038B505465C3042F015
S31508004170E3F80446284641F0D6FF30B92CB9214663
S31508004180BDE8384001484CF0A6BE38BDD41B002017
S3150800419007B5134691F82E20520702BF026D013269
S315080041A002650022034800920AF0E8FA03B05DF8B7
S315080041B004FB00BFF031002030B591B01C4601A8C1
S315080041C0154B47F069FB054688B9BDF8040040BAA7
S315080041D0C0F385100AF0E6F89DF80A3020703A2BED
S315080041E008D19DF92C30002BA8BF03202070284643
S315080041F011B030BD112BFAD144F64C53BDF82E2020
S3150800420052BA92B29A4203D04FF2BF039A42EED103
S3150800421003232370EBE700BFA81B00202DE9F0411C
S31508004220044603C91D4686B004AF87E803009046D6
S3150800423020462A4639460DF10B030C9EFFF7BCFFB4
S31508004240044620BB01219DF80B2003A84CF000F979
S3150800425021462246114803AB4CF060FC014630600B
S31508004260C8B13B462A460E48CDF8008041F033FCDB
S31508004270044660B9BDF81420049930684CF043FA36
S31508004280044620B9BDF8141030684CF022F92046CF
S3150800429006B0BDE8F0810324F9E700BFE81B00205B
S315080042A05C3900202DE9F0411D46002388B00446FC
S315080042B004A80E461746039341F091FD002840F0E6
S315080042C0B080BDF81430002B5BD13A463146204603
S315080042D0BDF8108000F0C8FF03AB009342463B468A
S315080042E031462046FFF79AFF002840F09A80039847
S315080042F0C38B434500F2958041464CF0CFF8002821
S3150800430040F08F80039EBDF81230736119F094FD5A
S315080043102946B06103984CF0B0FA039944480AF06C
S3150800432011FC00287DD020463A46039900F046FF46
S31508004330404B93F8B83D580707D4039B93F82F30A2
S31508004340D90702D5204641F0D4FE039904F110009E
S3150800435001224CF0ADFA002137484CF0A4FD039930
S315080043600A8CCB8B9A4209D304F110004CF0C0FAA0
S315080043703B462A4620460399FFF70AFF08B0BDE8E0
S31508004380F08104F1100106A84CF048FB069B03B324
S31508004390BDF81020D98B914216D1BDF812005A6982
S315080043A0904211D11A8CBDF8140090420CD1B288F3
S315080043B002448A4208DC93F82F106A7901F0010159
S315080043C002F00102914203D006A84CF007FBDDE794
S315080043D00393184B93F8B83D5A0707D4039B2BB998
S315080043E06B79DB0702D5204641F083FE0398C0B1FE
S315080043F0B3883268018C4CF063F9B18803984CF0A5
S3150800440068F8039895F90310283040F061FC039882
S3150800441029792A3040F090FC039E19F00DFDB06111
S315080044209DE703980028A9D04CF034F8A6E700BF0A
S31508004430E6380020A82B0020D41B00202DE9FF41D8
S315080044404FF00008154604460F461E46CDF80C8068
S3150800445000F00AFF03AB009342462B463946204636
S31508004460FFF7DCFEB0B9314603984CF006FA03991B
S315080044700B480AF067FB68B12A462046039900F004
S315080044809DFE2B46324620460399FFF781FE04B06F
S31508004490BDE8F08103980028F9D04BF0FBFFF6E75A
S315080044A0E638002001480EF0EFB800BF603900205A
S315080044B0002337B58DF80730136815461B7803F0C7
S315080044C00703032B1AD0D9B1CC8B003C18BF0124A3
S315080044D010480EF0D9F8A8B128460DF107014AF0A0
S315080044E031FF95F8223043F0080385F822307CB175
S315080044F028460DF107014AF030FF09E00124E7E7F5
S315080045000C46E5E795F8223060F3C30385F82230B8
S3150800451003B030BD60390020FAB9D9B1104B9942C1
S315080045200AD303F5D263994206D291F84830DB09DB
S3150800453002D0B1F8503083B991F8303099070CD4CD
S315080045405A070AD413F0080F0CBF4FF480504FF4E3
S31508004550005070474FF4805070474FF40050704732
S31508004560183E00202DE9F04F824685B03B48174695
S315080045709B460C460EF088F801228DF80C204FF663
S31508004580FE72DFF8E0908046B9F8EC3D9342ADF84C
S31508004590043002D03B7A022B08D1D9F8EE0DD9F8AF
S315080045A0F21D01AB03C302238DF80C30B8F1000FDE
S315080045B04FF0010239462A4840F2492608BF4926E3
S315080045C043F0C3FC424601465046FFF7A5FF304379
S315080045D085B2BBF1000F01D045F020053B7A0D22CC
S315080045E0012B9DF80C300CBF4FF400604FF440606F
S315080045F0012B0CBF4FF400414FF4404105432943BA
S3150800460020464AF05CFC20464AF071FA4AF07CFAE9
S3150800461020B12046B9F8C01D4AF0BFFAB9F8C01D46
S3150800462020464AF070FB394620464AF020FB2046D1
S3150800463001A94AF0EEFB002120464AF05BFAB8F1E0
S31508004640000F04D0224600215046FFF731FF002113
S3150800465020464AF009FE05B0BDE8F08F6039002013
S31508004660243C0020A82B00202DE9F04F2DED028BCD
S315080046708FB01F469DF86830BDF870900293BDF85C
S315080046806C30834603939DF87430BF4804930E46F6
S3150800469014460DF0F9FF4FEA992308EE903A019077
S315080046A0BB7C012B3B7A0CBF4FF400684FF4406883
S315080046B0012B0CBF4FF400414FF44041019B48EADF
S315080046C00108002B40F0EF8007F10A050122294670
S315080046D0AE4843F03AFC019A01465846FFF71CFFDC
S315080046E0BB7C48F0010848EA0000022B81B206D0DC
S315080046F0012B7A8903D14FF6FF739A4201D041F014
S31508004700200194F82F2094F82E3012F00102C3F3FA
S31508004710C3030AD0012B41F0080100F0C780042B1F
S315080047200CBF0022082242F00502012B00F0C080CF
S315080047300E3303F00F03012B8ABF954BB4F8248080
S31508004740B3F8C08D924BB3F8C03D434517D101F479
S315080047504053B3F5805F04D001F44C43B3F54C4F96
S315080047600DD001F47053B3F5305F06D121F47F53B1
S3150800477023F03F03B3F5404F01D041F040013046E6
S315080047804AF09DFB30464AF0B2F94AF0BDF918B135
S31508004790414630464AF001FA7D4B3046B3F8C01D13
S315080047A04AF0B1FA294630464AF061FA39463046A7
S315080047B04AF02FFB019B23B1324621465846FFF7A4
S315080047C077FE30464AF024FD059030464AF032FD21
S315080047D00599024607A84BF007FC029B002B3ED022
S315080047E030464AF052FC804630464AF01BFD0546E4
S315080047F030464AF00DFD08EB0502C2F17F02DFF8EC
S315080048009881014692B207A84BF0EEFB98F8413022
S31508004810022B5AD0494608F1200042F05CFF1028C6
S3150800482005464BD0494608F1200042F06BFFC0F31D
S31508004830872108F1200042F0DDFB2844C0B2C9F305
S3150800484008030BB10130C0B201300399C3B24A461E
S3150800485009A841F0F9F907A909A841F058FAB4F8E6
S3150800486020A0BAF1000F40F09980BDF82030BDF8BD
S31508004870228008EE103AA8F10403ADF82230029B14
S315080048802BB3039BADF82E90ADF8243001238DF899
S315080048902C308DF8363021463E4807AB09AA40F041
S315080048A013FE18B3FEE748F400780DE710223AE73E
S315080048B094F826304FF6FF78B37143E718EE901A4E
S315080048C008F1200042F096FBB9E71120B7E73B460E
S315080048D009AA07F1100C154618685968083303C564
S315080048E063452A46F7D118682860D4E7238CE58BF8
S315080048F0ADF82280ED1A049BADB23BB9BDF8203065
S31508004900A8EB03081FFA88F8A84564D294F82F1074
S3150800491011F0010119D0636943B3E38BA28AC3F38B
S315080049200A036FEA83436FEA93435BBAADF818301C
S3150800493053BAADF81A3018EE101A042306AA07A8B7
S315080049404BF0A0FB002846D0FEE7204605914BF029
S31508004950D2FD0028DFD0204605994BF0C6FD94F815
S315080049602F3043F0010384F82F3099E6BBF8143052
S3150800497013B90123ABF81430BBF814305A1CABF842
S3150800498014206361C9E700BF60390020243C002079
S31508004990A82B00205C390020A83B0020E38BA28AC4
S315080049A0C3F30A036FEAC3436FEAD3435BBAADF8AE
S315080049B0243053BAADF8263005224FEADA0309A99E
S315080049C007A88DF828304BF014FB00B1FEE7E58BFD
S315080049D0238CED1AADB2BDF82020BDF82230214651
S315080049E09B1A9BB29D4284BF23F007039DB22B46B8
S315080049F0228C07A84BF027FB00B1FEE73046BDF82E
S31508004A0020104AF031FC238C1D44E38BADB2AB4237
S31508004A1003D9012130464AF06DF8204651464BF03D
S31508004A2064FD28460FB0BDEC028BBDE8F08F00BFD1
S31508004A307FB590F834300A469907044603D4002512
S31508004A40284604B070BD81690029F8D043F00803F0
S31508004A50156880F8343091F82E3013F0070203D029
S31508004A60012A3CD0CB8B38E0C3F3C303022B06D113
S31508004A7029462048FDF744FB05460028DFD01E4896
S31508004A800DF002FE50B1A0694BF035FD30B1A269B8
S31508004A9092F82F3043F0010382F82F300026638EF8
S31508004AA0A2690293238E2946019394F8343020464E
S31508004AB003F001030093039604F11C03FFF7D4FDEA
S31508004AC0A369E08293F82E20C2F3C3020A2A09D109
S31508004AD093F82F20D20705D5DB8BE382AFE72A466A
S31508004AE000F04AF995F822306FF3410385F8223031
S31508004AF0A6E700BFA84B002060390020F0B50C4699
S31508004B008DB00021054620464BF0EFFC002363617B
S31508004B1019F092F92146A06128464BF08EFF94F8C9
S31508004B202E3013F007017AD12823204602AA4BF02B
S31508004B306FFD9DF82030FF2B4AD108A847F0D2F820
S31508004B4028B994F82E3043F0800384F82E3094F870
S31508004B502E30C3F3C303052B54D01022324908A8BC
S31508004B605EF0A2FD28B11022304908A85EF09CFD2F
S31508004B70A0B9012268462E493FF087F805F1BC0620
S31508004B80009A002A3ED0937FDB0903D1214630469E
S31508004B90FEF708FA6846FCF73BFFF1E7012268468C
S31508004BA023493FF072F805F1BC07009E56B3B37F60
S31508004BB0DB0909D1304608A908F04EFF20B1324674
S31508004BC021463846FEF7EEF96846FCF721FFECE782
S31508004BD00122184808A906F0A5FB0246E8B1837F1A
S31508004BE0DB091AD194F82E30DB0916D1124B9842FC
S31508004BF013D303F5D26398420FD2214605F1BC00C0
S31508004C00FEF7D0F92146284641F014FA05F144008A
S31508004C100EF0CAFF00200DB0F0BD94F82E3043F018
S31508004C20800384F82E30EDE7A03D0020B43D002037
S31508004C30A81B0020243C0020183E00202DE9F04740
S31508004C408CB006460F460146684690464BF0EEFF86
S31508004C50DFF8989006F1BC0A009C002C42D0B8F107
S31508004C60000F05D094F82E30C3F3C303434510D183
S31508004C703A4621465046FEF771F930B194F82E505F
S31508004C8015F0070509D0012D1BD02146304641F005
S31508004C904DF968464BF0A2FEDEE72823294602AA0C
S31508004CA020464BF0B5FC0122484608A906F03AFB17
S31508004CB08742EAD194F82E3065F3C71384F82E306C
S31508004CC0E3E7214602A841F015F82A464846BDF80A
S31508004CD00A1043F018F98742D7D194F82E306FF3AB
S31508004CE0C713EBE70CB0BDE8F08700BF243C0020F3
S31508004CF0F0B591B00446014602A84BF097FF1D4E49
S31508004D0004F1BC07029D9DB395F82E30C3F3C30387
S31508004D10092B29D128230021284606AA4BF078FC1E
S31508004D209DF83030FF2B0ED00522314604A83EF000
S31508004D30ACFF049A3AB129463846FEF70FF904A89B
S31508004D40FCF766FEF5E7A3690321AB424FF00003C3
S31508004D50204608BFA36100932A46002341F05FFA64
S31508004D60294620464BF04EFF02A84BF037FEC9E70E
S31508004D7011B0F0BDA81B00202DE9F04114460546E8
S31508004D800E46FFF78FFB48F66921071E48F66908A5
S31508004D904FF0010218BF88461E4805F1260143F068
S31508004DA0D4F83A4601462846FFF7B6FB48EA00001B
S31508004DB00D2281B220464AF082F8174B2046B3F8F6
S31508004DC0C01D49F0EAFE2046E98C49F023FF20463B
S31508004DD005F11C014AF01DF827B12246314628463E
S31508004DE0FFF766FB2046F78B4AF024FAB84200D252
S31508004DF0FEE720464AF00CFAF38B024600213046BD
S31508004E004BF0E6FB2046F18B4AF02EFAF38BEB8249
S31508004E10BDE8F081243C0020A82B002013B50446E9
S31508004E20684640F067FFBDF802101A4842F06AFC6F
S31508004E304FF6FE73984201464FF0010208BFBDF8CF
S31508004E400210154843F05FF800B30123828B13491B
S31508004E50E284B1F8EC1D84F82E3084F8243094F8F6
S31508004E603430A18343F0010384F83430BDF80230AE
S31508004E70BDF800109A426386218605D094F834302E
S31508004E8043F0100384F83430002000E0022002B01A
S31508004E9010BD00BFC83B0020243C0020A82B0020E2
S31508004EA02DE9F0411A480D4616461F4642F06EFC9B
S31508004EB0C5F308080446B8F1000F01D00134E4B27E
S31508004EC001222946134843F01EF878B1837F03F080
S31508004ED00F03072B0AD1B8F1000F13D090F824005E
S31508004EE003F0F6FCA04228BF2046C4B24FF6FE7374
S31508004EF03A889A4202D03378A34201D93D80347069
S31508004F00BDE8F081A90A024842F074F8EAE700BF52
S31508004F10C83B0020243C0020F0B51E460023ADF512
S31508004F20097D019310238DF801304FF6FE73012A8F
S31508004F3005460F461446ADF8023017D9022A3FD166
S31508004F402D4C204607AA01A943F073F8002837D14B
S31508004F509DF81C30BB42F4D12846BDF81C120DF151
S31508004F6002030DF10102FFF79BFFEAE7224802AAB6
S31508004F7043F09EFAA8BB204F384607AA01A943F07A
S31508004F803AF8E8B902A907A846F001FD0028F3D0C7
S31508004F90012C10D09DF82D30DA0602D413F0200F1C
S31508004FA0EAD02846BDF830100DF102030DF10102D2
S31508004FB0FFF776FFE0E79DF82E3013F0020FEFE7D4
S31508004FC0BDF80240C4F3080343B10C4800F002FCE4
S31508004FD004F47C44A04218BFADF80240BDF8023084
S31508004FE033804FF6FE73BDF8020098420CBF0420CA
S31508004FF000200DF5097DF0BD3C500020C83B00207F
S315080050002DE9FF41138C04460E46174663B3538CAD
S3150800501063864FF6FE73618E994233D0DFF85C8162
S315080050203246B8F8EC3D08F58150238604F0CEFCEC
S31508005030054640BB618E08F58150798442F062FBD3
S315080050400123628EE084824284F82E301BD084F8D5
S31508005050243094F83430228E23F0110343F01103E0
S31508005060A28384F834300EE018313D48039141F0AC
S3150800507019FE0399804650B1F38C5BBAC3F38522B7
S315080050803F2AC5D10225284604B0BDE8F081344838
S31508005090039141F016FE0399002841D0F58C6DBAAC
S315080050A0ADB2B5F57C4F04D12E4B93F83F309B0239
S315080050B0AEE74FF60F439D4207D8424604F1320346
S315080050C02046E9B2FFF728FF11E04FF62F439D422D
S315080050D004D80222103D04F13203F1E74FF63743B4
S315080050E09D4208D8204804F132010CF0A3FA05467F
S315080050F000288ED0C7E74FF638439D4206D14FF6B3
S31508005100FE721A4BB3F8BC369342BAE705F57073CC
S315080051109BB20E2BB6D801223F3D04F13203CFE7EE
S3150800512001221348039106F0FDF8039908B1838B11
S315080051306EE71048039106F0B7FB0399034604F19E
S31508005140320220B101230C483EF0A4FCCFE70092BE
S3150800515008480A4606F1080143F0DDF959E700BF99
S31508005160C83B0020A83B0020D0320020A84B0020D6
S31508005170243C00203C500020184C0020A82B00207E
S3150800518070B516460C468EB02C22002103A85EF098
S31508005190C2FA084B07AD0FCB64BA85E80F000022A8
S315080051A00121009603AB0448ADF82A4009F006F839
S315080051B00EB070BD883D00201432002070B5137AF9
S315080051C00546012B0E46144690B025D1937C012B3B
S315080051D022D10522218811483EF097FD10B1837F20
S315080051E09B0619D5314601A846F035FBA0B99DF8AE
S315080051F01C30FF2B10D00A4807A906F055FB58B1FA
S315080052006189084801AA04F0E1FB042804D128466C
S31508005210218801AAFFF7B4FF10B070BD103E002028
S315080052203C500020C83B002070B590B006460C4B99
S3150800523001A8154646F030FB17280FD0698909489A
S3150800524001AA04F0C3FB0428044604D13046298881
S3150800525001AAFFF795FF204610B070BD0024FAE7B3
S31508005260A81B0020C83B002010B51446A37C528911
S31508005270012B90B003D14FF6FF739A422DD0237AB3
S31508005280012B2AD12246164B01A846F005FB20BB66
S3150800529005A846F016FC50B9124803A906F004FB07
S315080052A028B163892288104803A9FCF79FF903A946
S315080052B001220E4806F036F8014670B1837F9B0638
S315080052C00BD40B482288B0F8EC3D9B0AB3EB922F1F
S315080052D003D000F5815004F059F810B010BD00BF96
S315080052E0A81B00203C500020184C0020243C00201D
S315080052F0A82B002070B500F15C040D464A882046AC
S3150800530019469DF8106041F028F858B9AD885DB97E
S315080053103346204641F032F82946BDE87040034836
S315080053204BF0C1BDF023037170BD00BFD41B002034
S315080053302DE9F0471F4600238CB08DF824308DF8F0
S315080053402E307B790646DB070C46904628D505A8FD
S3150800535040F0ADFC20BB0125BDF81430DFF81491F0
S31508005360ADF81C30BDF816302146304607AAADF810
S3150800537026308DF824508DF82E50FFF775FFBDF8AE
S315080053802610B9F8EC3D8B420DD1204640F0FFFCC3
S3150800539000285BD03B462146304607AAFEF782FF27
S315080053A00CB0BDE8F08709F5815003F0D7FF002857
S315080053B0EBD19DF81830002BF2D0BDF82620B8F8AE
S315080053C0001009F581508DF80F5042F019FA214660
S315080053D0304607AAFFF728FF82460028E0D105A82D
S315080053E040F090FC0DF10F032146304607AA40F025
S315080053F0F1FF29469DF80F2004A84BF029F8294605
S31508005400524604ABA9F57C604BF088FB054600289C
S31508005410C6D0014605A840F099FC38BBA288216889
S3150800542028464BF070F9044600BB394628464BF02F
S3150800543024FA2146304623462A46CDF8008040F015
S31508005440EEFE29463046FFF759FBA9E7A388002B4D
S31508005450A6D023681B7803F0E003602BA0D13B4657
S315080054602146304607AAFEF7E9FF99E728464BF09A
S3150800547011F895E7A82B002038B590F82150044676
S315080054808D4205D1BDE8384004211B484BF003BCCA
S3150800549080F82110042118484BF0F1FB94F82130CC
S315080054A0042B09D8DFE803F00310161C2200B4F811
S315080054B048310133A4F848318DB194F842306FF37E
S315080054C0030384F842300AE0B4F84A310133A4F8F9
S315080054D04A31F1E7B4F84C310133A4F84C3138BD00
S315080054E0B4F84E310133A4F84E31E5E7B4F850313B
S315080054F00133A4F85031DFE7BC1B002090F82130B7
