:020000040800F2
:1000000000120020918B020855E5060855E5060808
:10001000A3D1060855E5060855E5060855E5060886
:1000200055E5060855E5060855E50608510200089D
:1000300055E5060855E50608E101000841C6060831
:1000400055E5060855E5060855E5060855E5060890
:1000500055E5060855E5060855E5060855E5060880
:1000600055E5060855E5060855E5060855E5060870
:1000700055E5060855E5060855E5060855E5060860
:1000800055E5060855E5060855E5060855E5060850
:1000900055E50608058A020855E5060855E50608EF
:1000A00055E50608498602082586020855E5060832
:1000B00055E50608F92F0408E93904086D7B07089F
:1000C000697B0708D1310408797B0708717B070831
:1000D000C1390408757B0708293A04088D3A0408D9
:1000E00055E5060855E5060855E5060855E50608F0
:1000F000AFD1060855E5060855E5060855E506089A
:1001000055E5060855E5060855E5060855E50608CF
:1001100055E5060855E5060855E5060855E50608BF
:1001200055E5060855E5060855E5060855E50608AF
:1001300055E5060855E5060855E5060855E506089F
:1001400055E50608B150020855E506083DD10608F8
:10015000F915040855E506085B7807086178070873
:1001600055E5060855E5060855E5060855E506086F
:100170000B4A1168086806C881F30B88022181F3D5
:100180001488203080F30988BFF36F8F4FF0000090
:1001900080F31188104700BFAFF30080AFF30080F9
:1001A000F0640020000000000000000000000000DB
:1001B00007480068006880F3088862B661B6BFF33C
:1001C0004F8FBFF36F8F02DF00BF00BFAFF3008020
:1001D00008ED00E00000000000000000000000004A
:1001E000EFF309801EF0100F08BF20ED108AEFF327
:1001F0000B82734620E9FC0F114A116808604FF02A
:10020000300080F31188BFF34F8FBFF36F8F1EF064
:1002100073FC4FF0000080F31188094A11680868E8
:10022000B0E8FC0F13F0100F08BFB0EC108A82F397
:100230000B8880F309881847AFF30080AFF3008084
:10024000F06400200000000000000000000000003A
:100250001EF0040F0CBFEFF30880EFF30980044990
:10026000084700BFAFF30080AFF30080AFF300801A
:10027000AFBB0608000000002DE9F04F2DED028B0A
:10028000DFF8C0918DB0B9F800309A0706D440F27B
:100290002761654B654A664852F02AFADFF8A8B133
:1002A000DBF8003023B94FF4C561624B5F4AF2E7D7
:1002B0009B88614C8DF81730012394E807005F4D4F
:1002C0000DF1180888E80700B9F800200DF11701B2
:1002D0001A46286876F07EFE9DF81720DBF800109D
:1002E000023A0023096892B20C3428680DF1240AFE
:1002F00076F070FE94E80700DBF800308AE807002B
:100300001B681C7814F0200421D0286876F08CFC3F
:1003100000286FD0286876F087FC04460B9851F0CF
:1003200011FD064620460F4651F00CFD02460B46D5
:1003300039A1D1E9000151F0A9FE02460B46304631
:10034000394651F0C3FB52F011F80B900124286894
:1003500076F086FC9DF8173000284FD0981DC0001D
:1003600051F000FD2EA3D3E9002351F065FD41ECCF
:10037000180B286876F074FC03900B9851F0E2FC9F
:10038000039B064618460F4651F0DCFC02460B461E
:1003900051EC180B51F07AFE02460B4630463946B6
:1003A00051F094FB51F0E2FF0B90B9F80030DBF80C
:1003B00000209B062868917926D50B9B03F5FA73DC
:1003C0000B9392F8203022468DF81A301C4B1B7884
:1003D000CDF800A08DF81B30434676F0AFF920B180
:1003E000022020F0DFFB6CF0E7FA0DB0BDEC028BD1
:1003F000BDE8F08F0B9BC0330B93A7E70B98063338
:1004000000EB43130B93D0E75346224676F080F976
:10041000E5E700BFAFF300800000000060E3664145
:100420000000000080842E41116C08085B710808F0
:10043000716A0808376C0808407008087C70002052
:1004400060180020A4A000206471002000000000BB
:10045000754B73B5198811F0010140F0DC8041F64D
:100460000B22724D724BC5E9003105F11003AB60F0
:10047000704B19609A80704B1B6ADB0706D440F200
:10048000B9316E4B6E4A6F4852F032F9284639F056
:10049000C7FF044620B940F2BD316B4B684AF2E712
:1004A0003BF0EEFB20B140F2C131684B644AEAE711
:1004B0004FF00111204676F075FD20B140F2C531B4
:1004C000624B5F4ADFE70221204676F08EFB20B1C7
:1004D0004FF472715D4B5A4AD5E720465C493BF0B8
:1004E0004DF920B140F2CB31584B554ACBE70121B1
:1004F000204676F00DFF20B14FF47471534B504AF3
:10050000C1E70121204676F01AFF064620B140F2ED
:10051000D3314E4B4A4AB6E701463C224D4882F061
:1005200006FD80233246204605F1140176F068FD71
:10053000802804D040F2DA31474B414AA3E7474DC7
:10054000012076F0E0F836A3D3E900232C602046A2
:10055000CDE900234FF0FF324FF0FF3376F0EDFB93
:1005600020B140F21731394B3D4A8CE7314820F039
:10057000C3F90121084620F02DFA0121286876F000
:1005800084FA044620B140F26E41304B354A7AE796
:10059000354B364A98801A60354B364A98801A6037
:1005A000354B364A98801A60354A6FF063005A61BD
:1005B0001AF09AFE0B2020F059F9324B186020B93E
:1005C00040F28C41304B274A5DE725F08BFD2146F8
:1005D000286876F091FC20B140F219411B4B2B4A60
:1005E00051E708222868114676F0C2FB044620B184
:1005F0004FF49261264B1B4A45E721F021FA254B27
:1006000025481C70254B1C70254B1C7002B0BDE8A2
:10061000704066F084BC02B070BD00BFAFF30080D4
:100620000B6020FFE2030000A4A0002088700020DF
:10063000990C0208807000200080E00F2B6F0808E2
:10064000D0700808716A0808446F0808D56908085E
:10065000E071080828710020536F08087C700020A2
:10066000C37008084C710808E8590020C0A8002091
:10067000C059002040A80020105A002042A90020A4
:10068000385A0020247100208B6F080889700808F0
:10069000A66F080835A800202A70080841A9002084
:1006A00040A900200000000070B505463E4C8AB00D
:1006B00020B10023008823602EF0DCFC3B4876F05C
:1006C00083FA3B4E3B4B304633603B4B73602EF01E
:1006D000ADFE0021304639F0A3FE31A3D3E900235B
:1006E000A062C4E9062370F0A5FFD4E906231943EC
:1006F00010434FF0FF33C4E90601CDE900014FF08C
:10070000FF32A06A76F019FB02224FF0FF31A06A97
:1007100076F02EFB01202EF03BFA4FF400730022FE
:100720002649A06A76F06CFCB0F5007F36D1002334
:100730009422CDE9073309933C23CDE90332059395
:100740009623A06A03A906933AF086FA25B3287C7B
:100750002EF02AFF0546E0B9A06A76F02BFE2EF0B7
:10076000CBFE2EF0F7F920B14FF4807000212BF072
:10077000E7FC2EF0FFF920B14FF4006000212BF0D0
:10078000DFFC012075F0BFFF0D4A0E49A06A70F032
:1007900048FF28460AB070BDFF20D9E70725F8E7D3
:1007A00009D5015520000000C05A0020690345EC1E
:1007B00098840020CDF202088C8400208C820020D6
:1007C000CB1507080B16070870B590B00E46044607
:1007D00006A909AD81E80C000023179928460F935C
:1007E00045F03AFC9DF858304FF00001B2682046C1
:1007F0000393159B049502939DF850300193079B3A
:100800009FED050B0093069B7BF0EFFA284678F0EE
:1008100042F9204610B070BD00000000000000004A
:1008200070B590B00E46044606A909AD81E80C00EB
:100830000023179928460F9345F080FC169B4FF034
:100840000001B26820460393159B049502939DF81E
:1008500050300193079B9FED060B0093069B7BF0A6
:10086000ECFB284678F017F9204610B070BD00BFA9
:10087000000000000000000070B590B00E46044675
:1008800006A909AD81E80C000023179928460F93AB
:1008900047F07CFD9DF858304FF00001B2682046CB
:1008A0000393159B049502939DF850300193079B89
:1008B0009FED050B0093069B78F0F4FB284678F03B
:1008C000EAF8204610B070BD0000000000000000F3
:1008D00070B590B00E46044606A909AD81E80C003B
:1008E0000023179928460F9347F096FD169B4FF06B
:1008F0000001B26820460393159B049502939DF86E
:1009000050300193079B9FED060B0093069B78F0F8
:10091000A2FC284678F0BFF8204610B070BD00BF9A
:1009200000000000000000002DE9F04F1F460023EA
:10093000044688464FF0000A4FF0000B2DED028B65
:100940009DB018939F4B13921B681846059382F035
:1009500033FC0546CDF85C80179B1A782B2A4ED0C5
:100960003BD80D2A34D8082A34D8002A3ED0002398
:100970000A93179E3378302B40F0B080737803F0E1
:10098000DF03582B68D10A9B17A9029720460193D1
:1009900018AB8D4A009319AB55F0E0FA10F0070739
:1009A000054605D0062F2CD10136002317960A9351
:1009B000139B002B40F08E850A9BEBB152460BF146
:1009C000004343EC102B1DB0BDEC028BBDE8F08F53
:1009D000202ACCD101331793BEE72D2AC7D101229B
:1009E0000A925A1C17925B78002BC2D1139BCDF848
:1009F0005C80002B40F06C8552465B46E1E70022AC
:100A0000EEE7189A3AB135211AA883F030F8189910
:100A1000204655F0C7FD013F042F06D8DFE807F058
:100A20000A0314170A00DDE91AAB2807C0D54BF0FA
:100A3000004BBDE7DDE91AA3199A23F4801302F2F3
:100A4000334243EA025BF0E7DFF880B1EDE76FF095
:100A5000004B4FF0FF3AE8E7179B5A1C17925B7860
:100A6000302BF9D0002BA3D001234FF000090493C1
:100A70000A22179B4F46CDF81C90089317980678CA
:100A8000A6F13003D9B209292AD92A46059982F05C
:100A90009BFBA0B3002032463D4603460590652AE5
:100AA00001D0452A18D11DB9049A02439ED00025D1
:100AB000DDF85C8008F10102179298F801202B2ADA
:100AC00075D02D2A7BD04FF0000CA2F130010929FE
:100AD00040F28280CDF85C8000269DE00023C4E7D0
:100AE000082F00F1010007F10107D4BF079902FBAD
:100AF00009391790DCBF02FB01330793BEE7179B50
:100B00005A1917925A5D002F36D03D460590A2F132
:100B10003003092B12D90123C1E7179B01305A1C5E
:100B200017925A78302AF8D0A2F13103082B00F23C
:100B3000D68405900020179B05460893303A00F1B3
:100B4000010313D0059900EB050E19442B460591BE
:100B50000A21734512D12B180135082B05441CDCE2
:100B600007990A2303FB012307930023179A1846CA
:100B7000511C17915278CAE73846D3E7082B04DC9A
:100B8000079E4E4307960133E3E703F1010CBCF1E6
:100B9000100FD8BF01FB09F9F5E7102DDCBF0A23C0
:100BA00003FB0929E1E70023059301237CE74FF0CC
:100BB000000C08F10202179298F8022085E74FF026
:100BC000010CF6E7B0160908741209080000F07F5E
:100BD000179A511C17915278302AF9D0A2F131019D
:100BE00008293FF679AFA2F1300E179A0692179AAC
:100BF000511C17915278A2F13006092E37D9069E62
:100C0000891B44F61F66082902DC7645A8BF764694
:100C1000BCF1000F00D07642002D4DD10499014364
:100C20007FF4C6AE002B7FF4E1AE692A27D024DC26
:100C3000492A24D04E2A7FF4D9AE9F4917A882F0C2
:100C4000A3FD00283FF4D2AE179B1B78282B2DD193
:100C50001AAA9A4917A882F0ABFD052826D11B9B3A
:100C6000DDF868A043F0FF4B4BF4E00BA0E60A214F
:100C700001FB0E2EAEF1300EB9E76E2ADBE790498C
:100C800017A882F081FD00283FF4B0AE179B17A88B
:100C90008C49013B179382F077FD10B9179B013304
:100CA0001793DFF830B24FF0000A81E6864800F073
:100CB0003FFC5BEC10AB7BE6059B002F08BF2F468B
:100CC000102D0798A6EB0303A846A8BF4FF0100805
:100CD000069351F037F8092D82468B4613DD7B4B86
:100CE00003EBC80353E9122351F0A6F882468B4662
:100CF000484651F027F802460B465046594650F0F8
:100D0000E5FE82468B460F2D38DC069B002B3FF418
:100D10004FAE24DD162B0BDC6C49524601EBC301B0
:100D20005B46D1E9000151F087F882468B463FE6E9
:100D3000C5F12503069A934220DBC5F10F05634CEC
:100D400052465B4604EBC501D1E9000151F074F84D
:100D5000069B5D1B04EBC504D4E90023E3E7069B77
:100D600016330BDB059B504659469E1B574B03EB36
:100D7000C606D6E9002351F089F9D6E7A5EB0808A5
:100D8000069B9844B8F1000F74DD18F00F030AD0E9
:100D90004E49524601EBC3015B46D1E9000151F0D7
:100DA0004BF882468B4638F00F084FD0B8F59A7F43
:100DB00022DD00252E46079505952223DFF814B184
:100DC0004FF0000A2360079B002B3FF4F1AD189908
:100DD000204655F0E7FB0599204655F0E3FB3146E8
:100DE000204655F0DFFB0799204655F0DBFB2946EE
:100DF000204655F0D7FBDBE5354B4FEA2818504627
:100E00005946049300239946B8F1010F21DC0BB138
:100E100082468B462E4BABF1547B524603EBC909FD
:100E20005B46D9E9000151F007F82A4B0A46824691
:100E30000B4029498B42BCD8A1F580118B4286BF5B
:100E4000DFF898B04FF0FF3A02F1547B002304938F
:100E500083E018F0010F05D0049BD3E9002350F084
:100E6000EBFF0123049A09F101094FEA68080832EF
:100E70000492C9E7EAD0C8F1000818F00F020AD0BE
:100E8000124B5046594603EBC203D3E9002351F0FD
:100E9000FDF882468B465FEA2818D7D0B8F11F0FBD
:100EA0001EDD00252E460795059522234FF0000AEA
:100EB0004FF0000B236086E76A4008088812090893
:100EC00071120908171A0908B56708086817090890
:100ED000401709080000F07F0000A07CFFFFEF7FB3
:100EE00018F0100350465946DFF8A89318BF6A233C
:100EF0000493002318F0010F04D0D9E9002350F027
:100F00009BFF01235FEA680809F10809F2D10BB1E0
:100F100082468B46049BC3B1CBF30A525946C2F1B9
:100F20006B03002B11DD1F2B40F32181342B4FF07D
:100F3000000ADBBFC2F14B024FF0FF334FF05C7B86
:100F400003FA02F2D8BF02EA010B00220023504646
:100F5000594651F0D9F90028A3D1079B3A46089980
:100F6000204600932B4655F087FB079000283FF45E
:100F700020AF059B00259E1B069B002BB4BF33466C
:100F800000232E460C93069B23EAE3731293079BE0
:100F90002046596855F0C6FA059000283FF40DAF79
:100FA000079B0C301A6903F10C010232920081F0A8
:100FB00097FF1AAA19A920464BEC10AB55F038FE42
:100FC00018904BEC18AB00283FF4F7AE01212046F7
:100FD00055F09CFB064600283FF4EFAE199B0499A0
:100FE000002BA3EB0108A9BF0C9A129A03EB02098C
:100FF000129FB8BFD71A1A9AA14B9044B8BFDDF818
:101000003090C2F1360208F1FF38984580F2C38073
:10101000A3EB080301211F2BA2EB030200F3AE8018
:1010200001FA03F30D930023089309EB0208049BD4
:101030001744C1451F444B46A8BF4346BB42A8BF07
:101040003B46002BC2BFA8EB0308FF1AA9EB03091C
:101050000C9B002B17DD31461A46204655F014FC38
:10106000064600283FF4A9AE0146189A204655F0DE
:1010700063FB0B9000283FF4A0AE1899204655F072
:1010800091FA0B9B1893B8F1000F00F38980069B2F
:10109000002B08DD129A2046059955F0F5FB0590C6
:1010A00000283FF48AAE002F08DD3A460599204615
:1010B00055F044FC059000283FF47FAEB9F1000FD5
:1010C00008DD31464A46204655F038FC06460028E1
:1010D0003FF473AE059A2046189955F09FFC0546DB
:1010E00000283FF46AAEC36831460B930023C36007
:1010F00082F06EFC00285DDA0B9B53EA0A037FD175
:10110000CBF31303002B7BD12BF000431B0D1B05EE
:10111000B3F1D66F74D96B6913B92B69012B6FDDED
:1011200029460122204655F009FC3146054682F049
:101130004FFC002864DD04995B46524A00297FD0A9
:1011400002EA0B01B1F1D66F7ADCB1F15C7F7FF777
:10115000ACAE4D4B50465946002250F06DFE0B464A
:1011600082468B46034304BF222323602FE64FF0C1
:10117000FF3202FA03F303EA0A0AE6E6C8F17F48FF
:101180000D9108F57F0808F57B4808F1E20801FA9F
:1011900008F3089349E70023089301230D9344E7DC
:1011A00042461899204655F0C9FB189000287FF454
:1011B0006EAF02E65F466FD10B9ACBF3130342B3D7
:1011C000324A934228D1049B5146EBB12D4B4FF04C
:1011D000FF323B40B3F1D46F19D81B0DC3F16B0341
:1011E00002FA03F3994217D1294B9F4202D10131F0
:1011F0003FF4E3AD234B4FF0000A3B4003F5801B67
:10120000049B002BA5D1E2E54FF0FF33EAE713463C
:10121000E8E753EA0A038ED0089BDBB13B42EFD0EC
:101220000B9B5046049A5946C3B181F0E1FF024638
:101230000B4651EC180B50F049FC82468B46DFE719
:1012400013404FF0FF3AA3F580136FEA135B6FEA88
:101250000B5BD5E70D9B13EA0A0FE0E781F0C8FFAF
:1012600002460B4651EC180B50F02EFC00220023D6
:1012700082468B4651F048F80028C1D015E600BFE1
:1012800002FCFFFF0000F07F00005039FFFF0F005D
:10129000FFFFEF7FA01209083146284682F0B4FB19
:1012A00000224FF0804310EE100A59EC108B494693
:1012B00051F03EF800287AD00B9B002B4AD0002238
:1012C000934B4FF00008DFF84892CDE90823914B8B
:1012D0003B400D930D9A904B9A4240F0B080A7F19D
:1012E000547BDDE908014BEC10ABCDE9080155F06A
:1012F00025FCDDE9080153EC102B50F09DFD524612
:101300005B4650F0E3FB0B4682498246834A194014
:10131000914260D918EE903A02F15472934204D18E
:1013200018EE103A01333FF448ADDFF8FCB14FF04E
:10133000FF3A1899204655F035F90599204655F0A1
:1013400031F93146204655F02DF92946204655F011
:1013500029F91CE6BAF1000F1BD1CBF31303F3B943
:1013600000226B4B4046494650F0D8FFD0B940466A
:10137000494600226A4B50F05FFD8046894609F1DC
:101380000043CDF850801593DDE91423CDE90823FF
:101390009DE7BAF1010F02D1002F3FF486AD002284
:1013A000604B8EE74FF00008DFF87491E7E75C4B85
:1013B00040464946002250F03FFD0B9B804689463F
:1013C00033B901F100430E900F93DDE90E23DDE701
:1013D000CDE90E89F9E703F1547B049B002BA8D1DA
:1013E0002BF000430D9A1B0D1B059A42A1D14046DC
:1013F000494656F095FA50F0F1FC02460B4640463D
:10140000494650F061FBCBF313030B9A804643EA45
:101410000A038946134355D035A3D3E9002350F07E
:101420007DFF00287FF4D3AC4046494632A3D3E980
:10143000002350F091FF00283FF47BAFC7E4049BEA
:1014400033B30D9BB3F1D46F22D8404649462CA349
:10145000D3E9002350F06CFFA0B14946404650F05C
:1014600085FF012838BF012050F06CFC0B9B8046A3
:10147000894623BB01F1004310901193DDE910234D
:10148000CDE90823099B0D9A03F1D6639B1A0993B2
:10149000B0EE480AF0EE680ADDE90801CDE908017E
:1014A00055F04CFBDDE9080153EC102B50F0C4FC67
:1014B00053EC182B50F00AFB82468B468DE7CDE9A2
:1014C0001089DBE710A3D3E9002350F027FFB2E730
:1014D00000230A93179B139A1360FFF76DBA652ACE
:1014E0003FF461AB452A3FF45EAB0123FFF796BBA7
:1014F0009535A094FFFFDF3F35E5AF350000E03FB5
:101500000000C0FFFFFFDF419535A094FFFFCF3FF4
:101510000000F03F0000F07F0000E07FFFFF9F7CB5
:101520000000E03F0000F0BFFFFFEF7F0000000081
:101530009FED010B704700BF000000000000F87F26
:101540002DE9F04F1D460023894683462DED048B7F
:10155000D3B019930B9256F00FF903681B781693CA
:10156000B9F80C301C061AD5D9F81030BBB9402197
:10157000584651F0A5FEC9F80000C9F8100058B946
:101580000C23CBF800304FF0FF330D930D9853B080
:10159000BDEC048BBDE8F08F4023C9F81430002364
:1015A0009FED8D7B0F931193B0EE478AF0EE678A23
:1015B0000D930B9B1C4653F8042B0AB1252AF9D135
:1015C0000B9BA3420DD0E61A0B9A49465846334668
:1015D00082F0B7FA013000F0E8800D9B03EBA60320
:1015E0000D932368002B00F0E0800021221D0A20CB
:1015F0004FF0FF340E460F4615910C9152F8043B04
:1016000009930B92099B392B4CD81F2B4FD9099B5F
:10161000203B192B4AD8DFE803F06B494970494950
:1016200049494949736C497A7D49989B9B9B9B9B8F
:101630009B9B9B9B332B39D8DFE813F0EB003800E2
:10164000EB0038003800380038009D0038003800C2
:1016500038003800380038003800380038003800CA
:1016600038002103380038003800380038003800CE
:101670003800380038003800A600D700EB00EB0037
:10168000EB00A000D70038003800A3003800890222
:101690009A02A702A3003800C602380016033800D9
:1016A00038004200099B453B332BC3D911B1099B3C
:1016B000002B7AD0099B00200A952A93159081E08F
:1016C00001B11596464B2A460F93F80652F8043B93
:1016D0000A9202D4790648BF9BB2FA0706D52BB10D
:1016E000302247F002071A92099A1B9202225AE20C
:1016F0000EB9099E01210B9A80E747F00107FAE72E
:1017000055F8043B002B0C93F5DA5B420C9347F041
:101710000407F0E70B9A52F8043B2A2B099312D1E5
:1017200055F8044B0B9244EAE474E4E700FB0434FC
:1017300052F8043B0993099B303B092BF6D944EA44
:10174000E4740B925EE70024F5E747F08007D2E7E8
:1017500000230C930C9A099B00FB0233303B0C9343
:101760000B9B1A4652F8043B0993099B0B92303BA2
:10177000092BEFD946E747F00807BCE747F04007D9
:10178000B9E747F01007B6E701B115962B1DF8062B
:101790000A9327D4286850F0C9FF411C0ED1B9F82C
:1017A0000C3043F04003A9F80C30B9F80C3013F0BA
:1017B000400F0D9B18BF4FF0FF33E6E62A90002044
:1017C0002B90159080460124064605460DF1A80A87
:1017D00008E100BFAFF3008000000000000000003F
:1017E000481909082B682A93E9E701B115962B1DC2
:1017F000FA060A9307D52B68002B02DA2D225B42EA
:1018000015920122D1E117F0400F2B6818BF1BB2CF
:10181000F2E701B1159607354FF0FF3225F00703C7
:10182000B3EC027BB0EE478AF0EE678A0A93B0EE23
:10183000479A18EE903A23F0004309EE903AA54BF0
:1018400051EC190B55F0DEFFF0B94FF0FF32A14B10
:1018500051EC190B50F06CFDB0B90022002351EC93
:10186000180B50F05BFD08B12D2315939A4B9B4844
:10187000099A27F080074FF000080324472A94BFF5
:101880009A4682464646D1E353EC182B51EC180B8E
:1018900055F0B8FF40B118EE903A9148002BBCBF0C
:1018A0002D2315938F4BE3E7631C00F00D81099BFB
:1018B00023F02003472B02D1002C08BF012447F45A
:1018C00080730DF1A80818AE17AD0E932823584663
:1018D000CDF81880079319AB03960593099B0295E1
:1018E00004930E9BCDE9004353EC182B82F056FA7B
:1018F0004045824640F0EA801999282940F3E68065
:101900008900584651F0DCFC804600283FF447AF80
:10191000199B0295CDE9060319AB58460593099B1F
:10192000CDE903630E9BCDE9004353EC182B82F005
:1019300035FA8246099B189D23F02003472B40F07F
:10194000D580EE1C199B02DBAC4280F2EB80099B38
:10195000023B09936B1E099A002B18931C92BABF85
:10196000C5F101032D222B22092B1D9240F3D180BA
:101970002AA80A250246043893FBF5F405FB143126
:10198000303142F8041C194623466329F2DC303317
:10199000A2F1080140F8043C1EA82AAB9942C0F00D
:1019A000B3800DF1B304A41A0B3A24F0030493425C
:1019B00038BF00241EAB1C441CA8241AA31011938A
:1019C000199B012B03EBA40402DC17F0010501D0E5
:1019D00001340025179E002E00F07D812D230E9FDF
:1019E00000261593A6423346B8BF23460E93159B97
:1019F00013B10E9B01330E9317F0020312931EBF17
:101A00000E9B02330E9317F08403139300F065814D
:101A1000159B43B1042315AA4946584682F091F814
:101A2000013000F06D81129B43B108231AAA494688
:101A3000584682F086F8013000F06281139B802BBB
:101A400013D10C9B0E9A9B1A002B10930DDD109B4B
:101A5000254A102B00F369819B00234A49465846CA
:101A600082F06FF8013000F04B81361B002E0CDD48
:101A7000102E1D4A00F36481B3001B4A49465846A4
:101A800082F05FF8013000F03B81F90500F16181DF
:101A9000A30052464946584682F053F8013000F000
:101AA0002F817A0700F17F820E99DDE90C238A42AB
:101AB000ACBF9B185B180D93B8F1000F56D0414690
:101AC000584651F0B1FB51E00624F8E64FF000080B
:101AD00030E700BFFFFFEF7FC4180908D4180908DA
:101AE000F4180908E4180908D4190908099B662B99
:101AF0007FF430AF07F00103002D43EA04030EDD4D
:101B0000FBB101342C4465E751F8044B40F8044B19
:101B100044E7302220AC13441E921F934CE793B14C
:101B2000023457E79D4205DBFC070ED56C1C67238A
:101B300009934FE7002DD4BFC5F1020401241C44D2
:101B4000F5E72C4646E7012444E72C46EFE701B1D0
:101B500015962B1DF8060A9303D52B680D9A1A606B
:101B600004E07906F9D52B680D9A1A800A9D20E5C4
:101B70002A4617F0100152F8043B0A9203D117F0DD
:101B8000400210D09BB200220DE02A46782147F097
:101B9000020752F8043B09910A923022CDE91A213A
:101BA000A44A0F92022200211591661C00F01882AF
:101BB00027F08001002B40F01782002C00F083807A
:101BC000012A40F0148260E02B46002617F0100531
:101BD00053F804AB15960A932DD1621C14D02246FB
:101BE00029465046264681F05DF908B1A0EB0A0669
:101BF000272E0ED9711C5846890051F061FB002830
:101C00003FF4CDAD804607E0504681F0D5FA064658
:101C1000EEE74FF000082AA834460023B34204D16F
:101C20000026824640F82360DCE61AF8032040F8DC
:101C300023200133F2E7631C11D02246314650467F
:101C400081F04CFC804600283FF41CAEA0EB0A0853
:101C50004FEAA8084445A8BF4446B04612E650469D
:101C600081F0ABFB0446F8E72A46FE0652F8043B37
:101C70000A9202D47D0600D59BB2012293E701B1FE
:101C800015966D4B1FE5092B04D830330DF5A27A5C
:101C90005193C3E10DF5A47A0A25B3FBF5F005FBDA
:101CA000103230324AF8042D1A460346092AF4D875
:101CB000B4E103F00F020F981B0950F822204AF8F4
:101CC000042DF6D1AAE11AB9F80701D53023DDE7D2
:101CD0000DF5A47AA2E10E9F84E60C9B0E9A9B1A46
:101CE000002B10937FF794AE109B102B11DC9B0000
:101CF000524A4946584681F024FF01307FF488AEAD
:101D0000B8F1000F3FF451AD4146584651F08CFAFE
:101D10004BE54023494A4946584681F012FF0130BD
:101D2000EED0109B103B1093DEE740234946584607
:101D300081F007FF0130E3D0109B103B109386E643
:101D400040234946584681F0FCFE0130D8D0103E71
:101D50008EE6099B652B40F2E4800022002351ECC3
:101D6000180B50F0D1FA58B30423354A4946584667
:101D700081F0E7FE0130C3D0DDE918239A4202DB8F
:101D8000FB077FF58EAE042316AA4946584681F01C
:101D9000D8FE0130B4D0199C013C002C7FF781AEF5
:101DA000284D102C02DCA300264A73E640232A4665
:101DB0004946584681F0C5FE0130A1D0103CF0E7FD
:101DC000189B002B40DC04231D4A4946584681F0ED
:101DD000B8FE013094D0DDE91832134307F0010258
:101DE00013433FF45EAE042316AA4946584681F0D9
:101DF000A8FE013084D0189C002C0CDA6442114DEE
:101E0000102C0BDCA3000F4A4946584681F099FE7E
:101E100001303FF475AF199B9B003AE640232A46F8
:101E20004946584681F08DFE01303FF469AF103CC1
:101E3000E6E700BF481909080419090894190908B8
:101E40008C190908D4190908199C44F31D04AC42E3
:101E5000A8BF2C46002C1FDC002CACBF2E1B2E462E
:101E6000002E0BDD724C102E1FDCB300704A494669
:101E7000584681F066FE01303FF442AFAD00DDE927
:101E800018239A421CDA042316AA4946584681F0C0
:101E900058FE013016D133E7A30052464946584652
:101EA00081F04FFE0130D7D12AE740232246494630
:101EB000584681F046FE01303FF422AF103ED2E793
:101EC000FE07E0D4199BC5EB8304A210189C1C1BD1
:101ED0009442A8BF1446002C09DDA3000AEB0502BA
:101EE0004946584681F02DFE01303FF409AF002CE1
:101EF000DDE91835A5EB0305A8BF2D1B002D7FF7E5
:101F0000D0AD4B4C102D01DCAB004DE740232246F9
:101F10004946584681F015FE01303FF4F1AE103DC0
:101F2000F0E7199B524649465846012B4FF00403EF
:101F300001DCFC071BD581F004FE01303FF4E0AE6C
:101F4000042316AA4946584681F0FBFD01303FF4B0
:101F5000D7AE199C00220023013C51EC180B50F025
:101F6000D3F968B9A3000AF104024946584681F042
:101F7000E8FD01303FF4C4AE119B1CAA9B0089E52B
:101F8000002CF9DD2A4D102C02DCA300284AECE7D6
:101F900040232A464946584681F0D3FD01303FF49C
:101FA000AFAE103CEFE70C9B0E9A9C1A002C7FF70B
:101FB0007BAD102C09DCA3001E4A4946584681F02F
:101FC000C0FD01307FF470AD9AE64023194A4946BE
:101FD000584681F0B6FD01303FF492AE103CE8E780
:101FE0003946002B3FF4ECAD012A3FF44CAE022AF7
:101FF0000DF5A47A3FF45DAE03F00702DB0850460E
:1020000002F130024AF8042DF6D1CD0706D5302A68
:1020100004D030234AF8043CA0F1080A52AB26460B
:102020000F464FF00008A3EB0A04A4104546D9E47C
:10203000D4190908941909082DE9F04F456A044696
:1020400010EE10AA2DED048B93B057EC106BDDF859
:102050008080BB46069109920C9375B9102051F00F
:10206000ABF80246606220B9A74BEA21A74850F0BE
:102070003FFBC0E901550560C560636A196851B14D
:102080005A680123204693404A608B6054F08AFAD4
:10209000636A00221A603B1EADBF0023012223F0B9
:1020A000004BC8F800309A4BB8BFC8F8002033EA9C
:1020B0000B031BD142F20F730C9A1360CBF3130383
:1020C000334300F08F85219B63B9924B22E0924B02
:1020D00001930833219A1360019813B0BDEC048B6F
:1020E000BDE8F08F8B4B01930333F3E7002200230D
:1020F0005046594650F008F980464BEC19AB58B1A0
:1021000001230C9A1360219B002B00F06885834803
:102110001860431E0193DFE7CBF30A5510AA11A9FB
:1021200020464BEC10AB54F083FD08EE100A002D56
:1021300000F0828019EE903A5646A5F2FF35CDF8B0
:102140003880C3F3130343F07F5747F4401700224E
:10215000734B304639464FF0B7FC65A3D3E90023F3
:102160004FF06AFE64A3D3E900234FF0AFFC0646AC
:102170000F4628464FF0F6FD61A3D3E900234FF048
:102180005BFE02460B46304639464FF09FFC064642
:102190000F4655F04DFB0022009000233046394693
:1021A00050F0BCF850B100984FF0DCFD32463B4691
:1021B00050F0AAF810B9009B013B0093009B162B2E
:1021C00059D8009A574B03EBC20351EC190BD3E9D2
:1021D000002350F0A3F800284FD0009B013B009350
:1021E00000230B93109B5D1B6B1E059349BFC5F12C
:1021F000010300230493002354BF04930593009B21
:10220000002B3CDB059B009A13440A9205930023A4
:102210000793069B092B00F28980052BC5BF043B61
:10222000002501250693069B023B032B00F28980C3
:10223000DFE803F02E3B395ADDE910531D4405F267
:102240003243202BC6BFC3F1400305F21240C3F155
:10225000200305F1FF35C5BF0BFA03F326FA00F0A2
:1022600006FA03F018434FF06DFD01230646A1F175
:10227000F8770E936BE70123B3E70B90B2E7049B6B
:10228000009A9B1A04935342079300230A93C0E7D2
:1022900000230893099B002B56DC01231A46CDE945
:1022A000023309920CE00123F3E70023099A089313
:1022B000009B134402930133012B0393B8BF012306
:1022C0000022606A4260042202F1140641689E42C4
:1022D0003ED9204654F026F9019000283CD1124BFB
:1022E00002464FF4D571C1E60123DFE7AFF300806A
:1022F00061436F63A787D23FB3C8608B288AC63F0C
:10230000FB799F501344D33F6C090908211A09082F
:102310000000F07F1D1A0908141A0908411809085D
:102320000000F83F6817090818160908012500235E
:10233000089506934FF0FF330022CDE902331223B4
:10234000AFE701230893F5E7099BCDE90233B7E72F
:10235000013152004160B7E7636A019A1A60039B3A
:102360000E2B00F29D80002D00F09A80009B002B28
:1023700032DD03F00F03B64A02EBC303D3E9008951
:10238000009BD8054FEA231716D5B24B07F00F076D
:102390000325D3E9082351EC190B4FF077FE824651
:1023A0008B46AC4E57B942464B46504659464FF0C5
:1023B0006DFE82468B4628E00225F2E7F90708D534
:1023C000404649460135D6E900234FF035FD8046A9
:1023D00089467F100836E5E700F09B80009B0225C8
:1023E0009C4F5E429A4B06F00F02361103EBC2037C
:1023F00051EC190BD3E900234FF01EFD0023824658
:102400008B46002E7AD1002BD3D10B9B002B00F0F2
:1024100082800022904B504659464FF07FFF0028A3
:1024200079D0039B002B76D0029B002B36DD009BDE
:102430005046594600225F1E884B4FF0FDFC013587
:1024400082468B46029E2846D0464FF08BFC524671
:102450005B46D9464FF0F0FC0022814B4FF036FB33
:102460008246A1F1507B002E58D100227D4B404680
:1024700049464FF029FB52465B46804689464FF05D
:102480006BFF002840F0938252460BF10043404618
:1024900049464FF043FF002840F087825BEC19ABC0
:1024A000119B002BC0F24881009A0E2A00F3448150
:1024B000674B03EBC203D3E90089099B002B80F231
:1024C000D580039B002B00F3D18040F06D82002269
:1024D000644B404649464FF0AFFC52465B464FF0D6
:1024E00031FF039E3746002840F043823123019D8F
:1024F00005F8013B009B013300933EE2F20705D54E
:102500000135D7E900234FF097FC012376100837F7
:1025100077E7022579E7009F039E94E701994C4BEA
:10252000314403EBC6030D91089953E902230029B6
:1025300043D000204C494FF0A9FD52465B464FF076
:10254000C3FA019D82468B464946404655F070F9D4
:1025500006464FF007FC024630360B4640464946D9
:102560004FF0B2FA52465B4605F8016B8046894649
:102570004FF0D4FE002863D142464B460020364936
:102580004FF0A2FA52465B464FF0C8FE002840F0DA
:10259000B5800D9B9D4281D00022304B504659465C
:1025A0004FF04AFC002282468B46404649462B4B60
:1025B0004FF042FC80468946C6E7504659464FF0E8
:1025C0003BFC0D9B82468B46019D0F93494640463E
:1025D00055F02EF906464FF0C5FB02460B46404625
:1025E000494630364FF070FA0D9B05F8016B804676
:1025F0009D4289464FF0000224D11B4B504659465C
:102600004FF064FA02460B46404649464FF0A4FE9E
:10261000002873D152465B46002013494FF054FA0C
:1026200002460B46404649464FF078FE00283FF4EC
:1026300035AF0F9D6B1E0F9315F8013C302BF8D072
:10264000009749E0054B4FF0F7FB80468946BDE710
:1026500068170908401709080000F03F00002440EF
:1026600000001C40000014400000E03F56465F465A
:10267000019D42464B46304639464FF007FD55F026
:10268000D7F882464FF06EFB42464B464FF0D4FBE4
:10269000024630460AF130060B4639464FF014FA2E
:1026A00005F8016B019E0246039F0B46AE1BB74225
:1026B00035D14FF00BFA42464B4606460F464FF0D7
:1026C0004BFED0B942464B46304639464FF01CFED1
:1026D00010B11AF0010F10D1204618EE101A53F065
:1026E00061FF002300982B7001300C9B1860219B28
:1026F000002B3FF4F1AC1D60EEE4009F2B461D461D
:1027000013F8012D392A06D1019A9A42F7D13022C5
:10271000019901370A701A7801321A7090E7002285
:10272000A44B4FF089FB0022002306460F464FF0D2
:10273000EBFD00289DD0CFE7089A002A00F0D58055
:10274000069A012A00F3B9800E9A002A00F0B1809F
:1027500003F23343079E049D049A012120461A4444
:102760000492059A1A44059253F0D0FF0746002DB3
:102770000CDD059B002B09DDAB42049AA8BF2B465C
:10278000D21AED1A0492059AD31A0593079B1BB32C
:10279000089B002B00F0AD80002E13DD3946324639
:1027A000204654F071F818EE102A014607462046DC
:1027B00053F0C2FF804618EE101A204608EE108A29
:1027C00053F0F0FE079B9A1B06D018EE101A204615
:1027D00054F05AF808EE100A0121204653F096FFF3
:1027E0000A9B0646002B40F386801A460146204687
:1027F00054F04AF8069B0646012B7FDD4FF0000897
:10280000336906EB8303186981F093F8C0F1200067
:10281000059B184410F01F0000F09180C0F12003C8
:10282000042B40F38980C0F11C00049B0544034441
:102830000493059B03440593049B002B07DD18EECE
:10284000101A1A46204654F079F808EE100A059B33
:10285000002B05DD31461A46204654F06FF8064637
:102860000B9B002B6DD0314618EE100A81F0B0F8AA
:10287000002866DA009B18EE101A0A222046013B57
:102880000093002353F0B0FE089B08EE100A002BC3
:1028900000F0AF81002339460A22204653F0A4FEFF
:1028A000029B0746002B00F38D80069B022B50DC19
:1028B00088E0109BC3F136034CE7039B5E1E079B29
:1028C000B342B7BF079B9E1B0796F21ABFBF0A9B76
:1028D00000269B180A93039B002BB7BFDDE9032357
:1028E000DDE903359D1A002336E7079E049D089F06
:1028F0003DE7079A69E7069B012B18DCBAF1000F48
:1029000015D1CBF3130393B92BF000431B0D1B051B
:1029100083B1049B4FF0010801330493059B0133FD
:1029200005930A9B002B7FF46BAF012070E74FF0FB
:102930000008F6E79846F4E73FF47EAF18461C30EF
:1029400073E7039B002B37DC069B022B34DD039BD4
:102950000293029B6BB931460522204653F044FE98
:102960000146064618EE100A81F032F800283FF7BB
:10297000BDAD099B019DDB4300934FF0000831463C
:10298000204653F00FFE002F3FF4A6AEB8F1000F23
:1029900005D0B84503D04146204653F003FE3946E2
:1029A000204653F0FFFD97E600263746E1E7009703
:1029B00037469BE500002440089B002B00F0CA80AE
:1029C000039B0293002D05DD39462A46204653F02D
:1029D000B5FF0746B8F1000F5BD07968204653F089
:1029E000A1FD054628B9874B024640F2EA21FFF7D0
:1029F0003DBB3A6907F10C010C300232920080F0C5
:102A00006FFA01222946204653F098FF019BB846F1
:102A1000074603F10109DDE90123134405930AF098
:102A200001030493314618EE100A81F028FA41465A
:102A3000029000F1300A18EE100A09F1FF3B80F015
:102A4000C7FF3A4603903146204653F0E7FFC2687D
:102A5000054602BB014618EE100A80F0B9FF024697
:102A600029462046079253F09DFD4D46DDE906328A
:102A700043EA0201049B0B430FD1BAF1390F2AD06C
:102A8000039B002B02DD029B03F1310A8BF800A0AF
:102A900075E73846BAE70122E2E7039B002B04DB27
:102AA00006990B4304990B4322D1002AEEDD18EE60
:102AB000101A0122204653F041FF314608EE100A59
:102AC00080F086FF002803DCE0D11AF0010FDDD092
:102AD000BAF1390FD7D139238BF800302B461D4678
:102AE000013B15F8012C392A70D001321A7046E7E3
:102AF000002A07DDBAF1390FEDD00AF101038BF896
:102B000000303CE7059B09F801AC994546D018EE2A
:102B1000101A00230A22204653F066FDB84508EE3D
:102B2000100A4FF000034FF00A024146204606D13A
:102B300053F05AFD8046074609F1010972E753F048
:102B400053FD3946804600230A22204653F04CFDAF
:102B50000746F1E7039B0293019D314618EE100AE8
:102B600081F08DF9019B00F1300A05F801ABEA1AFA
:102B7000029B934209DD18EE101A00230A22204618
:102B800053F032FD08EE100AE7E7029B4FF0000811
:102B9000002BCCBF1D460125019B1D4418EE101AC9
:102BA0000122204653F0CAFE314608EE100A80F09A
:102BB0000FFF002892DC02D11AF0010F8ED12B46B4
:102BC0001D4613F8012D302AFAD0D8E6019A9A4210
:102BD00085D1009B0133009331231370CFE60A4B5C
:102BE000FFF798BA219B002B7FF471AA074BFFF7E0
:102BF00091BA029B002BAFDC069B022B3FF7A9AEDC
:102C0000AAE700BF1816090840180908141A09088D
:102C100010B5054C237833B9044B13B1044800E0D8
:102C200000BF0123237010BD1860002000000000C9
:102C3000A01A090808B5034B1BB10349034800E07B
:102C400000BF08BD000000001C600020A01A090899
:102C5000A3F5803A704700BF174B002B08BF134BFA
:102C60009D46FFF7F5FF00218B460F461348144A97
:102C7000121A80F05CF90E4B002B00D098470D4BD8
:102C8000002B00D098470020002104000D000D48C3
:102C9000002802D00C4800E000BF50F0B9F9200035
:102CA00029006BF0B9FC4FF0A7FD00BF0000080041
:102CB000000000000000000000120020A81F0020FB
:102CC00000AD0020000000000000000008B5134B1C
:102CD000A8220021184680F02AF903221049026137
:102CE000426100F1A8028161C2614FF44072026248
:102CF0000022034682624262C262016600F56A7186
:102D00004166084982660267C266426711F8010996
:102D100098540132102AF9D108BD00BF001C0020D0
:102D2000D83F0808F03F080870B50D4C05462378D9
:102D30000E460BB9FFF7CAFF022D0DD8EFF3118332
:102D40004FF0200181F31188182000FB0544E66252
:102D500083F31188002070BD4FF0FF30FBE700BF08
:102D6000001C00202DE9F84F0F461646834600252B
:102D7000DFF8949002F1FF3AD8461BF8014BA4B358
:102D80005C2C24D19BF80020A2F10903DBB2172BA5
:102D90000DD95C2A0FD1404680F00EFA5946024602
:102DA000404680F0AAF81BF8013C23B9E4E729FA71
:102DB00003F3DB07EFD41DB11BF8023C002BDBD182
:102DC000554511D06B1C47F82580DDB2D4E7093C8E
:102DD000E4B2172CEFD829FA04F4E44314F0010408
:102DE000E9D10BF8014CC7E70724721BD2B292005D
:102DF000B54288BF0022002107EB850080F097F8DC
:102E00002046BDE8F88F00BF130080002DE9F3478E
:102E10000E46044608B30378302B18D1437803F0EC
:102E2000DF03582B13D10127023400224FF09939C8
:102E300015464FF00A08DFF870A020784FB10DF169
:102E4000070154F0A3FDA8B102B0BDE8F087002748
:102E5000EBE73038C0B2092801D90720F4E79145E3
:102E60007AEB05038DF80700F7D3A2FB082308FBD4
:102E7000053306E0B5F1805FEFD22B0143EA127310
:102E800012019DF807100020891853F1000328BF94
:102E900001200A461D460028DFD114F8010F002842
:102EA000CBD1C6E90013CFE7999999194FF6FF7274
:102EB00010B500230264024604460A49C0E90E33F5
:102EC00080F84430836442F84C1F4265064A03662A
:102ED000C0E9162000F1580104485CF085FC20464A
:102EE00010BD00BFCD2F0008C17D0508143600209D
:102EF000F0B58DB004461DF0C3F900230646CDE9B8
:102F000009330B93234601AD04F110072A461868D4
:102F10005968083303C2BB421546F7D105AD03F12A
:102F200010072A4618685968083303C2BB42154681
:102F3000F7D194F8363094F837208DF82C309DF87E
:102F40002D30002162F3C3031E488DF82D300DF0A3
:102F500019FB054640B3304654F043FE042200906E
:102F60006946284661F08FFE88B9A18DEB8B8B42B4
:102F700011D315482946B0F8703601AAA4F84A3092
:102F800000F26C60B4F848300DF006FB48B12846FA
:102F900061F040FD08E0284661F040FD0028E8D0DF
:102FA000F5E7238F01332387E38D04F14C00013BC8
:102FB0009BB2E38523B1216B62F0C2FA0DB0F0BD84
:102FC000A18EF9E714360020A82F0020014854F004
:102FD00069BE00BF0858002043680BB1014818477C
:102FE00018467047A81F002010B50A460C468AB044
:102FF000202307210B4812F0ABFF80B1202120468F
:1030000069F0A4FD18B12021204669F09FFD20231E
:10301000224600930721034802AB12F0A9FF0AB031
:1030200010BD00BFE41F00202DE9F041B4B01F46E1
:103030003A9C2E4B05460E4690460393002C47D0F3
:10304000237814A88DF80B3061F0D6F9284604A92E
:10305000FFF7CAFF4FF48075BFB214A861F0E1F921
:10306000327C31460732D20814A861F0E0F9B8F199
:10307000000F04D03A46414614A861F0D8F9042262
:1030800003A914A861F0D3F901220DF10B0114A8D2
:1030900061F0CDF9202204A914A861F0C8F90CA9A7
:1030A00014A861F0E7F906F108000CA901905CF0A2
:1030B00088FF01985CF0EAFF60B19DF80B30013D9C
:1030C0000133ADB28DF80B30002DC6D1012406E0DE
:1030D0002346B6E71CB19DF80B302370044614A8B4
:1030E00061F097F9204634B0BDE8F0817770616EE9
:1030F0002DE9F047044688070E468AB037D54FF0D1
:103100000009DFF82481DFF81CA104F1080504F1AF
:103110006807BD422BD0AB7C99071DD52378EBB156
:10312000CDF80C90504604AA03A959F024FAA8B986
:103130009DF822305A07F5D49DF821301B07F1D5B0
:10314000204604A9FFF748FF0028EBD1294604A830
:1031500054F044FE0028E5D01835DAE72946404609
:103160000EF0A8F8AB7C6FF34103AB74F4E7F507FE
:1031700053D52378002B50D00023294F294E039399
:1031800007F5E568304604AA03A959F0F4F90028C8
:1031900043D19DF822305807F4D49DF82130190707
:1031A000F0D59DF82030402BECD1204604A9FFF744
:1031B00013FF0028E6D1D7F828571DB3294604A8E5
:1031C00054F00CFE0028DDD16D69F6E79DF8212052
:1031D0002846D3090CBF80219DF82010C2F380023D
:1031E0005DF0DCFB284604A95CF0EFFF00232946D4
:1031F0001A4620460093FFF717FF294640460EF077
:103200001FF8BFE704F1080504F168039D42B9D037
:10321000AA7C9207DAD51835F8E70AB0BDE8F0873E
:10322000A82F00203C540020D03600202DE9F0418A
:10323000D2E9007506460C4600F5816800F20C41A3
:1032400006F2144C00F5826043466DB93FB1474524
:1032500008D08F42034602D087425AD163461F46A8
:103260001D68F1E70B46FAE74FF6FF73698A2046BF
:10327000994217BF43F27803002303EB4113264919
:1032800018BF5B18C2E9007300212C227FF04FFEAB
:103290002B46A44605F1100E62461868596808339B
:1032A00003C273459446F7D12B8A47452382E37CBA
:1032B00019D143F00103E3746B69E27C013318BF59
:1032C000012363F34102E2746B695A1C09D0636104
:1032D000124904F118005CF052FFAB692362EB69FC
:1032E0006362002016E006F20C4297420AD10122E6
:1032F000A2742A7E62F30003E374AB8A2385EB8A0F
:103300006385EEE706F58266B7420CBF0222032210
:10331000EEE71720BDE8F081A81F002088410020BB
:1033200008B9086870474FF6FF72438A93421FBF7F
:1033300043F2780000EB4310024BC01808BF002096
:10334000704700BFA81F00202DE9F04F0025174649
:10335000A8464FF6FF7943F2780A87B01E4600F57B
:103360008163029300F20C430393DFF84CB000F545
:10337000826300F214400493059002AB53F82530A9
:103380001C683B60C6F8008074B110222046019191
:103390007FF096FD60B13460648A01994C4503D09A
:1033A0000AEB44145C44EFE70135042DE5D1002419
:1033B000204607B0BDE8F08FA81F0020F0B50E46EC
:1033C000002189B0154602A81222CDE900117FF034
:1033D000AEFD104B93F88030DB0716D50E4F6946D3
:1033E000384602AA0BF0E0F9044670B99DF81A308D
:1033F000012BF4D11022304602A97FF061FD002894
:10340000EDD1BDF81C302B8000E01724204609B018
:10341000F0BD00BFA83F0020B455002030B58FB0EC
:103420002C220C4603A800217FF081FD4FF2BF0340
:1034300002211348ADF82E3062F014FB0546E8B1C6
:1034400022461023002162F013FA044650B903A863
:103450005AF0FAFD234600942946094803AA12F0BF
:1034600055FF04460221074861F0DDFF1CB115B18C
:10347000284661F0CFFA20460FB030BD0324F1E7B3
:10348000B0370020D41F0020F0B58FB00F4616468D
:1034900000212C2203A81D467FF049FD4FF2BF03F7
:1034A0001E491F48ADF82E3012F088FE044670B356
:1034B000B5FA85F10222490962F0BDFF00200CF047
:1034C0001BFD0146204663F06FF8E8B9204663F023
:1034D00089F80146C0B910233A46204662F0C8F97F
:1034E00090B9082332460321204662F0C1F958B949
:1034F0007DB903A85AF0A8FD00232146084800938F
:1035000003AA12F003FF10B1204661F083FA0FB056
:10351000F0BD294603A85AF0A1FDEDE7F0450808E3
:10352000B037002070B501F1310323F001035E785C
:103530000546022E0C468EB033D11B7813F0300FA7
:1035400006D11378FF2B03D04423304862F07FFE6E
:1035500010230021204606AA62F06FF908BB082359
:103560006A460321204662F068F9D0B9284B294EFB
:10357000D3F82847E4B11022204606A97FF0A0FC2A
:1035800028B90822694630467FF09AFC08B9646978
:10359000F0E72146204863F03BFA20B11F4855F080
:1035A00017F80EB070BD21461D480DF083FEF8E7F8
:1035B000684602A95CF01DFD22461A4904A854F091
:1035C00024FE049C002CECD0A37F9B0619D4082277
:1035D00020460DEB02017FF073FC90B1204606A956
:1035E0000CF008FC68B9A28B0F480AA904F092FB02
:1035F0000028D6D16A4628460AAB06A9FFF744FF41
:10360000CFE704A800F028FCDBE700BFB0370020BC
:10361000A82F002078410020645600208C560020FE
:10362000D0360020A81F0020C83F0020F0B58FB082
:103630000F46164600212C2203A81D467FF077FC7A
:103640004FF2BF0301211B48ADF82E3062F0FCF9A8
:10365000044628B310233A46002162F009F9E0B984
:10366000082332460321204662F002F9A8B9124825
:1036700004F0D4FA02210246204662F01CF960B937
:1036800085B9149903A85AF0E9FC0023214609489A
:10369000009303AA12F03AFE10B1204661F0BAF985
:1036A0000FB0F0BD062120462A6862F010F900280C
:1036B000E7D0F2E7B0370020C83F002070B50646DB
:1036C0008AB008460D46144662F0D5FEA8B12846D9
:1036D0001023002106AA62F0B0F8054668B91A481E
:1036E00006A95DF02CF9024648B12B461034174A62
:1036F0000094304606A9FFF799FF0AB070BD14493F
:1037000004A854F082FD049D002DF6D0AB7F9B06EB
:1037100016D4EB7F032B13D8284606A90CF0C0FB68
:1037200070B11CF0ADFDAB681034C31A4FF47A7061
:10373000B3FBF0F30094039305F1600203ABD8E709
:1037400004A800F089FBDEE7D03600207841002095
:10375000A81F002029B1044BC91AC1F34F1141829F
:1037600070474FF6FF71FAE72050002002686AB1F7
:103770004FF6FF73518A994217BF43F27803002333
:1037800003EB4113024918BF5B18036010467047F2
:10379000A81F00200A4610B511B9FFF7E7FF10BDBA
:1037A0004FF6FF704C8A8442F9D00A4B03F5405122
:1037B00001EB4411B1F88A10BDE8104081421ABFF4
:1037C00003EB411303F541510021104618BF383176
:1037D000FFF7C0BFA81F002070B5044615460E466F
:1037E0001046194604F58264FFF7D4FFA54206D1BE
:1037F0003146BDE870400222014856F0D1BF70BD8D
:10380000D03E002000232DE9F04104464FF6FF771B
:10381000061D436000F1080500F58168A84506D043
:1038200029466F82304654F071FB2035F6E70023BD
:103830000B4AC4F80834C4F80C34C4F81034C4F883
:103840001434C4F81824C4F81C44C4F8203404F513
:10385000836104485BF0C8FF2046BDE8F08100BFEB
:1038600011800508143600202DE9F043042587B0A7
:1038700000F58163029300F20C43039300F5826626
:1038800000F21443DFF838800496059302AF441920
:1038900057F8049B4846FFF769FF014658B14E456B
:1038A00005D101900222404656F07AFF0199204648
:1038B00054F02CFBEEE7013DEAD107B0BDE8F08300
:1038C000D03E00202DE9F341164601AB6A4605467D
:1038D0000F46FFF739FD0446F8B1009805F58168F9
:1038E000804503D005F20C45A84205D1238AB34296
:1038F00000D02682002011E00199FFF74BFF4FF026
:10390000FF33214640462682636154F0FFFA0022CD
:103910003946044856F044FFECE7172002B0BDE8F2
:10392000F08100BFD03E00202DE9F04F07468DB05A
:1039300008460C46904662F090FD002841D01023C6
:103940000021204608AA61F078FF002839D106AE90
:10395000082332460321204661F06FFF88BB022115
:1039600020460DF10A0261F048FF054648BB0621DA
:10397000204603AA61F051FF10B1172821D1039509
:10398000384605AB04AA08A9FFF7DEFC0546C0B11E
:10399000DDF810B007F5816ADA4500F1180916D193
:1039A00043695A1C019312D00822314648467FF0E1
:1039B00087FA019B40B100233246384608A9FFF739
:1039C00063FD0DB0BDE8F08F039A9A42F9D296E8F4
:1039D0000300BDF80A302B82039B89E803006B616A
:1039E00058460599FFF7D6FE2946504654F08EFA00
:1039F000424621464423044862F029FC0022034841
:103A000008A956F0CDFEDCE7B0370020D03E0020FC
:103A100003685A8A4FF6FF739A4217BF43F278033E
:103A2000002303EB4213024A18BF9B180360704740
:103A3000A81F00202DE9F341354C984694F88030BA
:103A400006469B070D46174622D50DF10202FFF7E9
:103A5000B5FCE8B13A4629463046FFF733FFB8B126
:103A6000A4F58053B3F8EC3D9F42ADF802300FD07F
:103A7000394604F1200007F095FE48B9BDF8023040
:103A8000434508D10121304654F0F3F9044650B9BA
:103A900002B0BDE8F081414604F1200007F082FE4B
:103AA0000028EFD1F4E74FF00008D6F80C3406F206
:103AB0000C460193019B4BB11B7E1BB908F1010819
:103AC0001FFA88F801A8FFF7A3FFF3E72B46254666
:103AD00003F1100C2A4618685968083303C263457D
:103AE0001546F7D1B8F1010F4FF0000327820BD82C
:103AF0002376032302210748A38261F094FC214628
:103B0000304654F003FAC3E70122A3822276F6E797
:103B1000A83F0020D41F0020F7B50446D0F81004B9
:103B2000D4F8141400B34FF6FF7643F27805114A27
:103B3000438AB34203D005EB43101044F8E7FFF784
:103B400009FE0026D4F810340B4FC4F81464019316
:103B5000019D65B129462046FFF760FC6F612E7616
:103B600001A8FFF755FFF3E7C4F81014E9E703B025
:103B7000F0BD00BFA81F002003000F002DE9F34790
:103B8000054600260124D0F80C340193019A5AB15D
:103B9000938A2BB1013B9BB2938203B91476012621
:103BA00001A8FFF735FFF1E7D5F8143405F2144802
:103BB0000193DDF804A0BAF1000F0AD0BAF814306E
:103BC0001BB10126013BAAF8143001A8FFF720FF22
:103BD000EFE74FF001091B4F05F58265544620467B
:103BE0002946FFF79DFBA246044600B3838A03B92A
:103BF000FEE7013B9BB201268382002BEFD1C38AF3
:103C000051468382B3409BB2782B28BF782380F83B
:103C10001890C3822846FFF7BDFD2146404654F068
:103C200075F902222146384656F0BAFDD6E736B974
:103C30000221054802B0BDE8F04761F00CBC02B0BB
:103C4000BDE8F087D03E0020D41F0020014800F0DE
:103C50005FB800BFDC56002010B50446024A54F09D
:103C600061FA204610BD00BF4D3C00082DE9F0412F
:103C700015460E468CB001AC804617460FCD0FC4DA
:103C80000FCD0FC495E8070084E8070006F1310462
:103C900024F001046378022B27D1304610F01CF980
:103CA000054610B3362130460DF1010261F095FD55
:103CB000D8B9372130460DF1020261F09EFDA0B95E
:103CC000BDF80230294640469DF8012054F01BFA09
:103CD000237813F0300F08D13B78FF2B05D0442315
:103CE0003146034801AA62F0B2FA0CB0BDE8F08197
:103CF000B0370020054A0160D2F8C42D11400160A0
:103D000009B954F01ABA54F020BA00BFA82F002005
:103D100070B505460446002215F80B1F114857F0F0
:103D2000B0F8FF26294620465EF00EFD08B1E67287
:103D3000F8E7E27A237B9A420AD02189606861F031
:103D4000B9FA014604F11000BDE8704061F0F8BB1B
:103D5000A37A002BF1D0013BDBB2A372002BECD194
:103D600070BD00BFC83F00200148FFF7D1BF00BFB2
:103D70006C580020002310B5C0E900338360FF2396
:103D800003730346064A044643F8102F8361054A2D
:103D90001C3012F0E1F94FF4FA732046238110BD74
:103DA000693D0008A93D0008014854F00CBA00BF65
:103DB0006C58002037B5114D044695F84130012B61
:103DC0000AD9022B0ED105F1200006F0F3FD18B13F
:103DD00095F880301B0705D4204603B0BDE830407D
:103DE00054F0E7B908230093054B00211A4604F16B
:103DF0001C0061F0A0FD03B030BD00BFA83F002053
:103E0000807F0A00024B93F8C23D037354F09DB9C2
:103E1000A82F0020002313B5044601A90C480193E4
:103E20000EF058FE88B9019979B123688B420CD005
:103E30002046FFF75FFF01A85EF099FC054BB3FB3E
:103E4000F0F060602046FFF7DDFF02B010BD00BF5C
:103E5000483C0020C13F0500F8B5036804468BB11B
:103E6000A8270C4D05F50056B6F86832206807FB08
:103E7000035303F50953A83030339842206002D32E
:103E800000232360F8BD21795AF064F90028EBD0B3
:103E9000F8E700BFA81F002010B5044605482179A7
:103EA00020605AF057F920B92046BDE81040FFF7CE
:103EB000D3BF10BD18420020002313B5064A69463F
:103EC000CDE9002354F0CFF9044608B15AF045FA81
:103ED000204602B010BD00BF0400FEFF0B4B11F4E2
:103EE0007E4FB3F8EC3D18BFC1F3080110B519437C
:103EF0001446012254F0C9F9014620B120465AF077
:103F0000BAF9002010BD1720FCE700BFA82F002041
:103F100010B586B00C466846094961F0D9F99DF89C
:103F200014303BB9BDF80C20A38B68469A4203D1EC
:103F300011F0E4FF06B010BD61F0D3F9EFE700BF68
:103F4000A81F002010B50C4686B0FFF7E1FF2068DF
:103F5000616801AB03C3D4F8983001A90393A38B24
:103F60000848ADF81030A37FC3F3031343F00403F4
:103F70008DF81230238CADF8133011F0AFFF06B07E
:103F800010BD00BFE41F002070B506460A4811F0BE
:103F9000ADFF80B9344634F8085B65B1A37F1B07D9
:103FA00003D1013DADB2A834F7E721463046FFF713
:103FB000C9FF0028F5D070BDE41F00202DE9F04FA7
:103FC00087B06E46002705463349304661F080F9D8
:103FD000B846DFF8C89009F1980A9DF814301FFA26
:103FE00087FB73B10023B8F1000F04D1BBF10A0FB6
:103FF00001D8002B4CD0284607B0BDE8F04FFFF7A2
:10400000C3BF05223146284654F04CF9044630B966
:104010002846FFF751FF044618B90323E3E74FF0A2
:1040200001084FF0010B20465AF097F996E803007B
:1040300084E8030004F1220055F050F9BDF80C307B
:104040009DF80E10A383029B41F004012046C4F8A2
:1040500098300BF04FFEA37F5F446BF30303A3770D
:104060001CF00EF9A0609DF810209DF80F3021463D
:1040700043EA022323845A46484654F0C3FB2246AF
:104080000021504609F018FC304661F02AF9A4E7F7
:1040900007B0BDE8F08F00BFA81F00208C3F0020B4
:1040A00010B5044605485AF0ADFA18B1044B034464
:1040B000B3FBF0F000F5FA60206010BDA81F0020EF
:1040C000FF8B864737B5044605226846094954F0F8
:1040D0009CF80025009B43B16846C3E91355A3F83B
:1040E00048505D65FFF7B8FEF4E7C4E90133A381EA
:1040F00003B030BDA81F00202DE9F84F82461D48AF
:104100000C46934668F043FF05468846D4E916916D
:10411000A0204E46B4F85070B4F852404743E4FB38
:1041200000613A46304600234EF040F9541948EBFE
:10413000030641463A46002328464EF037F9A41AB2
:1041400066EB0306DAF800305B1948F100089C4280
:1041500076EB080203D23C1946F10006F7E7A4EB20
:104160000903CBF80030DAF800002844201ABDE833
:10417000F88F00BFA81F0020F0B585B005460522C6
:10418000154902A854F041F800264FF0FF37029C71
:10419000BCB194F84830DB090FD0B4F8503063B1AB
:1041A000638FC3F30D0343B12146284601AAFFF7ED
:1041B000A3FF874284BF2646074602A8FFF74CFEAE
:1041C000E5E736B14FF47A710448B7FBF1F15EF0E0
:1041D00062FD6E6005B0F0BDA81F0020603D0020AC
:1041E000436837B505461BB90024204603B030BDEF
:1041F0000C6800F10C022146244854F014FB0028FE
:10420000F2D169684B6BAB60002BEDD091F8423076
:1042100013F01F0F94F8223004D191F8482012F0C7
:104220007F0217D043F0020384F8223091F8412036
:1042300023689A7023681B781B070FD56B6820468C
:10424000D96B5FF087F96B68204693F840105FF0F8
:10425000C9F903E062F3410384F82230696891F8F8
:10426000493013B90A4B93F8C23DA371284601AAFD
:10427000FFF742FF019BA3616B689B6DE36194F8BC
:1042800022306FF3820384F82230AEE78C3F0020A7
:10429000A82F00200E2A7FB506460D461C461CD0CE
:1042A00003D82AB10B2A2BD0FEE70F2A28D0FBE730
:1042B00093F84830009462F3060384F8483094F889
:1042C000423062F3040384F84230134600F10C02DA
:1042D0001F4801F04DF904B070BD0B681B7818073A
:1042E00003D591F82230D9072CD594F848305A1CC0
:1042F00002F07F0262F30603032A84F8483022D8D2
:10430000AB88CBB12B689A7884F841201B781A07C8
:1043100012D595F82230DB070ED503A928465FF0A9
:1043200009F9039B2846E3630DF10B015FF044F9A3
:104330009DF80B3084F84030304604B0BDE8704042
:10434000FFF71ABFFEE7002384F84830D8E700BF24
:104350008C3F002000220B4910B5C0E90212014633
:10436000094CC0E9002241F8104FC0E90612026270
:1043700080F82420828590F86E2022F0030280F8D5
:104380006E2010BD1D460008594600082DE9F04179
:10439000DFF8B0810E4698F8041898B017461D460D
:1043A00004469DF878201F9B002900F0C18090F8FA
:1043B0002410002940F0BE8090F86E1062F30001D6
:1043C00080F86E107AB1002B48D106A9A8F580506C
:1043D0001CF00EFF06A908465DF0C9FF04F11C01A0
:1043E00006A85DF092FF209B2360219B636094F8F8
:1043F0006E306FF3410384F86E30D8F8C42D22621A
:1044000033680BB11A40226210214C4856F03DFC33
:104410000646002800F0908080238DF804300223A7
:104420008DF80530002387848DF80730CDB94023FF
:1044300094F82D208DF80630F2B1F1238DF8183064
:10444000A36A402A4FEA13418DF81A104FEA13214C
:104450008DF81B108DF81C3005D9FEE71868E06157
:10446000C1E74823E4E7D31C04F12E010DF11D0040
:104470008DF819307EF034FD1A2301A88DF8003034
:1044800061F0A3F8C5B294F82D0018B106A861F048
:104490009CF8C0B205440222694630468DF80150AE
:1044A00060F0F1FB054688B9314601A861F0A0F83B
:1044B000054658B994F82D3063B902A80CF0F0FC09
:1044C000304602A903F062FF054658B1304660F05D
:1044D000A1FA29E0314606A861F08AF805460028CD
:1044E000EBD0F3E74FF6FF739F420FD1B8F8C03D12
:1044F000BB420BD15FF07AFB0146114810F064F823
:1045000094F86E3043F0020384F86E30FF232146A6
:1045100004F1200001F82C3F5EF016F900280CBFD2
:104520000123022384F82430284618B0BDE8F08126
:104530000D25F9E70525F7E70325F5E7C83F002036
:10454000603D0020A82F002090F8243010B5012BEA
:104550000C4606D013F0FD0F14BF0C460024204675
:1045600010BD90F82C100248A1715EF084FCF6E7B3
:10457000603D002090F8243010B5012B044602D095
:10458000022B06D010BD103011F09EFD0D4855F0E5
:104590004FFF0D485EF081FC94F86E309B070AD502
:1045A0004FF6FF71084810F00FF894F86E306FF373
:1045B000410384F86E3004F10800BDE8104011F0AA
:1045C00017BD00BFD03E0020603D002038B590F8F8
:1045D00024300546012B0C4602D0022B18D038BDE2
:1045E00091F82E3043F0800381F82E301BF048FE06
:1045F000094AA06192F85C3F05F1100043F0040302
:1046000082F85C3F4FF49671BDE8384060F098BF87
:10461000BDE83840FFF7AEBFA82F0020014853F097
:10462000EFBE00BFA84F002090F8243010B5012B3A
:1046300004460DD100F12C0120305EF085F810B158
:10464000022384F824300348BDE8104055F0F0BE42
:1046500010BD00BFD03E00200148FFF7E5BF00BFFE
:10466000A84F0020002313B504468DF8043008211C
:104670000123054801AA11F06BFC10B99DF8043024
:10468000A37702B010BD00BFE41F00201FB5837FD9
:1046900008218DF80830012302AA0093034803ABD8
:1046A00011F066FC05B05DF804FB00BFE41F0020BC
:1046B00030B5837F85B08DF80F300DF10F03009377
:1046C000002300F12C0104461A460848FEF7ACFC12
:1046D000054640B99DF80F30A27F9A4203D020468C
:1046E000A377FFF7D3FF284605B030BD2C38002054
:1046F000012310B5437704461BF0C2FD04F12C01E1
:1047000020620248BDE810400CF09ABDD03600206F
:10471000437F10B5022B044607D1037FDB0704D586
:1047200002460949094861F07DFA002294F83E30BA
:10473000627762F3000384F83E3004F12C010448F0
:10474000BDE810400CF0B6BD47870508B037002023
:10475000D036002070B5044608460D465BF096FC46
:1047600018BB04F1240630465BF00BFC38B9082274
:10477000294630467EF0A4FB08B9002070BD3346C0
:104780002868696803C30A4804F12C015CF0D7F873
:104790000028F2D02046FFF7BBFF636A2046636320
:1047A0007368A363FFF7A4FFE7E70720E6E700BF0E
:1047B000D036002070B500F12405044628465BF091
:1047C000E0FBD0B90822294604F1340004F12C069C
:1047D0007EF076FB70B9314608485CF0B0F848B11D
:1047E0002046FFF795FF2046FFF762FF10B92046ED
:1047F000FFF77EFF002363626B6070BDD036002040
:10480000436C052102480BB960F025BE60F00BBE79
:10481000D41F00201FB5044601A90B4862F0E3F83D
:1048200080B9BDF806100120012901D960F022FDF0
:10483000B4F844300BB1834204D9A4F844002046B4
:10484000FFF7DEFF04B010BD6456002070B50446CB
:1048500015480D4656F0C5F808B9606470BD6A0782
:1048600006D5124E96F8153153B12046FFF7D2FF08
:10487000EB07F3D52046BDE87040012153F0B9BEE7
:1048800096F84110032903D1204653F0B2FEEFE71A
:1048900006F1200057F08CFA0028E9D096F8F31FB3
:1048A0000431C9B2F0E700BFC83F0020A83F002094
:1048B000F0B58FB00D46174600212C2203A81E46E6
:1048C0007EF035FB4FF2BF0324211248ADF82E30A5
:1048D00061F0BAF80446D8B104213A4660F0E0FF2E
:1048E000014690B92A461023204660F0C1FF0546D4
:1048F00058B9B18B03A80BF001F92B4621460548A6
:10490000009503AA11F002FD10B1204660F082F874
:104910000FB0F0BDB037002038B50F4B0025436015
:10492000838B044603F0FE0383830A238560A0F88B
:104930004C308577056245642C305CF026F804F134
:1049400048006562A56253F06FFE04F14A0053F01F
:104950006BFE204638BD00BFAD4C000838B58B1E3D
:10496000012B04460D4622D8037FDB0704D50246FF
:104970002649274861F056F92046FFF7C9FE94F80A
:10498000483013B994F8493053B104F1480053F05A
:104990004BFE04F14A0053F047FE032D02D038BD10
:1049A000032D04D11B4D95F8D83663B9FEE7042DCD
:1049B00001D0012DF2E7184804F12C015BF0BFFF94
:1049C0000028EFD0EBE784F83C3004F12C031022F0
:1049D000002118467EF0ABFA05F5D96104F12405F3
:1049E0005BF0F3FB28465BF0CCFA40B9636A636383
:1049F000A36AA3632046BDE83840FFF779BE20468E
:104A0000FFF756FE0028F5D0C9E700BF4787050825
:104A1000B0370020A84F0020D03600202DE9F04FFD
:104A200093B004462C22002107A87EF080FA4FF2B2
:104A3000BF039248ADF83E3055F0D3FF00283CD07C
:104A40004FF6FE738E4FB7F8BC269A4235D0237FBF
:104A5000DD0732D4A7F57E6055F0CBFF38B3894E21
:104A600096F8803098072BD5637F012B02D194F8FC
:104A700047306BB194F8483013B994F84930E3B13A
:104A8000022204F14A0104F148007EF019FAA0B1B3
:104A900025217D4860F0D8FF0546D0B90521204684
:104AA00053F0B8FD4DB128465FF0B4FF05E0A7F51F
:104AB0007E6057F07DF90028D1D013B0BDE8F08FAB
:104AC00096F862301907F8D0B6F86430022BF4D1AA
:104AD000CAE7637F012B45D194F84730002B41D1C1
:104AE0000DF10C0C624604F12C0304F13C08E6467F
:104AF000186859680833AEE803004345F446F6D118
:104B000010230021284660F0B3FE002840F08A8080
:104B10000823032128465D4A60F0AAFE002840F0E1
:104B20008180022363771BF0ABFB206296F8803014
:104B30009A077BD496F862301B0777D0B6F86430BA
:104B4000022B73D152480DF10B0111F037FC0028F4
:104B500068D19DF80B1049480BAA03F0F9F800281A
:104B60006AD05FE0B4F84C300A2B00D0FEE7002298
:104B7000484903A853F049FBDFF82891DFF828A142
:104B800004F1480B039BC3B1A3EB09084FEAE80803
:104B90000AFB08F81FFA88F84146584653F089FD89
:104BA00028B1414604F14A0053F083FD18B103A82F
:104BB000FFF752F9E6E7A4F84C80B4F84C103648F9
:104BC00053F048FB80460BF0C3F800B9FEE70346FC
:104BD0000DF10C0C00F1100E62461868596808338C
:104BE00003C273459446F7D110230021284603AA37
:104BF00060F03EFEB0B908230321284608F16002A8
:104C000060F036FE70B91BF03BFBD8F80820062197
:104C1000801A4FF47A72B0FBF2F2284660F057FE29
:104C2000002883D003287FF43EAF37E7B7F8BC26CF
:104C30001A490BA85BF0D4FA07A80AF037FF2946F7
:104C4000174B1148009407AA11F060FB0746002893
:104C5000E8D1237F04F10C0543F00103237703AB74
:104C60000FCB85E80F00676496F8801011F00801FB
:104C70007FF423AF03485DF091FE1EE7C83F00209C
:104C8000A84F0020A83F0020B03700207841002026
:104C900064560020A81F00201042002088410020F8
:104CA00047870508184200203DCFF33C0148FFF735
:104CB000B5BE00BF8C56002070B501F1310323F062
:104CC000010393F901300546002B0E4688B01FDA28
:104CD000062308AC8DF8073000F10C030FCB04E974
:104CE0000F00524804A961F093FE00287ED050487E
:104CF00004A95BF024FE0246002842D09DF807403C
:104D0000062C29D8DFE804F01C2231353939390066
:104D1000042130460DF1070260F05FFD044648B9FA
:104D2000102301460DEB0302304660F086FD044679
:104D30000028D6D02846FFF763FD204608B070BD96
:104D40001BF09EFA032328626B77F3E7384805F1DE
:104D50002C015BF0F4FD08B90024EBE72846FFF7CF
:104D6000D7FC2846FFF7C4FCF6E72846FFF7D0FC3F
:104D7000F2E7284653F02CFCEEE72846FFF74AFD01
:104D8000EAE72C4902A853F040FA029E86B3304667
:104D900004A90BF085F868BB02A8FFF75DF8F4E7FB
:104DA000214605F1480053F084FC28B10122214638
:104DB00005F14A0053F08CFC9DF80720002ACBD067
:104DC0003346284604A9FFF773FDC5E7304604A91A
:104DD0000BF010F80022214605F1480053F078FC52
:104DE0000022E4E72846FFF715FDE5E70224A1E7E6
:104DF00017249FE7104C114B341BE4105C439DF8C3
:104E00000730A4B2062BD7D801A252F823F000BF76
:104E1000A14D0008D54D0008CD4D0008CD4D00082E
:104E2000E54D0008E54D0008E54D000864560020FA
:104E3000D0360020A81F0020184200203DCFF33CB0
:104E400038B501F1310323F00103054658780C46CB
:104E500002280DD11B7813F0300F03D144230548ED
:104E600061F0F5F921462846BDE83840FFF724BF38
:104E700038BD00BFB03700202DE9F041DFF8B08029
:104E8000531EA1EB08042849E4104C43012B0546AE
:104E90001646A4B21ED800F148072146384653F002
:104EA00008FCA0B1B5F84C30A34205D12A461F49F1
:104EB000A8F6682060F0B6FE00222146384653F07E
:104EC00007FC0022214605F14A0053F001FC012EA7
:104ED00027D101E0012A1CD805F1480705F14A064F
:104EE0000222314638467DF0EBFF38B9052101201A
:104EF00060F0AFF90146284653F08CFB2146384656
:104F0000012253F0E5FB00222146304653F0E0FB3E
:104F100007E0032A05D12146483053F0CAFB002898
:104F2000DAD0BDE8F08100BF3DCFF33C47870508EC
:104F3000184200200022C0E9042282610277026246
:104F40000246024942F8241FC2627047ED50000831
:104F50002DE9F04101F1310828F0010898F80130FD
:104F60000446022B0D46164686B070D136212846DF
:104F70000DF1070260F031FC002868D13721284686
:104F800003AA60F03AFC002861D1382128460DF1CF
:104F90000E0260F032FC002859D128460EF09CFF2A
:104FA0000746002853D0206A08B15FF033FD122174
:104FB000284860F049FD2062002848D035238DF84C
:104FC000103006238DF811300023394604A8CDF89F
:104FD0001230ADF816300EF037FF216A04A860F0E9
:104FE00007FBA0BB39230222206A02A98DF80830F2
:104FF0005FF049FE58BB9DF80730C4E9047723777A
:10500000BDF80C3060772383BDF80E304FF47A7111
:10501000638304F1240060F093FA06F1200706F19F
:105020001003224618685968083303C2BB4214466D
:10503000F7D198F8003013F0300F08D13378FF2BF8
:1050400005D0442332462946024861F000F906B0F3
:10505000BDE8F081B037002010B58EB004462C2298
:10506000002103A87DF063FF4FF2BF03206AADF873
:105070002E30C18B637F0139C91A04F11D0201234F
:1050800089B25FF0DDFD214603A858F0E7FF002359
:10509000216A0748009303AA11F038F918B1206A71
:1050A00008B15FF0B7FC002323620EB010BD00BF53
:1050B000B0370020036A07B5024653B1037F5BB1E6
:1050C0004169009248420140064B528B06485DF010
:1050D000A5FD03B05DF804FB03B05DF804EBFFF73A
:1050E000BBBF00BFB1870508603D00200148FFF746
:1050F000E1BF00BF1C57002038B58B05044610D512
:10510000036A73B1074857F0F0FC054648B9206AB6
:105110005FF080FC256204F12400BDE8384010F007
:10512000D3BF38BD3C540020037873B50446BBB1EF
:10513000052268460C4953F068F80026651C009962
:1051400039B128464E6358F04FFF6846FEF784FE9B
:10515000F5E7201D0EF030FF04F10C00FEF7B2FF62
:105160000023237002B070BDA81F00204B8F2DE9D3
:10517000F341C3F30D0306460C4653B36846164984
:1051800060F014F81548164B251AED105D43A0F594
:105190005278ADB2009F5FB1294638465FF002FEFB
:1051A0004046394655F082F968465FF0D7FEF1E790
:1051B0002146701C676358F017FF301D22463946A0
:1051C0000EF010FF06F10C0002B0BDE8F04153F004
:1051D000FFB802B0BDE8F081D03E002018420020A8
:1051E0003DCFF33CF7B58B7F1546DA0907460C46F1
:1051F00006D103F00F03072B02D1012253F002FB6B
:105200002B0737D4A37FDB0934D0638FC3F30D039F
:1052100083B31949194B651AED105D436846A1F532
:105220005271ADB25FF0C2FF009E96B12946304682
:105230005FF0A7FD48B1294630465FF0B3FD96F810
:105240002E3043F0800386F82E3068465FF086FEED
:10525000EAE72146781C666358F0C6FE381D2246F0
:1052600031460EF0BFFE07F10C0003B0BDE8F04080
:1052700053F0AEB803B0F0BD184200203DCFF33C70
:10528000104B73B5CC1A1049E4104C436846A3F593
:1052900052711646A4B25FF089FF009D7DB1214690
:1052A00028465FF06EFD30B14EB195F82E3003F018
:1052B0000703022B03D068465FF050FEEDE7284657
:1052C00002B070BD184200203DCFF33CF0B5002283
:1052D00087B00C460646FFF7D3FF4FF480430546E0
:1052E0006063238706F10C0053F072F895B1002734
:1052F0002146301D8DF814705DF070FA03A904F199
:10530000340053F05AFA2A4600913B4602210248E3
:1053100055F045FA07B0F0BDD03E002070B54E6B99
:1053200005460C46DEB11D491D4B611AC910594393
:10533000304689B25FF025FD014680B9224694F8D7
:105340003930606343F0800384F83930281D0EF053
:1053500049FE05F10C00BDE8704053F039B894F8EF
:105360003920D20919D121462846FFF789FF864204
:1053700013D02EB921462846BDE87040FFF7A6BFDE
:10538000238FC3F30D0343B994F83930224643F019
:105390008003012184F83930D8E770BD184200201D
:1053A0003DCFF33C73B50E460E4B0F49D31ADB10BD
:1053B0004B43054699B23046144601915FF0E1FC3B
:1053C00070B1304601995FF0EDFC2146681C58F041
:1053D000F6FD28462146FFF7A1FF002002B070BD70
:1053E0001720FBE7184200203DCFF33CF7B5937F31
:1053F0000546DB090F46144600D0FEE71B4E1C494C
:10540000931BDB104B43384699B201915FF0B9FC16
:1054100050BB384601995FF0D5FC2146681C58F016
:10542000C0FD97F82E3003F00703022B15D0638FD1
:10543000C3F30D03012B10D9214601222846FFF7A3
:105440001FFF014648B1019022462846FFF7AAFFF8
:105450000199A6F5527055F029F82146284603B067
:10546000BDE8F040FFF75ABF03B0F0BD184200207E
:105470003DCFF33C2DE9F0411C4628230E46002188
:1054800094B0154620460DEB03028DF81C108DF8E4
:1054900026105FF07DFB1E4805AA0CA900F05AFEFD
:1054A00010A85AF02BFE60B319480DF11E0210A986
:1054B00000F068FE298F2046C1F30D01B4F820806A
:1054C0005FF0D3FA4FF6FF7200233146CDE9022395
:1054D000CDE900320E4805AB224601F0E9FA41461B
:1054E000074620465FF0C1FA6B8FC3F30D03012B13
:1054F00003D9012130465DF0BDFD384614B0BDE84A
:10550000F0810DF11E0105F1340053F056F9D1E799
:10551000D03E002010B50C46002186B08DF8141046
:1055200002F1340003A90A46019353F046F92146DB
:10553000019B024801F03AFA06B010BDD03E0020AF
:1055400013B5062204460949684652F05EFE0099EA
:1055500051B14B8FC3F30D0313B12046FFF706FE85
:105560006846FEF779FCF2E702B010BDA81F0020E4
:105570002DE9F04F9A46037887B005468846109C7F
:105580005BB313884BB3BAF10B0F666B08D003D82B
:10559000BAF1000F10D0FEE7AAF10E03012BFAD8E2
:1055A00094F839306FF3861384F83930F6B9214610
:1055B0002846FFF78BFE10E0002EF8D0F28B9A42BF
:1055C00014D9228F043063F30D02214622875DF047
:1055D00005F905F10C0052F0FBFE2B78002B58D09A
:1055E000284607B0BDE8F04FFFF7AABFDFF8B49038
:1055F000294BA4EB0907FF105F43002394F83910EF
:1056000063638022C1F3801104F1280005F1010BCE
:105610008DF8143053F00CFE01222146584658F004
:10562000E9FCB8F80430BFB263B103A940465DF0AD
:105630008AFD03A90091534632460121A9F5527013
:1056400055F0ADF896F82E305B0710D194F839304C
:1056500013F0400F114B15BFD3F8742FD3F87C2FE4
:105660000132013214BFC3F8742FC3F87C2F3946BE
:1056700030465FF086FB38B1394630465FF092FB2A
:105680002146584658F09BFC3146054854F00EFF21
:105690008DE707B0BDE8F08F3DCFF33CA82F002089
:1056A000D03E00201842002037B50025184C29466E
:1056B00004F15000E5655EF0C3FA6846C4E915558B
:1056C000A4F5005109F00EFF009C5CB104F10C0040
:1056D0000021A5615EF0B4FA6846C4E9045509F0FA
:1056E0000FFFF1E7052268460A4952F08EFD009D42
:1056F0005DB105F10C000021AC615EF0A1FA6846D5
:10570000C5E90444FEF7A8FBF1E703B030BD00BFD4
:10571000A83F0020A81F002070B50646B8B004A816
:105720000C4615465EF0B4FD0023326801A904A8BA
:105730000193ADF8083003925EF0BFFD230E8DF8A3
:105740000030230C69468DF8013004A8230A042296
:105750008DF802308DF803405EF0B5FD062204A8F6
:1057600005495EF0B0FD294604A85EF0B2FD04A82C
:105770005EF09BFD38B070BDF23F080870B504467E
:1057800096B041680EAAFFF7C7FF02AD0EA900222E
:1057900004F108005EF07CFA284653F06BF80AAE7C
:1057A00006A853F067F8304653F064F8284612A96B
:1057B00001225EF06DFA616820460EAA0139FFF7FA
:1057C000ABFF12A906A801225EF062FA61682046CA
:1057D0000EAA0131FFF7A0FF304612A901225EF0A8
:1057E00057FA6268082102F07F02CDE900560348AB
:1057F00006AB013210F022F816B070BD903D0020CB
:1058000010B50C4628305EF01BFA2146BDE810406A
:10581000014810F005B900BF903D0020836A99420D
:1058200007D3036B01319942816202D3014803F02F
:105830006DBF7047C83F0020C36A426B013393427B
:10584000C36202D3014803F061BF7047C83F002024
:1058500038B50B8804460D46A3B1042268307DF0AC
:105860002FFB30B9BDE838404FF4801106485FF097
:10587000D2BC2B684FF48011A3660348BDE83840C2
:105880005FF0BDBC38BD00BFBC1F00200023024933
:10589000836344305FF054BE80EE360038B5436811
:1058A00004468B420D4606D1BDE838404FF4807166
:1058B00014485FF0B0BC01338B4210D1C26C00F1D0
:1058C00044039A420BD090F840302BB1D0E90E231C
:1058D0009A4215D3FFF7DAFF012384F840302046BF
:1058E0006560FFF74BFF20460021FFF789FF00238B
:1058F0004FF48071E3620348BDE838405FF07FBC3D
:1059000038BD00BFBC1F002010B50446836B0A4A97
:1059100001338363816C44305FF00CFEB4F868306F
:10592000A26B9A4206D361682046BDE8104001315F
:10593000FFF7B4BF10BD00BF80EE36000148FFF78F
:10594000E3BF00BFEC3C002030B50446114887B0EF
:105950000D4605907AB1059852F087FF1023022278
:10596000CDE9015301231146009305A809231AF03C
:1059700085FD20B1FEE767F03FF80028EBD02068F6
:10598000059B984201D052F070FF059B236007B041
:1059900030BD00BF0100020030B50025044685B0CF
:1059A0004560083052F066FF04F1180052F062FFC3
:1059B0004FF41C73E3632346174AC4E90B55C4E94B
:1059C0000D5584F8405043F8442FE36404F154002B
:1059D00052F050FF04F16800656652F05CFF94F8E5
:1059E0006C3065F3000384F86C3066F0F5FF4FF01F
:1059F0000043102123602365684667F0A7F82A4614
:105A000069462046FFF7A0FF04F1280029465EF012
:105A100017F9204605B030BD3D59000830B5036880
:105A20000446002B0D4685B00FDB694652F0FEFFA1
:105A30001022294668467DF043FA30B94FF48021A0
:105A40000F485FF0E8FB05B030BD01222946204633
:105A5000FFF77AFF4FF4802109485FF0D0FB4FF445
:105A6000807107485FF0CBFB002320466360FFF79F
:105A700085FE204605B0BDE83040FFF715BE00BFEB
:105A8000BC1F002030B5036D0446002B0D4685B0C9
:105A900015DB694652F0E4FF1022694628467DF086
:105AA0000FFA60B94FF400210A485FF0B4FB94F894
:105AB0006C3043F0010384F86C3005B030BD2946EA
:105AC000204652F0E7FF4FF4002102485FF097FBB9
:105AD000EDE700BFBC1F002038B50446006D0D4641
