:020000040800F2
:1000000000120020AD1D0008894703088947030836
:10001000DF670308894703088947030889470308FE
:100020008947030889470308894703088947030864
:100030008947030889470308894703088947030854
:100040008947030889470308894703088947030844
:100050008947030889470308894703088947030834
:100060008947030889470308894703088947030824
:100070008947030889470308894703088947030814
:1000800089470308211600088947030889470308A0
:10009000894703089923000889470308894703080B
:1000A0008947030899240008752400088947030834
:1000B00089470308FD190308ED23030875D00408D8
:1000C00071D00408D51B030881D0040879D0040836
:1000D000C52303087DD004082D24030891240308B8
:1000E00089470308894703088947030889470308A4
:1000F000DB67030889470308894703088947030822
:1001000089470308E9150008894703088947030858
:100110008947030889470308894703088947030873
:100120008947030889470308894703088947030863
:100130008947030889470308894703088947030853
:10014000894703088947030889470308E7680308C4
:10015000B900030889470308D3CD0408D9CD0408A2
:100160008947030889470308894703088947030823
:10017000013800D0FCE77047734B73B5198811F054
:10018000010140F0DA8041F60B22704D704BA960FE
:10019000C5E900316F4B19609A806F4B1B6ADB0712
:1001A00006D440F2B9316D4B6D4A6E4832F0C0FD55
:1001B00028462AF0BFFD044620B940F2BD316A4B03
:1001C000674AF2E72BF030FD20B140F2C131674BB6
:1001D000634AEAE74FF0011120464CF0FEFA20B1E5
:1001E00040F2C531614B5E4ADFE7022120464CF008
:1001F000DFF920B14FF472715C4B594AD5E72046C4
:100200005B492BF027FB20B140F2CB31574B544ACE
:10021000CBE7012120464CF0D8FB20B14FF474719C
:10022000524B4F4AC1E7012120464CF0DEFB064607
:1002300020B140F2D3314D4B494AB6E701463C224A
:100240004C484CF0ADFF80233246204605F11001AA
:100250004CF0CCFA802804D040F2DA31464B404AC8
:10026000A3E7464D01202AF0B9FD35A3D3E90023C9
:100270002C602046CDE900234FF0FF324FF0FF33D2
:100280004CF0C8F920B140F21731384B3C4A8CE7AA
:1002900030480AF07DFE012108460AF0E7FE012100
:1002A00028684CF02DF9044620B140F26E412F4BE6
:1002B000344A7AE7344B354A98801A60344B354AD1
:1002C00098801A60344B354A98801A60344A6FF02F
:1002D00063005A6117F00CFE0B200AF013FE314B3D
:1002E000186020B940F28C412F4B264A5DE704F09C
:1002F000E3FF214628684CF0CAF920B140F21941C9
:100300001A4B2A4A51E70822286811464CF084F912
:10031000044620B14FF49261254B1A4A45E70BF091
:1003200037FF244B24481C70244B1C70244B1C703A
:1003300002B0BDE870403EF09EB902B070BD00BF93
:100340000B6020FF2202000036690020FC600020C4
:1003500031B30008F46000200080E00F52E104088F
:10036000F8E20408ADDC04086BE1040811DC0408C1
:1003700008E40408986100207AE10408F060002095
:10038000EBE2040874E30408281C0020396C002008
:10039000001C0020B96B0020501C0020BB6C00200A
:1003A000781C002094610020B2E10408B1E2040846
:1003B000CDE10408AE6B002051E20408BA6C0020C5
:1003C000B96C002000000000B0EE401AF0EE601A98
:1003D0009FED010B00F004B8000000000000004099
:1003E000F8B52DED028B57EC106B55EC114B00F06E
:1003F000CBF8634BB0EE408AF0EE608A93F90030A0
:1004000001332AD022462B462046294634F0D8F81C
:1004100018BB32463B463046394634F0D1F8002806
:1004200044D1002200233046394634F097F8D8B141
:10043000002200232046294634F090F800283DD1C0
:1004400045EC104B33F072FD38B1204629460022AE
:10045000002334F08DF800285CD1B0EE480AF0EEAD
:10046000680ABDEC028BF8BDB0EE480AF0EE680AEF
:1004700033F05CFD58B30022002351EC180B34F02C
:100480006DF80028E9D047EC106B33F04FFD0028E1
:10049000E3D045EC104B33F049FD0028DDD033F0BC
:1004A000EFFD22239FED2E8B0360D6E720462946E1
:1004B0000022002334F052F80028CED09FED2A8B82
:1004C000B0EE480AF0EE680ABDEC028BF8BD47ECCE
:1004D000106B33F02BFD0028CDD045EC104B33F0E2
:1004E00025FD0028C7D018EE100A53EC182B19462A
:1004F00034F066F820BB33F0C3FD222203463946B0
:1005000030461A600022002334F032F848B99FEDDB
:10051000188BA2E733F0B4FD21239FED178B036006
:100520009BE745EC104B33F00FFD22462B4651EC78
:10053000100B34F013F80028E9D19FED0F8B8CE7F6
:1005400033F09EFD00220023212101601046194650
:1005500033F0C6FE41EC180B7FE700BFAFF300801D
:100560000000000000000000000000000000F03F5C
:10057000000000000000F07F000000000000F0FF1D
:100580009D140020000000002DE9F04F55EC114BA8
:1005900025F0004A5AEA04022DED0C8B87B01FD0DB
:1005A0005D4910EE102A57EC106B27F00048B94651
:1005B000884511DCAB4611EE103A08D13EB15748E0
:1005C00007B0BDEC0C8BBDE8F04F00F071BD524997
:1005D0008A4501DC0BD153B1514B43441343EED157
:1005E0009FED490B07B0BDEC0C8BBDE8F08FB9F166
:1005F000000F45DB0021009183B9474B9A455BD042
:10060000484B9A456AD0BBF1804F00F0B084464B0E
:100610009B4503D1B9F1000F80F20D85029247ECA2
:10062000106B33F079FC029A4AB929F040433D4AF5
:10063000934200F0A883B8F1000F00F0A4834FEAC2
:10064000D973009A013B049313434ED0374B9A451C
:1006500072DD03F104739A45354B40F32B849845C2
:1006600040F3A983BBF1000F40F3A98328A3D3E98A
:1006700000231046194633F009FD41EC100BB1E799
:100680002C498A4527DCA1F154718A45B2DD4FEA35
:100690002A51A1F2FF31142940F37D84C1F13401C4
:1006A00023FA01F000FA01F19942A3D100F0010010
:1006B000C0F1020100919FE7194B434413438FD0CF
:1006C0001B4B984540F3AB83BBF1000FC0F277831F
:1006D00045EC104B86E7022100918DE7BBF1000F3E
:1006E000C0F24F8447EC106B7CE732463B46104625
:1006F000194631F085FF02460B4633F0F1FD41EC1F
:10070000100B6FE7AFF30080000000000000F03F27
:100710009C7500883CE4377E0000F07F0C6405087F
:10072000000010C00000F03F0000E03F0000E0418A
:10073000FFFFEF3FFFFF3F43E34B002209EA0303C4
:1007400053B9E24B51EC100B33F0A0FC6FF03402C4
:1007500041EC100B10EE908A4FEA2853C8F31308AF
:10076000DB4EA3F2FF3348EA06069A18D94B9845A8
:10077000059207DDD84B984540F333840132A6F546
:100780008016059200279FEDB87B9FEDB96BB0EE08
:1007900047DAF0EE67DAB0EE47CAF0EE67CA51EC1E
:1007A000160B53EC102B3346761043EC192B41EC0F
:1007B0001A0B02460B4646F0005651EC190B31F06D
:1007C0001FFF8046894653EC1A2B51EC190B31F070
:1007D00019FF02460B460020BD4933F081FD41EC74
:1007E0001B0B53EC1B2B4046494633F04FFC0A468B
:1007F00006F5002341EC180B01460020CDE902125A
:100800000021064602460291D919DDE902AB0F46E6
:100810000B465046594633F039FC02460B464046DB
:10082000494631F0EDFE804689463046394653EC64
:100830001A2B31F0E5FE02460B4651EC190B31F054
:10084000DFFE52465B4633F021FC02460B46404633
:10085000494631F0D5FE53EC1B2B33F017FC53EC1B
:10086000182B41EC1A0B51EC180B33F00FFC064619
:100870000F4681A3D3E9002333F008FC80A3D3E91A
:10088000002331F0BFFE32463B4633F0FFFB7EA330
:10089000D3E9002331F0B6FE32463B4633F0F6FB97
:1008A0007BA3D3E9002331F0ADFE32463B4633F063
:1008B000EDFB79A3D3E9002331F0A4FE32463B4699
:1008C00033F0E4FB76A3D3E9002331F09BFE8046AE
:1008D000894632463B463046394633F0D7FB02461E
:1008E0000B46404649464FF0000833F0CFFB5246D6
:1008F00006460F465B4651EC180B31F083FE53EC75
:100900001A2B33F0C3FB32463B4631F07BFE524696
:100910005B4641EC190B5046594633F0B7FB0022B9
:100920006E4B06460F4631F06DFE53EC192B31F03D
:1009300069FE8946424650464B46594633F0A6FB6F
:10094000002282468B46654B4046494631F058FEB0
:1009500032463B4631F054FE02460B4651EC190B31
:1009600031F04EFE53EC182B33F090FB06460F4649
:1009700042464B4651EC1A0B33F088FB02460B46BD
:100980003046394631F03EFE804689465046424662
:1009900059464B4631F036FE00200F46064642A32C
:1009A000D3E9002333F072FB52465B4641EC190B4E
:1009B0003046394631F024FE02460B464046494651
:1009C00031F01EFE3AA3D3E9002333F05FFB8046EB
:1009D00089463046394638A3D3E9002333F056FB25
:1009E00002460B464046494631F00CFE53EC1C2BA8
:1009F00031F008FE06460F46059831F04FFF3246AB
:100A0000804689463B4651EC190B31F0FBFD53EC17
:100A10001D2B31F0F7FD42464B4631F0F3FD00202F
:100A200042464B4682468B4631F0EAFD53EC1D2B85
:100A300031F0E6FD53EC192B31F0E2FD02460B4696
:100A40003046394631F0DCFD009B049A013B1343EC
:100A500041EC180B40F0DC819FED197BB0EE479A1A
:100A6000F0EE679A3CE000BF0000000000000000CC
:100A7000000000000000F03FEF4E454A287ECA3FCC
:100A800065DBC9934A86CD3F01411DA96074D13F02
:100A90004D268F515555D53FFFAB6FDBB66DDB3F14
:100AA000033333333333E33F000000E009C7EE3F45
:100AB000FD033ADC09C7EE3FF5015B14E02F3EBEB3
:100AC000000000000000F0BF0000F07F0000404385
:100AD0000000F03F8E98030079B60B00000008403C
:100AE000002320462946CDE900450093DDE9008931
:100AF00042464B4631F084FD5B46524633F0C6FA1F
:100B000006460F4622462B4651EC180B33F0BEFA30
:100B100002460B463046394631F074FD42460446E3
:100B20000D464B4659465046A04633F0AFFA0646AE
:100B30000F462046294632463B46A94631F062FD23
:100B4000D54B04460D4699428B4640F33B81D34B2F
:100B50000B44034340F0358240464946B6A3D3E9EF
:100B6000002331F04FFD32463B4641EC180B204646
:100B7000294631F045FD02460B4651EC180B33F087
:100B800015FD002840F01D82CBF30A534FF480126C
:100B9000A3F2FE33C24CBBF1000F42FA03F34FF055
:100BA00000005B44C3F30A52C3F3130AA2F2FF32FC
:100BB0004AF4801A44FA02F4C2F1140223EA04014E
:100BC0004AFA02FA024630460B46B8BFCAF1000A9A
:100BD000394631F015FD02460B4606460F464046A3
:100BE00049464FEA0A5B31F00DFD0D4600242946C7
:100BF00093A3D3E90023204633F048FA32463B461C
:100C000006460F462046294631F0FAFC02460B46BE
:100C10004046494631F0F4FC8BA3D3E9002333F07E
:100C200035FA804689462046294689A3D3E9002320
:100C300033F02CFA02460B464046494631F0E2FCBE
:100C4000804689463046424639464B4631F0DAFC0A
:100C5000324604460D463B4631F0D2FC02460B4676
:100C60004046494631F0CCFC2246804689462B4618
:100C70002046294633F00AFA06460F4676A3D3E902
:100C8000002333F003FA76A3D3E9002331F0B8FC54
:100C900032463B4633F0FAF973A3D3E9002331F02F
:100CA000B1FC32463B4633F0F1F971A3D3E900239E
:100CB00031F0A6FC32463B4633F0E8F96EA3D3E9A7
:100CC000002331F09FFC32463B4633F0DFF9024609
:100CD0000B462046294631F093FC06460F46204637
:100CE000324629463B4633F0D1F900224FF080438B
:100CF00041EC180B3046394631F082FC02460B4677
:100D000051EC180B33F0ECFA424606460F464B46C0
:100D10002046294633F0BAF942464B4631F072FC80
:100D200002460B463046394631F06AFC22462B46D5
:100D300031F066FC02460B4600205A4931F060FC57
:100D40008B4402460B46BBF5801FC0F26C815946AE
:100D500053EC192B33F09AF941EC100B42E447ECB9
:100D6000106B009233F0D8F8009A002A7FF4BDACE3
:100D700029F040434B4A934203D0B8F1000F7FF46F
:100D8000B4AC00230093BBF1000F07DA0020454903
:100D900053EC102B33F0A4FA41EC100BB9F1000F17
:100DA000BFF620AC404B009A4344134340F02D81E2
:100DB00053EC102B9BE4BBF1000FFFF657AC9FEDFB
:100DC000300B0FE421F00043DFF8E4C0634540F34B
:100DD000F080364B0B4403430AD132463B4631F098
:100DE0000FFC42464B4633F0D7FB00283FF4CCAE15
:100DF00025A3D3E9002351EC190B33F047F922A3C3
:100E0000D3E9002333F042F941EC100BFFF7EABBC2
:100E10009FED1F7BB0EE479AF0EE679A60E6BBF15C
:100E2000000FCCDA05F1004300EE104A00EE903AD4
:100E3000FFF7D8BBAFF30080FE822B654715973CC8
:100E400000000000432EE63FEF39FAFE422EE63F57
:100E5000396CA80C615C20BED0A4BE726937663EB6
:100E6000F16BD2C541BDBB3E2CDE25AF6A56113FAA
:100E700093BDBE166CC1663F3E5555555555C53F91
:100E8000000000000000000059F3F8C21F6EA50129
:100E9000000000000000F03FFFFF8F40000070BF27
:100EA000FFFF0F000000F03F000010C000346F3F54
:100EB000FFCB90409845FFF67EAF794B98453FF7C2
:100EC000D1AB0022764B51EC100B31F099FB06466A
:100ED0000F4663A3D3E9002333F0D8F882468B464C
:100EE0003046394660A3D3E9002333F0CFF800221F
:100EF0006C4B41EC180B3046394633F0C7F80246CC
:100F00000B465BA1D1E9000131F07AFB32463B464A
:100F100033F0BCF802460B460020634931F070FB09
:100F20008046894632463B463046394633F0AEF875
:100F300002460B464046494633F0A8F84EA3D3E993
:100F4000002333F0A3F802460B4651EC180B31F0A6
:100F500057FB06460F465046594632463B4631F04F
:100F600051FB002052465B4682468B4664E5324682
:100F70003B463046394633F089F841EC100BFFF719
:100F800031BB0020464932463B4633F0A9F941ECDB
:100F9000100BFFF727BB002B7FF4E1AEC1F114016A
:100FA0004AFA01F000FA01F151454DD00093FFF7E4
:100FB00027BB3D4A93424EDCDDE90023934692462F
:100FC00014E62FA3D3E9002351EC190B33F05EF89C
:100FD0002BA3D3E9002333F059F841EC100BFFF7B2
:100FE00001BB9FED297B4FF48027B0EE47DAF0EE8E
:100FF00067DA9FED277BB0EE47CAF0EE67CA9FED38
:10100000267B51EC170BFFF7CCBB009B012B7FF429
:10101000E9AA10EE901A10EE102A01F1004343ECF9
:10102000102BFFF7DFBA504643EC102B00F048F8C6
:1010300051EC100B8CE647EC106B07B0BDEC0C8B41
:10104000BDE8F04F32F0A6BE00F00100C0F102038F
:101050000093FFF7D5BA1B1598E500BFAFF30080EA
:10106000000000604715F73F44DF5DF80BAE543ECB
:10107000555555555555D53FFE822B654715F73FBC
:101080009C7500883CE4377E0000004003B8E23FD6
:1010900006D0CF43EBFD4C3E000000000000F83FBF
:1010A0000000F03F0000D03F0000E03F00000000E3
:1010B0009FED010B704700BF000000000000F87FAB
:1010C00038B553EC102BC3F30A519C46044689BB38
:1010D00023F0004C10EE101A5CEA010129D03E4DBD
:1010E000194600223D4B10EE100A32F0CFFFAC4201
:1010F00002460B4616DB8C46C1F30A5136392144B1
:1011000040F2FE70814221DC002947DC11F1350FED
:1011100034DA4CF250318C4218DC002B26A1D1E994
:10112000000143DB24A3D3E9002332F0AFFF41ECFD
:10113000100B38BD40F2FF7E7145E0D110EE100A71
:10114000194631F05FFA41EC100B38BD002B1CA1A1
:10115000D1E9000107DB1AA3D3E9002332F096FF9F
:1011600041EC100B38BD18A1D1E9000114A3D3E95B
:10117000002332F08BFF41EC100BF3E718483631B7
:101180001446184B0CEA0000002240EA01552046A4
:10119000294632F07BFF41EC100B38BD10480CEAB9
:1011A000000040EA015343EC102B38BD08A1D1E9FF
:1011B0000001B7E7AFF3008059F3F8C21F6EA50135
:1011C0009C7500883CE4377E9C7500883CE437FEC3
:1011D00059F3F8C21F6EA581B03CFFFF00005043D9
:1011E000FFFF0F800000903C10B5054C237833B909
:1011F000044B13B1044800E000BF0123237010BD6D
:10120000C0530020000000002064050808B5034B0F
:101210001BB10349034800E000BF08BD0000000007
:10122000C453002020640508A3F5803A704700BF2E
:10123000174B002B08BF134B9D46FFF7F5FF00210E
:101240008B460F461348144A121A4BF0A9FF0E4B57
:10125000002B00D098470D4B002B00D09847002062
:10126000002104000D000D48002802D00C4800E0C9
:1012700000BF31F0A9FD2000290000F09DFC31F0F5
:101280007DFD00BF0000080000000000000000001D
:1012900000120020A81B0020647400200000000041
:1012A000000000002DE9F341164602F11004074644
:1012B0000D46A446384A06F1200E234603CB73455B
:1012C000106051601C4602F10802F6D13446334AE0
:1012D000234603CB6345106051601C4602F10802AF
:1012E000F6D128463CF0F5FE0021804638463CF019
:1012F000B6FE044690B34423022229463CF0BEFECB
:1013000028463CF0F7FE019028463CF0ECFE01999F
:10131000024620463CF0C9FE20463CF0D1FE28465D
:101320003DF0B3F91F2301461D4A28463DF0B1F9AF
:10133000B8F1010F18D11B4B1968084601914BF009
:10134000FEFF019982B220463DF0A1F90346F0B9B3
:101350003246214638461BF0F7FDC0B90122124B38
:101360001A7002B0BDE8F081104B1968084601916F
:101370004BF0E5FF019982B220463DF088F9054621
:10138000852120463CF0AAFE0DB92B46E0E7204619
:101390003DF077F9E2E700BF376A0020666B002076
:1013A000466B002000120020366A00200C1200203C
:1013B00038B50E4C0E4D00F06BF941F233613CF044
:1013C000B0FE256000F064F90A4A0B4BA060636030
:1013D00013682B6053686B609368AB6000F058F93A
:1013E0002146BDE838403CF0A7BE00BFE4530020D2
:1013F00054D7040800D70408A512000810B500F05F
:1014000047F93DF070FB02280D4C02D123680A2BEE
:1014100015D900F03DF93DF05CFB00F0AFFA00F0AB
:10142000D1FA00F035F901213CF07BFF00F030F9F2
:1014300001213DF08BFBFFF7BBFF0023236010BDB4
:10144000DC5300202DE9F041DFF88C81044698F848
:1014500000500E469CB025B9057028461CB0BDE86A
:10146000F0810025544F3D7000F012F90DF1330169
:101470003DF05DFBEEB1012EEFD1504B1B680A939E
:101480009DF9333009936369089323690793E368EF
:10149000069363680593A368049363880393637852
:1014A0000293474B1A6801925B68464A00930223F5
:1014B0001AE0424B1B680A939DF933300993636924
:1014C000089323690793E368069363680593A36809
:1014D00004936388039363780293394B1A680192EB
:1014E0005B68394A00930223FE213846126831F0C6
:1014F000BFFFFD282CD82778FFF780FF98F8005011
:10150000002DAAD00DAA9046304B03F1100C1646C0
:1015100018685968083303C663453246F7D100F0AE
:10152000B7F800213CF09BFD0646032287F001013D
:101530003CF0A2FD022130463CF0B9FD3046244982
:101540003CF0BCFD30B1234C86BB236801332360E3
:10155000002582E718484BF0F2FE074658B13046A6
:101560003CF0AEFD0028EED130461349BAB23DF052
:101570008EF80028E7D12C22002111A815AF4BF0DE
:101580000FFE98E80F0087E80F0041F23363ADF8D3
:10159000663000F07DF800233146CDE9003311AA12
:1015A0001BF0B2FC0028CED1207056E70023304655
:1015B00023603DF066F8C8E7476A0020E05300204A
:1015C000A81B00200412002008120020376A002007
:1015D000466B0020DC530020366A00200122014BBC
:1015E0001A7070477C6B002013B50B4C684621467F
:1015F00033F0F1FA4FF49662009B04F50054534324
:101600004FF47A72B3FBF2F3044A5B0093614FF438
:101610000073636202B010BD0040005918540020EE
:10162000022208B5174B5A6101F092FC164B5A681A
:1016300012B19A6A002AFAD10222DA60134B1A78A0
:1016400012B901221A7005E05A784AB99A783AB963
:1016500001225A700022DA7002220A4B9A6108BDF8
:101660005A780AB19A784AB15A78002AF2D09A7810
:10167000002AEFD000225A709A70E3E701229A7094
:10168000E8E700BF0060065000400650776B00207E
:10169000014B1868704700BFF453002008B53CF0B8
:1016A00035FE054B186028B98521044B044A0548CE
:1016B00031F03EFB08BD00BFF453002060D70408A2
:1016C0006AD7040887D70408014B186816F0B0BB26
:1016D000F453002070B5334C8AB000F04FF900F09D
:1016E00071F9012120683CF01CFE28B1C3212E4B6A
:1016F0002E4A2F4831F01CFB012120683DF026FACC
:1017000018B1C4212B4B294AF3E7FFF751FE2A4BAE
:101710001A78002A43D101220DF1060120681A70BF
:101720003DF087F80546254E206831463DF04FF8DC
:10173000336820682B6033792B713DF04DF82068B9
:101740003DF083F848F29A23054603821C4B1D4A5C
:101750001B78202102A831F08BFE0DF106012846EE
:101760003DF094F8BDF8062002A94BF0F2FC0DF113
:10177000060128463DF086F8BDF8062012494BF0D8
:10178000E8FC294620683DF031F8024618B1B22144
:101790000E4B0F4AADE7014620683CF0DFFF0AB070
:1017A00070BD00BFF453002097D70408C9D70408C0
:1017B00087D70408D9D70408766B00200ED8040810
:1017C000A81B002019D8040822D804082BD8040824
:1017D00042D8040873B5484C484D20683DF063F882
:1017E0002068474C0AF04EFD32F000FFE37863BBFF
:1017F0000123E37023788BB9424827F0D9FD20718B
:10180000217941483CF0F1F801F0A2FB14210020BD
:1018100001F092FB02223D4B9A6116E0637873B9A6
:10182000A37863B9374827F0FBFD20712179384848
:101830003CF0DBF801F08CFB41F25041E7E76378C4
:101840000BB1A3786BB1637893B92E78002E49D091
:1018500000212A48FFF7F6FD80F00100287002B051
:1018600070BD284827F0FAFD207121792948DFE76B
:10187000A378002BE9D0284B22481A1D991E27F087
:101880000FFE20712379698824480093D5E901323D
:101890003CF0ABF8224B1B481A1FA3F108014AF099
:1018A0008AF8D5E903216B691E483CF09EF81E4B6F
:1018B0001448D3F8A420D3F8A43002F0010203F0B6
:1018C000020313432B7727F08FFD002120710B4873
:1018D000FFF7B8FD80F00100287001F039FB4EF6EB
:1018E000602194E7114C2378002BB8D001210348E4
:1018F000FFF7A8FD2670B2E7F4530020185400202B
:10190000776B00203854002054D80408005006504B
:1019100063D8040871D804081C5400207CD804083B
:101920002C540020B9D8040800C003507C6B002060
:101930007FB5094B094A0493094B0A4903930A4BA3
:101940000A4802930A4B01930A4B00930A4B4AF050
:1019500013F807B05DF804FB9368030827B904087F
:10196000E591020851B9040857B80408385400201A
:101970001FB80408DBB804081192020810B50F481C
:101980003CF033F8FFF784FE4FF4FA613CF0AEFD13
:10199000044638B9FFF77CFE4FF000013CF0D1FF60
:1019A000044648B120463CF0AFFC2146BDE810405B
:1019B000024603483CF019B810BD00BFF6D8040831
:1019C00010D9040870B5A4B07822002106A84BF005
:1019D000E7FB224B224A1C936B461068516802AC0D
:1019E00003C36B46224603CB1E4BCDF85900CDF8FE
:1019F0005D1003F11006254618685968083303C5C1
:101A0000B3422C46F7D10FCA0EAC84E80F00BDF8E4
:101A10008C30154843F4CA7343F00103ADF88C30A1
:101A20004BF08DFC1049024612A84BF092FB9DF83A
:101A30008C3043F008038DF88C30FFF729FE06A99F
:101A40003CF0DFFB044630B13CF05EFC2146024630
:101A500006483BF0CAFF24B070BD00BFADDE0F00EA
:101A60005ED9040867D904088214002035D9040817
:101A70001FB50C214FF4F06002F082F801213D20E7
:101A800001F0DCFC01213C2001F0D8FC0C4A01AB48
:101A900007CA83E8070040F201121846ADF80C208F
:101AA00001F0F4F90222074B9A614FF40032064B21
:101AB0001A60012001F01EFA05B05DF804FB00BFBA
:101AC000A8D904080050065000E100E0F0B5354EFA
:101AD00093B008AD0FCE0FC50FCE0FC596E803002B
:101AE00001260024032785E8030031463B20CDE989
:101AF0000344CDE9054407948DF80E708DF8086015
:101B00008DF809408DF80A408DF80B4001F096FCE5
:101B100020464FF42C524FF4285133F071F89022A4
:101B20002146204633F071F831462A2001F086FC28
:101B30004FF496631C4D0B939DF819302246009389
:101B40002846234619498DF823408DF8214002F09C
:101B500083FEB2230A9008AA284605A98DF8093009
:101B60008DF810708DF80E708DF813608DF8086088
:101B700002F098FE02AA03A9284632F0EBFF0C4AB5
:101B800005F500535A6270214FF40032AB6A43F4FA
:101B90000073AB62074BC3F8842183F819135A60B2
:101BA00013B0F0BDB4D904080040005940420F0002
:101BB0008F330F8000E100E073B5002434F0B0FEF5
:101BC00032F026FDFFF754FFFFF780FF234641F672
:101BD0004C512C4ACDE900442B4808F08FFC2B488F
:101BE0003BF003FF2A4D4FF0B640E1B232F0FFFC6C
:101BF00018B9214628463BF0F8FE0134802CF2D17A
:101C000024483BF0F2FE0024234D214E2846E1B249
:101C100032F0EDFC18B9214630463BF0E6FE0134C7
:101C2000802CF3D149F0A5FD49F0B9FD27F0A0FAC9
:101C300010EE100A30F044FE02460B4617483BF007
:101C4000D4FE49F085FE1E2008F01EFC27F0B4FAF1
:101C50004FF4FA7008F018FC002049F023FE1E2013
:101C600008F012FCFFF736FD0D4B996CDA6C0D4B4A
:101C7000C3E9001234F061FEFFF7ACFD07F07EFF10
:101C8000F8E700BFDD150008F853002078D90408F4
:101C90001717050885D904080080065092D9040852
:101CA0000080E00FA81B002010B5274C01F00AFEB1
:101CB00001F044FF236F23F0070343F0030323677E
:101CC00032F086FE214B00209B6ADB015EBF4FF4A1
:101CD00080321F4B9A62D4F8203123F0070343F07F
:101CE0000203C4F82031D4F8283123F0070343F06D
:101CF0000203C4F82831D4F8403123F0030343F041
:101D00000103C4F84031D4F8603123F0030343F0F9
:101D10000103C4F86031D4F8403223F0030343F0E8
:101D20000103C4F84032D4F8003223F0070343F033
:101D30000103C4F80032D4F8083223F0070343F05B
:101D40000103C4F8083210BD008000500040005A62
:101D50000060005A08B501213A2001F06FFB0448E9
:101D600000F030F9BDE80840024800F02BB900BF90
:101D7000101200202412002018B1034B186000201C
:101D800070472520704700BFE054002010B5054C77
:101D90000549206800F0A6FE2068BDE81040FFF766
:101DA000EBBF00BF5C1200203812002008B500F025
:101DB0002DF8124B12498B4212D30020114B1249BD
:101DC0008B4218D3FFF734FA186850F8224058684D
:101DD00040F82240013298688242F5D30C33EAE79A
:101DE0000022F8E71C6844F8220001325C68A24235
:101DF000F8D30833E4E70022F8E700BF28640508B9
:101E00003464050834640508346405084FF48041DF
:101E10004FF0FF30114B124A10B59A60D3F888206A
:101E200042F47002C3F888200E4A91660E4901F50B
:101E3000005210660D4850660220C3F8D000BFF370
:101E40004F8FBFF36F8F01244FF440330848C0F821
:101E50008041D36004600B6110BD00BF00ED00E065
:101E6000000000080090005000800044F7FF370099
:101E700000E100E0014B1868704700BF64130020C8
:101E8000084B1B6F03F00703022B04D0032B05D074
:101E9000012B05D0FEE7044B18687047034BFBE7A6
:101EA000034870470080005064130020681300202E
:101EB000002D310108B5FFF7E3FF054B1B6FC3F39E
:101EC00003330133B0FBF3F0024B186008BD00BFD1
:101ED00000800050601300200048704700B4C40424
:101EE000014B1868704700BF68130020054B18604D
:101EF000054B1B6F03F00703032B01D1FFF7DABF7C
:101F0000704700BF681300200080005000487047F1
:101F1000002D31014FF0B4439868C0F304400C2801
:101F200022D8DFE800F009212121212107171921FA
:101F30001B1D1F000F4870479B6803F04073B3F1EF
:101F4000807F13D0B3F1007F12D00B4A002B08BF63
:101F5000104670470948704709487047094870475C
:101F60000948704709487047002070470848704783
:101F700008487047405DC60000093D000024F40099
:101F8000C0EA210180BA8C010048E801005A6202CF
:101F900080841E0040420F00014B1868704700BF4C
:101FA0006C13002005490A681318054883428CBF4A
:101FB0004FF0FF320B601046704700BF70130020D7
:101FC000000004202DE9FF4103680446B3F1B64F39
:101FD00004D0354A934251D12F2000E02E20012118
:101FE00001F02CFA01230A226179207902F0FAF932
:101FF00001230A22E179A07902F0F4F909270126E8
:102000002A4D4FF030082279637908FB025206FA14
:1020100003F302F501521360642008F049FC2379B0
:10202000627908FB035306FA02F203F58253642037
:102030001A6008F03DFC013FE3D12068B0F1B64FD3
:102040001FD10323C5F8E8346279237943EA0243B8
:10205000C5F8EC34E279A37943EA0243C5F8F034D9
:1020600040F20113ADF80030E36869460293A368BB
:102070000193237C8DF80C3002F030FA04B0BDE8F7
:10208000F081094B9842EBD10323C5F8F83462790B
:10209000237943EA0243C5F8FC34E279A37943EAA1
:1020A0000243C5F80035DBE70080065000C003504E
:1020B00038B5054602F040FB044C012801D1013C33
:1020C00000D138BD284602F02BFAF6E7E193040070
:1020D0002DE9F04F9A46564B85B01B7806460F46C1
:1020E0001546DDF83C909DF844B0DDF85080002B9B
:1020F00000F08D80072A00F28C800E9B002B00F0F0
:102100008880B9F1000F00F08480129BB3F5006F56
:102110007FDC012802D1109B002B7AD0454B03EBCA
:1021200005131B7B002B76D0434C10220021684600
:102130004BF036F804EB45141022002F59D13946E4
:1021400020464BF02DF843F210036380BBF1000FE3
:1021500003D1E37843F00303E370374A0E9B02EBAD
:10216000451CCCE90193129B6901013BC3F30A00B2
:102170009DF84C30012E03F003034FEA836343EADA
:10218000001E53582D48CDF800A000EA03004EEA87
:102190000003535041D113230CF1100ECCF80C3036
:1021A0009CE80F008EE80F006FF00301DCF81C20A4
:1021B000109B61F39F02012FCCF81C20CCF8143047
:1021C00003D1CCF81890CCF804300027194A290123
:1021D00002EB051342F80180159A28465A606946B9
:1021E00022469F605E7302F013FD384605B0BDE8DD
:1021F000F08F002120464AF0D3FF4FF444736380F0
:10220000BBF1000FA9D1E37843F03003A4E70C48F9
:10221000ECE70C48EAE70C48E8E7B8F1000FD4D146
:102220009CF8023068F304138CF80230CDE700BF4D
:102230007D6B0020E4540020645500200F80FFF3E4
:10224000028000F0018000F0078000F038B5124BEA
:1022500005461B78DBB1E0B132F0DEFB0F4A00230C
:102260001146147B54B92B6001251A0101EB0313AD
:102270001D738C5032F0D6FB204638BD0133082B3D
:1022800002F11002EDD132F0CDFB0548F5E705482B
:10229000F3E70548F1E700BF7D6B0020E454002020
:1022A000048000F0028000F0018000F0154B13B5AF
:1022B0001868002301908DF8043032F0ADFB124B0A
:1022C0001C7824B132F0AEFB104802B010BD0122E0
:1022D0001A7032F0A7FB0E4B01A81C731C7783F811
:1022E0002C4083F83C4083F84C4083F85C4083F8F2
:1022F0006C4083F87C4008238DF8073002F056FCD0
:102300002046E2E7DCD904087D6B0020038000F062
:10231000E45400200A4A08B5127852B107280AD8B6
:10232000084A02EB00131B7B3BB102F0BFFC00200C
:1023300008BD0548FCE70548FAE70548F8E700BF8F
:102340007D6B0020E4540020028000F0018000F04A
:10235000078000F00B4A10B512780C4662B10728CE
:102360000CD859B1084A02EB00131B7B43B102F0B1
:10237000AFFC2060002010BD0448FCE70448FAE7E9
:102380000448F8E77D6B0020E4540020028000F050
:10239000018000F0078000F02DE9F843174B1F6D16
:1023A0005B6D1F4000D5FEE701260025144CDFF8C9
:1023B0005480DFF85490374217D02368C8F8506033
:1023C0009BB1A168284601316268A1609847637B90
:1023D000012B0AD148B909EB45131A7B60F341027E
:1023E0001A731A7F60F341021A770135082D4FEAFC
:1023F000460604F11004DED1BDE8F8830000045065
:10240000E4540020002004506455002070B50446B8
:1024100001250B4E04B970BD94FAA4F0B0FA80F017
:1024200005FA00F306EB001224EA03045368002BBC
:10243000F0D0117B11B191689847EBE79847E9E735
:102440006456002008B5192001F0E8FD28B14FF0CE
:102450000072074BC3F880211A601A2001F0DEFDDC
:1024600028B14FF08062024BC3F880211A6008BD8A
:1024700000E100E0074BD3F82404D3F8202403F54F
:102480000053104000F0553020F05020C3F82004D5
:10249000FFF7BCBF00C00350074BD3F82404D3F8A8
:1024A000202403F50053104000F0AA3020F0A020B3
:1024B000C3F82004FFF7AABF00C00350024B1968FD
:1024C000024B186828F044B87813002074130020D9
:1024D00037B5920004460D4601924BF009F9431CB2
:1024E0000BD060B929462046019A4AF022FE002806
:1024F000044808BF002003B030BD0348FBE7034891
:10250000F9E700BF10E000F021E000F024E000F067
:1025100013B5044601A802F04DFC9DF806300122D7
:1025200023804FF4807300206380054B9B680A333F
:1025300003F01F0302FA03F3636002B010BD00BF93
:102540000080E00F10B504464BF0CAF8431C15D0CC
:10255000B0B90C4B20469B680A3303F01F020123DD
:10256000934023F003032344984201D1002010BD7F
:1025700050F8042B0132F7D00348F8E70348F6E798
:102580000348F4E70080E00F0EE000F021E000F0E7
:1025900024E000F008B532F030FA014B186008BDB5
:1025A000A45E0020014B186832F02BBAA45E002014
:1025B00038B141B1013AB2F5006F044838BF00208C
:1025C0007047034870470148704700BF037000F030
:1025D000027000F038B504460D4632F01DFAA388AB
:1025E0009BB223B92B6032F01DFA064838BD142285
:1025F00063889BB202FB034408342C6032F012FA69
:102600000020F3E70B7000F0F8B5044616460F46BD
:1026100032F002FAA388E2889BB29A42054605D8B6
:102620000023336032F0FEF91748F8BD14222388E6
:1026300007F1100C9BB202FB03433A4608331746DE
:1026400003CF6745186059603A4603F10803F6D195
:10265000142238681860238828469BB202FB034383
:10266000083333602388E2889BB20133B3FBF2F175
:1026700002FB11339BB22380A38801339BB2A3805A
:1026800032F0D0F90020D0E70A7000F0104930B5E0
:102690000B78104A2BB9C2E90033C2E90233012397
:1026A0000B700C4C0023214651F8045B854208D086
:1026B0000133042BF8D1002154F8043B1BB942F834
:1026C0002100002003E001310429F5D1024830BD8A
:1026D0007E6B0020585F0020027000F010B50446A9
:1026E000FFF7E4FD002104F10800FFF7AFFD01460C
:1026F00020B904F10C00FFF7A9FD00B1004810BD9E
:102700000E7000F090F8363053B9042103790A4A6C
:1027100003F239135B01D150022203685A617047FA
:10272000022B07D10068816C11F0020118BF06214D
:1027300032F0BBB9704700BF00C0035090F836308C
:1027400063B9012203685A619A69D207FCD5042152
:102750000379084AB9335B01D1507047022B07D186
:102760000068836C9B074CBF0521092132F09DB99D
:10277000704700BF00C0035010B590F836300446D3
:1027800063B9042203685A619A699207FCD52379D8
:102790000C4AB9335B011021995010BD022BFCD1BA
:1027A0000068836CDB074CBF0521062132F07DF900
:1027B000237941F294425B0103F1A04303F57033A6
:1027C000E9E700BF00C0035037B50446836B32F021
:1027D00023F9A36B0546013BA363A16B79B9019172
:1027E00032F00BF904460199012007F013F901209A
:1027F000064A019907F002FB204632F002F928460A
:1028000003B0BDE8304032F00DB900BF04DA04086F
:1028100013B591F836200B68022A0CBF9B6C9B699C
:102820000C469B06084605D5FFF7CEFF0223E3655D
:1028300002B010BD32F022F800230146CDE900338A
:10284000034A234604F13C0033F0FFFFF0E700BFEA
:102850001128000870B5044632F0DEF8A36B054677
:1028600073B932F0CAF801210646084607F0D2F8DB
:102870000121074A084607F0C1FA304632F0C1F894
:10288000A36B28460133A363BDE8704032F0CAB899
:1028900004DA04087FB5012380F8303090F8363030
:1028A00083B9036824330D4A0490039200220292F4
:1028B0004A680192012200920A684169C06831F0B9
:1028C0009FFF07E0022B02D103683C33EBE70023B4
:1028D00080F8303007B05DF804FB00BFF129000834
:1028E00001232DE9F04180F8313090F8363004466C
:1028F0000E4688B063BB05683C3532F08DF804F1B4
:102900003C0807460DF11F01404607F029FD40B97C
:102910009DF81F302BB1404607F0FAFC2046FFF728
:1029200053FF3846012732F07DF82046E765FFF770
:1029300091FF0D4B2A46039300230293736821698C
:10294000CDE90073A0683368049431F03FFF07E0DD
:10295000022B02D105684435CFE7002380F83130DF
:1029600008B0BDE8F08100BF6D290008F0B585B062
:10297000D06A03A91446FFF72DFE0646204631F023
:102980007DFF002501462346CDE90055164A04F196
:102990003C0033F05AFF154B9E421FD0039B1D6134
:1029A0009D6032F039F8039A0646D76827B1D2E91C
:1029B000002329462046B847E06A03A931F086FF84
:1029C000E06A83889BB263B103A9FFF703FE204648
:1029D0000399FFF785FF304632F024F8012005B057
:1029E000F0BD84F83130F6E7112800080B7000F0D4
:1029F00073B5906A01A91446FFF7ECFD364B984277
:102A000031D094F83600019B00283AD12268916CAD
:102A100011F400712AD03149986019614FF40073A4
:102A200002F50052936431F0F7FF01990546CE6834
:102A300036B14A688B682046D31A0A680969B047DC
:102A4000A06A01A931F042FFA06A83889BB2002BE3
:102A500037D001A9FFF7BEFD20460199FFF71AFF05
:102A6000284631F0DFFF012002B070BD906CC50533
:102A700023D51B489960186102F500524FF480730A
:102A8000D0E7022819D12268D16C11F4007109D065
:102A9000124902F500521961002199604FF4007348
:102AA000D364C0E7D06CC00507D50D4899601861A4
:102AB00002F500524FF48073F2E700221A619A6027
:102AC000B1E784F8303094F83530032BC8D0204675
:102AD000FFF718FEC4E700BF0B7000F00D7000F0A8
:102AE0000C7000F02DE9F0410446524F88B001AE61
:102AF0000D460FCF0FC697E8070086E80700002CA9
:102B000000F0968025B94C4E304608B0BDE8F08103
:102B10006022002120464AF043FB2046FFF7B6FD25
:102B200006460028F0D1012184F835002B6884F88E
:102B3000360023602A7BE1652271404A9342E2D14C
:102B4000292363624FF4802305273D48C4E9040329
:102B5000D5E90723A26216805680968084F83060FB
:102B6000E3621E805E809E806B6884F83160039310
:102B7000EB8984F83360ADF814302B8A3A20ADF835
:102B80001230AB7C8DF811708DF81030EB7C8DF825
:102B9000163000F053FC606A012100F04FFC2868F9
:102BA00001A98DF8046002F0ADF91420297B254BB2
:102BB00001F13902BA4098502E7AA87A03EB4113FA
:102BC00046EA0042C3F83827697AEA7A41EA024CB9
:102BD000C3F830C7217784F82020E676E0776B7D54
:102BE00020466377AB7D84F82130EB7DA3772B7E85
:102BF00084F8223031F059FE31F00EFF4FF0FF32F1
:102C00008046286800F500539A642B7D032B0CBF87
:102C10003946042132F057F84FF440622B682046C1
:102C20005A61FFF75BFD0646404631F0FBFE6BE75D
:102C3000054E69E70CDA0408037000F000C0055087
:102C40000200040000C00350027000F02DE9F341BF
:102C50000D46044600287FD031F0DEFE012D0646E9
:102C600041D1E36A9B889BB2002B43D0A068FFF759
:102C700051FB0023E06A84F8313083889BB273B142
:102C800001A9FFF7A7FC0199A0680831FFF762FBD3
:102C9000374F019B1F61E06A83889BB283BB20464C
:102CA00031F037FE8304FAD5023D012D10D8E068DB
:102CB000FFF730FB0023A06A84F8303083889BB292
:102CC0006BBB94F83530032B02D02046FFF71AFD7A
:102CD000A36B002B02DD2046FFF776FD304631F076
:102CE000A1FE002009E0022D38D1A36A9B889BB287
:102CF000002BDCD131F096FE1E4802B0BDE8F08119
:102D000001A931F0E3FD019BD3F80C80B8F1000F6D
:102D1000C1D00022394620469B68C047BBE76946C0
:102D2000FFF758FC0099E0680831FFF713FB104DDE
:102D3000009B1D61A06A83889BB2002BC1D06946AD
:102D400031F0C4FD009BDF68002FF3D0002229463C
:102D500020469B68B847EDE70748CEE7032DA3D18F
:102D6000E36A9B889BB2002B80D1A36A7AE700BFFD
:102D7000097000F0087000F0027000F0F0B587B044
:102D800005461646FFF714FC0446B0B904930C4BF5
:102D9000CDE901166A46A86A01A903960593FFF7D3
:102DA00033FC044648B995F8303033B92846FFF76C
:102DB000C5FC28460099FFF76DFD204607B0F0BD21
:102DC000017000F0F0B587B004461646FFF7F0FB3F
:102DD000054658BB0493194BCDE90116059394F8A9
:102DE000363003962BBB23689B6903F0020313B9AB
:102DF0002046FFF7C1FC6A46E06A01A9FFF704FC20
:102E0000054698B994F8313083B931F005FEE36A8C
:102E100006469B889BB233B120460099FFF760FDC0
:102E2000012384F83430304631F0FCFD284607B0E9
:102E3000F0BD022BDCD123689B6CD6E7017000F05B
:102E40000B4B30B51B7883B101200023054609499F
:102E500051F8042B2AB192F85C40022C04BF2046A2
:102E6000D5650133042BF3D130BD0120FCE700BF51
:102E70007E6B0020585F0020034B5A6812B19A6A9B
:102E8000002AFAD1704700BF00400650426810B5D2
:102E9000B2FA82F2144CC2F11F0163680BB1FFF762
:102EA000EBFF0122114B5A60636813F00203FBD160
:102EB000027A002A14BF02240024427842EA011256
:102EC000094922438A60427A0124002A18BF02235A
:102ED000827A13434B62064B5C60037813B1FFF7B1
:102EE000CBFFCC6010BD00BF004006500060065014
:102EF0000050065008B50D4B5A6802B938B15B68EE
:102F00000BB1FFF7B9FF18B10122094B5A6008BD98
:102F1000FFF7B2FF02230549CB60FFF7ADFF0122A7
:102F2000044B5A604B689B07FCD4F0E70040065006
:102F30000050065000600650044B9A6AD006FCD43C
:102F400019639A6AD206FCD4704700BF004006504D
:102F500008B5FFF791FF02230449CB6000230B6201
:102F6000FFF78AFF0123CB6008BD00BF0040065079
:102F7000044BD3F88420D206FBD4D3F88400C0F3EA
:102F8000811070470040005038B5104B0546D3F80B
:102F900080300C4603F00303022B0BD0032B0DD023
:102FA000012B0FD1FEF76CFF0E2305B1286004B191
:102FB000236038BDFEF7AEFF0723F6E7FEF75AFFA2
:102FC0000623F2E700231846EFE700BF0080005019
:102FD00038B5174B0546D3F820310C4603F00703EC
:102FE000013B052B20D8DFE803F0030B130F171B61
:102FF000FEF740FF052305B1286004B1236038BD0A
:10300000FEF76EFF0323F6E7FEF784FF0723F2E7E0
:10301000FEF77CFF0223EEE7FEF72CFF0623EAE72C
:10302000FEF75EFF0423E6E700231846E3E700BF50
:103030000080005038B5174B0546D3F828310C46B0
:1030400003F00703013B052B20D8DFE803F003134F
:103050001B0F0B17FEF70EFF052305B1286004B107
:10306000236038BDFEF706FF0623F6E7FEF752FFA2
:103070000723F2E7FEF734FF0323EEE7FEF730FF06
:103080000423EAE7FEF742FF0223E6E7002318469F
:10309000E3E700BF0080005073B50D460021114BDF
:1030A0000191D3F88041064604F00304022C13D0AA
:1030B000032C0CD0012C13D101A8FFF789FF102499
:1030C0000EB1019B336005B12C6002B070BDFEF7FC
:1030D00021FF07240190F3E7FEF718FF0190EFE7C7
:1030E0000C46EDE700800050002337B50193154BE7
:1030F0000546D3F820320C4603F00703013B032BAF
:103100001ED8DFE803F0020E1318002101A8FFF714
:1031100091FF12230DB1019A2A6004B1236003B01C
:1031200030BDFEF7F7FE07230190F3E731F02FFBE8
:103130000A230190EEE7FEF72FFF09230190E9E74C
:103140000023E7E70080005038B5104B0546D3F860
:1031500040310C4603F00303022B0BD0032B0DD0A0
:10316000012B0FD131F013FB0A2305B1286004B104
:10317000236038BDFEF710FF0923F6E731F00AFBA4
:103180000C23F2E700231846EFE700BF0080005051
:10319000002337B50193164B0546D3F860320C4631
:1031A00003F00703013B032B1FD8DFE803F0020EF7
:1031B0001914002101A8FFF70BFF10230DB1019A8C
:1031C0002A6004B1236003B030BD002101A8FFF7DD
:1031D000BBFF1123F2E7FEF79DFE07230190EDE709
:1031E000FEF794FE02230190E8E70023E6E700BF24
:1031F00000800050002337B50193164B0546D3F8E5
:1032000094320C4603F00703013B032B1FD8DFE881
:1032100003F0020E1914002101A8FFF7D9FE1023B4
:103220000DB1019A2A6004B1236003B030BD0021C2
:1032300001A8FFF789FF1123F2E7FEF76BFE0723D2
:103240000190EDE7FEF762FE02230190E8E700231C
:10325000E6E700BF0080005038B5134B0546D3F8B1
:1032600000320C4603F00703013B032B18D8DFE8BC
:1032700003F0020A0E1231F08AFA0A2305B128601F
:1032800004B1236038BDFEF787FE0923F6E731F06D
:1032900081FA0C23F2E7FEF70DFE0F23800AEDE71B
:1032A00000231846EAE700BF0080005038B5134BF2
:1032B0000546D3F808320C4603F00703013B032B05
:1032C00018D8DFE803F0020A0E1231F060FA0A2380
:1032D00005B1286004B1236038BDFEF75DFE092307
:1032E000F6E731F057FA0C23F2E7FEF7E3FD0F2380
:1032F000800AEDE700231846EAE700BF008000508F
:1033000038B5104B0546D3F840320C4603F00303A2
:10331000022B0BD0032B0DD0012B0FD131F037FA3C
:103320000A2305B1286004B1236038BDFEF734FEDE
:103330000923F6E731F02EFA0C23F2E700231846B2
:10334000EFE700BF0080005038B5104B0546D3F8BA
:1033500060310C4603F00303022B0BD0032B0DD07E
:10336000012B0FD131F013FA0A2305B1286004B103
:10337000236038BDFEF710FE0923F6E731F00AFAA4
:103380000C23F2E700231846EFE700BF008000504F
:10339000B0F5207F1FD009D8B0F5007F15D003D835
:1033A00068B1B0F5C07F0AD000200CE0B0F5607FB6
:1033B000FAD10B4BD3F88000C0F3011003E0084BA7
:1033C000186FC0F3033001307047054BD3F89000FD
:1033D000C0F30460F7E7024B186FC0F38020F2E7F8
:1033E0000080005002464FF48030104B10B59866B4
:1033F0000020FFF7CDFF504341F671320C4BDC69E2
:10340000DA635A6804F4803422F4401259B9094945
:1034100088428CBF4FF480100020104358600CB1DC
:103420000022DA6310BD0449F2E700BF00900050AB
:1034300000000350005A6202002D3101430905D0FB
:10344000012B0DD0022B094B18BF002300F01F00E9
:1034500041B103F58053012202FA00F01860704771
:10346000034BF3E703F50053F5E700BF6880005016
:10347000648000501FB5002180280446CDE900116A
:1034800000F0A58035D85E2846D85E2844D8DFE80D
:1034900000F0A24343434343434343434343434333
:1034A00043434343434343434343434343434343EC
:1034B0004343A2AAA2AAB9B9B9B9B9AAC34DD9714D
:1034C0004DAAAAAA4343434343434343AAAAAA7922
:1034D000E3AA43434343434343434343434343B93F
:1034E000A2A2A2DE4D4DE8885EBE4343434343990A
:1034F000A200B0F5B06F00F08F802DD8B0F5207F1E
:1035000071D00CD8B0F5C07F65D0B0F5007F65D024
:10351000B0F5807F00F08580009804B010BDB0F554
:10352000607F6AD00DD8B0F5407FF5D1FEF7C2FCC0
:1035300002464FF42070FFF72BFFB2FBF0F040087B
:1035400047E0B0F5806F5DD0B0F5A06FE4D1002109
:103550006846FFF7C9FDDFE7B0F5106F77D016D8E2
:10356000B0F5E06F78D00AD8B0F5C06F6AD0B0F58A
:10357000D06FD1D100216846FFF76EFECCE7B0F5E1
:10358000F06FC9D100216846FFF7DEFEC4E7B0F551
:10359000406F3CD013D8B0F5206F62D0B0F5286FE3
:1035A000BAD10021314B0391D3F8703203F00303F9
:1035B000012B02D103A8FFF7C7FD039B3BE0B0F549
:1035C000486FA9D100216846FFF714FEA4E7FEF773
:1035D00057FC0090A0E7FEF76DFCFAE7FEF750FC01
:1035E0000246204604E0FEF765FC02464FF42070D8
:1035F000FFF7CEFEB2FBF0F0EBE701A8FFF7C4FC4B
:10360000019AEEE700216846FFF7E2FC84E700211B
:103610006846FFF70FFD7FE700216846FFF73CFD96
:103620007AE74FF0E02302911B695B0705D5FEF7AF
:1036300041FC0290029B00936EE703A902A8FFF7EA
:1036400083FDF7E700216846FFF77EFD64E7002170
:103650006846FFF72BFE5FE700216846FFF750FE44
:103660005AE700216846FFF793FD55E700800050B8
:1036700008B58020FFF7FEFE034B98429EBF4FF433
:103680008032024B1A6708BD005A620200A0005047
:103690001FB50023B0F5807F019300F0C38064D88C
:1036A0005D2855D84C2807D82D2847D823282BD853
:1036B000019805B05DF804FB4D381028F8D801A337
:1036C00053F820F01B380008B1360008B136000866
:1036D000B1360008CD370008B1360008B136000811
:1036E000A1380008EB370008913700089738000828
:1036F000B1360008B1360008B1360008B13600080E
:10370000B1360008AB38000824380928D0D801A306
:1037100053F820F01B3800081B3800081B3800083D
:103720001B3800081B380008B136000811380008A3
:10373000B1360008AD370008513800083D2800F0C8
:1037400082803E28B4D1002001A9FFF7D9FDAFE760
:103750008028ADD15A4B1B6F03F00703013B032BAD
:10376000A6D8DFE803F05350878FB0F5F06F6AD02A
:1037700021D8B0F5B06F4BD00FD8B0F5607F00F016
:10378000858095D3B0F5806F47D0B0F5A06F8FD10D
:10379000002001A9FFF7A8FC8AE7B0F5D06F57D049
:1037A000B0F5E06FCFD0B0F5C06F81D1002001A996
:1037B000FFF7CAFC7CE7B0F5206F71D00BD8B0F5ED
:1037C000086F4AD0B0F5106F7FF472AF002001A9E6
:1037D000FFF76CFD6CE7B0F5406F5CD0B0F5486F5B
:1037E00063D0B0F5286F7FF463AF0021344B0391B1
:1037F000D3F8703203F00303012B5BD0022B14BF0C
:103800000B46152300E00523019351E70223FBE754
:10381000002001A9FFF740FC4AE7002001A9FFF7BB
:10382000D7FB45E702934FF0E0231B695B0705D503
:10383000FEF740FB0D230393039BE5E703A902A8D2
:10384000FFF782FCF8E7002001A9FFF77DFD2FE7D5
:10385000002001A9FFF700FD2AE7194BD3F800313A
:1038600003F00303022B07D0032B09D0012B0BD14C
:10387000FEF736FB0323C7E7FEF78EFB0923C3E7FA
:1038800030F083FF0823BFE70123BDE7184601A9F5
:10389000FFF77AFB0CE7002001A9FFF7CBFB07E756
:1038A000002001A9FFF774FC02E7002001A9FFF73F
:1038B000A1FCFDE603A8FFF747FC1123A4E700BF26
:1038C000008000504FF48012034B5A664FF4803250
:1038D000024B9A62704700BF009000500050005A9F
:1038E00038B504468020FFF7D3FE032800F083801C
:1038F0004FF48012504B4FF0A0615A6645F60E030C
:103900004E4AC2F880304E4B99624FF4803103F535
:1039100080539962916D11F48031FBD1D4E9000399
:103920001B0543EA0063E07B0343207B43EA00433B
:10393000607B43EA0033A07B43EA80131361906904
:10394000D4E904531B0643EA856300F000400343B7
:10395000A07EE57E0343207E43EA0043607E43EA87
:1039600000239361E069136A00280CBF002208223B
:1039700023F00F0343EA000343EA850343EA02030B
:103980002E4A304D136237D194F82430916A94F85E
:103990002000DB000D4043EA401394F821102B4334
:1039A00043EA011343F480339362274B916D33EA6A
:1039B0000101FBD14FF08071214881621369A56834
:1039C00023F4700343EA055313614FF0004383610E
:1039D00094F822300BB91D4B996294F823301BB92F
:1039E0004FF48032194B9A6294F825301BB1134B77
:1039F000174AC3F8802038BD022808D11161154844
:103A000091614FF408524FF47F4130F0BDFF0B49F4
:103A100094F822308A6A94F820001B06154043EA85
:103A2000401394F824202B4343EAC20394F8232044
:103A300043EA02438B62D7E7009000500040005AEF
:103A40000050005AC7FFFEFE030001000060005A4C
:103A5000F1A7FFFF3440005A014B93F90000704773
:103A600091140020B0F5207F10B50C4657D008D82F
:103A7000B0F5007F48D003D830B3B0F5C07F23D075
:103A800010BDB0F5607FFBD129492A48D1F8FC2050
:103A900012F080721EBFD1F8FC3023F08073C1F8A1
:103AA000FC30D0F88030611E23F0300444EA011469
:103AB000C0F88040002AE3D01D4AD2F8FC3043F021
:103AC0008073C2F8FC30DBE730F06FFF30F07BFF33
:103AD0004FF48031184B174A1967136F611E23F496
:103AE000704444EA01341467FEF7E4F90446FFF732
:103AF0003FFAC0F10201204630F05FFF00F02EF8DF
:103B0000BDE81040FFF7B4BD0A4A0139D2F8903041
:103B100023F0F85444EA0164C2F89040B0E7054B42
:103B2000013C196F21F4806141EA84241C67A7E7F6
:103B300000ED00E0008000500090005008B5012129
:103B4000022000F0C3FA30F030FF30F03CFF4FF4B9
:103B50008032014B1A6708BD0090005008B54FF441
:103B6000C070FFF787FCBDE80840044988428CBF5D
:103B7000022101214FF42070FFF774BF80F0FA0298
:103B8000B0F5807FF8B50C4600F04E816BD85D280B
:103B90005DD84C2804D82D2844D8232828D8F8BD2F
:103BA0004D381028FBD801A353F820F0093E000837
:103BB0009F3B00089F3B00089F3B0008033D000817
:103BC0009F3B00089F3B0008BD3F00083B3D0008AD
:103BD000933C00089D3F00089F3B00089F3B000866
:103BE0009F3B00089F3B00089F3B0008DD3F00080B
:103BF00024380928D3D801A353F820F0093E00083F
:103C0000093E0008093E0008093E0008093E000878
:103C10009F3B0008E93D00089F3B0008C93C0008A5
:103C2000D73E00083D2800F046813E28B7D1093C28
:103C3000032C8CBF0021B04BB04A98BF195DD2F85D
:103C4000403223F003030B43C2F84032A7E7802839
:103C5000A5D18B1E062B00F2C480DFE803F0BFADB8
:103C6000C27EC2C2BC00B0F5F06F00F024813BD828
:103C7000B0F5B06F00F0B8801BD8B0F5607F00F0F1
:103C800067818CD3B0F5806F00F0BE80B0F5A06F77
:103C900085D1073C0B2C8CBF0021994B974A98BFCC
:103CA000195DD2F8203223F007030B43C2F820320B
:103CB00075E7B0F5D06F00F00E81B0F5E06FB6D0CB
:103CC000B0F5C06F7FF46BAF093C032C8CBF0021B3
:103CD0008C4B8A4A98BF195DD2F8403123F0030318
:103CE0000B43C2F840315AE7B0F5206F00F066810F
:103CF00017D8B0F5086F00F01B81B0F5106F7FF496
:103D00004EAF093C062C8CBF00217F4B7B4A98BFED
:103D1000195DD2F8083223F007030B43C2F80832CA
:103D20003DE7B0F5406F00F03981B0F5486F00F025
:103D30005581B0F5286F7FF432AF112C00F05E8111
:103D4000152C14BF002102216C4AD2F8703223F0E6
:103D500003030B43C2F8703221E7002502264FF41B
:103D600080370121022000F0B1F930F01EFE30F062
:103D70002AFE664B614A1F67136F23F00703334324
:103D80001367FEF797F80646FFF7F2F8C0F1020155
:103D9000304630F012FE0121002000F0D7F9FFF785
:103DA000DDFEFFF765FC002D7FF4F9AE032C7FF4F8
:103DB000F6AE574B9F62F2E64FF48012534B0E461D
:103DC0005A664FF48032534B9D6A03F58053C5F316
:103DD00000659A62C3E700250426C0E70025012696
:103DE000BDE700252E46BAE7023C0E2C8CBF002111
:103DF000494B424A98BF195DD2F8803123F0030342
:103E00000B43C2F88031CAE6023C052C8CBF00216E
:103E1000424B3A4A98BF195DD2F8203123F007038C
:103E20000B43C2F82031BAE6A1F10904082C3FF691
:103E3000B6AE01A353F824F05D3E00085D3E0008D5
:103E40009F3B00085D3E00088B3E00089F3B00083A
:103E50009F3B00089F3B00085D3E00084FF4803206
:103E6000264B2F49586E03F580535A664B6A43F030
:103E700001034B62C1035CBF2A4B5A664FF0E0223C
:103E8000136923F00403136189E64FF480321B4B5E
:103E90002349586E03F580535A664B6A23F0010399
:103EA0004B62C3035CBF1F4B5A664FF0E02213699D
:103EB00043F00403E7E7093C032C8CBF00211A4BB5
:103EC0000E4A98BF195DD2F8603123F003030B430B
:103ED000C2F8603163E6093C062C8CBF0021134B0D
:103EE000064A98BF195DD2F8003223F007030B434E
:103EF000C2F8003253E600BF90DA04080080005098
:103F00005FDA040890DA040848DA040800900050E8
:103F10000060005A0040005A7BDA04088ADA04087C
:103F200000C0075000A0005090DA040848DA0408E6
:103F3000CC1E062C8CBF0021314B324A98BF195D34
:103F4000D2F8003123F003030B43C2F8003126E618
:103F50002D49063CD1F8FC2012F080721EBFD1F82A
:103F6000FC3023F08073C1F8FC30082C8CBF00209B
:103F7000264B244998BF185DD1F8803023F0030305
:103F80000343C1F88030002A3FF409AE1E4AD2F83C
:103F9000FC3043F08073C2F8FC3000E6023C052C94
:103FA0008CBF00211A4B174A98BF195DD2F82831EF
:103FB00023F007030B43C2F82831F0E5023C0F2C35
:103FC0008CBF0021134B0F4A98BF195DD2F86032A5
:103FD00023F007030B43C2F86032E0E5023C0F2CEC
:103FE0008CBF00210C4B074A98BF195DD2F8943260
:103FF00023F007030B43C2F89432D0E50121A3E676
:104000004FDA04080080005000ED00E056DA0408A2
:104010008ADA04086BDA04086BDA0408054B4209F3
:1040200053F8223000F01F0023FA00F0C04300F0E4
:104030000100704700E100E0024A536B0342FCD1EB
:10404000704700BF00400950044A4178536F23F481
:10405000407343EA01235367704700BF004000509C
:104060000A4A10B51369044643F00403136105F0CE
:1040700091FF30F0DAFC30BF30F0D8FC05F09EFF45
:104080001CB9BDE81040FDF715BF10BD00ED00E004
:10409000084A10B51369044643F00403136105F0A0
:1040A00079FF30BF05F08AFF1CB9BDE81040FDF76D
:1040B00001BF10BD00ED00E0034A0179D36E23F08B
:1040C00030030B43D366704700400050F8B50446F8
:1040D0001C4BD3F88420D106FBD4D3F88430C3F32F
:1040E00081139C422CD0FDF7CBFE012C064602D159
:1040F000214630F062FC30F080FC4FF00072124B31
:1041000007465A66204630F094FC4FF480630D4D0C
:10411000621E93402B676B6E9A0103D4D5F88430EE
:104120009B060AD5384630F06CFC022C08D130468C
:10413000BDE8F840002130F040BCD5F88430EAE713
:10414000F8BD00BF004000500060005007B518B92E
:104150000191FDF795FE0199064B1B7843B1064B83
:10416000984205D8012003B05DF804EBFFF7AEBF1D
:104170000220F8E77F6B0020005A62020278034BAE
:10418000012100201A70FFF7E1BF00BF7F6B002004
:104190004FF00042154B10B55A664AF6CD3314491C
:1041A0004C6C0B6404F0010488B90120FFF744FF54
:1041B0004B68DB0704D50F4B58600B6BD807FCD559
:1041C00014B10B4B0C4A1A6448F048FA10BD0B6B43
:1041D0001A07FCD42022074B9A620122A3F58053D0
:1041E0005A60034A936A9B06FCD5E9E700900050A9
:1041F00000400950006009503254FFFF4FF0004268
:1042000038B5164B01465A664AF6CD33144C154A5A
:10421000656C236443780B205B0043F00103D36398
:10422000FFF70AFF63688A7823F4F87343EA0213FE
:104230006360CA784B7943EA0223A3600A798B79D9
:1042400043EA022323610878FFF7A2FFEB0744BF8C
:10425000054B236448F002FA012038BD009000505D
:1042600000400950004000503254FFFF4FF0004220
:10427000124B70B55D6E03F580535A664AF6CD3326
:1042800004460F4980204E6C0B64FFF7D5FE0B6A85
:1042900023F00F030F2C94BF234343F00F030B6253
:1042A000F30744BF074B0B64002DA2BF4FF0004241
:1042B000054B5A6648F0D2F970BD00BF008000502F
:1042C000004009503254FFFF00A000504FF0004260
:1042D000104B70B55D6E03F580535A664AF6CD33C8
:1042E00004460D4980204E6C0B64FFF7A5FE0B6A57
:1042F00023F4F85343EA04230B62F30744BF074B4C
:104300000B64002DA2BF4FF00042054B5A6648F0E7
:10431000A5F970BD00800050004009503254FFFFE5
:1043200000A000502C4B2DE9F0419842064612D0D7
:104330002A4886420CBF57200020FFF79BF8B1683F
:1043400011F0010109D03169090E0131B0FBF1F121
:104350000846BDE8F0815620EFE7326BB468204B89
:1043600004F0E004402C03EA020310D007D854B351
:10437000202C2CD0B36DDB0748BF4908E8E7602C40
:1043800027D0802CF6D14FF480750C461CE0802598
:104390000C464FF0030803F5807308FB03F8002375
:1043A000424619462EF034FB02FB04F100FB05F7F0
:1043B00005FB0311A2FB05050023424629442EF00C
:1043C00027FB3918D6E710254FF00108E3E725460B
:1043D000DBE74025D9E700BF0000015B00000A5081
:1043E000F8FF7F002DE9F04105460F461E46904636
:1043F0004AB101233022194C8B4002FB00443EB3EA
:1044000004F5825423600F21072F05EB450388BF75
:10441000A7F108044FEA0313114895BFBC00A4009C
:1044200004330C3308FA04F2A140184430F042FB84
:10443000B8F1000F0AD101213020084A01FA07F72C
:1044400000FB05223EB102F582521760BDE8F08103
:1044500004F50154D6E702F50152F6E700C0035017
:1044600030C00350F8B505460E4614465AB382686C
:1044700003F0030722F44072826030F0BEFAAA68AB
:1044800082EA072303F440735340AB6030F0B9FA7B
:1044900036B9B5F1B64F17D12E20FEF7EBFF064621
:1044A000AB680C4BD85D60430DD06FEAC404044484
:1044B000A319B3FBF0F3AA68013B920702D5002BC6
:1044C00008BF0123AB61F8BD034B9D42E8D12F200B
:1044D000E3E700BF94DA04080080065038B50023F3
:1044E0000E4A036400F50053DA634A7804460D4629
:1044F00000F108037AB903F5805302221A602046BE
:10450000D5E901122B7BFFF7ADFF20462978BDE8E6
:10451000384030F0E0BA03F50053EEE7FFFF1F002C
:10452000B0F1B64F2DE9F04322D0804B984240F0D5
:10453000FA807F4B402505264FF000084FF0030C12
:10454000996800F50054C26B12F4C06F16D097053D
:1045500010D5FD225A7009221A700022026493F9C4
:104560000110012900D15A7093F90100BDE8F083D0
:10457000704BDFE75605EED5FE22EBE71F78082FDC
:1045800000F2CD80DFE817F009001F0041004C0069
:104590006900740096009E00C2004C880A88E506F7
:1045A0000AD5120A02F0060242F0F0020121197047
:1045B0004263C1600120D9E702F0FE02A10748BFB3
:1045C00042F00102F2E7170607D5802100F50052FC
:1045D000D1634FF608721A8062E05206EAD54A8823
:1045E000E563D70604D502221A700B784363E1E72E
:1045F000920765D507221A701B7901EBC3010B895D
:10460000012BD7D10823C360D4E71706DDD45206A7
:10461000D0D54A88E563970752D583F800C092E762
:104620004C880A88E50643BF120A02F0060242F0EF
:10463000F00202F0FE02640709D51C7942F0010283
:1046400001EBC4010989012904BF0821C1600421CB
:1046500019700123C3604263ACE71706B5D457064F
:10466000A8D54A88E56352072AD507221A70A1E720
:104670001A795F8801EBC20EBEF80890B94511D8CF
:104680000132D2B21A714F88A3F8028017F0040FDA
:10469000C3D1FF0702D4012A7FF655AF08221A7052
:1046A0000223B0E7DEF80420791C5980D25D426312
:1046B0000622DBE7170688D457067FF57BAFE56354
:1046C0001E7040E794067FF575AF20261A7900F535
:1046D000005401EBC2010A89456AE6635C88A24284
:1046E00081BF4968661C5E800D5559888A42D5D9BC
:1046F0000424012AC46004D9013A914201D108225C
:10470000C2601A78092A3FF428AF53E7D2057FF533
:1047100051AF4FF4807100F50052D1631BE74FF6A3
:1047200009321A8019E76FF003001FE70080065076
:10473000745F0020685F0020B0F1B64F10B407D05E
:104740001A4B98422ED06FF003005DF8044B70476F
:10475000174B0269D20744BF2022C2604A889407DF
:1047600002D50C89002CEED0520702D50A8A002A05
:10477000E9D04FF480721A60002299601A71C02348
:10478000C3604369DB050FD4202200F50053DA63D0
:10479000084A5DF8044BDA63036C43F4FC6303647A
:1047A000FFF7BEBE044BD4E7436AEAE70080065039
:1047B000685F0020FFFF1F00745F00204369DA017B
:1047C000FCD4012300F50050024A436053689B0764
:1047D000FCD4704700400059084608B569B92A2042
:1047E000FEF748FEB0B10C4B984206D90B4B9B68C4
:1047F000C3F302730133B0FBF3F0094900F57420F1
:1048000000F23F20B0FBF1F001387F2828BF7F2065
:10481000C0B208BD0120F0E7005A62020040005912
:1048200040420F0010B50B4C8C4228BF0C461AB901
:104830002A20FEF71FFE0246601E0244B2FBF4F07F
:10484000A24228BF00F1FF30032828BF0320C0B2D6
:1048500010BD00BF005A620210B51048104C002B6A
:1048600018BF2046884228BF084604461AB92A20A5
:10487000FEF700FE02469DF808000130B2FBF0F2A0
:10488000601E0244B2FBF4F340F2FF30A24228BFA4
:1048900003F1FF33984228BF184610BD8096980058
:1048A000404B4C002DE9F04F2DED048BB44E0C46DF
:1048B00087B01546314600220746FFF7B3FF6379FC
:1048C000984238BF18465FFA80F83846FFF776FFFF
:1048D000207950B92A20FEF7CDFDB042014628BF0D
:1048E000B0FBF8F13846FFF777FFE3784FEA08723C
:1048F0001B0102F0E04203F030031343000422786E
:1049000000F4FE0003430AB143F0020362780AB1E7
:1049100043F00403A2780AB143F008034FF0000902
:10492000BB60E38822893B616389DFF860A243EAC8
:1049300002433B62574502D1B9F1020F08D101236E
:1049400007F580577B6007B0BDEC048BBDE8F08FA6
:1049500000222C788B488C49AE68944218BF0146DF
:1049600023468A48CDF80080FFF776FFB6B286422C
:10497000334638BF034607EB091103938B6C04F0F1
:10498000030623F0435323F41D1323F4405323F071
:104990001F0333436E78EA78B60006F01C061E4308
:1049A000AB784FEA09101B0303F4E04333431604CA
:1049B00006F4E02633432E7C760506F46006334386
:1049C0002E79360706F0405633438B648B6C704962
:1049D000C3F30233013B042B00F28580DFE803F0D0
:1049E000838383030300D1F8843109F1050B002C84
:1049F0006FD10AEB00039C6CC4F30234631E012BDD
:104A0000634B73D8DFED637AD3F88041A4B22304FB
:104A10004FF001035044806C24F4C046C0F3820080
:104A200000F1010E03FA0EFE07EE10EA4FEA864689
:104A3000B8EEC79AF6EE008A554B48BF46F00046DE
:104A4000002871D1D3F88C311BB208EE103AB8EEC1
:104A5000C88A37EE888A002A7BD105A800F0AAF917
:104A6000DFED4D7ADFED4D6A86EE897ADFED4C6A37
:104A700067EE887A27EE267AF1EE006AB6F1004FEB
:104A800007EEA67A0BD0DFED476A07EE904A37EEC5
:104A9000266AFAEEE87AB0EE667A17EE867AB5EE16
:104AA000C07AF1EE10FACABFB1EE477A38EEC77A93
:104AB00037EE687AFDEEC77A17EE903AB3F5003F0D
:104AC00054DB6FEA56466FEA46464FEA0B134AF844
:104AD0000360039B0AEB0B11C3F309024A6009F15F
:104AE0000109143526E7D1F880317EE7032C0AD17D
:104AF000D3F88041D3F88C31240C1B1407EE903A84
:104B0000F8EEE77A83E7042CD3F884410BBFD3F89F
:104B10008C31D3F88C311B141B1407BFA4B25B007B
:104B2000240C03EB4303E9E7D3F89001D3F8883171
:104B300000B207EE100AB8EEC77A77EE677A29EE70
:104B4000287A1BB287EE878A07EE903AF8EEE77A6A
:104B50007FE7D5ED037ADFED146AF8EE677A87EE2A
:104B6000A67AF7EE046AC6EE877A7BE713F5003F74
:104B7000AABFC3F3110346F400361E43A5E700BFE6
:104B8000005A6202404B4C00809698000040005949
:104B90000080E00F000000003D3B843F00008043A8
:104BA000000020440000004900007A4410B50121B3
:104BB00004462020FEF742FC01212120FEF73EFCA6
:104BC0000122114B5A60227812069A606178A2780D
:104BD00042EA01429A61FF229A6200229A631A64B1
:104BE0004FF000425A654FF0FF324FF4001103F5C9
:104BF00000531A65054AC2F88011E3781B01DBB245
:104C000082F81533116010BD0000045000E100E08F
:104C10002DE9F0410125C3B2D1F8008091F80AC016
:104C20000F7B91F80DE09D400C46CB7A1C491D4E40
:104C30000D65810001F1A04101F58821C1F80480D2
:104C4000302101FB00601B0543EA0C4343EA475354
:104C500022F00302C0F860E0C36502672FF0DCFEBB
:104C6000736D2B437365237A13B1336C2B43336419
:104C7000637A13B1B36B2B43B3632279A37943EA0D
:104C80000243074A93616179E37943EA01430649A4
:104C90008B61044B55639D64BDE8F0412FF0C2BEAB
:104CA00000200450000004500010045010B50124EE
:104CB000C0B284402FF0B0FE044B5A6D22EA0402C9
:104CC0005A659C62BDE810402FF0ACBE0000045055
:104CD000F8B50125C3B204469D402FF09DFE302259
:104CE000094B1E6D5F6B02FB04335C6E2FF09AFE66
:104CF0003D4206D1C4F30A1008B9354200D1013053
:104D0000F8BD0020FCE700BF000004504FF48032E3
:104D1000054B9A6641F6713203F51C33DA630122C2
:104D200003F50053DA6070470090005041F671328D
:104D30000121064BDA6303F50052D1600022DA63E9
:104D40004FF48032A3F518339A6670470000035081
:104D5000013831289ABF024B185C0020704700BF11
:104D600098DA040810B5C2F30623044602F00702DD
:104D700041B942EA03220B4B42F44022063443F885
:104D8000242010BD184611462FF02DFF014618466D
:104D9000FFF7DEFF034B41EA0020163443F82400FE
:104DA000EFE700BF00800350014BD3F89400704739
:104DB000004000504FF48032064B5A6603F5E6235C
:104DC0009B69C3F38512827003F03F021B0B427094
:104DD000037070470090005040F6B732064B5B6896
:104DE0009BB293429FBF4FF47A72B3FBF2F3034A34
:104DF000D05C88BF002070470080E00FCADA04084A
:104E000070B5054616461C4621B94FF42070FEF7D2
:104E100031FB0146402C1BD003D8DCB1202C1BD029
:104E200070BD602CFCD1042303FB06F2560806EB90
:104E30004113B3FBF2F3094A203B02EAC303AA6819
:104E400022F06002AA60AA681443AC60EB61E7E755
:104E50000623E9E71023E7E70823E5E7F8FF7F00EB
:104E60002DE9B841154F15460F40FAB9202B20D037
:104E7000402B20D0002B14BF40241024012307F521
:104E800080775F4300233A4619462DF0C1FD554314
:104E900000FB04F804FB0351A2FB040400233A4680
:104EA00021442DF0B5FD4044BDE8B88180240025A3
:104EB000E4E71C46E2E780240323E0E7F8FF7F00F5
:104EC000012100F5805310B5596040F6AA6341F204
:104ED000050243610023094C8360C365C26000F58D
:104EE00000520361C361C3649464054C8365A042AE
:104EF00004BF03654365516010BD00BFFFFF0100A3
:104F000000C0055070B50D46FFF7DAFF012300F52C
:104F100080567360AB7C04461BB1836843F08043CA
:104F20008360EB7C5BB1244B9C4202BF2A7DA3F5DE
:104F30001033C3F8C821E36D43F08003E3652A8A88
:104F40006B7B20461343EA891343E3602B7BD5E94F
:104F50000112FFF755FF6B7D1BB1A36843F480334B
:104F6000A360AB7D1BB1A36843F40043A360EB7D5A
:104F70002A7E1B07120502F4E00203F0E04313430C
:104F8000A3656B7E9A1E012A4FF0020209D80B49D5
:104F9000032BC1F8202709D10423F3652B78636123
:104FA00070BD0749012BC1F82027F4E7042204F55E
:104FB0000053DA65F2E700BF00C0055000D003508F
:104FC00000E00350054B9A689107FCD45A68920799
:104FD000F9D4DA69002AF6D1704700BF00800A5080
:104FE00008B5FFF7EFFF0122024B03F580514A603D
:104FF0001A6108BD00800A50074B5A68012A0AD17D
:105000005A68D20702D5DA69002AF9D102221A6158
:105010000122024B5A60704700800A5000A00A50DB
:1050200010B5064CFFF7CEFF6368012B03D1FFF7E5
:10503000E3FFFFF7C7FF0378E36010BD00800A506D
:10504000E8B94A680B7812B1127843EAC2034A7889
:10505000002A14BF0222002213438A6812B1127878
:1050600043EA82138A78002A14BF042200221343E1
:10507000CA6812B1127843EA4223014A9364704726
:1050800000800A5008B9014B5964704700900A50DB
:1050900008B9014B5964704700A00A5008B9014B88
:1050A0001964704700A00A5010B9024B186C704781
:1050B0000020704700800A5048B911B1012903D07F
:1050C0007047044BD86C7047024B186D7047002036
:1050D000704700BF00800A5040B911B1012903D0C8
:1050E0007047034BDA647047014B1A65704700BF85
:1050F00000800A5038B50446054D47F0C4FA0FCC7D
:105100000FC594E8030085E80300002038BD00BF08
:10511000805F002047F6FF739A42F0B567D00129FF
:1051200067D8354DCF0015F8313005EBC100012BA4
:10513000847813D10025C3781B1B9D4202D3E0184D
:10514000C0B2F0BD591B4668A3EB510136F911609E
:105150009642D4BF0D4601F1FF33EEE740680028C8
:10516000EFD0B0F90030934204DBB0F90230934243
:10517000B8BF134682883D44FF2A19BFC8214FF0AB
:10518000280CB0F90610B0F908C0A1EB03020CBF5F
:105190000126002692FBFCF26D78324412B2954251
:1051A00001DD002A01DA6A1E12B24FF47A7700EBB1
:1051B000C206F188B668013213FB016112B221EA1E
:1051C000E17101F5FA719542B1FBF7F104DD00EBF5
:1051D000C206B6888E42EAD200EBC20232F8040C54
:1051E000884228BF0846A04238BF2046A8E7FF20D3
:1051F000A7E70020A5E700BF805F00200129F0B5E8
:1052000053D82B4800EBC10410F831106368012912
:105210000FD1E078A478904294BFC4EB0001C4EBB6
:105220000201001BCAB28242C8BF002233F9120039
:10523000F0BD002B39D0A178914202D3B3F902001E
:10524000F6E7E178B3F900009142F1D999886478E2
:10525000A1F1FF06013C714203F10405E4B2714182
:1052600003F10C071FFA82FCCEB2B44216D805EB4C
:10527000C1014FF47A756A43B1F902404968521A84
:1052800004EBD47102EB610292FBF4F29042CFDBAB
:10529000B3F902009042CBDC10B2C9E737F831E035
:1052A0004E1CE645E3D33146DEE70248C0E700BFC7
:1052B000805F00200080FFFF0148FFF71BBF00BF99
:1052C000541F05087FB51422002101A847F068FF8C
:1052D000044B01A94FF0FF30029347F09BFA07B04F
:1052E0005DF804FB006A18004FF48062014B002057
:1052F0009A667047009000504FF48062014B002086
:105300009A66704700A0005008B5B0B14FF48062B3
:105310000B4B9A662FF0A8FC4FF098435A6CD202C0
:10532000FCD54FF48062586D064B10F470209A66DD
:1053300004D0BDE808402FF0DDBC212008BD00BF2F
:105340000090005000A000502DE9F0418CB088463C
:10535000DDE912761D460446002847D0002945D0D5
:10536000002F43D0002E41D013F00F033ED1204830
:105370002049A360002A18BF0146E361C4E9001375
:10538000404609A92FF026FE68BB204609992FF058
:1053900062FC294620462FF05EFC6946404600F03C
:1053A00079FF00BB694620462FF041FC404603A927
:1053B0002FF0DEFEB8B9204603A92FF038FC06977F
:1053C0000127204645F0005506A9079708952FF0BC
:1053D0002EFC204609A909960A970B952FF031FC5F
:1053E0002046FFF791FF0CB0BDE8F0812120FAE7DD
:1053F00000010104000100042DE9F04792B0884645
:10540000DDE91A571C460646DDF87090002864D086
:10541000002962D0002F60D0B9F1000F5DD0002DBF
:105420005BD013F00F0358D12D482E49B360002AEA
:1054300018BF0146F361C6E9001340460FA92FF0DB
:10544000C9FD002846D130460F992FF004FC2146B3
:1054500030462FF000FC6946404600F01BFF002854
:1054600038D1694630462FF0E2FB404603A92FF0C1
:105470007FFE78BB4FF001083046DFF86CA003A92F
:105480002FF0D5FB44F00054304606A90695CDF820
:105490001C80CDF820A00997CDF828800B942FF020
:1054A000C6FB304609A92FF0C2FB30460CA9CDF847
:1054B0003090CDF834800E940F95CDF84080CDF823
:1054C00044A02FF0BEFB30460FA92FF0BAFB3046A8
:1054D000FFF71AFF12B0BDE8F0872120FAE700BFFE
:1054E0000302010403020004100000202DE9F04F24
:1054F00097B0894690461F460546DDF880A00028F3
:1055000000F0BD80002900F0BA803AB1229B002B48
:1055100000F0B580239B002B00F0B180BAF1000FA2
:1055200000F0AD80219B002B00F0A98077B13C6892
:105530000026229B43440293464509D3002F00F0E6
:10554000A08000203C6017B0BDE8F08F3C46EFE73C
:105550005CB1229B219A9B5D125D01345340239ADA
:1055600004F00F0493550136E6E7A8EB060BBBF1F8
:105570000F0F58D9444B4846C5E90034AC60EC6184
:1055800013A92FF027FD0028DDD1284613992BF011
:105590000F0B2FF060FB594628462FF05CFB484666
:1055A00004A900F077FE0028CDD1284604A92FF0E9
:1055B0003EFB484607A92FF0DBFD0028C3D1284653
:1055C00007A92FF034FB01232299304ACDF828A0F7
:1055D0000B930C928A190D9228464BF000520AA99F
:1055E0000E9303920F922FF022FB28460DA92FF065
:1055F0001EFB239B039A9919012310911193129278
:10560000224A284610A9CDF84CA0149315922FF0E9
:1056100018FB284613A92FF014FB2846FFF774FE49
:105620005E4400288FD1229B03EB060B239B1E4474
:10563000029B5B4501D146467EE7ACB9219B2246E1
:10564000CDE900A3494610232846FFF77DFE002838
:105650007FF479AF0AF1100212F8013D0133DBB299
:1056600013700BB99245F7D1219A1BF8013B125DDB
:105670000134534006F8013B04F00F04D8E7212021
:1056800061E738465FE700BF030300041000002015
:105690002DE9F04F97B00F46144699468346209E59
:1056A000DDF88880DDF890A0269D002800F09F801E
:1056B000002900F09C801DB1259B002B00F09780F5
:1056C000B9F1000F00F09380B8F1000F03D0219BD7
:1056D000002B00F08C803CB1239B002B00F08780D6
:1056E000BAF1000F00F08380C6F10F02D2B2032A94
:1056F00005D80121D20001FA02F2A24277D9022D87
:1057000075D0102D73D815F0010270D1F11F062944
:105710006DD838490AEB0400884268D836493846C3
:10572000CBE90012CBF80820CBF81C2013A92FF0EE
:1057300051FC002858D1584613992FF08CFA58463E
:1057400045EA06412FF087FA414658462FF083FA82
:10575000214658462FF07FFA384601A900F09AFDFD
:10576000002841D1584601A92FF061FA384604A912
:105770002FF0FEFC002837D10127584604A92FF04E
:1057800056FA239B48F000520793219B584644F059
:1057900000540DA946F00056089709940A930B97F8
:1057A0000C92CDF834900E970F962FF040FA584691
:1057B0000AA92FF03CFA584607A92FF038FA259B82
:1057C000584610A945F00055CDF840A01197129405
:1057D0001393149715952FF034FA584613A92FF008
:1057E00030FA5846FFF790FD17B0BDE8F08F212042
:1057F000FAE700BFFFFF0320000005042DE9F04F8A
:1058000099B00F4614469B468046229EDDF898903C
:10581000289D002800F0B280002900F0AF80279B6F
:10582000002B00F0AB80BBF1000F00F0A780249BA1
:105830001BB1239B002B00F0A1803CB1259B002BCA
:1058400000F09C80B9F1000F00F09880C6F10F03C2
:10585000DBB2032B06D80121DB0001FA03F3A342DC
:1058600040F28C80022D00F089806B1E0F2B00F21D
:10587000858015F0010A40F08180F31F062B7DD84A
:105880003F4B09EB0401994278D83E4B3846C8E9B2
:10589000003AC8F808A0C8F81CA015A92FF09AFB78
:1058A0000346002866D1404615992FF0D4F94046AA
:1058B00045EA06412FF0CFF9404624992FF0CBF965
:1058C000214640462FF0C7F9384603A900F0E2FC14
:1058D000034600284ED1404603A92FF0A8F93846C8
:1058E00006A92FF045FC0346002843D10127404676
:1058F00006A92FF09CF9259B4046099344F00053DC
:105900000A9701930B93239B46F000560C93249B1C
:105910000D9743F000510E910FA9CDF83CB01097B0
:1059200011962FF084F940460CA92FF080F94046DB
:1059300009A92FF07CF9019B404612A9CDF84890A7
:10594000139714932FF07DF9279B404615A945F036
:1059500000551593169717952FF069F94046FFF7F4
:10596000D3FC034630B1019022465146484647F0E9
:1059700017FC019B184619B0BDE8F08F2123F9E709
:10598000FFFF0320000006042DE9F0438DB0884698
:1059900015461C460746DDF85090002850D00029D7
:1059A0004ED0002A4CD0B9F1000F49D00B68103B03
:1059B000102B45D8012606FA03F303F0013323F038
:1059C0008073002B3CD000231E4A8360C0E9002373
:1059D000C36109A940462FF0FDFA70BB384609990A
:1059E0002FF039F9214638462FF035F969464046FF
:1059F00000F050FC08BB694638462FF018F94046C5
:105A000003A92FF0B5FBC0B9384603A92FF00FF951
:105A100044F00054384606A90695079608942FF0DE
:105A200006F9094B384609A9CDF824900A960B933C
:105A30002FF007F93846FFF767FC0DB0BDE8F0839B
:105A40002120FAE70000040410000020F0B50C4605
:105A500017461E46054695B0002874D0002972D01E
:105A6000002A70D0002B6ED0036B0F2B5BD8002365
:105A7000364A3846C4E90023A360E36111A92FF038
:105A8000A9FA00285BD1204611992FF0E4F8296B80
:105A900020460F2984BF01F00F0110312FF0DBF8F1
:105AA000384602A900F0F6FB002848D1204602A99A
:105AB0002FF0BDF8384605A92FF05AFB00283ED13B
:105AC000204605A92FF0B3F80122214B0895099231
:105AD0000A932B6B05F1100003F00F0141F0005108
