:020000040800F2
:10000000001200209D3C00080DA803080DA803085D
:1000100019BE03080DA803080DA803080DA80308BE
:100020000DA803080DA803080DA803080DA80308D0
:100030000DA803080DA803080DA803080DA80308C0
:100040000DA803080DA803080DA803080DA80308B0
:100050000DA803080DA803080DA803080DA80308A0
:100060000DA803080DA803080DA803080DA8030890
:100070000DA803080DA803080DA803080DA8030880
:100080000DA803080DA803080DA803080DA8030870
:100090000DA80308814300080DA803080DA8030854
:1000A0000DA80308FD440008D94400080DA8030862
:1000B0000DA80308E95A0208D9640208FFE1040800
:1000C000FBE10408C15C02080BE2040803E2040837
:1000D000B164020807E20408196502087D65020898
:1000E0000DA803080DA803080DA803080DA8030810
:1000F00015BE03080DA803080DA803080DA80308E2
:100100000DA803080DA803080DA803080DA80308EF
:100110000DA803080DA803080DA803080DA80308DF
:100120000DA803080DA803080DA803080DA80308CF
:100130000DA803080DA803080DA803080DA80308BF
:100140000DA803080DA803080DA8030821BF030884
:10015000A54102080DA803085DDF040863DF040859
:100160000DA803080DA803080DA803080DA803088F
:10017000013800D0FCE77047734B73B5198811F054
:10018000010140F0DA8041F60B22704D704BA960FE
:10019000C5E900316F4B19609A806F4B1B6ADB0712
:1001A00006D440F2B9316D4B6D4A6E4834F002FE10
:1001B00028461EF035FE044620B940F2BD316A4B98
:1001C000674AF2E71FF0A6FD20B140F2C131674B4C
:1001D000634AEAE74FF0011120464DF0C3FB20B11E
:1001E00040F2C531614B5E4ADFE7022120464DF007
:1001F000A4FA20B14FF472715C4B594AD5E72046FE
:100200005B491FF09DFB20B140F2CB31574B544A64
:10021000CBE7012120464DF09DFC20B14FF47471D5
:10022000524B4F4AC1E7012120464DF0A3FC064640
:1002300020B140F2D3314D4B494AB6E701463C224A
:100240004C4859F0BDF980233246204605F1100193
:100250004DF091FB802804D040F2DA31464B404A01
:10026000A3E7464D01201EF02FFE35A3D3E900235E
:100270002C602046CDE900234FF0FF324FF0FF33D2
:100280004DF08DFA20B140F21731384B3C4A8CE7E3
:1002900030480AF095FC012108460AF0FFFC0121D4
:1002A00028684DF0F2F9044620B140F26E412F4B20
:1002B000344A7AE7344B354A98801A60344B354AD1
:1002C00098801A60344B354A98801A60344A6FF02F
:1002D00063005A610EF084FB0B200AF02BFC314BBB
:1002E000186020B940F28C412F4B264A5DE706F09A
:1002F0007FFB214628684DF08FFA20B140F219416A
:100300001A4B2A4A51E70822286811464DF049FA4B
:10031000044620B14FF49261254B1A4A45E70BF091
:100320004FFD244B24481C70244B1C70244B1C7024
:1003300002B0BDE8704040F0EBBB02B070BD00BF42
:100340000B6020FF220200004A740020D0550020DC
:1003500061AF0008C85500200080E00FCEAF05084F
:1003600074B1050829AB0508E7AF05088DAA050893
:1003700084B205086C560020F6AF0508C45500206D
:1003800067B10508F0B1050820200020097600209B
:10039000F81F002089750020482000208B7600205F
:1003A00070200020685600202EB005082DB10508E9
:1003B00049B005087E750020CDB005088A7600207A
:1003C000897600200000000070B590B00E4604460B
:1003D00006A909AD81E80C000023179928460F9360
:1003E00028F090FB9DF858304FF00001B26820468D
:1003F0000393159B049502939DF850300193079B3E
:100400009FED050B0093069B52F038F828464EF0FE
:100410008BFE204610B070BD000000000000000000
:1004200070B590B00E46044606A909AD81E80C00EF
:100430000023179928460F9328F0D6FB169B4FF000
:100440000001B26820460393159B049502939DF822
:1004500050300193079B9FED060B0093069B52F0D3
:1004600035F928464EF060FE204610B070BD00BF42
:10047000000000000000000070B590B00E46044679
:1004800006A909AD81E80C000023179928460F93AF
:100490002AF0D2FC9DF858304FF00001B268204697
:1004A0000393159B049502939DF850300193079B8D
:1004B0009FED050B0093069B4FF03DF928464EF04B
:1004C00033FE204610B070BD0000000000000000A8
:1004D00070B590B00E46044606A909AD81E80C003F
:1004E0000023179928460F932AF0ECFC169B4FF037
:1004F0000001B26820460393159B049502939DF872
:1005000050300193079B9FED060B0093069B4FF025
:10051000EBF928464EF008FE204610B070BD00BF33
:1005200000000000000000002DE9F04F1F460023EE
:10053000044688464FF0000A4FF0000B2DED028B69
:100540009DB018939F4B13921B681846059359F062
:100550007CF90546CDF85C80179B1A782B2A4ED083
:100560003BD80D2A34D8082A34D8002A3ED000239C
:100570000A93179E3378302B40F0B080737803F0E5
:10058000DF03582B68D10A9B17A9029720460193D5
:1005900018AB8D4A009319AB38F042F810F00707FA
:1005A000054605D0062F2CD10136002317960A9355
:1005B000139B002B40F08E850A9BEBB152460BF14A
:1005C000004343EC102B1DB0BDEC028BBDE8F08F57
:1005D000202ACCD101331793BEE72D2AC7D101229F
:1005E0000A925A1C17925B78002BC2D1139BCDF84C
:1005F0005C80002B40F06C8552465B46E1E70022B0
:10060000EEE7189A3AB135211AA859F079FD1899F0
:10061000204638F029FB013F042F06D8DFE807F019
:100620000A0314170A00DDE91AAB2807C0D54BF0FE
:10063000004BBDE7DDE91AA3199A23F4801302F2F7
:10064000334243EA025BF0E7DFF880B1EDE76FF099
:10065000004B4FF0FF3AE8E7179B5A1C17925B7864
:10066000302BF9D0002BA3D001234FF000090493C5
:100670000A22179B4F46CDF81C90089317980678CE
:10068000A6F13003D9B209292AD92A46059959F089
:10069000E4F8A0B3002032463D4603460590652AA3
:1006A00001D0452A18D11DB9049A02439ED00025D5
:1006B000DDF85C8008F10102179298F801202B2ADE
:1006C00075D02D2A7BD04FF0000CA2F13001092902
:1006D00040F28280CDF85C8000269DE00023C4E7D4
:1006E000082F00F1010007F10107D4BF079902FBB1
:1006F00009391790DCBF02FB01330793BEE7179B54
:100700005A1917925A5D002F36D03D460590A2F136
:100710003003092B12D90123C1E7179B01305A1C62
:1007200017925A78302AF8D0A2F13103082B00F240
:10073000D68405900020179B05460893303A00F1B7
:10074000010313D0059900EB050E19442B460591C2
:100750000A21734512D12B180135082B05441CDCE6
:1007600007990A2303FB012307930023179A1846CE
:10077000511C17915278CAE73846D3E7082B04DC9E
:10078000079E4E4307960133E3E703F1010CBCF1EA
:10079000100FD8BF01FB09F9F5E7102DDCBF0A23C4
:1007A00003FB0929E1E70023059301237CE74FF0D0
:1007B000000C08F10202179298F8022085E74FF02A
:1007C000010CF6E730590608F85406080000F07FDF
:1007D000179A511C17915278302AF9D0A2F13101A1
:1007E00008293FF679AFA2F1300E179A0692179AB0
:1007F000511C17915278A2F13006092E37D9069E66
:10080000891B44F61F66082902DC7645A8BF764698
:10081000BCF1000F00D07642002D4DD10499014368
:100820007FF4C6AE002B7FF4E1AE692A27D024DC2A
:10083000492A24D04E2A7FF4D9AE9F4917A859F0EF
:10084000ECFA00283FF4D2AE179B1B78282B2DD151
:100850001AAA9A4917A859F0F4FA052826D11B9B21
:10086000DDF868A043F0FF4B4BF4E00BA0E60A2153
:1008700001FB0E2EAEF1300EB9E76E2ADBE7904990
:1008800017A859F0CAFA00283FF4B0AE179B17A872
:100890008C49013B179359F0C0FA10B9179B0133EB
:1008A0001793DFF830B24FF0000A81E6864800F077
:1008B0003FFC5BEC10AB7BE6059B002F08BF2F468F
:1008C000102D0798A6EB0303A846A8BF4FF0100809
:1008D000069333F08DFF092D82468B4613DD7B4B4B
:1008E00003EBC80353E9122339F0EEFA82468B4634
:1008F000484633F07DFF02460B465046594633F0DA
:100900003BFE82468B460F2D38DC069B002B3FF4C6
:100910004FAE24DD162B0BDC6C49524601EBC301B4
:100920005B46D1E9000139F0CFFA82468B463FE6BB
:10093000C5F12503069A934220DBC5F10F05634CF0
:1009400052465B4604EBC501D1E9000139F0BCFA1F
:10095000069B5D1B04EBC504D4E90023E3E7069B7B
:1009600016330BDB059B504659469E1B574B03EB3A
:10097000C606D6E9002339F0D1FBD6E7A5EB080877
:10098000069B9844B8F1000F74DD18F00F030AD0ED
:100990004E49524601EBC3015B46D1E9000139F0F3
:1009A00093FA82468B4638F00F084FD0B8F59A7FFD
:1009B00022DD00252E46079505952223DFF814B188
:1009C0004FF0000A2360079B002B3FF4F1AD18990C
:1009D000204638F049F90599204638F045F9314666
:1009E000204638F041F90799204638F03DF929466C
:1009F000204638F039F9DBE5354B4FEA28185046E8
:100A00005946049300239946B8F1010F21DC0BB13C
:100A100082468B462E4BABF1547B524603EBC90901
:100A20005B46D9E9000139F04FFA2A4B0A46824663
:100A30000B4029498B42BCD8A1F580118B4286BF5F
:100A4000DFF898B04FF0FF3A02F1547B0023049393
:100A500083E018F0010F05D0049BD3E9002339F09F
:100A600033FA0123049A09F101094FEA68080832B0
:100A70000492C9E7EAD0C8F1000818F00F020AD0C2
:100A8000124B5046594603EBC203D3E9002339F019
:100A900045FB82468B465FEA2818D7D0B8F11F0F76
:100AA0001EDD00252E460795059522234FF0000AEE
:100AB0004FF0000B236086E772D005080C5506083E
:100AC000F5540608975C0608B0A70508E85906081B
:100AD000C05906080000F07F0000A07CFFFFEF7FF8
:100AE00018F0100350465946DFF8A89318BF6A2340
:100AF0000493002318F0010F04D0D9E9002339F042
:100B0000E3F901235FEA680809F10809F2D10BB1A2
:100B100082468B46049BC3B1CBF30A525946C2F1BD
:100B20006B03002B11DD1F2B40F32181342B4FF081
:100B3000000ADBBFC2F14B024FF0FF334FF05C7B8A
:100B400003FA02F2D8BF02EA010B0022002350464A
:100B5000594633F01DFF0028A3D1079B3A46089958
:100B6000204600932B4638F0E9F8079000283FF420
:100B700020AF059B00259E1B069B002BB4BF334670
:100B800000232E460C93069B23EAE3731293079BE4
:100B90002046596838F028F8059000283FF40DAF3A
:100BA000079B0C301A6903F10C010232920058F0D5
:100BB000E0FC1AAA19A920464BEC10AB38F09AFBBE
:100BC00018904BEC18AB00283FF4F7AE01212046FB
:100BD00038F0FEF8064600283FF4EFAE199B049962
:100BE000002BA3EB0108A9BF0C9A129A03EB020990
:100BF000129FB8BFD71A1A9AA14B9044B8BFDDF81C
:100C00003090C2F1360208F1FF38984580F2C38077
:100C1000A3EB080301211F2BA2EB030200F3AE801C
:100C200001FA03F30D930023089309EB0208049BD8
:100C30001744C1451F444B46A8BF4346BB42A8BF0B
:100C40003B46002BC2BFA8EB0308FF1AA9EB030920
:100C50000C9B002B17DD31461A46204638F076F9FA
:100C6000064600283FF4A9AE0146189A204638F0FF
:100C7000C5F80B9000283FF4A0AE1899204637F035
:100C8000F3FF0B9B1893B8F1000F00F38980069BCC
:100C9000002B08DD129A2046059938F057F9059087
:100CA00000283FF48AAE002F08DD3A460599204619
:100CB00038F0A6F9059000283FF47FAEB9F1000F97
:100CC00008DD31464A46204638F09AF906460028A3
:100CD0003FF473AE059A2046189938F001FA05469C
:100CE00000283FF46AAEC36831460B930023C3600B
:100CF00059F0B7F900285DDA0B9B53EA0A037FD15C
:100D0000CBF31303002B7BD12BF000431B0D1B05F2
:100D1000B3F1D66F74D96B6913B92B69012B6FDDF1
:100D200029460122204638F06BF93146054659F034
:100D300098F9002864DD04995B46524A00297FD067
:100D400002EA0B01B1F1D66F7ADCB1F15C7F7FF77B
:100D5000ACAE4D4B50465946002239F0B5F80B4623
:100D600082468B46034304BF222323602FE64FF0C5
:100D7000FF3202FA03F303EA0A0AE6E6C8F17F4803
:100D80000D9108F57F0808F57B4808F1E20801FAA3
:100D900008F3089349E70023089301230D9344E7E0
:100DA00042461899204638F02BF9189000287FF415
:100DB0006EAF02E65F466FD10B9ACBF3130342B3DB
:100DC000324A934228D1049B5146EBB12D4B4FF050
:100DD000FF323B40B3F1D46F19D81B0DC3F16B0345
:100DE00002FA03F3994217D1294B9F4202D10131F4
:100DF0003FF4E3AD234B4FF0000A3B4003F5801B6B
:100E0000049B002BA5D1E2E54FF0FF33EAE7134640
:100E1000E8E753EA0A038ED0089BDBB13B42EFD0F0
:100E20000B9B5046049A5946C3B158F02AFD02461E
:100E30000B4651EC180B33F09FFB82468B46DFE7E5
:100E400013404FF0FF3AA3F580136FEA135B6FEA8C
:100E50000B5BD5E70D9B13EA0A0FE0E758F011FD95
:100E600002460B4651EC180B33F084FB00220023A2
:100E700082468B4633F08CFD0028C1D015E600BFBA
:100E800002FCFFFF0000F07F00005039FFFF0F0061
:100E9000FFFFEF7F205506083146284659F0FDF840
:100EA00000224FF0804310EE100A59EC108B494697
:100EB00033F082FD00287AD00B9B002B4AD0002211
:100EC000934B4FF00008DFF84892CDE90823914B8F
:100ED0003B400D930D9A904B9A4240F0B080A7F1A1
:100EE000547BDDE908014BEC10ABCDE9080138F08B
:100EF00087F9DDE9080153EC102B38F0E5FF524685
:100F00005B4633F039FB0B4682498246834A1940DF
:100F1000914260D918EE903A02F15472934204D192
:100F200018EE103A01333FF448ADDFF8FCB14FF052
:100F3000FF3A1899204637F097FE0599204637F07A
:100F400093FE3146204637F08FFE2946204637F083
:100F50008BFE1CE6BAF1000F1BD1CBF31303F3B9E0
:100F600000226B4B4046494633F01CFDD0B9404649
:100F7000494600226A4B38F0A7FF8046894609F1AE
:100F80000043CDF850801593DDE91423CDE9082303
:100F90009DE7BAF1010F02D1002F3FF486AD002288
:100FA000604B8EE74FF00008DFF87491E7E75C4B89
:100FB00040464946002238F087FF0B9B8046894611
:100FC00033B901F100430E900F93DDE90E23DDE705
:100FD000CDE90E89F9E703F1547B049B002BA8D1DE
:100FE0002BF000430D9A1B0D1B059A42A1D14046E0
:100FF000494639F0D9F933F047FC02460B464046E2
:10100000494633F0B7FACBF313030B9A804643EA11
:101010000A038946134355D035A3D3E9002333F09F
:10102000C1FC00287FF4D3AC4046494632A3D3E943
:10103000002333F0D5FC00283FF47BAFC7E4049BCA
:1010400033B30D9BB3F1D46F22D8404649462CA34D
:10105000D3E9002333F0B0FCA0B14946404639F053
:1010600083F9012838BF012033F0C2FB0B9B804677
:10107000894623BB01F1004310901193DDE9102351
:10108000CDE90823099B0D9A03F1D6639B1A0993B6
:10109000B0EE480AF0EE680ADDE90801CDE9080182
:1010A00038F0AEF8DDE9080153EC102B38F00CFFF6
:1010B00053EC182B33F060FA82468B468DE7CDE96E
:1010C0001089DBE710A3D3E9002333F06BFCB2E710
:1010D00000230A93179B139A1360FFF76DBA652AD2
:1010E0003FF461AB452A3FF45EAB0123FFF796BBAB
:1010F0009535A094FFFFDF3F35E5AF350000E03FB9
:101100000000C0FFFFFFDF419535A094FFFFCF3FF8
:101110000000F03F0000F07F0000E07FFFFF9F7CB9
:101120000000E03F0000F0BFFFFFEF7F0000000085
:101130009FED010B704700BF000000000000F87F2A
:101140002DE9F04F1D460023894683462DED048B83
:10115000D3B019930B9238F071FE03681B78169385
:10116000B9F80C301C061AD5D9F81030BBB940219B
:10117000584634F007FCC9F80000C9F8100058B907
:101180000C23CBF800304FF0FF330D930D9853B084
:10119000BDEC048BBDE8F08F4023C9F81430002368
:1011A0009FED8D7B0F931193B0EE478AF0EE678A27
:1011B0000D930B9B1C4653F8042B0AB1252AF9D139
:1011C0000B9BA3420DD0E61A0B9A4946584633466C
:1011D00059F000F8013000F0E8800D9B03EBA60306
:1011E0000D932368002B00F0E0800021221D0A20CF
:1011F0004FF0FF340E460F4615910C9152F8043B08
:1012000009930B92099B392B4CD81F2B4FD9099B63
:10121000203B192B4AD8DFE803F06B494970494954
:1012200049494949736C497A7D49989B9B9B9B9B93
:101230009B9B9B9B332B39D8DFE813F0EB003800E6
:10124000EB0038003800380038009D0038003800C6
:1012500038003800380038003800380038003800CE
:1012600038002103380038003800380038003800D2
:101270003800380038003800A600D700EB00EB003B
:10128000EB00A000D70038003800A3003800890226
:101290009A02A702A3003800C602380016033800DD
:1012A00038004200099B453B332BC3D911B1099B40
:1012B000002B7AD0099B00200A952A93159081E093
:1012C00001B11596464B2A460F93F80652F8043B97
:1012D0000A9202D4790648BF9BB2FA0706D52BB111
:1012E000302247F002071A92099A1B9202225AE210
:1012F0000EB9099E01210B9A80E747F00107FAE732
:1013000055F8043B002B0C93F5DA5B420C9347F045
:101310000407F0E70B9A52F8043B2A2B099312D1E9
:1013200055F8044B0B9244EAE474E4E700FB043400
:1013300052F8043B0993099B303B092BF6D944EA48
:10134000E4740B925EE70024F5E747F08007D2E7EC
:1013500000230C930C9A099B00FB0233303B0C9347
:101360000B9B1A4652F8043B0993099B0B92303BA6
:10137000092BEFD946E747F00807BCE747F04007DD
:10138000B9E747F01007B6E701B115962B1DF8062F
:101390000A9327D4286833F02BFD411C0ED1B9F8ED
:1013A0000C3043F04003A9F80C30B9F80C3013F0BE
:1013B000400F0D9B18BF4FF0FF33E6E62A90002048
:1013C0002B90159080460124064605460DF1A80A8B
:1013D00008E100BFAFF30080000000000000000043
:1013E000C85B06082B682A93E9E701B115962B1D07
:1013F000FA060A9307D52B68002B02DA2D225B42EE
:1014000015920122D1E117F0400F2B6818BF1BB2D3
:10141000F2E701B1159607354FF0FF3225F00703CB
:10142000B3EC027BB0EE478AF0EE678A0A93B0EE27
:10143000479A18EE903A23F0004309EE903AA54BF4
:1014400051EC190B38F052FFF0B94FF0FF32A14BBD
:1014500051EC190B33F0B0FAB0B90022002351EC73
:10146000180B33F09FFA08B12D2315939A4B9B4824
:10147000099A27F080074FF000080324472A94BFF9
:101480009A4682464646D1E353EC182B51EC180B92
:1014900038F02CFF40B118EE903A9148002BBCBFB9
:1014A0002D2315938F4BE3E7631C00F00D81099BFF
:1014B00023F02003472B02D1002C08BF012447F45E
:1014C00080730DF1A80818AE17AD0E932823584667
:1014D000CDF81880079319AB03960593099B0295E5
:1014E00004930E9BCDE9004353EC182B58F09FFF5B
:1014F0004045824640F0EA801999282940F3E68069
:101500008900584634F03EFA804600283FF447AF41
:10151000199B0295CDE9060319AB58460593099B23
:10152000CDE903630E9BCDE9004353EC182B58F033
:101530007EFF8246099B189D23F02003472B40F035
:10154000D580EE1C199B02DBAC4280F2EB80099B3C
:10155000023B09936B1E099A002B18931C92BABF89
:10156000C5F101032D222B22092B1D9240F3D180BE
:101570002AA80A250246043893FBF5F405FB14312A
:10158000303142F8041C194623466329F2DC30331B
:10159000A2F1080140F8043C1EA82AAB9942C0F011
:1015A000B3800DF1B304A41A0B3A24F00304934260
:1015B00038BF00241EAB1C441CA8241AA31011938E
:1015C000199B012B03EBA40402DC17F0010501D0E9
:1015D00001340025179E002E00F07D812D230E9FE3
:1015E00000261593A6423346B8BF23460E93159B9B
:1015F00013B10E9B01330E9317F0020312931EBF1B
:101600000E9B02330E9317F08403139300F0658151
:10161000159B43B1042315AA4946584658F0DAFDF4
:10162000013000F06D81129B43B108231AAA49468C
:10163000584658F0CFFD013000F06281139B802B9B
:1016400013D10C9B0E9A9B1A002B10930DDD109B4F
:10165000254A102B00F369819B00234A49465846CE
:1016600058F0B8FD013000F04B81361B002E0CDD28
:10167000102E1D4A00F36481B3001B4A49465846A8
:1016800058F0A8FD013000F03B81F90500F16181BF
:10169000A30052464946584658F09CFD013000F0E0
:1016A0002F817A0700F17F820E99DDE90C238A42AF
:1016B000ACBF9B185B180D93B8F1000F56D0414694
:1016C000584634F013F951E00624F8E64FF00008CC
:1016D00030E700BFFFFFEF7F445B0608545B06085E
:1016E000745B0608645B0608545C0608099B662B5D
:1016F0007FF430AF07F00103002D43EA04030EDD51
:10170000FBB101342C4465E751F8044B40F8044B1D
:1017100044E7302220AC13441E921F934CE793B150
:10172000023457E79D4205DBFC070ED56C1C67238E
:1017300009934FE7002DD4BFC5F1020401241C44D6
:10174000F5E72C4646E7012444E72C46EFE701B1D4
:1017500015962B1DF8060A9303D52B680D9A1A606F
:1017600004E07906F9D52B680D9A1A800A9D20E5C8
:101770002A4617F0100152F8043B0A9203D117F0E1
:10178000400210D09BB200220DE02A46782147F09B
:10179000020752F8043B09910A923022CDE91A213E
:1017A000A44A0F92022200211591661C00F01882B3
:1017B00027F08001002B40F01782002C00F083807E
:1017C000012A40F0148260E02B46002617F0100535
:1017D00053F804AB15960A932DD1621C14D02246FF
:1017E00029465046264657F0A6FE08B1A0EB0A0649
:1017F000272E0ED9711C5846890034F0C3F80028F2
:101800003FF4CDAD804607E0504658F01EF806463E
:10181000EEE74FF000082AA834460023B34204D173
:101820000026824640F82360DCE61AF8032040F8E0
:1018300023200133F2E7631C11D022463146504683
:1018400058F095F9804600283FF41CAEA0EB0A083A
:101850004FEAA8084445A8BF4446B04612E65046A1
:1018600058F0F4F80446F8E72A46FE0652F8043B1E
:101870000A9202D47D0600D59BB2012293E701B102
:1018800015966D4B1FE5092B04D830330DF5A27A60
:101890005193C3E10DF5A47A0A25B3FBF5F005FBDE
:1018A000103230324AF8042D1A460346092AF4D879
:1018B000B4E103F00F020F981B0950F822204AF8F8
:1018C000042DF6D1AAE11AB9F80701D53023DDE7D6
:1018D0000DF5A47AA2E10E9F84E60C9B0E9A9B1A4A
:1018E000002B10937FF794AE109B102B11DC9B0004
:1018F000524A4946584658F06DFC01307FF488AE94
:10190000B8F1000F3FF451AD4146584633F0EEFFB9
:101910004BE54023494A4946584658F05BFC0130A4
:10192000EED0109B103B1093DEE74023494658460B
:1019300058F050FC0130E3D0109B103B109386E62A
:1019400040234946584658F045FC0130D8D0103E57
:101950008EE6099B652B40F2E4800022002351ECC7
:10196000180B33F015F858B30423354A4946584646
:1019700058F030FC0130C3D0DDE918239A4202DB75
:10198000FB077FF58EAE042316AA4946584658F049
:1019900021FC0130B4D0199C013C002C7FF781AEB2
:1019A000284D102C02DCA300264A73E640232A4669
:1019B0004946584658F00EFC0130A1D0103CF0E7E3
:1019C000189B002B40DC04231D4A4946584658F01A
:1019D00001FC013094D0DDE91832134307F0010215
:1019E00013433FF45EAE042316AA4946584658F006
:1019F000F1FB013084D0189C002C0CDA6442114DAC
:101A0000102C0BDCA3000F4A4946584658F0E2FB65
:101A100001303FF475AF199B9B003AE640232A46FC
:101A20004946584658F0D6FB01303FF469AF103CA8
:101A3000E6E700BFC85B0608845B0608145C06087E
:101A40000C5C0608545C0608199C44F31D04AC4267
:101A5000A8BF2C46002C1FDC002CACBF2E1B2E4632
:101A6000002E0BDD724C102E1FDCB300704A49466D
:101A7000584658F0AFFB01303FF442AFAD00DDE90E
:101A800018239A421CDA042316AA4946584658F0ED
:101A9000A1FB013016D133E7A30052464946584610
:101AA00058F098FB0130D7D12AE740232246494617
:101AB000584658F08FFB01303FF422AF103ED2E77A
:101AC000FE07E0D4199BC5EB8304A210189C1C1BD5
:101AD0009442A8BF1446002C09DDA3000AEB0502BE
:101AE0004946584658F076FB01303FF409AF002CC8
:101AF000DDE91835A5EB0305A8BF2D1B002D7FF7E9
:101B0000D0AD4B4C102D01DCAB004DE740232246FD
:101B10004946584658F05EFB01303FF4F1AE103DA7
:101B2000F0E7199B524649465846012B4FF00403F3
:101B300001DCFC071BD558F04DFB01303FF4E0AE53
:101B4000042316AA4946584658F044FB01303FF496
:101B5000D7AE199C00220023013C51EC180B32F047
:101B600017FF68B9A3000AF104024946584658F025
:101B700031FB01303FF4C4AE119B1CAA9B0089E5E8
:101B8000002CF9DD2A4D102C02DCA300284AECE7DA
:101B900040232A464946584658F01CFB01303FF482
:101BA000AFAE103CEFE70C9B0E9A9C1A002C7FF70F
:101BB0007BAD102C09DCA3001E4A4946584658F05C
:101BC00009FB01307FF470AD9AE64023194A49467B
:101BD000584658F0FFFA01303FF492AE103CE8E767
:101BE0003946002B3FF4ECAD012A3FF44CAE022AFB
:101BF0000DF5A47A3FF45DAE03F00702DB08504612
:101C000002F130024AF8042DF6D1CD0706D5302A6C
:101C100004D030234AF8043CA0F1080A52AB26460F
:101C20000F464FF00008A3EB0A04A4104546D9E480
:101C3000545C0608145C06082DE9F04F456A04461A
:101C400010EE10AA2DED048B93B057EC106BDDF85D
:101C50008080BB46069109920C9375B9102033F031
:101C60000DFE0246606220B9A74BEA21A74833F077
:101C7000A1F8C0E901550560C560636A196851B1F2
:101C80005A680123204693404A608B6036F0ECFF8F
:101C9000636A00221A603B1EADBF0023012223F0BD
:101CA000004BC8F800309A4BB8BFC8F8002033EAA0
:101CB0000B031BD142F20F730C9A1360CBF3130387
:101CC000334300F08F85219B63B9924B22E0924B06
:101CD00001930833219A1360019813B0BDEC048B73
:101CE000BDE8F08F8B4B01930333F3E70022002311
:101CF0005046594632F04CFE80464BEC19AB58B179
:101D000001230C9A1360219B002B00F06885834807
:101D10001860431E0193DFE7CBF30A5510AA11A9FF
:101D200020464BEC10AB37F0E5FA08EE100A002D18
:101D300000F0828019EE903A5646A5F2FF35CDF8B4
:101D40003880C3F3130343F07F5747F44017002252
:101D5000734B3046394632F00DFC65A3D3E90023BE
:101D600038F0B2F864A3D3E9002332F005FC06464C
:101D70000F46284632F04CFD61A3D3E9002338F02A
:101D8000A3F802460B463046394632F0F5FB0646CC
:101D90000F4638F0C1FA0022009000233046394641
:101DA00032F000FE50B1009832F032FD32463B4630
:101DB00032F0EEFD10B9009B013B0093009B162B07
:101DC00059D8009A574B03EBC20351EC190BD3E9D6
:101DD000002332F0E7FD00284FD0009B013B009329
:101DE00000230B93109B5D1B6B1E059349BFC5F130
:101DF000010300230493002354BF04930593009B25
:101E0000002B3CDB059B009A13440A9205930023A8
:101E10000793069B092B00F28980052BC5BF043B65
:101E2000002501250693069B023B032B00F28980C7
:101E3000DFE803F02E3B395ADDE910531D4405F26B
:101E40003243202BC6BFC3F1400305F21240C3F159
:101E5000200305F1FF35C5BF0BFA03F326FA00F0A6
:101E600006FA03F0184332F0C3FC01230646A1F141
:101E7000F8770E936BE70123B3E70B90B2E7049B6F
:101E8000009A9B1A04935342079300230A93C0E7D6
:101E900000230893099B002B56DC01231A46CDE949
:101EA000023309920CE00123F3E70023099A089317
:101EB000009B134402930133012B0393B8BF01230A
:101EC0000022606A4260042202F1140641689E42C8
:101ED0003ED9204636F088FE019000283CD1124BB6
:101EE00002464FF4D571C1E60123DFE7AFF300806E
:101EF00061436F63A787D23FB3C8608B288AC63F10
:101F0000FB799F501344D33FF04B0608A15C0608B1
:101F10000000F07F9D5C0608945C0608C15A060824
:101F20000000F83FE85906089858060801250023E4
:101F3000089506934FF0FF330022CDE902331223B8
:101F4000AFE701230893F5E7099BCDE90233B7E733
:101F5000013152004160B7E7636A019A1A60039B3E
:101F60000E2B00F29D80002D00F09A80009B002B2C
:101F700032DD03F00F03B64A02EBC303D3E9008955
:101F8000009BD8054FEA231716D5B24B07F00F0771
:101F90000325D3E9082351EC190B38F0BFF882462A
:101FA0008B46AC4E57B942464B465046594638F0E0
:101FB000B5F882468B4628E00225F2E7F90708D5F6
:101FC000404649460135D6E9002337F07DFF80467B
:101FD00089467F100836E5E700F09B80009B0225CC
:101FE0009C4F5E429A4B06F00F02361103EBC20380
:101FF00051EC190BD3E9002337F066FF002382462A
:102000008B46002E7AD1002BD3D10B9B002B00F0F6
:1020100082800022904B5046594632F0C3FC002883
:1020200079D0039B002B76D0029B002B36DD009BE2
:102030005046594600225F1E884B37F045FF013558
:1020400082468B46029E2846D04632F0E1FB52463D
:102050005B46D94637F038FF0022814B32F08CFACC
:102060008246A1F1507B002E58D100227D4B404684
:10207000494632F07FFA52465B468046894632F046
:10208000AFFC002840F0938252460BF100434046DB
:10209000494632F087FC002840F087825BEC19ABA0
:1020A000119B002BC0F24881009A0E2A00F3448154
:1020B000674B03EBC203D3E90089099B002B80F235
:1020C000D580039B002B00F3D18040F06D8200226D
:1020D000644B4046494637F0F7FE52465B4632F0C5
:1020E00075FC039E3746002840F043823123019D52
:1020F00005F8013B009B013300933EE2F20705D552
:102100000135D7E9002337F0DFFE012376100837C9
:1021100077E7022579E7009F039E94E701994C4BEE
:10212000314403EBC6030D91089953E902230029BA
:1021300043D000204C4937F0F1FF52465B4632F065
:1021400019FA019D82468B464946404638F0E4F82C
:10215000064632F05DFB024630360B4640464946A5
:1021600032F008FA52465B4605F8016B8046894614
:1021700032F018FC002863D142464B460020364915
:1021800032F0F8F952465B4632F00CFC002840F081
:10219000B5800D9B9D4281D00022304B5046594660
:1021A00037F092FE002282468B46404649462B4B32
:1021B00037F08AFE80468946C6E75046594637F0D2
:1021C00083FE0D9B82468B46019D0F9349464046F8
:1021D00038F0A2F8064632F01BFB02460B4640469A
:1021E0004946303632F0C6F90D9B05F8016B804642
:1021F0009D4289464FF0000224D11B4B5046594660
:1022000032F0BAF902460B464046494632F0E8FB46
:10221000002873D152465B460020134932F0AAF9D8
:1022200002460B464046494632F0BCFB00283FF4CC
:1022300035AF0F9D6B1E0F9315F8013C302BF8D076
:10224000009749E0054B37F03FFE80468946BDE7E1
:10225000E8590608C05906080000F03F0000244075
:1022600000001C40000014400000E03F56465F465E
:10227000019D42464B463046394637F04FFF38F015
:102280004BF8824632F0C4FA42464B4637F01CFE09
:10229000024630460AF130060B46394632F06AF9FA
:1022A00005F8016B019E0246039F0B46AE1BB74229
:1022B00035D132F061F942464B4606460F4632F0C0
:1022C0008FFBD0B942464B463046394632F060FB70
:1022D00010B11AF0010F10D1204618EE101A36F086
:1022E000C3FC002300982B7001300C9B1860219BCD
:1022F000002B3FF4F1AC1D60EEE4009F2B461D4621
:1023000013F8012D392A06D1019A9A42F7D13022C9
:10231000019901370A701A7801321A7090E7002289
:10232000A44B37F0D1FD0022002306460F4632F0C1
:102330002FFB00289DD0CFE7089A002A00F0D58017
:10234000069A012A00F3B9800E9A002A00F0B180A3
:1023500003F23343079E049D049A012120461A4448
:102360000492059A1A44059236F032FD0746002D74
:102370000CDD059B002B09DDAB42049AA8BF2B4660
:10238000D21AED1A0492059AD31A0593079B1BB330
:10239000089B002B00F0AD80002E13DD394632463D
:1023A000204636F0D3FD18EE102A01460746204697
:1023B00036F024FD804618EE101A204608EE108AEA
:1023C00036F052FC079B9A1B06D018EE101A2046D6
:1023D00036F0BCFD08EE100A0121204636F0F8FC6C
:1023E0000A9B0646002B40F386801A46014620468B
:1023F00036F0ACFD069B0646012B7FDD4FF0000852
:10240000336906EB8303186957F0DCFDC0F1200047
:10241000059B184410F01F0000F09180C0F12003CC
:10242000042B40F38980C0F11C00049B0544034445
:102430000493059B03440593049B002B07DD18EED2
:10244000101A1A46204636F0DBFD08EE100A059BEE
:10245000002B05DD31461A46204636F0D1FD0646F2
:102460000B9B002B6DD0314618EE100A57F0F9FD8A
:10247000002866DA009B18EE101A0A222046013B5B
:102480000093002336F012FC089B08EE100A002B84
:1024900000F0AF81002339460A22204636F006FCC0
:1024A000029B0746002B00F38D80069B022B50DC1D
:1024B00088E0109BC3F136034CE7039B5E1E079B2D
:1024C000B342B7BF079B9E1B0796F21ABFBF0A9B7A
:1024D00000269B180A93039B002BB7BFDDE903235B
:1024E000DDE903359D1A002336E7079E049D089F0A
:1024F0003DE7079A69E7069B012B18DCBAF1000F4C
:1025000015D1CBF3130393B92BF000431B0D1B051F
:1025100083B1049B4FF0010801330493059B013301
:1025200005930A9B002B7FF46BAF012070E74FF0FF
:102530000008F6E79846F4E73FF47EAF18461C30F3
:1025400073E7039B002B37DC069B022B34DD039BD8
:102550000293029B6BB931460522204636F0A6FB5A
:102560000146064618EE100A57F07BFD00283FF79B
:10257000BDAD099B019DDB4300934FF00008314640
:10258000204636F071FB002F3FF4A6AEB8F1000FE5
:1025900005D0B84503D04146204636F065FB3946A4
:1025A000204636F061FB97E600263746E1E70097C4
:1025B00037469BE500002440089B002B00F0CA80B2
:1025C000039B0293002D05DD39462A46204636F04E
:1025D00017FD0746B8F1000F5BD07968204636F04A
:1025E00003FB054628B9874B024640F2EA21FFF774
:1025F0003DBB3A6907F10C010C300232920056F0F3
:10260000B8FF01222946204636F0FAFC019BB84665
:10261000074603F10109DDE90123134405930AF09C
:1026200001030493314618EE100A57F071FF41463A
:10263000029000F1300A18EE100A09F1FF3B57F042
:1026400010FD3A4603903146204636F049FDC268F7
:10265000054602BB014618EE100A57F002FD02467D
:1026600029462046079236F0FFFA4D46DDE906324C
:1026700043EA0201049B0B430FD1BAF1390F2AD070
:10268000039B002B02DD029B03F1310A8BF800A0B3
:1026900075E73846BAE70122E2E7039B002B04DB2B
:1026A00006990B4304990B4322D1002AEEDD18EE64
:1026B000101A0122204636F0A3FC314608EE100A1B
:1026C00057F0CFFC002803DCE0D11AF0010FDDD079
:1026D000BAF1390FD7D139238BF800302B461D467C
:1026E000013B15F8012C392A70D001321A7046E7E7
:1026F000002A07DDBAF1390FEDD00AF101038BF89A
:1027000000303CE7059B09F801AC994546D018EE2E
:10271000101A00230A22204636F0C8FAB84508EEFF
:10272000100A4FF000034FF00A024146204606D13E
:1027300036F0BCFA8046074609F1010972E736F027
:10274000B5FA3946804600230A22204636F0AEFA12
:102750000746F1E7039B0293019D314618EE100AEC
:1027600057F0D6FE019B00F1300A05F801ABEA1ADA
:10277000029B934209DD18EE101A00230A2220461C
:1027800036F094FA08EE100AE7E7029B4FF00008D3
:10279000002BCCBF1D460125019B1D4418EE101ACD
:1027A0000122204636F02CFC314608EE100A57F084
:1027B00058FC002892DC02D11AF0010F8ED12B4672
:1027C0001D4613F8012D302AFAD0D8E6019A9A4214
:1027D00085D1009B0133009331231370CFE60A4B60
:1027E000FFF798BA219B002B7FF471AA074BFFF7E4
:1027F00091BA029B002BAFDC069B022B3FF7A9AEE0
:10280000AAE700BF98580608C05A0608945C060854
:10281000B0EE401AF0EE601A9FED010B00F004B824
:102820000000000000000040F8B52DED028B57ECD1
:10283000106B55EC114B00F0CBF8634BB0EE408AB7
:10284000F0EE608A93F9003001332AD022462B46FD
:102850002046294637F04AFD18BB32463B463046F3
:10286000394637F043FD002844D10022002330468A
:10287000394632F08DF8D8B100220023204629468F
:1028800032F086F800283DD145EC104B37F08EFE33
:1028900038B1204629460022002332F083F8002870
:1028A0005CD1B0EE480AF0EE680ABDEC028BF8BDD0
:1028B000B0EE480AF0EE680A37F078FE58B300220E
:1028C000002351EC180B32F063F80028E9D047ECF4
:1028D000106B37F06BFE0028E3D045EC104B37F05F
:1028E00065FE0028DDD032F0E3FA22239FED2E8B27
:1028F0000360D6E7204629460022002332F048F83C
:102900000028CED09FED2A8BB0EE480AF0EE680A80
:10291000BDEC028BF8BD47EC106B37F047FE00288A
:10292000CDD045EC104B37F041FE0028C7D018EE53
:10293000100A53EC182B194637F0D8FC20BB32F0A4
:10294000B7FA22220346394630461A600022002395
:1029500032F028F848B99FED188BA2E732F0A8FAB8
:1029600021239FED178B03609BE745EC104B37F05D
:102970002BFE22462B4651EC100B32F009F80028B2
:10298000E9D19FED0F8B8CE732F092FA0022002301
:10299000212101601046194637F0C0FB41EC180BAD
:1029A0007FE700BFAFF300800000000000000000E0
:1029B000000000000000F03F000000000000F07F79
:1029C000000000000000F0FFD8160020000000000A
:1029D0002DE9F04F55EC114B25F0004A5AEA04025C
:1029E0002DED0C8B87B01FD05D4910EE102A57ECEF
:1029F000106B27F00048B946884511DCAB4611EE54
:102A0000103A08D13EB1574807B0BDEC0C8BBDE879
:102A1000F04FFEF78DBB52498A4501DC0BD153B113
:102A2000514B43441343EED19FED490B07B0BDEC2E
:102A30000C8BBDE8F08FB9F1000F45DB0021009150
:102A400083B9474B9A455BD0484B9A456AD0BBF156
:102A5000804F00F0B084464B9B4503D1B9F1000F85
:102A600080F20D85029247EC106B37F095FD029ACB
:102A70004AB929F040433D4A934200F0A883B8F197
:102A8000000F00F0A4834FEAD973009A013B04932E
:102A900013434ED0374B9A4572DD03F104739A45C8
:102AA000354B40F32B84984540F3A983BBF1000FCD
:102AB00040F3A98328A3D3E900231046194637F031
:102AC00003FA41EC100BB1E72C498A4527DCA1F150
:102AD00054718A45B2DD4FEA2A51A1F2FF3114291F
:102AE00040F37D84C1F1340123FA01F000FA01F1D1
:102AF0009942A3D100F00100C0F1020100919FE7CB
:102B0000194B434413438FD01B4B984540F3AB8381
:102B1000BBF1000FC0F2778345EC104B86E7022132
:102B200000918DE7BBF1000FC0F24F8447EC106BB2
:102B30007CE732463B461046194631F01BFD024603
:102B40000B4637F0EBFA41EC100B6FE7AFF3008068
:102B5000000000000000F03F9C7500883CE4377ED8
:102B60000000F07F205D0608000010C00000F03F6C
:102B70000000E03F0000E041FFFFEF3FFFFF3F4369
:102B8000E34B002209EA030353B9E24B51EC100B6B
:102B900037F09AF96FF0340241EC100B10EE908A86
:102BA0004FEA2853C8F31308DB4EA3F2FF3348EA79
:102BB00006069A18D94B9845059207DDD84B9845DB
:102BC00040F333840132A6F58016059200279FED6D
:102BD000B87B9FEDB96BB0EE47DAF0EE67DAB0EE96
:102BE00047CAF0EE67CA51EC160B53EC102B334674
:102BF000761043EC192B41EC1A0B02460B4646F0BB
:102C0000005651EC190B31F0B5FC8046894653EC67
:102C10001A2B51EC190B31F0AFFC02460B46002089
:102C2000BD4937F07BFA41EC1B0B53EC1B2B4046A4
:102C3000494637F049F90A4606F5002341EC180BDE
:102C400001460020CDE9021200210646024602910B
:102C5000D919DDE902AB0F460B465046594637F00D
:102C600033F902460B464046494631F083FC804624
:102C700089463046394653EC1A2B31F07BFC02462C
:102C80000B4651EC190B31F075FC52465B4637F0A0
:102C90001BF902460B464046494631F06BFC53ECAB
:102CA0001B2B37F011F953EC182B41EC1A0B51EC9C
:102CB000180B37F009F906460F4681A3D3E9002324
:102CC00037F002F980A3D3E9002331F055FC3246F6
:102CD0003B4637F0F9F87EA3D3E9002331F04CFCF2
:102CE00032463B4637F0F0F87BA3D3E9002331F0BE
:102CF00043FC32463B4637F0E7F879A3D3E900239B
:102D000031F03AFC32463B4637F0DEF876A3D3E9A1
:102D1000002331F031FC8046894632463B4630463E
:102D2000394637F0D1F802460B46404649464FF047
:102D3000000837F0C9F8524606460F465B4651EC8C
:102D4000180B31F019FC53EC1A2B37F0BDF8324652
:102D50003B4631F011FC52465B4641EC190B5046A4
:102D6000594637F0B1F800226E4B06460F4631F057
:102D700003FC53EC192B31F0FFFB894642465046C9
:102D80004B46594637F0A0F8002282468B46654BE9
:102D90004046494631F0EEFB32463B4631F0EAFB15
:102DA00002460B4651EC190B31F0E4FB53EC182BA7
:102DB00037F08AF806460F4642464B4651EC1A0B4E
:102DC00037F082F802460B463046394631F0D4FBE4
:102DD000804689465046424659464B4631F0CCFB28
:102DE00000200F46064642A3D3E9002337F06CF8D3
:102DF00052465B4641EC190B3046394631F0BAFB7E
:102E000002460B464046494631F0B4FB3AA3D3E9AB
:102E1000002337F059F8804689463046394638A3B2
:102E2000D3E9002337F050F802460B4640464946A6
:102E300031F0A2FB53EC1C2B31F09EFB06460F46F3
:102E4000059831F0E5FC3246804689463B4651EC18
:102E5000190B31F091FB53EC1D2B31F08DFB4246E9
:102E60004B4631F089FB002042464B4682468B465A
:102E700031F080FB53EC1D2B31F07CFB53EC192B14
:102E800031F078FB02460B463046394631F072FB92
:102E9000009B049A013B134341EC180B40F0DC818A
:102EA0009FED197BB0EE479AF0EE679A3CE000BFC9
:102EB0000000000000000000000000000000F03FE3
:102EC000EF4E454A287ECA3F65DBC9934A86CD3F0F
:102ED00001411DA96074D13F4D268F515555D53FF5
:102EE000FFAB6FDBB66DDB3F033333333333E33F8D
:102EF000000000E009C7EE3FFD033ADC09C7EE3FE2
:102F0000F5015B14E02F3EBE000000000000F0BFA2
:102F10000000F07F000040430000F03F8E98030067
:102F200079B60B0000000840002320462946CDE971
:102F300000450093DDE9008942464B4631F01AFB1B
:102F40005B46524636F0C0FF06460F4622462B46E9
:102F500051EC180B36F0B8FF02460B4630463946A6
:102F600031F00AFB424604460D464B465946504650
:102F7000A04636F0A9FF06460F46204629463246AF
:102F80003B46A94631F0F8FAD54B04460D46994226
:102F90008B4640F33B81D34B0B44034340F03582D7
:102FA00040464946B6A3D3E9002331F0E5FA32465C
:102FB0003B4641EC180B2046294631F0DBFA02462D
:102FC0000B4651EC180B31F00BFD002840F01D8230
:102FD000CBF30A534FF48012A3F2FE33C24CBBF181
:102FE000000F42FA03F34FF000005B44C3F30A52B0
:102FF000C3F3130AA2F2FF324AF4801A44FA02F42D
:10300000C2F1140223EA04014AFA02FA02463046E7
:103010000B46B8BFCAF1000A394631F0ABFA024696
:103020000B4606460F46404649464FEA0A5B31F0DA
:10303000A3FA0D460024294693A3D3E90023204692
:1030400036F042FF32463B4606460F4620462946AA
:1030500031F090FA02460B464046494631F08AFA72
:103060008BA3D3E9002336F02FFF80468946204604
:10307000294689A3D3E9002336F026FF02460B46F2
:103080004046494631F078FA804689463046424605
:1030900039464B4631F070FA324604460D463B46FF
:1030A00031F068FA02460B464046494631F062FA72
:1030B0002246804689462B462046294636F004FFA4
:1030C00006460F4676A3D3E9002336F0FDFE76A32D
:1030D000D3E9002331F04EFA32463B4636F0F4FE97
:1030E00073A3D3E9002331F047FA32463B4636F06A
:1030F000EBFE71A3D3E9002331F03CFA32463B46A4
:1031000036F0E2FE6EA3D3E9002331F035FA324601
:103110003B4636F0D9FE02460B462046294631F0A2
:1031200029FA06460F462046324629463B4636F0E7
:10313000CBFE00224FF0804341EC180B304639465D
:1031400031F018FA02460B4651EC180B36F0E6FF48
:10315000424606460F464B462046294636F0B4FE08
:1031600042464B4631F008FA02460B463046394695
:1031700031F000FA22462B4631F0FCF902460B46AC
:1031800000205A4931F0F6F98B4402460B46BBF554
:10319000801FC0F26C81594653EC192B36F094FE17
:1031A00041EC100B42E447EC106B009237F0F4F95D
:1031B000009A002A7FF4BDAC29F040434B4A934269
:1031C00003D0B8F1000F7FF4B4AC00230093BBF13F
:1031D000000F07DA0020454953EC102B36F09EFF14
:1031E00041EC100BB9F1000FBFF620AC404B009A38
:1031F0004344134340F02D8153EC102B9BE4BBF16F
:10320000000FFFF657AC9FED300B0FE421F00043A9
:10321000DFF8E4C0634540F3F080364B0B440343D2
:103220000AD132463B4631F0A5F942464B4631F0D1
:10323000CDFB00283FF4CCAE25A3D3E9002351EC0D
:10324000190B36F041FE22A3D3E9002336F03CFEF1
:1032500041EC100BFFF7EABB9FED1F7BB0EE479AE6
:10326000F0EE679A60E6BBF1000FCCDA05F100439F
:1032700000EE104A00EE903AFFF7D8BBAFF30080A3
:10328000FE822B654715973C00000000432EE63F69
:10329000EF39FAFE422EE63F396CA80C615C20BE85
:1032A000D0A4BE726937663EF16BD2C541BDBB3E4C
:1032B0002CDE25AF6A56113F93BDBE166CC1663F2A
:1032C0003E5555555555C53F000000000000000013
:1032D00059F3F8C21F6EA501000000000000F03F86
:1032E000FFFF8F40000070BFFFFF0F000000F03FA6
:1032F000000010C000346F3FFFCB90409845FFF6B0
:103300007EAF794B98453FF7D1AB0022764B51EC1D
:10331000100B31F02FF906460F4663A3D3E90023C3
:1033200036F0D2FD82468B463046394660A3D3E95B
:10333000002336F0C9FD00226C4B41EC180B3046DF
:10334000394636F0C1FD02460B465BA1D1E90001CA
:1033500031F010F932463B4636F0B6FD02460B46D8
:103360000020634931F006F98046894632463B46E3
:103370003046394636F0A8FD02460B4640464946DF
:1033800036F0A2FD4EA3D3E9002336F09DFD0246A0
:103390000B4651EC180B31F0EDF806460F4650463F
:1033A000594632463B4631F0E7F8002052465B462C
:1033B00082468B4664E532463B463046394636F017
:1033C00083FD41EC100BFFF731BB0020464932462C
:1033D0003B4636F0A3FE41EC100BFFF727BB002B5A
:1033E0007FF4E1AEC1F114014AFA01F000FA01F1F3
:1033F00051454DD00093FFF727BB3D4A93424EDC29
:10340000DDE900239346924614E62FA3D3E9002377
:1034100051EC190B36F058FD2BA3D3E9002336F0FD
:1034200053FD41EC100BFFF701BB9FED297B4FF4DF
:103430008027B0EE47DAF0EE67DA9FED277BB0EE3B
:1034400047CAF0EE67CA9FED267B51EC170BFFF7DA
:10345000CCBB009B012B7FF4E9AA10EE901A10EE72
:10346000102A01F1004343EC102BFFF7DFBA50465E
:1034700043EC102B00F040F851EC100B8CE647ECBD
:10348000106B07B0BDEC0C8BBDE8F04F36F0C2BF3F
:1034900000F00100C0F102030093FFF7D5BA1B153D
:1034A00098E500BFAFF30080000000604715F73FCC
:1034B00044DF5DF80BAE543E555555555555D53F37
:1034C000FE822B654715F73F9C7500883CE4377EEC
:1034D0000000004003B8E23F06D0CF43EBFD4C3E76
:1034E000000000000000F83F0000F03F0000D03F67
:1034F0000000E03F0000000038B553EC102BC3F390
:103500000A519C46044689BB23F0004C10EE101A69
:103510005CEA010129D03E4D194600223D4B10EED8
:10352000100A36F0D1FCAC4202460B4616DB8C4644
:10353000C1F30A513639214440F2FE70814221DC48
:10354000002947DC11F1350F34DA4CF250318C424E
:1035500018DC002B26A1D1E9000143DB24A3D3E929
:10356000002336F0B1FC41EC100B38BD40F2FF7E79
:103570007145E0D110EE100A194630F0FDFF41EC24
:10358000100B38BD002B1CA1D1E9000107DB1AA3E9
:10359000D3E9002336F098FC41EC100B38BD18A19C
:1035A000D1E9000114A3D3E9002336F08DFC41ECEE
:1035B000100BF3E7184836311446184B0CEA00009C
:1035C000002240EA01552046294636F07DFC41ECB8
:1035D000100B38BD10480CEA000040EA015343ECE0
:1035E000102B38BD08A1D1E90001B7E7AFF3008087
:1035F00059F3F8C21F6EA5019C7500883CE4377E24
:103600009C7500883CE437FE59F3F8C21F6EA58113
:10361000B03CFFFF00005043FFFF0F800000903CD4
:1036200010B5054C237833B9044B13B1044800E0BE
:1036300000BF0123237010BD0049002000000000DE
:10364000385D060808B5034B1BB10349034800E089
:1036500000BF08BD0000000004490020385D0608D6
:10366000A3F5803A704700BF174B002B08BF134BE0
:103670009D46FFF7F5FF00218B460F461348144A7D
:10368000121A55F09DFF0E4B002B00D098470D4BA2
:10369000002B00D098470020002104000D000D48A9
:1036A000002802D00C4800E000BF32F013F82000E0
:1036B000290000F06BF831F001FC00BF00000800A9
:1036C000000000000000000000120020A81F0020E1
:1036D000587E00200000000000000000014B186828
:1036E000704700BF1C49002008B53DF077F8054B36
:1036F000186028B95121044B044A054831F05AFB9F
:1037000008BD00BF1C49002068A6050872A6050870
:103710008FA60508014B18680BF002B91C49002060
:1037200010B50E4C00F000F900F022F900F076F927
:10373000012120683DF05DF828B16221084B094A5B
:10374000094831F037FB012120683DF02DFC18B10C
:103750006321064B034AF3E710BD00BF1C4900205C
:103760009AA60508CCA605088FA60508DCA60508BC
:1037700010B5054C20683DF0D5FA206808F09AFB9A
:10378000BDE8104000F0A0B91C4900202DE9F0412F
:1037900086B038F0E2FB4B483CF030FD00244A4D47
:1037A0004FF0B640E1B236F0ABFF18B921462846DB
:1037B0003CF024FD0134802CF2D144483CF01EFD45
:1037C0000024434D404E2846E1B236F099FF18B927
:1037D000214630463CF012FD0134802CF3D149F0F3
:1037E000ADF949F0C1F919F053FE10EE100A31F0AD
:1037F00021F802460B4637483CF000FD49F0E3F95A
:1038000019F09CFE642006F093FC002303A8ADF899
:103810000C3019F0A9FEBDF80C102F483CF0EEFC5E
:10382000FFF77EFF274E284D284F38F0A3FB304688
:103830003CF0E4FC00244FF0B640E1B236F060FF0B
:1038400018B9214628463CF0D9FC0134802CF2D12D
:1038500038463CF0D3FC0024DFF874804046E1B2E7
:1038600036F04EFF18B9214628463CF0C7FC01341B
:10387000802CF3D1FFF77CFF49F076F919F008FEB0
:1038800010EE100A30F0D6FF0B46024611483CF00D
:10389000B5FC12483CF0B2FC19F088FE10483CF030
:1038A000ADFC04AA05A90DF10E0049F070F9DDE99F
:1038B0000432BDF80E1000900A483CF09FFC05F061
:1038C000B1FFB2E711A7050823CB05081EA705081D
:1038D000008006502BA705083FA7050855A7050837
:1038E0006BA705087EA7050810B5084690B00C46E2
:1038F0003DF018F93F2301466A4620463DF016F98F
:1039000010AB18440023064900F8403C684655F0C7
:103910008EFF18B9694603483CF070FC10B010BD2A
:10392000B1A70508BCA7050810B50F483CF066FC18
:10393000FFF7D4FE4FF4FA613DF020F8044638B9A1
:10394000FFF7CCFE4FF001013DF037FA044648B1D5
:1039500020463CF041FF2146BDE8104002460348A6
:103960003CF04CBC10BD00BFD3A70508EDA705086F
:1039700070B5A4B07822002106A855F021FE224B94
:10398000224A1C936B461068516802AC03C36B4615
:10399000224603CB1E4BCDF85900CDF85D1003F144
:1039A0001006254618685968083303C5B3422C46EB
:1039B000F7D10FCA0EAC84E80F00BDF88C30154863
:1039C00043F4CA7343F00103ADF88C3055F03DFF6A
:1039D0001049024612A855F0CCFD9DF88C3043F0FA
:1039E00008038DF88C30FFF779FE06A93CF073FED2
:1039F000044630B13CF0F0FE2146024606483CF059
:103A0000FDFB24B070BD00BFADDE0F003BA8050874
:103A100044A80508BA16002012A8050810B586B0FB
:103A20001022002101A855F0CBFDEA23ADF8143097
:103A3000FFF754FE0023134A13493DF004FB0446EC
:103A400040B13CF0C9FE2146024610483CF0D6FB8E
:103A500006B010BDFFF742FE01230B4901AA3DF05D
:103A60000CFB04460028F3D03CF0B6FE214602468B
:103A700007483CF0C3FBFFF731FE03493DF0F8FA7D
:103A8000E6E700BFE93800082049002055A80508EE
:103A900082A8050810B5044636F0DFFE012804D1DF
:103AA000054B9C4202D1054B187010BD044B9C4243
:103AB000FBD1044BF8E700BFC4A805084C750020F3
:103AC000DCA805084B75002030B5264B8DB01A7860
:103AD0005ABB254B1A78002A3AD000251D70FFF7F3
:103AE000FDFD29463DF0A1FA044688B329462C2263
:103AF00001A855F065FD1D4805A93CF0D8FE80B928
:103B00007B230A2220461A49ADF826303DF00CF8F6
:103B100038B9FFF7E3FD2246164901AB3DF0B7FA8D
:103B2000B0B120463CF0FAFF12E000221A70124BAE
:103B30004FF000051C7884F001021A7054B164F350
:103B40000005FFF7CBFD29463DF037F90028C0D02E
:103B50000DB030BDFFF7C2FD3DF0F3F90028EED007
:103B6000F6E700BF4C7500204B750020AFA8050894
:103B7000B7A80508204900204A75002010B5274C39
:103B800001F056FE01F090FF236F23F0070343F08E
:103B90000303236736F08CFF214B00209B6ADB0177
:103BA0005EBF4FF480321F4B9A62D4F8203123F06D
:103BB000070343F00203C4F82031D4F8283123F07E
:103BC000070343F00203C4F82831D4F8403123F04E
:103BD000030343F00103C4F84031D4F8603123F00B
:103BE000030343F00103C4F86031D4F8403223F0FA
:103BF000030343F00103C4F84032D4F8003223F049
:103C0000070343F00103C4F80032D4F8083223F06C
:103C1000070343F00103C4F8083210BD00800050D0
:103C20000040005A0060005A08B501213A2001F016
:103C3000BBFB044800F0BAF9BDE80840024800F0B8
:103C4000B5B900BF5C1200207012002008B504480E
:103C500036F0FEFDBDE80840024836F0F9BD00BF71
:103C6000C4A80508DCA8050818B1034B186000209B
:103C700070472520704700BFB449002010B5054C9F
:103C80000549206800F060FF2068BDE81040FFF79C
:103C9000EBBF00BFA81200208412002008B500F07E
:103CA0002DF8124B12498B4212D30020114B1249AE
:103CB0008B4218D3FFF7D8FC186850F82240586898
:103CC00040F82240013298688242F5D30C33EAE78B
:103CD0000022F8E71C6844F8220001325C68A24226
:103CE000F8D30833E4E70022F8E700BF405D060898
:103CF0004C5D06084C5D06084C5D06084FF480419B
:103D00004FF0FF30114B124A10B59A60D3F888205B
:103D100042F47002C3F888200E4A91660E4901F5FC
:103D2000005210660D4850660220C3F8D000BFF361
:103D30004F8FBFF36F8F01244FF440330848C0F812
:103D40008041D36004600B6110BD00BF00ED00E056
:103D5000000000080090005000800044F7FF37008A
:103D600000E100E0014B1868704700BFB01300206D
:103D7000084B1B6F03F00703022B04D0032B05D065
:103D8000012B05D0FEE7044B18687047034BFBE797
:103D90000348704700800050B0130020B413002087
:103DA000002D310108B5FFF7E3FF054B1B6FC3F38F
:103DB00003330133B0FBF3F0024B186008BD00BFC2
:103DC00000800050AC1300200048704700B4C404C9
:103DD000014B1868704700BFB4130020054B1860F2
:103DE000054B1B6F03F00703032B01D1FFF7DABF6D
:103DF000704700BFB4130020008000500048704797
:103E0000002D31014FF0B4439868C0F304400C28F2
:103E100022D8DFE800F009212121212107171921EB
:103E20001B1D1F000F4870479B6803F04073B3F1E0
:103E3000807F13D0B3F1007F12D00B4A002B08BF54
:103E4000104670470948704709487047094870474D
:103E50000948704709487047002070470848704774
:103E600008487047405DC60000093D000024F4008A
:103E7000C0EA210180BA8C010048E801005A6202C0
:103E800080841E0040420F00014B1868704700BF3D
:103E9000B813002005490A681318054883428CBFEF
:103EA0004FF0FF320B601046704700BFBC1300207C
:103EB0000000042010B40A681378022B11D01420DB
:103EC0003023147913FB040307481B585079C3406F
:103ED000DB4303F00103137008465DF8044BFFF762
:103EE000D9BD5DF8044B704730C0035037B5046846
:103EF000012105463A2001F057FA00230122617999
:103F0000207902F02FF814223023217913FB0123AA
:103F10000E4A9B586279D340DB4303F001032370C0
:103F2000A379022B0ED100F081FA2A460849607964
:103F300000F0A6FA0123024661792079CDE9003329
:103F400001F0B8FF002003B030BD00BF30C0035007
:103F5000B53E000802681378022B24D014213023C8
:103F6000107913FB001310495B585179CB409179BC
:103F700003F00103012912D1508843EA40034FF6B0
:103F8000E07063F03F039BB2834202D11170538013
:103F900070474FF6DF718B42F9D10021F6E711B976
:103FA00083F001031370704730C003502DE9FF41C7
:103FB00003680446B3F1B64F04D0354A934251D159
:103FC0002F2000E02E20012101F0EEF901230A222A
:103FD0006179207901F0C6FF01230A22E179A079F5
:103FE00001F0C0FF092701262A4D4FF03008227941
:103FF000637908FB025206FA03F302F501521360DB
:10400000642006F06DFA2379627908FB035306FAFF
:1040100002F203F5825364201A6006F061FA013F50
:10402000E3D12068B0F1B64F1FD10323C5F8E834BF
:104030006279237943EA0243C5F8EC34E279A37943
:1040400043EA0243C5F8F03440F20113ADF8003002
:10405000E36869460293A3680193237C8DF80C30D2
:1040600001F0FCFF04B0BDE8F081094B9842EBD1B0
:104070000323C5F8F8346279237943EA0243C5F88B
:10408000FC34E279A37943EA0243C5F80035DBE763
:104090000080065000C0035038B5054602F00CF908
:1040A000044C012801D1013C00D138BD284601F063
:1040B000F7FFF6E7E19304002DE9F04F9A46564BDF
:1040C00085B01B7806460F461546DDF83C909DF8F6
:1040D00044B0DDF85080002B00F08D80072A00F2FC
:1040E0008C800E9B002B00F08880B9F1000F00F04F
:1040F0008480129BB3F5006F7FDC012802D1109BF6
:10410000002B7AD0454B03EB05131B7B002B76D09D
:10411000434C10220021684655F052FA04EB451436
:104120001022002F59D13946204655F049FA43F262
:1041300010036380BBF1000F03D1E37843F0030366
:10414000E370374A0E9B02EB451CCCE90193129BAE
:104150006901013BC3F30A009DF84C30012E03F0C6
:1041600003034FEA836343EA001E53582D48CDF8FA
:1041700000A000EA03004EEA0003535041D113238C
:104180000CF1100ECCF80C309CE80F008EE80F00FC
:104190006FF00301DCF81C20109B61F39F02012FDC
:1041A000CCF81C20CCF8143003D1CCF81890CCF803
:1041B00004300027194A290102EB051342F8018057
:1041C000159A28465A60694622469F605E7302F03F
:1041D000E7F8384605B0BDE8F08F0021204655F0DD
:1041E000EFF94FF444736380BBF1000FA9D1E3787A
:1041F00043F03003A4E70C48ECE70C48EAE70C482E
:10420000E8E7B8F1000FD4D19CF8023068F304134A
:104210008CF80230CDE700BF4D750020B849002072
:10422000384A00200F80FFF3028000F0018000F088
:10423000078000F038B5124B05461B78DBB1E0B1C2
:1042400036F05AFC0F4A00231146147B54B92B60F8
:1042500001251A0101EB03131D738C5036F052FC3B
:10426000204638BD0133082B02F11002EDD136F0A3
:1042700049FC0548F5E70548F3E70548F1E700BFC5
:104280004D750020B8490020048000F0028000F045
:10429000018000F0154B13B51868002301908DF8CC
:1042A000043036F029FC124B1C7824B136F02AFC7D
:1042B000104802B010BD01221A7036F023FC0E4BDC
:1042C00001A81C731C7783F82C4083F83C4083F8CA
:1042D0004C4083F85C4083F86C4083F87C400823B2
:1042E0008DF8073002F02AF82046E2E7F4A8050826
:1042F0004D750020038000F0B84900200A4A08B537
:10430000127852B107280AD8084A02EB00131B7B27
:104310003BB102F093F8002008BD0548FCE70548D2
:10432000FAE70548F8E700BF4D750020B8490020BE
:10433000028000F0018000F0078000F00B4A10B509
:1043400012780C4662B107280CD859B1084A02EB22
:1043500000131B7B43B102F083F82060002010BDE6
:104360000448FCE70448FAE70448F8E74D750020E4
:10437000B8490020028000F0018000F0078000F0C2
:104380002DE9F843174B1F6D5B6D1F4000D5FEE70D
:1043900001260025144CDFF85480DFF85490374292
:1043A00017D02368C8F850609BB1A1682846013136
:1043B0006268A1609847637B012B0AD148B909EB79
:1043C00045131A7B60F341021A731A7F60F34102AE
:1043D0001A770135082D4FEA460604F11004DED1A4
:1043E000BDE8F88300000450B849002000200450C4
:1043F000384A002070B5044601250B4E04B970BD43
:1044000094FAA4F0B0FA80F005FA00F306EB00127B
:1044100024EA03045368002BF0D0117B11B191689A
:104420009847EBE79847E9E7384B002008B5192093
:1044300001F05CFB28B14FF00072074BC3F88021FC
:104440001A601A2001F052FB28B14FF08062024B33
:10445000C3F880211A6008BD00E100E038B50546C8
:104460000C4636F049FB0022044B03EB05135C605D
:104470001A73BDE8384036F045BB00BF384B00200A
:10448000F8B505460F46164636F036FB104B05F0DC
:10449000FC02D3F824140023EC1804F003041443A2
:1044A00021FA04FC1CF0010F07D00133042BF3D1D7
:1044B000FF2436F027FB2046F8BDFF2CF9D001225F
:1044C000044B03EB0413C3E901761A73F1E700BF51
:1044D00000C00350384B0020074BD3F82404D3F816
:1044E000202403F50053104000F0553020F05020F8
:1044F000C3F82004FFF77EBF00C00350074BD3F87A
:104500002404D3F8202403F50053104000F0AA300F
:1045100020F0A020C3F82004FFF76CBF00C00350B8
:10452000024B1968024B18681AF088B8C4130020AF
:10453000C013002037B5920004460D46019256F094
:104540008BF8431C0BD060B929462046019A55F0E0
:1045500000F80028044808BF002003B030BD03481D
:10456000FBE70348F9E700BF10E000F021E000F0AE
:1045700024E000F013B5044601A801F0B7FF9DF850
:104580000630012223804FF4807300206380054BA6
:104590009B680A3303F01F0302FA03F3636002B05F
:1045A00010BD00BF0080E00F10B5044656F04CF877
:1045B000431C15D0B0B90C4B20469B680A3303F05E
:1045C0001F020123934023F003032344984201D1A7
:1045D000002010BD50F8042B0132F7D00348F8E753
:1045E0000348F6E70348F4E70080E00F0EE000F030
:1045F00021E000F024E000F008B536F06EFA014B3F
:10460000186008BD78530020014B186836F069BA6D
:104610007853002038B141B1013AB2F5006F044837
:1046200038BF00207047034870470148704700BFFB
:10463000037000F0027000F038B504460D4636F005
:104640005BFAA3889BB223B92B6036F05BFA06486D
:1046500038BD142263889BB202FB034408342C60EB
:1046600036F050FA0020F3E70B7000F0F8B504467E
:1046700016460F4636F040FAA388E2889BB29A426B
:10468000054605D80023336036F03CFA1748F8BDDC
:104690001422238807F1100C9BB202FB03433A4615
:1046A0000833174603CF6745186059603A4603F14F
:1046B0000803F6D1142238681860238828469BB274
:1046C00002FB0343083333602388E2889BB2013343
:1046D000B3FBF2F102FB11339BB22380A3880133B9
:1046E0009BB2A38036F00EFA0020D0E70A7000F0EB
:1046F000104930B50B78104A2BB9C2E90033C2E932
:10470000023301230B700C4C0023214651F8045B4B
:10471000854208D00133042BF8D1002154F8043B22
:104720001BB942F82100002003E001310429F5D132
:10473000024830BD4E7500202C540020027000F05D
:1047400010B50446FFF7A6FD002104F10800FFF7AD
:1047500071FD014620B904F10C00FFF76BFD00B1BB
:10476000004810BD0E7000F090F8363053B90421A7
:1047700003790A4A03F239135B01D150022203681C
:104780005A617047022B07D10068816C11F0020159
:1047900018BF062136F0F9B9704700BF00C00350BA
:1047A00090F8363063B9012203685A619A69D207DA
:1047B000FCD504210379084AB9335B01D150704715
:1047C000022B07D10068836C9B074CBF0521092190
:1047D00036F0DBB9704700BF00C0035010B590F849
:1047E0003630044663B9042203685A619A69920715
:1047F000FCD523790C4AB9335B011021995010BDC7
:10480000022BFCD10068836CDB074CBF052106211D
:1048100036F0BBF9237941F294425B0103F1A043E6
:1048200003F57033E9E700BF00C0035037B5044615
:10483000836B36F061F9A36B0546013BA363A16B63
:1048400079B9019136F049F904460199012004F043
:1048500035FF0120064A019905F024F9204636F07B
:1048600040F9284603B0BDE8304036F04BB900BFF0
:104870001CA9050813B591F836200B68022A0CBF55
:104880009B6C9B690C469B06084605D5FFF7CEFF3F
:104890000223E36502B010BD36F060F80023014644
:1048A000CDE90033034A234604F13C0037F0EAFA2D
:1048B000F0E700BF7548000870B5044636F01CF9F3
:1048C000A36B054673B936F008F901210646084680
:1048D00004F0F4FE0121074A084605F0E3F83046EB
:1048E00036F0FFF8A36B28460133A363BDE87040A0
:1048F00036F008B91CA905087FB5012380F83030CF
:1049000090F8363083B9036824330D4A049003923B
:10491000002202924A680192012200920A684169CB
:10492000C06835F0DDFF07E0022B02D103683C339D
:10493000EBE7002380F8303007B05DF804FB00BFE0
:10494000554A000801232DE9F04180F8313090F8F4
:10495000363004460E4688B063BB05683C3536F0F9
:10496000CBF804F13C0807460DF11F01404605F065
:104970004BFB40B99DF81F302BB1404605F01CFBA6
:104980002046FFF753FF3846012736F0BBF8204694
:10499000E765FFF791FF0D4B2A460393002302932F
:1049A00073682169CDE90073A0683368049435F019
:1049B0007DFF07E0022B02D105684435CFE70023D5
:1049C00080F8313008B0BDE8F08100BFD14900085F
:1049D000F0B585B0D06A03A91446FFF72DFE064650
:1049E000204635F0BBFF002501462346CDE90055A2
:1049F000164A04F13C0037F045FA154B9E421FD091
:104A0000039B1D619D6036F077F8039A0646D768D0
:104A100027B1D2E9002329462046B847E06A03A916
:104A200035F0C4FFE06A83889BB263B103A9FFF746
:104A300003FE20460399FFF785FF304636F062F803
:104A4000012005B0F0BD84F83130F6E77548000864
:104A50000B7000F073B5906A01A91446FFF7ECFDE6
:104A6000364B984231D094F83600019B00283AD159
:104A70002268916C11F400712AD031499860196153
:104A80004FF4007302F50052936436F035F8019943
:104A90000546CE6836B14A688B682046D31A0A6844
:104AA0000969B047A06A01A935F080FFA06A838830
:104AB0009BB2002B37D001A9FFF7BEFD204601991C
:104AC000FFF71AFF284636F01DF8012002B070BD2E
:104AD000906CC50523D51B489960186102F50052FA
:104AE0004FF48073D0E7022819D12268D16C11F4F9
:104AF000007109D0124902F5005219610021996034
:104B00004FF40073D364C0E7D06CC00507D50D48DF
:104B10009960186102F500524FF48073F2E70022A9
:104B20001A619A60B1E784F8303094F83530032B7D
:104B3000C8D02046FFF718FEC4E700BF0B7000F096
:104B40000D7000F00C7000F02DE9F0410446524F5A
:104B500088B001AE0D460FCF0FC697E8070086E874
:104B60000700002C00F0968025B94C4E304608B066
:104B7000BDE8F08160220021204654F021FD20464E
:104B8000FFF7B6FD06460028F0D1012184F8350074
:104B90002B6884F8360023602A7BE1652271404A45
:104BA0009342E2D1292363624FF4802305273D48D5
:104BB000C4E90403D5E90723A262168056809680D3
:104BC00084F83060E3621E805E809E806B6884F8AB
:104BD00031600393EB8984F83360ADF814302B8A8D
:104BE0003A20ADF81230AB7C8DF811708DF8103092
:104BF000EB7C8DF8163000F0D7FB606A012100F0E5
:104C0000D3FB286801A98DF8046001F017FD14207A
:104C1000297B254B01F13902BA4098502E7AA87AA7
:104C200003EB411346EA0042C3F83827697AEA7A6F
:104C300041EA024CC3F830C7217784F82020E67699
:104C4000E0776B7D20466377AB7D84F82130EB7D88
:104C5000A3772B7E84F8223035F097FE35F04CFF99
:104C60004FF0FF328046286800F500539A642B7D90
:104C7000032B0CBF3946042135F0F9FF4FF4406295
:104C80002B6820465A61FFF75BFD0646404635F02B
:104C900039FF6BE7054E69E724A90508037000F0AA
:104CA00000C005500200040000C00350027000F074
:104CB0002DE9F3410D46044600287FD035F01CFF56
:104CC000012D064641D1E36A9B889BB2002B43D05D
:104CD000A068FFF713FB0023E06A84F83130838873
:104CE0009BB273B101A9FFF7A7FC0199A068083135
:104CF000FFF724FB374F019B1F61E06A83889BB25B
:104D000083BB204635F075FE8304FAD5023D012DA4
:104D100010D8E068FFF7F2FA0023A06A84F8303078
:104D200083889BB26BBB94F83530032B02D02046AE
:104D3000FFF71AFDA36B002B02DD2046FFF776FD7F
:104D4000304635F0DFFE002009E0022D38D1A36A9D
:104D50009B889BB2002BDCD135F0D4FE1E4802B0FC
:104D6000BDE8F08101A935F021FE019BD3F80C804C
:104D7000B8F1000FC1D00022394620469B68C047D9
:104D8000BBE76946FFF758FC0099E0680831FFF778
:104D9000D5FA104D009B1D61A06A83889BB2002B41
:104DA000C1D0694635F002FE009BDF68002FF3D0CA
:104DB0000022294620469B68B847EDE70748CEE722
:104DC000032DA3D1E36A9B889BB2002B80D1A36AF9
:104DD0007AE700BF097000F0087000F0027000F080
:104DE000F0B587B005461646FFF714FC0446B0B987
:104DF00004930C4BCDE901166A46A86A01A90396F3
:104E00000593FFF733FC044648B995F8303033B9C1
:104E10002846FFF7C5FC28460099FFF76DFD2046A0
:104E200007B0F0BD017000F0F0B587B0044616463B
:104E3000FFF7F0FB054658BB0493194BCDE901166B
:104E4000059394F8363003962BBB23689B6903F0D7
:104E5000020313B92046FFF7C1FC6A46E06A01A9C4
:104E6000FFF704FC054698B994F8313083B935F062
:104E700043FEE36A06469B889BB233B12046009905
:104E8000FFF760FD012384F83430304635F03AFEF8
:104E9000284607B0F0BD022BDCD123689B6CD6E717
:104EA000017000F00B4B30B51B7883B1012000235B
:104EB0000546094951F8042B2AB192F85C40022CAE
:104EC00004BF2046D5650133042BF3D130BD01204A
:104ED000FCE700BF4E7500202C540020044BD3F893
:104EE0008420D206FBD4D3F88400C0F3811070472D
:104EF0000040005038B5104B0546D3F880300C46C2
:104F000003F00303022B0BD0032B0DD0012B0FD189
:104F1000FEF72EFF0E2305B1286004B1236038BDD3
:104F2000FEF770FF0723F6E7FEF71CFF0623F2E704
:104F300000231846EFE700BF0080005038B5174B3C
:104F40000546D3F820310C4603F00703013B052B3F
:104F500020D8DFE803F0030B130F171BFEF702FF47
:104F6000052305B1286004B1236038BDFEF730FF8A
:104F70000323F6E7FEF746FF0723F2E7FEF73EFFBF
:104F80000223EEE7FEF7EEFE0623EAE7FEF720FF38
:104F90000423E6E700231846E3E700BF0080005043
:104FA00038B5174B0546D3F828310C4603F00703F4
:104FB000013B052B20D8DFE803F003131B0F0B1771
:104FC000FEF7D0FE052305B1286004B1236038BD8B
:104FD000FEF7C8FE0623F6E7FEF714FF0723F2E705
:104FE000FEF7F6FE0323EEE7FEF7F2FE0423EAE700
:104FF000FEF704FF0223E6E700231846E3E700BFBD
:105000000080005073B50D460021114B0191D3F87B
:105010008041064604F00304022C13D0032C0CD06C
:10502000012C13D101A8FFF789FF10240EB1019BB9
:10503000336005B12C6002B070BDFEF7E3FE0724BB
:105040000190F3E7FEF7DAFE0190EFE70C46EDE79B
:1050500000800050002337B50193154B0546D3F867
:1050600020320C4603F00703013B032B1ED8DFE878
:1050700003F0020E1318002101A8FFF791FF12237D
:105080000DB1019A2A6004B1236003B030BDFEF770
:10509000B9FE07230190F3E735F0BBFB0A2301902B
:1050A000EEE7FEF7F1FE09230190E9E70023E7E7C9
:1050B0000080005038B5104B0546D3F840310C46FF
:1050C00003F00303022B0BD0032B0DD0012B0FD1C8
:1050D00035F09FFB0A2305B1286004B1236038BD79
:1050E000FEF7D2FE0923F6E735F096FB0C23F2E734
:1050F00000231846EFE700BF00800050002337B5BB
:105100000193164B0546D3F860320C4603F00703B3
:10511000013B032B1FD8DFE803F0020E1914002116
:1051200001A8FFF70BFF10230DB1019A2A6004B10B
:10513000236003B030BD002101A8FFF7BBFF11239E
:10514000F2E7FEF75FFE07230190EDE7FEF756FE5C
:1051500002230190E8E70023E6E700BF008000504B
:10516000002337B50193164B0546D3F894320C460D
:1051700003F00703013B032B1FD8DFE803F0020E07
:105180001914002101A8FFF7D9FE10230DB1019ACF
:105190002A6004B1236003B030BD002101A8FFF7ED
:1051A00089FF1123F2E7FEF72DFE07230190EDE7BB
:1051B000FEF724FE02230190E8E70023E6E700BFA4
:1051C0000080005038B5134B0546D3F800320C462A
:1051D00003F00703013B032B18D8DFE803F0020AB2
:1051E0000E1235F016FB0A2305B1286004B12360C6
:1051F00038BDFEF749FE0923F6E735F00DFB0C2319
:10520000F2E7FEF7CFFD0F23800AEDE700231846F3
:10521000EAE700BF0080005038B5134B0546D3F8CD
:1052200008320C4603F00703013B032B18D8DFE8D4
:1052300003F0020A0E1235F0ECFA0A2305B12860D9
:1052400004B1236038BDFEF71FFE0923F6E735F0F1
:10525000E3FA0C23F2E7FEF7A5FD0F23800AEDE742
:1052600000231846EAE700BF0080005038B5104B15
:105270000546D3F840320C4603F00303022B0BD053
:10528000032B0DD0012B0FD135F0C3FA0A2305B142
:10529000286004B1236038BDFEF7F6FD0923F6E768
:1052A00035F0BAFA0C23F2E700231846EFE700BF07
:1052B0000080005038B5104B0546D3F860310C46DD
:1052C00003F00303022B0BD0032B0DD0012B0FD1C6
:1052D00035F09FFA0A2305B1286004B1236038BD78
:1052E000FEF7D2FD0923F6E735F096FA0C23F2E734
:1052F00000231846EFE700BF00800050B0F5207F84
:105300001FD009D8B0F5007F15D003D868B1B0F52B
:10531000C07F0AD000200CE0B0F5607FFAD10B4BC3
:10532000D3F88000C0F3011003E0084B186FC0F3FE
:10533000033001307047054BD3F89000C0F3046090
:10534000F7E7024B186FC0F38020F2E700800050AF
:1053500002464FF48030104B10B598660020FFF7DE
:10536000CDFF504341F671320C4BDC69DA635A6869
:1053700004F4803422F4401259B9094988428CBFA0
:105380004FF480100020104358600CB10022DA6303
:1053900010BD0449F2E700BF009000500000035028
:1053A000005A6202002D3101430905D0012B0DD0B6
:1053B000022B094B18BF002300F01F0041B103F579
:1053C0008053012202FA00F018607047034BF3E7A4
:1053D00003F50053F5E700BF68800050648000507B
:1053E0001FB5002180280446CDE9001100F0A580FA
:1053F00035D85E2846D85E2844D8DFE800F0A243BE
:10540000434343434343434343434343434343436C
:105410004343434343434343434343434343A2AA96
:10542000A2AAB9B9B9B9B9AAC34DD9714DAAAAAA44
:105430004343434343434343AAAAAA79E3AA4343CA
:105440004343434343434343434343B9A2A2A2DEFE
:105450004D4DE8885EBE434343434399A200B0F5F7
:10546000B06F00F08F802DD8B0F5207F71D00CD8B0
:10547000B0F5C07F65D0B0F5007F65D0B0F5807F16
:1054800000F08580009804B010BDB0F5607F6AD050
:105490000DD8B0F5407FF5D1FEF784FC02464FF4FD
:1054A0002070FFF72BFFB2FBF0F0400847E0B0F5AB
:1054B000806F5DD0B0F5A06FE4D100216846FFF7A2
:1054C000C9FDDFE7B0F5106F77D016D8B0F5E06F03
:1054D00078D00AD8B0F5C06F6AD0B0F5D06FD1D10E
:1054E00000216846FFF76EFECCE7B0F5F06FC9D13A
:1054F00000216846FFF7DEFEC4E7B0F5406F3CD000
:1055000013D8B0F5206F62D0B0F5286FBAD1002162
:10551000314B0391D3F8703203F00303012B02D116
:1055200003A8FFF7C7FD039B3BE0B0F5486FA9D187
:1055300000216846FFF714FEA4E7FEF719FC00906F
:10554000A0E7FEF72FFCFAE7FEF712FC0246204622
:1055500004E0FEF727FC02464FF42070FFF7CEFE72
:10556000B2FBF0F0EBE701A8FFF7C4FC019AEEE70D
:1055700000216846FFF7E2FC84E700216846FFF758
:105580000FFD7FE700216846FFF73CFD7AE74FF00B
:10559000E02302911B695B0705D5FEF703FC02902F
:1055A000029B00936EE703A902A8FFF783FDF7E7CC
:1055B00000216846FFF77EFD64E700216846FFF79B
:1055C0002BFE5FE700216846FFF750FE5AE70021F7
:1055D0006846FFF793FD55E70080005008B580202E
:1055E000FFF7FEFE034B98429EBF4FF48032024B02
:1055F0001A6708BD005A620200A000501FB50023C0
:10560000B0F5807F019300F0C38064D85D2855D841
:105610004C2807D82D2847D823282BD8019805B027
:105620005DF804FB4D381028F8D801A353F820F09A
:10563000875700081D5600081D5600081D56000813
:10564000395700081D5600081D5600080D5800085F
:1056500057570008FD560008035800081D5600085B
:105660001D5600081D5600081D5600081D5600084E
:105670001758000824380928D0D801A353F820F07F
:105680008757000887570008875700088757000882
:10569000875700081D5600087D5700081D56000852
:1056A00019570008BD5700083D2800F082803E28A9
:1056B000B4D1002001A9FFF7D9FDAFE78028ADD113
:1056C0005A4B1B6F03F00703013B032BA6D8DFE8FF
:1056D00003F05350878FB0F5F06F6AD021D8B0F542
:1056E000B06F4BD00FD8B0F5607F00F0858095D3B8
:1056F000B0F5806F47D0B0F5A06F8FD1002001A921
:10570000FFF7A8FC8AE7B0F5D06F57D0B0F5E06F8F
:10571000CFD0B0F5C06F81D1002001A9FFF7CAFC3E
:105720007CE7B0F5206F71D00BD8B0F5086F4AD088
:10573000B0F5106F7FF472AF002001A9FFF76CFD88
:105740006CE7B0F5406F5CD0B0F5486F63D0B0F552
:10575000286F7FF463AF0021344B0391D3F870328C
:1057600003F00303012B5BD0022B14BF0B46152360
:1057700000E00523019351E70223FBE7002001A984
:10578000FFF740FC4AE7002001A9FFF7D7FB45E7F8
:1057900002934FF0E0231B695B0705D5FEF702FB80
:1057A0000D230393039BE5E703A902A8FFF782FCFF
:1057B000F8E7002001A9FFF77DFD2FE7002001A9F0
:1057C000FFF700FD2AE7194BD3F8003103F003037C
:1057D000022B07D0032B09D0012B0BD1FEF7F8FACF
:1057E0000323C7E7FEF750FB0923C3E735F00FF8A3
:1057F0000823BFE70123BDE7184601A9FFF77AFB9D
:105800000CE7002001A9FFF7CBFB07E7002001A967
:10581000FFF774FC02E7002001A9FFF7A1FCFDE6F9
:1058200003A8FFF747FC1123A4E700BF0080005046
:105830004FF48012034B5A664FF48032024B9A6247
:10584000704700BF009000500050005A38B5044621
:105850008020FFF7D3FE032800F083804FF48012EE
:10586000504B4FF0A0615A6645F60E034E4AC2F8FF
:1058700080304E4B99624FF4803103F5805399622A
:10588000916D11F48031FBD1D4E900031B0543EA8B
:105890000063E07B0343207B43EA0043607B43EAF1
:1058A0000033A07B43EA801313619069D4E9045369
:1058B0001B0643EA856300F000400343A07EE57EBB
:1058C0000343207E43EA0043607E43EA0023936162
:1058D000E069136A00280CBF0022082223F00F039E
:1058E00043EA000343EA850343EA02032E4A304DAC
:1058F000136237D194F82430916A94F82000DB00C9
:105900000D4043EA401394F821102B4343EA01135E
:1059100043F480339362274B916D33EA0101FBD14D
:105920004FF08071214881621369A56823F47003E8
:1059300043EA055313614FF00043836194F822302A
:105940000BB91D4B996294F823301BB94FF4803288
:10595000194B9A6294F825301BB1134B174AC3F8C0
:10596000802038BD022808D11161154891614FF49B
:1059700008524FF47F4135F077F80B4994F8223004
:105980008A6A94F820001B06154043EA401394F8F5
:1059900024202B4343EAC20394F8232043EA024322
:1059A0008B62D7E7009000500040005A0050005A28
:1059B000C7FFFEFE030001000060005AF1A7FFFFD1
:1059C0003440005A014B93F900007047C91600207B
:1059D000B0F5207F10B50C4657D008D8B0F5007F41
:1059E00048D003D830B3B0F5C07F23D010BDB0F598
:1059F000607FFBD129492A48D1F8FC2012F080723F
:105A00001EBFD1F8FC3023F08073C1F8FC30D0F811
:105A10008030611E23F0300444EA0114C0F8804055
:105A2000002AE3D01D4AD2F8FC3043F08073C2F85C
:105A3000FC30DBE735F029F835F035F84FF48031EC
:105A4000184B174A1967136F611E23F4704444EA18
:105A500001341467FEF7A6F90446FFF73FFAC0F1D8
:105A60000201204635F019F800F02EF8BDE810408C
:105A7000FFF7B4BD0A4A0139D2F8903023F0F85448
:105A800044EA0164C2F89040B0E7054B013C196F4D
:105A900021F4806141EA84241C67A7E700ED00E05F
:105AA000008000500090005008B50121022000F055
:105AB00075F834F0EAFF34F0F6FF4FF48032014B12
:105AC0001A6708BD0090005008B54FF4C070FFF78A
:105AD00087FCBDE80840044988428CBF02210121AF
