:020000040800F2
:10000000001200200D3D0008AF860408AF860408EA
:10001000C3A60408AF860408AF860408AF860408A8
:10002000AF860408AF860408AF860408AF860408CC
:10003000AF860408AF860408AF860408AF860408BC
:10004000AF860408AF860408AF860408AF860408AC
:10005000AF860408AF860408AF860408AF8604089C
:10006000AF860408AF860408AF860408AF8604088C
:10007000AF860408AF860408AF860408AF8604087C
:10008000AF860408DD360008AF860408AF86040892
:10009000AF860408F9420008AF860408AF8604085A
:1000A000AF860408F9430008D5430008AF8604086A
:1000B000AF86040805390308F5420308370F060820
:1000C000330F0608DD3A0308430F06083B0F060806
:1000D000CD4203083F0F0608354303089943030840
:1000E000AF860408AF860408AF860408AF8604080C
:1000F000BFA60408AF860408AF860408AF860408CC
:10010000AF860408293A0008AF860408AF860408C1
:10011000AF860408AF860408AF860408AF860408DB
:10012000AF860408AF860408AF860408AF860408CB
:10013000AF860408AF860408AF860408AF860408BB
:10014000AF860408AF860408AF860408CBA704086E
:10015000C11F0308AF860408950C06089B0C06080F
:10016000AF860408AF860408AF860408AF8604088B
:10017000013800D0FCE77047734B73B5198811F054
:10018000010140F0DA8041F60B22704D704BA960FE
:10019000C5E900316F4B19609A806F4B1B6ADB0712
:1001A00006D440F2B9316D4B6D4A6E4842F010FDF5
:1001B00028462CF043FD044620B940F2BD316A4B7D
:1001C000674AF2E72DF0B4FC20B140F2C131674B31
:1001D000634AEAE74FF00111204660F05FFA20B170
:1001E00040F2C531614B5E4ADFE70221204660F0F4
:1001F00040F920B14FF472715C4B594AD5E7204663
:100200005B492DF0ABFA20B140F2CB31574B544A49
:10021000CBE70121204660F039FB20B14FF4747127
:10022000524B4F4AC1E70121204660F03FFB064692
:1002300020B140F2D3314D4B494AB6E701463C224A
:100240004C486CF059F880233246204605F11001E5
:1002500060F02DFA802804D040F2DA31464B404A53
:10026000A3E7464D01202CF03DFD35A3D3E9002343
:100270002C602046CDE900234FF0FF324FF0FF33D2
:1002800060F029F920B140F21731384B3C4A8CE735
:1002900030480CF0F1FD012108460CF05BFE012115
:1002A000286860F08EF8044620B140F26E412F4B72
:1002B000344A7AE7344B354A98801A60344B354AD1
:1002C00098801A60344B354A98801A60344A6FF02F
:1002D00063005A6119F080FD0B200CF087FD314B53
:1002E000186020B940F28C412F4B264A5DE706F09A
:1002F00093FF2146286860F02BF920B140F21941A4
:100300001A4B2A4A51E708222868114660F0E5F89E
:10031000044620B14FF49261254B1A4A45E70DF08F
:10032000ABFE244B24481C70244B1C70244B1C70C7
:1003300002B0BDE8704052F00CB902B070BD00BF11
:100340000B6020FF22020000168300209C64002026
:1003500019D20008946400200080E00F82DD0608B6
:1003600028DF0608DDD806089BDD060841D8060808
:1003700038E0060838650020AADD060890640020F1
:100380001BDF0608A4DF060820200020D9840020F7
:10039000F81F002059840020482000205B850020A1
:1003A0007020002034650020E2DD0608E1DE06084A
:1003B000FDDD06084E84002081DE06085A850020F7
:1003C000598500200000000070B590B00E4604462C
:1003D00006A909AD81E80C000023179928460F9360
:1003E00036F09EFA9DF858304FF00001B268204672
:1003F0000393159B049502939DF850300193079B3E
:100400009FED050B0093069B64F0D4FE284661F037
:1004100027FD204610B070BD000000000000000065
:1004200070B590B00E46044606A909AD81E80C00EF
:100430000023179928460F9336F0E4FA169B4FF0E5
:100440000001B26820460393159B049502939DF822
:1004500050300193079B9FED060B0093069B64F0C1
:10046000D1FF284661F0FCFC204610B070BD00BFF3
:10047000000000000000000070B590B00E46044679
:1004800006A909AD81E80C000023179928460F93AF
:1004900038F0E0FB9DF858304FF00001B26820467C
:1004A0000393159B049502939DF850300193079B8D
:1004B0009FED050B0093069B61F0D9FF284661F084
:1004C000CFFC204610B070BD00000000000000000E
:1004D00070B590B00E46044606A909AD81E80C003F
:1004E0000023179928460F9338F0FAFB169B4FF01C
:1004F0000001B26820460393159B049502939DF872
:1005000050300193079B9FED060B0093069B62F012
:1005100087F8284661F0A4FC204610B070BD00BFEB
:1005200000000000000000002DE9F04F1F460023EE
:10053000044688464FF0000A4FF0000B2DED028B69
:100540009DB018939F4B13921B68184605936CF04F
:1005500020F80546CDF85C80179B1A782B2A4ED0E0
:100560003BD80D2A34D8082A34D8002A3ED000239C
:100570000A93179E3378302B40F0B080737803F0E5
:10058000DF03582B68D10A9B17A9029720460193D5
:1005900018AB8D4A009319AB45F05CFF10F00707CC
:1005A000054605D0062F2CD10136002317960A9355
:1005B000139B002B40F08E850A9BEBB152460BF14A
:1005C000004343EC102B1DB0BDEC028BBDE8F08F57
:1005D000202ACCD101331793BEE72D2AC7D101229F
:1005E0000A925A1C17925B78002BC2D1139BCDF84C
:1005F0005C80002B40F06C8552465B46E1E70022B0
:10060000EEE7189A3AB135211AA86CF046FC189911
:10061000204646F043FA013F042F06D8DFE807F0F2
:100620000A0314170A00DDE91AAB2807C0D54BF0FE
:10063000004BBDE7DDE91AA3199A23F4801302F2F7
:10064000334243EA025BF0E7DFF880B1EDE76FF099
:10065000004B4FF0FF3AE8E7179B5A1C17925B7864
:10066000302BF9D0002BA3D001234FF000090493C5
:100670000A22179B4F46CDF81C90089317980678CE
:10068000A6F13003D9B209292AD92A4605996BF077
:1006900088FFA0B3002032463D4603460590652AF8
:1006A00001D0452A18D11DB9049A02439ED00025D5
:1006B000DDF85C8008F10102179298F801202B2ADE
:1006C00075D02D2A7BD04FF0000CA2F13001092902
:1006D00040F28280CDF85C8000269DE00023C4E7D4
:1006E000082F00F1010007F10107D4BF079902FBB1
:1006F00009391790DCBF02FB01330793BEE7179B54
:100700005A1917925A5D002F36D03D460590A2F136
:100710003003092B12D90123C1E7179B01305A1C62
:1007200017925A78302AF8D0A2F13103082B00F240
:10073000D68405900020179B05460893303A00F1B7
:10074000010313D0059900EB050E19442B460591C2
:100750000A21734512D12B180135082B05441CDCE6
:1007600007990A2303FB012307930023179A1846CE
:10077000511C17915278CAE73846D3E7082B04DC9E
:10078000079E4E4307960133E3E703F1010CBCF1EA
:10079000100FD8BF01FB09F9F5E7102DDCBF0A23C4
:1007A00003FB0929E1E70023059301237CE74FF0D0
:1007B000000C08F10202179298F8022085E74FF02A
:1007C000010CF6E738A20708FC9D07080000F07F3F
:1007D000179A511C17915278302AF9D0A2F13101A1
:1007E00008293FF679AFA2F1300E179A0692179AB0
:1007F000511C17915278A2F13006092E37D9069E66
:10080000891B44F61F66082902DC7645A8BF764698
:10081000BCF1000F00D07642002D4DD10499014368
:100820007FF4C6AE002B7FF4E1AE692A27D024DC2A
:10083000492A24D04E2A7FF4D9AE9F4917A86CF0DC
:10084000B9F900283FF4D2AE179B1B78282B2DD185
:100850001AAA9A4917A86CF0C1F9052826D11B9B42
:10086000DDF868A043F0FF4B4BF4E00BA0E60A2153
:1008700001FB0E2EAEF1300EB9E76E2ADBE7904990
:1008800017A86CF097F900283FF4B0AE179B17A893
:100890008C49013B17936CF08DF910B9179B01330C
:1008A0001793DFF830B24FF0000A81E6864800F077
:1008B0003FFC5BEC10AB7BE6059B002F08BF2F468F
:1008C000102D0798A6EB0303A846A8BF4FF0100809
:1008D000069341F09BFE092D82468B4613DD7B4B30
:1008E00003EBC80353E9122347F008FA82468B460C
:1008F000484641F08BFE02460B465046594641F0B1
:1009000049FD82468B460F2D38DC069B002B3FF4B9
:100910004FAE24DD162B0BDC6C49524601EBC301B4
:100920005B46D1E9000147F0E9F982468B463FE694
:10093000C5F12503069A934220DBC5F10F05634CF0
:1009400052465B4604EBC501D1E9000147F0D6F9F8
:10095000069B5D1B04EBC504D4E90023E3E7069B7B
:1009600016330BDB059B504659469E1B574B03EB3A
:10097000C606D6E9002347F0EBFAD6E7A5EB080850
:10098000069B9844B8F1000F74DD18F00F030AD0ED
:100990004E49524601EBC3015B46D1E9000147F0E5
:1009A000ADF982468B4638F00F084FD0B8F59A7FE4
:1009B00022DD00252E46079505952223DFF814B188
:1009C0004FF0000A2360079B002B3FF4F1AD18990C
:1009D000204646F063F80599204646F05FF8314618
:1009E000204646F05BF80799204646F057F829461E
:1009F000204646F053F8DBE5354B4FEA28185046C1
:100A00005946049300239946B8F1010F21DC0BB13C
:100A100082468B462E4BABF1547B524603EBC90901
:100A20005B46D9E9000147F069F92A4B0A4682463C
:100A30000B4029498B42BCD8A1F580118B4286BF5F
:100A4000DFF898B04FF0FF3A02F1547B0023049393
:100A500083E018F0010F05D0049BD3E9002347F091
:100A60004DF90123049A09F101094FEA6808083297
:100A70000492C9E7EAD0C8F1000818F00F020AD0C2
:100A8000124B5046594603EBC203D3E9002347F00B
:100A90005FFA82468B465FEA2818D7D0B8F11F0F5D
:100AA0001EDD00252E460795059522234FF0000AEE
:100AB0004FF0000B236086E72E190708109E0708E9
:100AC000F99D07089FA507086CE40608F0A207082F
:100AD000C8A207080000F07F0000A07CFFFFEF7FA6
:100AE00018F0100350465946DFF8A89318BF6A2340
:100AF0000493002318F0010F04D0D9E9002347F034
:100B0000FDF801235FEA680809F10809F2D10BB189
:100B100082468B46049BC3B1CBF30A525946C2F1BD
:100B20006B03002B11DD1F2B40F32181342B4FF081
:100B3000000ADBBFC2F14B024FF0FF334FF05C7B8A
:100B400003FA02F2D8BF02EA010B0022002350464A
:100B5000594641F02BFE0028A3D1079B3A4608993D
:100B6000204600932B4646F003F8079000283FF4F8
:100B700020AF059B00259E1B069B002BB4BF334670
:100B800000232E460C93069B23EAE3731293079BE4
:100B90002046596845F042FF059000283FF40DAF0C
:100BA000079B0C301A6903F10C01023292006BF0C2
:100BB0007CFB1AAA19A920464BEC10AB46F0B4FAFC
:100BC00018904BEC18AB00283FF4F7AE01212046FB
:100BD00046F018F8064600283FF4EFAE199B04993A
:100BE000002BA3EB0108A9BF0C9A129A03EB020990
:100BF000129FB8BFD71A1A9AA14B9044B8BFDDF81C
:100C00003090C2F1360208F1FF38984580F2C38077
:100C1000A3EB080301211F2BA2EB030200F3AE801C
:100C200001FA03F30D930023089309EB0208049BD8
:100C30001744C1451F444B46A8BF4346BB42A8BF0B
:100C40003B46002BC2BFA8EB0308FF1AA9EB030920
:100C50000C9B002B17DD31461A46204646F090F8D3
:100C6000064600283FF4A9AE0146189A204645F0F2
:100C7000DFFF0B9000283FF4A0AE1899204645F006
:100C80000DFF0B9B1893B8F1000F00F38980069BB2
:100C9000002B08DD129A2046059946F071F8059060
:100CA00000283FF48AAE002F08DD3A460599204619
:100CB00046F0C0F8059000283FF47FAEB9F1000F70
:100CC00008DD31464A46204646F0B4F8064600287C
:100CD0003FF473AE059A2046189946F01BF9054675
:100CE00000283FF46AAEC36831460B930023C3600B
:100CF0006CF084F800285DDA0B9B53EA0A037FD17D
:100D0000CBF31303002B7BD12BF000431B0D1B05F2
:100D1000B3F1D66F74D96B6913B92B69012B6FDDF1
:100D200029460122204646F085F8314605466CF0FA
:100D300065F8002864DD04995B46524A00297FD09B
:100D400002EA0B01B1F1D66F7ADCB1F15C7F7FF77B
:100D5000ACAE4D4B50465946002246F0CFFF0B46F5
:100D600082468B46034304BF222323602FE64FF0C5
:100D7000FF3202FA03F303EA0A0AE6E6C8F17F4803
:100D80000D9108F57F0808F57B4808F1E20801FAA3
:100D900008F3089349E70023089301230D9344E7E0
:100DA00042461899204646F045F8189000287FF4EE
:100DB0006EAF02E65F466FD10B9ACBF3130342B3DB
:100DC000324A934228D1049B5146EBB12D4B4FF050
:100DD000FF323B40B3F1D46F19D81B0DC3F16B0345
:100DE00002FA03F3994217D1294B9F4202D10131F4
:100DF0003FF4E3AD234B4FF0000A3B4003F5801B6B
:100E0000049B002BA5D1E2E54FF0FF33EAE7134640
:100E1000E8E753EA0A038ED0089BDBB13B42EFD0F0
:100E20000B9B5046049A5946C3B16BF0F7FB024640
:100E30000B4651EC180B41F0ADFA82468B46DFE7CA
:100E400013404FF0FF3AA3F580136FEA135B6FEA8C
:100E50000B5BD5E70D9B13EA0A0FE0E76BF0DEFBB7
:100E600002460B4651EC180B41F092FA0022002387
:100E700082468B4641F09AFC0028C1D015E600BF9F
:100E800002FCFFFF0000F07F00005039FFFF0F0061
:100E9000FFFFEF7F289E0708314628466BF0CAFF08
:100EA00000224FF0804310EE100A59EC108B494697
:100EB00041F090FC00287AD00B9B002B4AD00022F6
:100EC000934B4FF00008DFF84892CDE90823914B8F
:100ED0003B400D930D9A904B9A4240F0B080A7F1A1
:100EE000547BDDE908014BEC10ABCDE9080146F07D
:100EF000A1F8DDE9080153EC102B46F0FFFE524645
:100F00005B4641F047FA0B4682498246834A1940C4
:100F1000914260D918EE903A02F15472934204D192
:100F200018EE103A01333FF448ADDFF8FCB14FF052
:100F3000FF3A1899204645F0B1FD0599204645F045
:100F4000ADFD3146204645F0A9FD2946204645F035
:100F5000A5FD1CE6BAF1000F1BD1CBF31303F3B9C7
:100F600000226B4B4046494641F02AFCD0B940462E
:100F7000494600226A4B46F0C1FE8046894609F187
:100F80000043CDF850801593DDE91423CDE9082303
:100F90009DE7BAF1010F02D1002F3FF486AD002288
:100FA000604B8EE74FF00008DFF87491E7E75C4B89
:100FB00040464946002246F0A1FE0B9B80468946EA
:100FC00033B901F100430E900F93DDE90E23DDE705
:100FD000CDE90E89F9E703F1547B049B002BA8D1DE
:100FE0002BF000430D9A1B0D1B059A42A1D14046E0
:100FF000494647F0F3F841F055FB02460B464046A0
:10100000494641F0C5F9CBF313030B9A804643EAF6
:101010000A038946134355D035A3D3E9002341F091
:10102000CFFB00287FF4D3AC4046494632A3D3E936
:10103000002341F0E3FB00283FF47BAFC7E4049BAF
:1010400033B30D9BB3F1D46F22D8404649462CA34D
:10105000D3E9002341F0BEFBA0B14946404647F02A
:101060009DF8012838BF012041F0D0FA0B9B804643
:10107000894623BB01F1004310901193DDE9102351
:10108000CDE90823099B0D9A03F1D6639B1A0993B6
:10109000B0EE480AF0EE680ADDE90801CDE9080182
:1010A00045F0C8FFDDE9080153EC102B46F026FEA1
:1010B00053EC182B41F06EF982468B468DE7CDE953
:1010C0001089DBE710A3D3E9002341F079FBB2E7F5
:1010D00000230A93179B139A1360FFF76DBA652AD2
:1010E0003FF461AB452A3FF45EAB0123FFF796BBAB
:1010F0009535A094FFFFDF3F35E5AF350000E03FB9
:101100000000C0FFFFFFDF419535A094FFFFCF3FF8
:101110000000F03F0000F07F0000E07FFFFF9F7CB9
:101120000000E03F0000F0BFFFFFEF7F0000000085
:101130009FED010B704700BF000000000000F87F2A
:101140002DE9F04F1D460023894683462DED048B83
:10115000D3B019930B9246F08BFD03681B7816935E
:10116000B9F80C301C061AD5D9F81030BBB940219B
:10117000584642F021FBC9F80000C9F8100058B9E0
:101180000C23CBF800304FF0FF330D930D9853B084
:10119000BDEC048BBDE8F08F4023C9F81430002368
:1011A0009FED8D7B0F931193B0EE478AF0EE678A27
:1011B0000D930B9B1C4653F8042B0AB1252AF9D139
:1011C0000B9BA3420DD0E61A0B9A4946584633466C
:1011D0006BF0CDFE013000F0E8800D9B03EBA60321
:1011E0000D932368002B00F0E0800021221D0A20CF
:1011F0004FF0FF340E460F4615910C9152F8043B08
:1012000009930B92099B392B4CD81F2B4FD9099B63
:10121000203B192B4AD8DFE803F06B494970494954
:1012200049494949736C497A7D49989B9B9B9B9B93
:101230009B9B9B9B332B39D8DFE813F0EB003800E6
:10124000EB0038003800380038009D0038003800C6
:1012500038003800380038003800380038003800CE
:1012600038002103380038003800380038003800D2
:101270003800380038003800A600D700EB00EB003B
:10128000EB00A000D70038003800A3003800890226
:101290009A02A702A3003800C602380016033800DD
:1012A00038004200099B453B332BC3D911B1099B40
:1012B000002B7AD0099B00200A952A93159081E093
:1012C00001B11596464B2A460F93F80652F8043B97
:1012D0000A9202D4790648BF9BB2FA0706D52BB111
:1012E000302247F002071A92099A1B9202225AE210
:1012F0000EB9099E01210B9A80E747F00107FAE732
:1013000055F8043B002B0C93F5DA5B420C9347F045
:101310000407F0E70B9A52F8043B2A2B099312D1E9
:1013200055F8044B0B9244EAE474E4E700FB043400
:1013300052F8043B0993099B303B092BF6D944EA48
:10134000E4740B925EE70024F5E747F08007D2E7EC
:1013500000230C930C9A099B00FB0233303B0C9347
:101360000B9B1A4652F8043B0993099B0B92303BA6
:10137000092BEFD946E747F00807BCE747F04007DD
:10138000B9E747F01007B6E701B115962B1DF8062F
:101390000A9327D4286841F039FC411C0ED1B9F8D2
:1013A0000C3043F04003A9F80C30B9F80C3013F0BE
:1013B000400F0D9B18BF4FF0FF33E6E62A90002048
:1013C0002B90159080460124064605460DF1A80A8B
:1013D00008E100BFAFF30080000000000000000043
:1013E000D0A407082B682A93E9E701B115962B1DB5
:1013F000FA060A9307D52B68002B02DA2D225B42EE
:1014000015920122D1E117F0400F2B6818BF1BB2D3
:10141000F2E701B1159607354FF0FF3225F00703CB
:10142000B3EC027BB0EE478AF0EE678A0A93B0EE27
:10143000479A18EE903A23F0004309EE903AA54BF4
:1014400051EC190B46F06CFEF0B94FF0FF32A14B96
:1014500051EC190B41F0BEF9B0B90022002351EC58
:10146000180B41F0ADF908B12D2315939A4B9B4809
:10147000099A27F080074FF000080324472A94BFF9
:101480009A4682464646D1E353EC182B51EC180B92
:1014900046F046FE40B118EE903A9148002BBCBF92
:1014A0002D2315938F4BE3E7631C00F00D81099BFF
:1014B00023F02003472B02D1002C08BF012447F45E
:1014C00080730DF1A80818AE17AD0E932823584667
:1014D000CDF81880079319AB03960593099B0295E5
:1014E00004930E9BCDE9004353EC182B6BF064FE84
:1014F0004045824640F0EA801999282940F3E68069
:101500008900584642F058F9804600283FF447AF1A
:10151000199B0295CDE9060319AB58460593099B23
:10152000CDE903630E9BCDE9004353EC182B6BF020
:1015300043FE8246099B189D23F02003472B40F071
:10154000D580EE1C199B02DBAC4280F2EB80099B3C
:10155000023B09936B1E099A002B18931C92BABF89
:10156000C5F101032D222B22092B1D9240F3D180BE
:101570002AA80A250246043893FBF5F405FB14312A
:10158000303142F8041C194623466329F2DC30331B
:10159000A2F1080140F8043C1EA82AAB9942C0F011
:1015A000B3800DF1B304A41A0B3A24F00304934260
:1015B00038BF00241EAB1C441CA8241AA31011938E
:1015C000199B012B03EBA40402DC17F0010501D0E9
:1015D00001340025179E002E00F07D812D230E9FE3
:1015E00000261593A6423346B8BF23460E93159B9B
:1015F00013B10E9B01330E9317F0020312931EBF1B
:101600000E9B02330E9317F08403139300F0658151
:10161000159B43B1042315AA494658466BF0A7FC15
:10162000013000F06D81129B43B108231AAA49468C
:1016300058466BF09CFC013000F06281139B802BBC
:1016400013D10C9B0E9A9B1A002B10930DDD109B4F
:10165000254A102B00F369819B00234A49465846CE
:101660006BF085FC013000F04B81361B002E0CDD49
:10167000102E1D4A00F36481B3001B4A49465846A8
:101680006BF075FC013000F03B81F90500F16181E0
:10169000A3005246494658466BF069FC013000F001
:1016A0002F817A0700F17F820E99DDE90C238A42AF
:1016B000ACBF9B185B180D93B8F1000F56D0414694
:1016C000584642F02DF851E00624F8E64FF00008A5
:1016D00030E700BFFFFFEF7F4CA407085CA40708BA
:1016E0007CA407086CA407085CA50708099B662B67
:1016F0007FF430AF07F00103002D43EA04030EDD51
:10170000FBB101342C4465E751F8044B40F8044B1D
:1017100044E7302220AC13441E921F934CE793B150
:10172000023457E79D4205DBFC070ED56C1C67238E
:1017300009934FE7002DD4BFC5F1020401241C44D6
:10174000F5E72C4646E7012444E72C46EFE701B1D4
:1017500015962B1DF8060A9303D52B680D9A1A606F
:1017600004E07906F9D52B680D9A1A800A9D20E5C8
:101770002A4617F0100152F8043B0A9203D117F0E1
:10178000400210D09BB200220DE02A46782147F09B
:10179000020752F8043B09910A923022CDE91A213E
:1017A000A44A0F92022200211591661C00F01882B3
:1017B00027F08001002B40F01782002C00F083807E
:1017C000012A40F0148260E02B46002617F0100535
:1017D00053F804AB15960A932DD1621C14D02246FF
:1017E0002946504626466AF042FD08B1A0EB0A069B
:1017F000272E0ED9711C5846890041F0DDFF0028C4
:101800003FF4CDAD804607E050466AF0C2FE064682
:10181000EEE74FF000082AA834460023B34204D173
:101820000026824640F82360DCE61AF8032040F8E0
:1018300023200133F2E7631C11D022463146504683
:101840006BF062F8804600283FF41CAEA0EB0A085B
:101850004FEAA8084445A8BF4446B04612E65046A1
:101860006AF0C1FF0446F8E72A46FE0652F8043B38
:101870000A9202D47D0600D59BB2012293E701B102
:1018800015966D4B1FE5092B04D830330DF5A27A60
:101890005193C3E10DF5A47A0A25B3FBF5F005FBDE
:1018A000103230324AF8042D1A460346092AF4D879
:1018B000B4E103F00F020F981B0950F822204AF8F8
:1018C000042DF6D1AAE11AB9F80701D53023DDE7D6
:1018D0000DF5A47AA2E10E9F84E60C9B0E9A9B1A4A
:1018E000002B10937FF794AE109B102B11DC9B0004
:1018F000524A494658466BF03AFB01307FF488AEB5
:10190000B8F1000F3FF451AD4146584641F008FF91
:101910004BE54023494A494658466BF028FB0130C5
:10192000EED0109B103B1093DEE74023494658460B
:101930006BF01DFB0130E3D0109B103B109386E64B
:101940004023494658466BF012FB0130D8D0103E78
:101950008EE6099B652B40F2E4800022002351ECC7
:10196000180B40F023FF58B30423354A4946584624
:101970006BF0FDFA0130C3D0DDE918239A4202DB97
:10198000FB077FF58EAE042316AA494658466BF036
:10199000EEFA0130B4D0199C013C002C7FF781AEE7
:1019A000284D102C02DCA300264A73E640232A4669
:1019B000494658466BF0DBFA0130A1D0103CF0E705
:1019C000189B002B40DC04231D4A494658466BF007
:1019D000CEFA013094D0DDE91832134307F001024A
:1019E00013433FF45EAE042316AA494658466BF0F3
:1019F000BEFA013084D0189C002C0CDA6442114DE0
:101A0000102C0BDCA3000F4A494658466BF0AFFA86
:101A100001303FF475AF199B9B003AE640232A46FC
:101A2000494658466BF0A3FA01303FF469AF103CC9
:101A3000E6E700BFD0A407088CA407081CA5070888
:101A400014A507085CA50708199C44F31D04AC42C3
:101A5000A8BF2C46002C1FDC002CACBF2E1B2E4632
:101A6000002E0BDD724C102E1FDCB300704A49466D
:101A700058466BF07CFA01303FF442AFAD00DDE92F
:101A800018239A421CDA042316AA494658466BF0DA
:101A90006EFA013016D133E7A30052464946584644
:101AA0006BF065FA0130D7D12AE740232246494638
:101AB00058466BF05CFA01303FF422AF103ED2E79B
:101AC000FE07E0D4199BC5EB8304A210189C1C1BD5
:101AD0009442A8BF1446002C09DDA3000AEB0502BE
:101AE000494658466BF043FA01303FF409AF002CE9
:101AF000DDE91835A5EB0305A8BF2D1B002D7FF7E9
:101B0000D0AD4B4C102D01DCAB004DE740232246FD
:101B1000494658466BF02BFA01303FF4F1AE103DC8
:101B2000F0E7199B524649465846012B4FF00403F3
:101B300001DCFC071BD56BF01AFA01303FF4E0AE74
:101B4000042316AA494658466BF011FA01303FF4B7
:101B5000D7AE199C00220023013C51EC180B40F039
:101B600025FE68B9A3000AF10402494658466BF005
:101B7000FEF901303FF4C4AE119B1CAA9B0089E51D
:101B8000002CF9DD2A4D102C02DCA300284AECE7DA
:101B900040232A46494658466BF0E9F901303FF4A4
:101BA000AFAE103CEFE70C9B0E9A9C1A002C7FF70F
:101BB0007BAD102C09DCA3001E4A494658466BF049
:101BC000D6F901307FF470AD9AE64023194A4946B0
:101BD00058466BF0CCF901303FF492AE103CE8E788
:101BE0003946002B3FF4ECAD012A3FF44CAE022AFB
:101BF0000DF5A47A3FF45DAE03F00702DB08504612
:101C000002F130024AF8042DF6D1CD0706D5302A6C
:101C100004D030234AF8043CA0F1080A52AB26460F
:101C20000F464FF00008A3EB0A04A4104546D9E480
:101C30005CA507081CA507082DE9F04F456A044676
:101C400010EE10AA2DED048B93B057EC106BDDF85D
:101C50008080BB46069109920C9375B9102041F023
:101C600027FD0246606220B9A74BEA21A74840F051
:101C7000AFFFC0E901550560C560636A196851B1DD
:101C80005A680123204693404A608B6044F006FF67
:101C9000636A00221A603B1EADBF0023012223F0BD
:101CA000004BC8F800309A4BB8BFC8F8002033EAA0
:101CB0000B031BD142F20F730C9A1360CBF3130387
:101CC000334300F08F85219B63B9924B22E0924B06
:101CD00001930833219A1360019813B0BDEC048B73
:101CE000BDE8F08F8B4B01930333F3E70022002311
:101CF0005046594640F05AFD80464BEC19AB58B15E
:101D000001230C9A1360219B002B00F06885834807
:101D10001860431E0193DFE7CBF30A5510AA11A9FF
:101D200020464BEC10AB45F0FFF908EE100A002DF1
:101D300000F0828019EE903A5646A5F2FF35CDF8B4
:101D40003880C3F3130343F07F5747F44017002252
:101D5000734B3046394640F01BFB65A3D3E90023A3
:101D600045F0CCFF64A3D3E9002340F013FB064603
:101D70000F46284640F05AFC61A3D3E9002345F002
:101D8000BDFF02460B463046394640F003FB06468F
:101D90000F4646F0DBF9002200900023304639461A
:101DA00040F00EFD50B1009840F040FC32463B46FA
:101DB00040F0FCFC10B9009B013B0093009B162BEC
:101DC00059D8009A574B03EBC20351EC190BD3E9D6
:101DD000002340F0F5FC00284FD0009B013B00930E
:101DE00000230B93109B5D1B6B1E059349BFC5F130
:101DF000010300230493002354BF04930593009B25
:101E0000002B3CDB059B009A13440A9205930023A8
:101E10000793069B092B00F28980052BC5BF043B65
:101E2000002501250693069B023B032B00F28980C7
:101E3000DFE803F02E3B395ADDE910531D4405F26B
:101E40003243202BC6BFC3F1400305F21240C3F159
:101E5000200305F1FF35C5BF0BFA03F326FA00F0A6
:101E600006FA03F0184340F0D1FB01230646A1F126
:101E7000F8770E936BE70123B3E70B90B2E7049B6F
:101E8000009A9B1A04935342079300230A93C0E7D6
:101E900000230893099B002B56DC01231A46CDE949
:101EA000023309920CE00123F3E70023099A089317
:101EB000009B134402930133012B0393B8BF01230A
:101EC0000022606A4260042202F1140641689E42C8
:101ED0003ED9204644F0A2FD019000283CD1124B8F
:101EE00002464FF4D571C1E60123DFE7AFF300806E
:101EF00061436F63A787D23FB3C8608B288AC63F10
:101F0000FB799F501344D33FF4940708A9A5070811
:101F10000000F07FA5A507089CA50708C9A307082E
:101F20000000F83FF0A20708A0A107080125002340
:101F3000089506934FF0FF330022CDE902331223B8
:101F4000AFE701230893F5E7099BCDE90233B7E733
:101F5000013152004160B7E7636A019A1A60039B3E
:101F60000E2B00F29D80002D00F09A80009B002B2C
:101F700032DD03F00F03B64A02EBC303D3E9008955
:101F8000009BD8054FEA231716D5B24B07F00F0771
:101F90000325D3E9082351EC190B45F0D9FF8246FC
:101FA0008B46AC4E57B942464B465046594645F0D3
:101FB000CFFF82468B4628E00225F2E7F90708D5D5
:101FC000404649460135D6E9002345F097FE804654
:101FD00089467F100836E5E700F09B80009B0225CC
:101FE0009C4F5E429A4B06F00F02361103EBC20380
:101FF00051EC190BD3E9002345F080FE0023824603
:102000008B46002E7AD1002BD3D10B9B002B00F0F6
:1020100082800022904B5046594640F0D1FB002868
:1020200079D0039B002B76D0029B002B36DD009BE2
:102030005046594600225F1E884B45F05FFE013531
:1020400082468B46029E2846D04640F0EFFA524622
:102050005B46D94645F052FE0022814B40F09AF98A
:102060008246A1F1507B002E58D100227D4B404684
:10207000494640F08DF952465B468046894640F01D
:10208000BDFB002840F0938252460BF100434046CE
:10209000494640F095FB002840F087825BEC19AB85
:1020A000119B002BC0F24881009A0E2A00F3448154
:1020B000674B03EBC203D3E90089099B002B80F235
:1020C000D580039B002B00F3D18040F06D8200226D
:1020D000644B4046494645F011FE52465B4640F08F
:1020E00083FB039E3746002840F043823123019D45
:1020F00005F8013B009B013300933EE2F20705D552
:102100000135D7E9002345F0F9FD012376100837A2
:1021100077E7022579E7009F039E94E701994C4BEE
:10212000314403EBC6030D91089953E902230029BA
:1021300043D000204C4945F00BFF52465B4640F02F
:1021400027F9019D82468B464946404645F0FEFFF1
:10215000064640F06BFA024630360B46404649468A
:1021600040F016F952465B4605F8016B80468946F9
:1021700040F026FB002863D142464B4600203649FA
:1021800040F006F952465B4640F01AFB002840F04A
:10219000B5800D9B9D4281D00022304B5046594660
:1021A00045F0ACFD002282468B46404649462B4B0B
:1021B00045F0A4FD80468946C6E75046594645F09D
:1021C0009DFD0D9B82468B46019D0F9349464046DF
:1021D00045F0BCFF064640F029FA02460B46404651
:1021E0004946303640F0D4F80D9B05F8016B804627
:1021F0009D4289464FF0000224D11B4B5046594660
:1022000040F0C8F802460B464046494640F0F6FA10
:10221000002873D152465B460020134940F0B8F8BD
:1022200002460B464046494640F0CAFA00283FF4B1
:1022300035AF0F9D6B1E0F9315F8013C302BF8D076
:10224000009749E0054B45F059FD80468946BDE7BA
:10225000F0A20708C8A207080000F03F00002440D1
:1022600000001C40000014400000E03F56465F465E
:10227000019D42464B463046394645F069FE45F0E1
:1022800065FF824640F0D2F942464B4645F036FDA6
:10229000024630460AF130060B46394640F078F8DF
:1022A00005F8016B019E0246039F0B46AE1BB74229
:1022B00035D140F06FF842464B4606460F4640F097
:1022C0009DFAD0B942464B463046394640F06EFA48
:1022D00010B11AF0010F10D1204618EE101A44F078
:1022E000DDFB002300982B7001300C9B1860219BB4
:1022F000002B3FF4F1AC1D60EEE4009F2B461D4621
:1023000013F8012D392A06D1019A9A42F7D13022C9
:10231000019901370A701A7801321A7090E7002289
:10232000A44B45F0EBFC0022002306460F4640F08C
:102330003DFA00289DD0CFE7089A002A00F0D5800A
:10234000069A012A00F3B9800E9A002A00F0B180A3
:1023500003F23343079E049D049A012120461A4448
:102360000492059A1A44059244F04CFC0746002D4D
:102370000CDD059B002B09DDAB42049AA8BF2B4660
:10238000D21AED1A0492059AD31A0593079B1BB330
:10239000089B002B00F0AD80002E13DD394632463D
:1023A000204644F0EDFC18EE102A01460746204670
:1023B00044F03EFC804618EE101A204608EE108AC3
:1023C00044F06CFB079B9A1B06D018EE101A2046AF
:1023D00044F0D6FC08EE100A0121204644F012FC1D
:1023E0000A9B0646002B40F386801A46014620468B
:1023F00044F0C6FC069B0646012B7FDD4FF000082B
:10240000336906EB830318696AF0A9FCC0F1200068
:10241000059B184410F01F0000F09180C0F12003CC
:10242000042B40F38980C0F11C00049B0544034445
:102430000493059B03440593049B002B07DD18EED2
:10244000101A1A46204644F0F5FC08EE100A059BC7
:10245000002B05DD31461A46204644F0EBFC0646CB
:102460000B9B002B6DD0314618EE100A6AF0C6FCAB
:10247000002866DA009B18EE101A0A222046013B5B
:102480000093002344F02CFB089B08EE100A002B5D
:1024900000F0AF81002339460A22204644F020FB99
:1024A000029B0746002B00F38D80069B022B50DC1D
:1024B00088E0109BC3F136034CE7039B5E1E079B2D
:1024C000B342B7BF079B9E1B0796F21ABFBF0A9B7A
:1024D00000269B180A93039B002BB7BFDDE903235B
:1024E000DDE903359D1A002336E7079E049D089F0A
:1024F0003DE7079A69E7069B012B18DCBAF1000F4C
:1025000015D1CBF3130393B92BF000431B0D1B051F
:1025100083B1049B4FF0010801330493059B013301
:1025200005930A9B002B7FF46BAF012070E74FF0FF
:102530000008F6E79846F4E73FF47EAF18461C30F3
:1025400073E7039B002B37DC069B022B34DD039BD8
:102550000293029B6BB931460522204644F0C0FA33
:102560000146064618EE100A6AF048FC00283FF7BC
:10257000BDAD099B019DDB4300934FF00008314640
:10258000204644F08BFA002F3FF4A6AEB8F1000FBE
:1025900005D0B84503D04146204644F07FFA39467D
:1025A000204644F07BFA97E600263746E1E700979D
:1025B00037469BE500002440089B002B00F0CA80B2
:1025C000039B0293002D05DD39462A46204644F040
:1025D00031FC0746B8F1000F5BD07968204644F023
:1025E0001DFA054628B9874B024640F2EA21FFF75B
:1025F0003DBB3A6907F10C010C300232920069F0E0
:1026000054FE01222946204644F014FC019BB846A2
:10261000074603F10109DDE90123134405930AF09C
:1026200001030493314618EE100A6AF036FE414663
:10263000029000F1300A18EE100A09F1FF3B6AF02F
:10264000DDFB3A4603903146204644F063FCC26805
:10265000054602BB014618EE100A6AF0CFFB02469F
:1026600029462046079244F019FA4D46DDE9063224
:1026700043EA0201049B0B430FD1BAF1390F2AD070
:10268000039B002B02DD029B03F1310A8BF800A0B3
:1026900075E73846BAE70122E2E7039B002B04DB2B
:1026A00006990B4304990B4322D1002AEEDD18EE64
:1026B000101A0122204644F0BDFB314608EE100AF4
:1026C0006AF09CFB002803DCE0D11AF0010FDDD09A
:1026D000BAF1390FD7D139238BF800302B461D467C
:1026E000013B15F8012C392A70D001321A7046E7E7
:1026F000002A07DDBAF1390FEDD00AF101038BF89A
:1027000000303CE7059B09F801AC994546D018EE2E
:10271000101A00230A22204644F0E2F9B84508EED8
:10272000100A4FF000034FF00A024146204606D13E
:1027300044F0D6F98046074609F1010972E744F0F2
:10274000CFF93946804600230A22204644F0C8F9D2
:102750000746F1E7039B0293019D314618EE100AEC
:102760006AF09BFD019B00F1300A05F801ABEA1A03
:10277000029B934209DD18EE101A00230A2220461C
:1027800044F0AEF908EE100AE7E7029B4FF00008AC
:10279000002BCCBF1D460125019B1D4418EE101ACD
:1027A0000122204644F046FB314608EE100A6AF04A
:1027B00025FB002892DC02D11AF0010F8ED12B46A6
:1027C0001D4613F8012D302AFAD0D8E6019A9A4214
:1027D00085D1009B0133009331231370CFE60A4B60
:1027E000FFF798BA219B002B7FF471AA074BFFF7E4
:1027F00091BA029B002BAFDC069B022B3FF7A9AEE0
:10280000AAE700BFA0A10708C8A307089CA507085E
:10281000B0EE401AF0EE601A9FED010B00F004B824
:102820000000000000000040F8B52DED028B57ECD1
:10283000106B55EC114B00F0CBF8634BB0EE408AB7
:10284000F0EE608A93F9003001332AD022462B46FD
:102850002046294645F064FC18BB32463B463046CC
:10286000394645F05DFC002844D100220023304663
:1028700039463FF09BFFD8B100220023204629466D
:102880003FF094FF00283DD145EC104B45F0A8FDEA
:1028900038B120462946002200233FF091FF00284E
:1028A0005CD1B0EE480AF0EE680ABDEC028BF8BDD0
:1028B000B0EE480AF0EE680A45F092FD58B30022E7
:1028C000002351EC180B3FF071FF0028E9D047ECD2
:1028D000106B45F085FD0028E3D045EC104B45F02A
:1028E0007FFD0028DDD040F0F1F922239FED2E8BF3
:1028F0000360D6E720462946002200233FF056FF1A
:102900000028CED09FED2A8BB0EE480AF0EE680A80
:10291000BDEC028BF8BD47EC106B45F061FD002863
:10292000CDD045EC104B45F05BFD0028C7D018EE2C
:10293000100A53EC182B194645F0F2FB20BB40F06F
:10294000C5F922220346394630461A600022002388
:102950003FF036FF48B99FED188BA2E740F0B6F97B
:1029600021239FED178B03609BE745EC104B45F04F
:1029700045FD22462B4651EC100B3FF017FF002877
:10298000E9D19FED0F8B8CE740F0A0F900220023E6
:10299000212101601046194645F0DAFA41EC180B86
:1029A0007FE700BFAFF300800000000000000000E0
:1029B000000000000000F03F000000000000F07F79
:1029C000000000000000F0FFE816002000000000FA
:1029D0002DE9F04F55EC114B25F0004A5AEA04025C
:1029E0002DED0C8B87B01FD05D4910EE102A57ECEF
:1029F000106B27F00048B946884511DCAB4611EE54
:102A0000103A08D13EB1574807B0BDEC0C8BBDE879
:102A1000F04FFEF78DBB52498A4501DC0BD153B113
:102A2000514B43441343EED19FED490B07B0BDEC2E
:102A30000C8BBDE8F08FB9F1000F45DB0021009150
:102A400083B9474B9A455BD0484B9A456AD0BBF156
:102A5000804F00F0B084464B9B4503D1B9F1000F85
:102A600080F20D85029247EC106B45F0AFFC029AA4
:102A70004AB929F040433D4A934200F0A883B8F197
:102A8000000F00F0A4834FEAD973009A013B04932E
:102A900013434ED0374B9A4572DD03F104739A45C8
:102AA000354B40F32B84984540F3A983BBF1000FCD
:102AB00040F3A98328A3D3E900231046194645F023
:102AC0001DF941EC100BB1E72C498A4527DCA1F137
:102AD00054718A45B2DD4FEA2A51A1F2FF3114291F
:102AE00040F37D84C1F1340123FA01F000FA01F1D1
:102AF0009942A3D100F00100C0F1020100919FE7CB
:102B0000194B434413438FD01B4B984540F3AB8381
:102B1000BBF1000FC0F2778345EC104B86E7022132
:102B200000918DE7BBF1000FC0F24F8447EC106BB2
:102B30007CE732463B46104619463FF029FC0246E8
:102B40000B4645F005FA41EC100B6FE7AFF3008040
:102B5000000000000000F03F9C7500883CE4377ED8
:102B60000000F07F28A60708000010C00000F03F1A
:102B70000000E03F0000E041FFFFEF3FFFFF3F4369
:102B8000E34B002209EA030353B9E24B51EC100B6B
:102B900045F0B4F86FF0340241EC100B10EE908A5F
:102BA0004FEA2853C8F31308DB4EA3F2FF3348EA79
:102BB00006069A18D94B9845059207DDD84B9845DB
:102BC00040F333840132A6F58016059200279FED6D
:102BD000B87B9FEDB96BB0EE47DAF0EE67DAB0EE96
:102BE00047CAF0EE67CA51EC160B53EC102B334674
:102BF000761043EC192B41EC1A0B02460B4646F0BB
:102C0000005651EC190B3FF0C3FB8046894653EC4C
:102C10001A2B51EC190B3FF0BDFB02460B4600206E
:102C2000BD4945F095F941EC1B0B53EC1B2B40467D
:102C3000494645F063F80A4606F5002341EC180BB7
:102C400001460020CDE9021200210646024602910B
:102C5000D919DDE902AB0F460B465046594645F0FF
:102C60004DF802460B46404649463FF091FB8046F0
:102C700089463046394653EC1A2B3FF089FB024611
:102C80000B4651EC190B3FF083FB52465B4645F077
:102C900035F802460B46404649463FF079FB53EC77
:102CA0001B2B45F02BF853EC182B41EC1A0B51EC75
:102CB000180B45F023F806460F4681A3D3E90023FD
:102CC00045F01CF880A3D3E900233FF063FB3246B4
:102CD0003B4645F013F87EA3D3E900233FF05AFBAF
:102CE00032463B4645F00AF87BA3D3E900233FF088
:102CF00051FB32463B4645F001F879A3D3E9002366
:102D00003FF048FB32463B4644F0F8FF76A3D3E958
:102D100000233FF03FFB8046894632463B46304623
:102D2000394644F0EBFF02460B46404649464FF019
:102D3000000844F0E3FF524606460F465B4651EC5E
:102D4000180B3FF027FB53EC1A2B44F0D7FF324609
:102D50003B463FF01FFB52465B4641EC190B504689
:102D6000594644F0CBFF00226E4B06460F463FF01B
:102D700011FB53EC192B3FF00DFB894642465046A0
:102D80004B46594644F0BAFF002282468B46654BBB
:102D9000404649463FF0FCFA32463B463FF0F8FADF
:102DA00002460B4651EC190B3FF0F2FA53EC182B8C
:102DB00044F0A4FF06460F4642464B4651EC1A0B20
:102DC00044F09CFF02460B46304639463FF0E2FA9B
:102DD000804689465046424659464B463FF0DAFA0D
:102DE00000200F46064642A3D3E9002344F086FFA5
:102DF00052465B4641EC190B304639463FF0C8FA63
:102E000002460B46404649463FF0C2FA3AA3D3E990
:102E1000002344F073FF804689463046394638A384
:102E2000D3E9002344F06AFF02460B464046494678
:102E30003FF0B0FA53EC1C2B3FF0ACFA06460F46BD
:102E400005983FF0F3FB3246804689463B4651ECFD
:102E5000190B3FF09FFA53EC1D2B3FF09BFA4246B3
:102E60004B463FF097FA002042464B4682468B463F
:102E70003FF08EFA53EC1D2B3FF08AFA53EC192BDE
:102E80003FF086FA02460B46304639463FF080FA5C
:102E9000009B049A013B134341EC180B40F0DC818A
:102EA0009FED197BB0EE479AF0EE679A3CE000BFC9
:102EB0000000000000000000000000000000F03FE3
:102EC000EF4E454A287ECA3F65DBC9934A86CD3F0F
:102ED00001411DA96074D13F4D268F515555D53FF5
:102EE000FFAB6FDBB66DDB3F033333333333E33F8D
:102EF000000000E009C7EE3FFD033ADC09C7EE3FE2
:102F0000F5015B14E02F3EBE000000000000F0BFA2
:102F10000000F07F000040430000F03F8E98030067
:102F200079B60B0000000840002320462946CDE971
:102F300000450093DDE9008942464B463FF028FA00
:102F40005B46524644F0DAFE06460F4622462B46C2
:102F500051EC180B44F0D2FE02460B46304639467F
:102F60003FF018FA424604460D464B465946504635
:102F7000A04644F0C3FE06460F4620462946324688
:102F80003B46A9463FF006FAD54B04460D4699420A
:102F90008B4640F33B81D34B0B44034340F03582D7
:102FA00040464946B6A3D3E900233FF0F3F9324641
:102FB0003B4641EC180B204629463FF0E9F9024612
:102FC0000B4651EC180B3FF019FC002840F01D8215
:102FD000CBF30A534FF48012A3F2FE33C24CBBF181
:102FE000000F42FA03F34FF000005B44C3F30A52B0
:102FF000C3F3130AA2F2FF324AF4801A44FA02F42D
:10300000C2F1140223EA04014AFA02FA02463046E7
:103010000B46B8BFCAF1000A39463FF0B9F902467B
:103020000B4606460F46404649464FEA0A5B3FF0CC
:10303000B1F90D460024294693A3D3E90023204685
:1030400044F05CFE32463B4606460F462046294683
:103050003FF09EF902460B46404649463FF098F93C
:103060008BA3D3E9002344F049FE804689462046DD
:10307000294689A3D3E9002344F040FE02460B46CB
:10308000404649463FF086F98046894630464246EA
:1030900039464B463FF07EF9324604460D463B46E4
:1030A0003FF076F902460B46404649463FF070F93C
:1030B0002246804689462B462046294644F01EFE7D
:1030C00006460F4676A3D3E9002344F017FE76A305
:1030D000D3E900233FF05CF932463B4644F00EFE54
:1030E00073A3D3E900233FF055F932463B4644F041
:1030F00005FE71A3D3E900233FF04AF932463B466F
:1031000044F0FCFD6EA3D3E900233FF043F93246BF
:103110003B4644F0F3FD02460B46204629463FF06D
:1031200037F906460F462046324629463B4644F0CC
:10313000E5FD00224FF0804341EC180B3046394644
:103140003FF026F902460B4651EC180B44F000FF05
:10315000424606460F464B462046294644F0CEFDE1
:1031600042464B463FF016F902460B46304639467A
:103170003FF00EF922462B463FF00AF902460B4675
:1031800000205A493FF004F98B4402460B46BBF538
:10319000801FC0F26C81594653EC192B44F0AEFDF0
:1031A00041EC100B42E447EC106B009245F00EF935
:1031B000009A002A7FF4BDAC29F040434B4A934269
:1031C00003D0B8F1000F7FF4B4AC00230093BBF13F
:1031D000000F07DA0020454953EC102B44F0B8FEED
:1031E00041EC100BB9F1000FBFF620AC404B009A38
:1031F0004344134340F02D8153EC102B9BE4BBF16F
:10320000000FFFF657AC9FED300B0FE421F00043A9
:10321000DFF8E4C0634540F3F080364B0B440343D2
:103220000AD132463B463FF0B3F842464B463FF0A8
:10323000DBFA00283FF4CCAE25A3D3E9002351EC00
:10324000190B44F05BFD22A3D3E9002344F056FDA3
:1032500041EC100BFFF7EABB9FED1F7BB0EE479AE6
:10326000F0EE679A60E6BBF1000FCCDA05F100439F
:1032700000EE104A00EE903AFFF7D8BBAFF30080A3
:10328000FE822B654715973C00000000432EE63F69
:10329000EF39FAFE422EE63F396CA80C615C20BE85
:1032A000D0A4BE726937663EF16BD2C541BDBB3E4C
:1032B0002CDE25AF6A56113F93BDBE166CC1663F2A
:1032C0003E5555555555C53F000000000000000013
:1032D00059F3F8C21F6EA501000000000000F03F86
:1032E000FFFF8F40000070BFFFFF0F000000F03FA6
:1032F000000010C000346F3FFFCB90409845FFF6B0
:103300007EAF794B98453FF7D1AB0022764B51EC1D
:10331000100B3FF03DF806460F4663A3D3E90023A8
:1033200044F0ECFC82468B463046394660A3D3E934
:10333000002344F0E3FC00226C4B41EC180B3046B8
:10334000394644F0DBFC02460B465BA1D1E90001A3
:103350003FF01EF832463B4644F0D0FC02460B4696
:10336000002063493FF014F88046894632463B46C8
:103370003046394644F0C2FC02460B4640464946B8
:1033800044F0BCFC4EA3D3E9002344F0B7FC024652
:103390000B4651EC180B3EF0FBFF06460F4650461D
:1033A000594632463B463EF0F5FF002052465B460A
:1033B00082468B4664E532463B463046394644F009
:1033C0009DFC41EC100BFFF731BB00204649324613
:1033D0003B4644F0BDFD41EC100BFFF727BB002B33
:1033E0007FF4E1AEC1F114014AFA01F000FA01F1F3
:1033F00051454DD00093FFF727BB3D4A93424EDC29
:10340000DDE900239346924614E62FA3D3E9002377
:1034100051EC190B44F072FC2BA3D3E9002344F0C8
:103420006DFC41EC100BFFF701BB9FED297B4FF4C6
:103430008027B0EE47DAF0EE67DA9FED277BB0EE3B
:1034400047CAF0EE67CA9FED267B51EC170BFFF7DA
:10345000CCBB009B012B7FF4E9AA10EE901A10EE72
:10346000102A01F1004343EC102BFFF7DFBA50465E
:1034700043EC102B00F040F851EC100B8CE647ECBD
:10348000106B07B0BDEC0C8BBDE8F04F44F0DCBE18
:1034900000F00100C0F102030093FFF7D5BA1B153D
:1034A00098E500BFAFF30080000000604715F73FCC
:1034B00044DF5DF80BAE543E555555555555D53F37
:1034C000FE822B654715F73F9C7500883CE4377EEC
:1034D0000000004003B8E23F06D0CF43EBFD4C3E76
:1034E000000000000000F83F0000F03F0000D03F67
:1034F0000000E03F0000000038B553EC102BC3F390
:103500000A519C46044689BB23F0004C10EE101A69
:103510005CEA010129D03E4D194600223D4B10EED8
:10352000100A44F0EBFBAC4202460B4616DB8C461D
:10353000C1F30A513639214440F2FE70814221DC48
:10354000002947DC11F1350F34DA4CF250318C424E
:1035500018DC002B26A1D1E9000143DB24A3D3E929
:10356000002344F0CBFB41EC100B38BD40F2FF7E52
:103570007145E0D110EE100A19463EF00BFF41EC08
:10358000100B38BD002B1CA1D1E9000107DB1AA3E9
:10359000D3E9002344F0B2FB41EC100B38BD18A175
:1035A000D1E9000114A3D3E9002344F0A7FB41ECC7
:1035B000100BF3E7184836311446184B0CEA00009C
:1035C000002240EA01552046294644F097FB41EC91
:1035D000100B38BD10480CEA000040EA015343ECE0
:1035E000102B38BD08A1D1E90001B7E7AFF3008087
:1035F00059F3F8C21F6EA5019C7500883CE4377E24
:103600009C7500883CE437FE59F3F8C21F6EA58113
:10361000B03CFFFF00005043FFFF0F800000903CD4
:1036200010B5054C237833B9044B13B1044800E0BE
:1036300000BF0123237010BDB85700200000000018
:1036400040A6070808B5034B1BB10349034800E037
:1036500000BF08BD00000000BC57002040A60708BE
:10366000A3F5803A704700BF174B002B08BF134BE0
:103670009D46FFF7F5FF00218B460F461348144A7D
:10368000121A68F039FE0E4B002B00D098470D4BF4
:10369000002B00D098470020002104000D000D48A9
:1036A000002802D00C4800E000BF3FF021FF2000BE
:1036B000290000F065FA3FF00FFB00BF0000080092
:1036C000000000000000000000120020A81F0020E1
:1036D000288D00200000000000000000022208B534
:1036E000134B5A6101F0E4FB124B1A7812B9012214
:1036F0001A7005E05A784AB99A783AB901225A7094
:103700000022DA7002220A4B9A6108BD5A780AB187
:103710009A784AB15A78002AF2D09A78002AEFD0E3
:1037200000225A709A70E3E701229A70E8E700BF1E
:103730000060065017840020014B1868704700BFD6
:10374000D457002008B54EF04FFD054B186028B93E
:103750006121044B044A05483FF03AFA08BD00BF16
:10376000D4570020F0D30608FAD3060817D4060869
:10377000014B186816F0D0BAD457002010B50D4C84
:1037800000F0D8F800F0FAF8012120684EF037FD7B
:1037900028B17121084B094A09483FF019FA012163
:1037A00020684FF037F918B17221064B034AF3E74E
:1037B00010BD00BFD457002027D4060859D40608EE
:1037C00017D4060869D4060830B5364C89B020688D
:1037D0004EF0D7FF2068344C0AF0C8FC44F0AAFE33
:1037E000E37863BB0123E37023788BB92F4827F07C
:1037F00051FD207121792E484EF06AF801F058FBF6
:103800001421002001F048FB02222A4B9A6116E0A5
:10381000637873B9A37863B9244827F073FD2071E6
:10382000217925484EF054F801F042FB41F28831ED
:10383000E7E763780BB1A3781BB1637843B909B0AC
:1038400030BD1A4827F07CFD207121791B48E9E73B
:10385000A378002BF3D003AB04AA0DF10A0113489F
:1038600027F090FD20712379BDF80A1014480093C9
:10387000DDE903324EF02CF80C4806AB05AA07A987
:103880005BF0FDFFDDE9063205990E484EF020F8A9
:10389000064827F01BFD207101F00AFB42F210716F
:1038A000AFE700BFD457002017840020D85700206E
:1038B0009ED4060800500650ADD40608BBD40608B6
:1038C000C6D4060803D5060810B50E4C86B02046AF
:1038D00030F050FE20460C4A0C495DF08BFB0C4B3F
:1038E0000C4A04930C4B0D4903930D4B0D48029366
:1038F0000D4B01930D4B00930D4B5BF0A1FF06B0F8
:1039000010BD00BF1684002058120020DD470308B8
:1039100077A70408EFF70508CDB0020819F80508E5
:103920001FF70508D8570020E7F60508A3F7050894
:10393000F9B0020810B50F484DF0CAFFFFF7FCFEC2
:103940004FF4FA614EF040FD044638B9FFF7F4FE3B
:103950004FF000014EF063FF044648B120464EF0A0
:1039600041FC2146BDE81040024603484DF0B0BF7F
:1039700010BD00BF40D506085AD5060870B5A4B0E2
:103980007822002106A868F0B7FC224B224A1C933B
:103990006B461068516802AC03C36B46224603CBEA
:1039A0001E4BCDF85900CDF85D1003F110062546E9
:1039B00018685968083303C5B3422C46F7D10FCABB
:1039C0000EAC84E80F00BDF88C30154843F4CA7380
:1039D00043F00103ADF88C3068F0DBFD104902467E
:1039E00012A868F062FC9DF88C3043F008038DF853
:1039F0008C30FFF7A1FE06A94EF071FB044630B1F2
:103A00004EF0F0FB2146024606484DF061FF24B01F
:103A100070BD00BFADDE0F00A8D50608B1D5060801
:103A2000CA1600207FD506084FF40072014B5A6277
:103A3000704700BF006000591FB50C214FF4F060C3
:103A400002F04EF801213D2001F0A8FC01213C20AC
:103A500001F0A4FC0C4A01AB07CA83E8070040F25E
:103A600001121846ADF80C2001F0C0F90222074BF4
:103A70009A614FF40032064B1A60012001F0EAF916
:103A800005B05DF804FB00BFD8D50608005006500D
:103A900000E100E0F0B5354E93B008AD0FCE0FC594
:103AA0000FCE0FC596E8030001260024032785E802
:103AB000030031463B20CDE90344CDE9054407949A
:103AC0008DF80E708DF808608DF809408DF80A4069
:103AD0008DF80B4001F062FC20464FF42C524FF45D
:103AE000285144F0FFFF90222146204644F0FFFF7A
:103AF00031462A2001F052FC4FF496631C4D0B9383
:103B00009DF81930224600932846234619498DF81E
:103B100023408DF8214002F04FFE10230A9008AA9E
:103B2000284605A98DF809308DF810708DF80E70B3
:103B30008DF813608DF8086002F064FE02AA03A9F4
:103B4000284644F081FF0C4A05F500535A62702163
:103B50004FF40032AB6A43F40073AB62074BC3F817
:103B6000842183F819135A6013B0F0BDE4D5060818
:103B70000040005940420F008F330F8000E100E009
:103B800008B546F03FFE44F0D6FCFFF755FFFFF7BF
:103B900081FF5BF052FD5BF066FD27F05DFA10EEF1
:103BA000100A3EF055FD02460B460D484DF090FEC2
:103BB0005BF032FE142008F017FC27F071FA4FF486
:103BC000FA7008F011FC00205BF0D0FDFFF7D6FD85
:103BD00046F025FEFFF7F8FD07F080FFF8E700BF8D
:103BE000C2D5060810B5054C204630F0C3FC20466F
:103BF000BDE81040024A03495DF0FCB91C84002076
:103C000058120020DD47030810B5274C01F00AFECA
:103C100001F044FF236F23F0070343F003032367FE
:103C200044F069FE214B00209B6ADB015EBF4FF42C
:103C300080321F4B9A62D4F8203123F0070343F0FF
:103C40000203C4F82031D4F8283123F0070343F0ED
:103C50000203C4F82831D4F8403123F0030343F0C1
:103C60000103C4F84031D4F8603123F0030343F07A
:103C70000103C4F86031D4F8403223F0030343F069
:103C80000103C4F84032D4F8003223F0070343F0B4
:103C90000103C4F80032D4F8083223F0070343F0DC
:103CA0000103C4F8083210BD008000500040005AE3
:103CB0000060005A08B501213A2001F06FFB04486A
:103CC00000F030F9BDE80840024800F02BB900BF11
:103CD0005C1200207012002018B1034B1860002005
:103CE00070472520704700BF8058002010B5054C54
:103CF0000549206800F0A6FE2068BDE81040FFF7E7
:103D0000EBBF00BFA81200208412002008B500F00D
:103D10002DF8124B12498B4212D30020114B12493D
:103D20008B4218D3FFF7A0FC186850F8224058685F
:103D300040F82240013298688242F5D30C33EAE71A
:103D40000022F8E71C6844F8220001325C68A242B5
:103D5000F8D30833E4E70022F8E700BF48A60708D5
:103D600054A6070854A6070854A607084FF4804134
:103D70004FF0FF30114B124A10B59A60D3F88820EB
:103D800042F47002C3F888200E4A91660E4901F58C
:103D9000005210660D4850660220C3F8D000BFF3F1
:103DA0004F8FBFF36F8F01244FF440330848C0F8A2
:103DB0008041D36004600B6110BD00BF00ED00E0E6
:103DC000000000080090005000800044F7FF37001A
:103DD00000E100E0014B1868704700BFB0130020FD
:103DE000084B1B6F03F00703022B04D0032B05D0F5
:103DF000012B05D0FEE7044B18687047034BFBE727
:103E00000348704700800050B0130020B413002016
:103E1000002D310108B5FFF7E3FF054B1B6FC3F31E
:103E200003330133B0FBF3F0024B186008BD00BF51
:103E300000800050AC1300200048704700B4C40458
:103E4000014B1868704700BFB4130020054B186081
:103E5000054B1B6F03F00703032B01D1FFF7DABFFC
:103E6000704700BFB4130020008000500048704726
:103E7000002D31014FF0B4439868C0F304400C2882
:103E800022D8DFE800F0092121212121071719217B
:103E90001B1D1F000F4870479B6803F04073B3F170
:103EA000807F13D0B3F1007F12D00B4A002B08BFE4
:103EB00010467047094870470948704709487047DD
:103EC0000948704709487047002070470848704704
:103ED00008487047405DC60000093D000024F4001A
:103EE000C0EA210180BA8C010048E801005A620250
:103EF00080841E0040420F00014B1868704700BFCD
:103F0000B813002005490A681318054883428CBF7E
:103F10004FF0FF320B601046704700BFBC1300200B
:103F2000000004202DE9FF4103680446B3F1B64FB9
:103F300004D0354A934251D12F2000E02E20012198
:103F400001F02CFA01230A226179207902F0FAF9B2
:103F500001230A22E179A07902F0F4F90927012668
:103F60002A4D4FF030082279637908FB025206FA95
:103F700003F302F501521360642008F00DFC23796D
:103F8000627908FB035306FA02F203F582536420B8
:103F90001A6008F001FC013FE3D12068B0F1B64F90
:103FA0001FD10323C5F8E8346279237943EA024339
:103FB000C5F8EC34E279A37943EA0243C5F8F0345A
:103FC00040F20113ADF80030E36869460293A3683C
:103FD0000193237C8DF80C3002F030FA04B0BDE878
:103FE000F081094B9842EBD10323C5F8F83462798C
:103FF000237943EA0243C5F8FC34E279A37943EA22
:104000000243C5F80035DBE70080065000C00350CE
:1040100038B5054602F040FB044C012801D1013CB3
:1040200000D138BD284602F02BFAF6E7E1930400F0
:104030002DE9F04F9A46564B85B01B7806460F4641
:104040001546DDF83C909DF844B0DDF85080002B1B
:1040500000F08D80072A00F28C800E9B002B00F070
:104060008880B9F1000F00F08480129BB3F5006FD7
:104070007FDC012802D1109B002B7AD0454B03EB4B
:1040800005131B7B002B76D0434C10220021684681
:1040900068F032F904EB45141022002F59D139464B
:1040A000204668F029F943F210036380BBF1000F4A
:1040B00003D1E37843F00303E370374A0E9B02EB2E
:1040C000451CCCE90193129B6901013BC3F30A0033
:1040D0009DF84C30012E03F003034FEA836343EA5B
:1040E000001E53582D48CDF800A000EA03004EEA08
:1040F0000003535041D113230CF1100ECCF80C30B7
:104100009CE80F008EE80F006FF00301DCF81C2024
:10411000109B61F39F02012FCCF81C20CCF81430C7
:1041200003D1CCF81890CCF804300027194A2901A3
:1041300002EB051342F80180159A28465A60694639
:1041400022469F605E7302F013FD384605B0BDE85D
:10415000F08F0021204668F0CFF84FF4447363805D
:10416000BBF1000FA9D1E37843F03003A4E70C487A
:10417000ECE70C48EAE70C48E8E7B8F1000FD4D1C7
:104180009CF8023068F304138CF80230CDE700BFCE
:104190001D84002084580020045900200F80FFF364
:1041A000028000F0018000F0078000F038B5124B6B
:1041B00005461B78DBB1E0B144F0C1FB0F4A002398
:1041C0001146147B54B92B6001251A0101EB03132E
:1041D0001D738C5044F0B9FB204638BD0133082BC9
:1041E00002F11002EDD144F0B0FB0548F5E70548B7
:1041F000F3E70548F1E700BF1D8400208458002044
:10420000048000F0028000F0018000F0154B13B52F
:104210001868002301908DF8043044F090FB124B95
:104220001C7824B144F091FB104802B010BD01226B
:104230001A7044F08AFB0E4B01A81C731C7783F89C
:104240002C4083F83C4083F84C4083F85C4083F872
:104250006C4083F87C4008238DF8073002F056FC50
:104260002046E2E70CD606081D840020038000F0FB
:10427000845800200A4A08B5127852B107280AD893
:10428000084A02EB00131B7B3BB102F0BFFC00208D
:1042900008BD0548FCE70548FAE70548F8E700BF10
:1042A0001D84002084580020028000F0018000F06E
:1042B000078000F00B4A10B512780C4662B107284F
:1042C0000CD859B1084A02EB00131B7B43B102F032
:1042D000AFFC2060002010BD0448FCE70448FAE76A
:1042E0000448F8E71D84002084580020028000F074
:1042F000018000F0078000F02DE9F843174B1F6D97
:104300005B6D1F4000D5FEE701260025144CDFF849
:104310005480DFF85490374217D02368C8F85060B3
:104320009BB1A168284601316268A1609847637B10
:10433000012B0AD148B909EB45131A7B60F34102FE
:104340001A731A7F60F341021A770135082D4FEA7C
:10435000460604F11004DED1BDE8F88300000450E5
:1043600084580020002004500459002070B50446F1
:1043700001250B4E04B970BD94FAA4F0B0FA80F098
:1043800005FA00F306EB001224EA03045368002B3D
:10439000F0D0117B11B191689847EBE79847E9E7B6
:1043A000045A002008B5192001F0E8FD28B14FF0AB
:1043B0000072074BC3F880211A601A2001F0DEFD5D
:1043C00028B14FF08062024BC3F880211A6008BD0B
:1043D00000E100E0074BD3F82404D3F8202403F5D0
:1043E0000053104000F0553020F05020C3F8200456
:1043F000FFF7BCBF00C00350074BD3F82404D3F829
:10440000202403F50053104000F0AA3020F0A02033
:10441000C3F82004FFF7AABF00C00350024B19687D
:10442000024B186828F018B8C4130020C0130020ED
:1044300037B5920004460D46019268F0D1FF431C47
:104440000BD060B929462046019A67F01EFF00286C
:10445000044808BF002003B030BD0348FBE7034811
:10446000F9E700BF10E000F021E000F024E000F0E8
:1044700013B5044601A802F04DFC9DF80630012258
:1044800023804FF4807300206380054B9B680A33C0
:1044900003F01F0302FA03F3636002B010BD00BF14
:1044A0000080E00F10B5044668F092FF431C15D061
:1044B000B0B90C4B20469B680A3303F01F0201235E
:1044C000934023F003032344984201D1002010BD00
:1044D00050F8042B0132F7D00348F8E70348F6E719
:1044E0000348F4E70080E00F0EE000F021E000F068
:1044F00024E000F008B544F013FA014B186008BD41
:1045000044620020014B186844F00EBA4462002057
:1045100038B141B1013AB2F5006F044838BF00200C
:104520007047034870470148704700BF037000F0B0
:10453000027000F038B504460D4644F000FAA38836
:104540009BB223B92B6044F000FA064838BD142210
:1045500063889BB202FB034408342C6044F0F5F9F5
:104560000020F3E70B7000F0F8B5044616460F463E
:1045700044F0E5F9A388E2889BB29A42054605D843
:104580000023336044F0E1F91748F8BD1422238872
:1045900007F1100C9BB202FB03433A46083317465F
:1045A00003CF6745186059603A4603F10803F6D116
:1045B000142238681860238828469BB202FB034304
:1045C000083333602388E2889BB20133B3FBF2F1F6
:1045D00002FB11339BB22380A38801339BB2A380DB
:1045E00044F0B3F90020D0E70A7000F0104930B56C
:1045F0000B78104A2BB9C2E90033C2E90233012318
:104600000B700C4C0023214651F8045B854208D006
:104610000133042BF8D1002154F8043B1BB942F8B4
:104620002100002003E001310429F5D1024830BD0A
:104630001E840020F8620020027000F010B50446CD
:10464000FFF7E4FD002104F10800FFF7AFFD01468C
:1046500020B904F10C00FFF7A9FD00B1004810BD1E
:104660000E7000F090F8363053B9042103790A4AED
:1046700003F239135B01D150022203685A6170477B
:10468000022B07D10068816C11F0020118BF0621CE
:1046900044F09EB9704700BF00C0035090F8363018
:1046A00063B9012203685A619A69D207FCD50421D3
:1046B0000379084AB9335B01D1507047022B07D107
:1046C0000068836C9B074CBF0521092144F080B929
:1046D000704700BF00C0035010B590F83630044654
:1046E00063B9042203685A619A699207FCD5237959
:1046F0000C4AB9335B011021995010BD022BFCD13B
:104700000068836CDB074CBF0521062144F060F98B
:10471000237941F294425B0103F1A04303F5703326
:10472000E9E700BF00C0035037B50446836B44F08F
:1047300006F9A36B0546013BA363A16B79B901910F
:1047400044F0EEF804460199012007F013F9012026
:10475000064A019907F002FB204644F0E5F8284696
:1047600003B0BDE8304044F0F0B800BF34D60608CE
:1047700013B591F836200B68022A0CBF9B6C9B691D
:104780000C469B06084605D5FFF7CEFF0223E365DE
:1047900002B010BD44F005F800230146CDE9003316
:1047A000034A234604F13C0045F0C1FFF0E700BF97
:1047B0007147000870B5044644F0C1F8A36B054684
:1047C00073B944F0ADF801210646084607F0D2F867
:1047D0000121074A084607F0C1FA304644F0A4F820
:1047E000A36B28460133A363BDE8704044F0ADB825
:1047F00034D606087FB5012380F8303090F8363083
:1048000083B9036824330D4A049003920022029274
:104810004A680192012200920A684169C06843F027
:1048200082FF07E0022B02D103683C33EBE7002351
:1048300080F8303007B05DF804FB00BF5149000834
:1048400001232DE9F04180F8313090F836300446EC
:104850000E4688B063BB05683C3544F070F804F13F
:104860003C0807460DF11F01404607F029FD40B9FD
:104870009DF81F302BB1404607F0FAFC2046FFF7A9
:1048800053FF3846012744F060F82046E765FFF7FC
:1048900091FF0D4B2A46039300230293736821690D
:1048A000CDE90073A0683368049443F022FF07E069
:1048B000022B02D105684435CFE7002380F8313060
:1048C00008B0BDE8F08100BFCD480008F0B585B064
:1048D000D06A03A91446FFF72DFE0646204643F092
:1048E00060FF002501462346CDE90055164A04F134
:1048F0003C0045F01CFF154B9E421FD0039B1D61E1
:104900009D6044F01CF8039A0646D76827B1D2E9A7
:10491000002329462046B847E06A03A943F069FF0F
:10492000E06A83889BB263B103A9FFF703FE2046C8
:104930000399FFF785FF304644F007F8012005B0E2
:10494000F0BD84F83130F6E7714700080B7000F0D5
:1049500073B5906A01A91446FFF7ECFD364B9842F7
:1049600031D094F83600019B00283AD12268916C2E
:1049700011F400712AD03149986019614FF4007325
:1049800002F50052936443F0DAFF01990546CE68C0
:1049900036B14A688B682046D31A0A680969B0475D
:1049A000A06A01A943F025FFA06A83889BB2002B6F
:1049B00037D001A9FFF7BEFD20460199FFF71AFF86
:1049C000284643F0C2FF012002B070BD906CC505BF
:1049D00023D51B489960186102F500524FF480738B
:1049E000D0E7022819D12268D16C11F4007109D0E6
:1049F000124902F500521961002199604FF40073C9
:104A0000D364C0E7D06CC00507D50D489960186124
:104A100002F500524FF48073F2E700221A619A60A7
:104A2000B1E784F8303094F83530032BC8D02046F5
:104A3000FFF718FEC4E700BF0B7000F00D7000F028
:104A40000C7000F02DE9F0410446524F88B001AEE1
:104A50000D460FCF0FC697E8070086E80700002C29
:104A600000F0968025B94C4E304608B0BDE8F08184
:104A700060220021204667F03FFC2046FFF7B6FD8C
:104A800006460028F0D1012184F835002B6884F80F
:104A9000360023602A7BE1652271404A9342E2D1CD
:104AA000292363624FF4802305273D48C4E90403AA
:104AB000D5E90723A26216805680968084F830607C
:104AC000E3621E805E809E806B6884F83160039391
:104AD000EB8984F83360ADF814302B8A3A20ADF8B6
:104AE0001230AB7C8DF811708DF81030EB7C8DF8A6
:104AF000163000F053FC606A012100F04FFC28687A
:104B000001A98DF8046002F0ADF91420297B254B32
:104B100001F13902BA4098502E7AA87A03EB41137A
:104B200046EA0042C3F83827697AEA7A41EA024C39
:104B3000C3F830C7217784F82020E676E0776B7DD4
:104B400020466377AB7D84F82130EB7DA3772B7E05
:104B500084F8223043F03CFE43F0F1FE4FF0FF3288
:104B60008046286800F500539A642B7D032B0CBF08
:104B70003946042144F019F84FF440622B6820466E
:104B80005A61FFF75BFD0646404643F0DEFE6BE7E9
:104B9000054E69E73CD60608037000F000C00550DA
:104BA0000200040000C00350027000F02DE9F34140
:104BB0000D46044600287FD043F0C1FE012D064675
:104BC00041D1E36A9B889BB2002B43D0A068FFF7DA
:104BD00051FB0023E06A84F8313083889BB273B1C3
:104BE00001A9FFF7A7FC0199A0680831FFF762FB54
:104BF000374F019B1F61E06A83889BB283BB2046CD
:104C000043F01AFE8304FAD5023D012D10D8E06866
:104C1000FFF730FB0023A06A84F8303083889BB212
:104C20006BBB94F83530032B02D02046FFF71AFDFA
:104C3000A36B002B02DD2046FFF776FD304643F0E4
:104C400084FE002009E0022D38D1A36A9B889BB224
:104C5000002BDCD143F079FE1E4802B0BDE8F081A4
:104C600001A943F0C6FD019BD3F80C80B8F1000FF9
:104C7000C1D00022394620469B68C047BBE7694641
:104C8000FFF758FC0099E0680831FFF713FB104D5F
:104C9000009B1D61A06A83889BB2002BC1D069462E
:104CA00043F0A7FD009BDF68002FF3D000222946C8
:104CB00020469B68B847EDE70748CEE7032DA3D110
:104CC000E36A9B889BB2002B80D1A36A7AE700BF7E
:104CD000097000F0087000F0027000F0F0B587B0C5
:104CE00005461646FFF714FC0446B0B904930C4B76
:104CF000CDE901166A46A86A01A903960593FFF754
:104D000033FC044648B995F8303033B92846FFF7EC
:104D1000C5FC28460099FFF76DFD204607B0F0BDA1
:104D2000017000F0F0B587B004461646FFF7F0FBBF
:104D3000054658BB0493194BCDE90116059394F829
:104D4000363003962BBB23689B6903F0020313B92B
:104D50002046FFF7C1FC6A46E06A01A9FFF704FCA0
:104D6000054698B994F8313083B943F0E8FDE36A19
:104D700006469B889BB233B120460099FFF760FD41
:104D8000012384F83430304643F0DFFD284607B075
:104D9000F0BD022BDCD123689B6CD6E7017000F0DC
:104DA0000B4B30B51B7883B1012000230546094920
:104DB00051F8042B2AB192F85C40022C04BF204623
:104DC000D5650133042BF3D130BD0120FCE700BFD2
:104DD0001E840020F8620020034B5A6812B19A6AC0
:104DE000002AFAD1704700BF00400650426810B553
:104DF000B2FA82F2144CC2F11F0163680BB1FFF7E3
:104E0000EBFF0122114B5A60636813F00203FBD1E0
:104E1000027A002A14BF02240024427842EA0112D6
:104E2000094922438A60427A0124002A18BF0223DA
:104E3000827A13434B62064B5C60037813B1FFF731
:104E4000CBFFCC6010BD00BF004006500060065094
:104E50000050065008B50D4B5A6802B938B15B686E
:104E60000BB1FFF7B9FF18B10122094B5A6008BD19
:104E7000FFF7B2FF02230549CB60FFF7ADFF012228
:104E8000044B5A604B689B07FCD4F0E70040065087
:104E90000050065000600650044B9A6AD006FCD4BD
:104EA00019639A6AD206FCD4704700BF00400650CE
:104EB00008B5FFF791FF02230449CB6000230B6282
:104EC000FFF78AFF0123CB6008BD00BF00400650FA
:104ED000044BD3F88420D206FBD4D3F88400C0F36B
:104EE000811070470040005038B5104B0546D3F88C
:104EF00080300C4603F00303022B0BD0032B0DD0A4
:104F0000012B0FD1FEF76CFF0E2305B1286004B111
:104F1000236038BDFEF7AEFF0723F6E7FEF75AFF22
:104F20000623F2E700231846EFE700BF0080005099
:104F300038B5174B0546D3F820310C4603F007036C
:104F4000013B052B20D8DFE803F0030B130F171BE1
:104F5000FEF740FF052305B1286004B1236038BD8A
:104F6000FEF76EFF0323F6E7FEF784FF0723F2E761
:104F7000FEF77CFF0223EEE7FEF72CFF0623EAE7AD
:104F8000FEF75EFF0423E6E700231846E3E700BFD1
:104F90000080005038B5174B0546D3F828310C4631
:104FA00003F00703013B052B20D8DFE803F00313D0
:104FB0001B0F0B17FEF70EFF052305B1286004B188
:104FC000236038BDFEF706FF0623F6E7FEF752FF23
:104FD0000723F2E7FEF734FF0323EEE7FEF730FF87
:104FE0000423EAE7FEF742FF0223E6E70023184620
:104FF000E3E700BF0080005073B50D460021114B60
:105000000191D3F88041064604F00304022C13D02A
:10501000032C0CD0012C13D101A8FFF789FF102419
:105020000EB1019B336005B12C6002B070BDFEF77C
:1050300021FF07240190F3E7FEF718FF0190EFE747
:105040000C46EDE700800050002337B50193154B67
:105050000546D3F820320C4603F00703013B032B2F
:105060001ED8DFE803F0020E1318002101A8FFF795
:1050700091FF12230DB1019A2A6004B1236003B09D
:1050800030BDFEF7F7FE07230190F3E743F012FB74
:105090000A230190EEE7FEF72FFF09230190E9E7CD
:1050A0000023E7E70080005038B5104B0546D3F8E1
:1050B00040310C4603F00303022B0BD0032B0DD021
:1050C000012B0FD143F0F6FA0A2305B1286004B191
:1050D000236038BDFEF710FF0923F6E743F0EDFA31
:1050E0000C23F2E700231846EFE700BF00800050D2
:1050F000002337B50193164B0546D3F860320C46B2
:1051000003F00703013B032B1FD8DFE803F0020E77
:105110001914002101A8FFF70BFF10230DB1019A0C
:105120002A6004B1236003B030BD002101A8FFF75D
:10513000BBFF1123F2E7FEF79DFE07230190EDE789
:10514000FEF794FE02230190E8E70023E6E700BFA4
:1051500000800050002337B50193164B0546D3F865
:1051600094320C4603F00703013B032B1FD8DFE802
:1051700003F0020E1914002101A8FFF7D9FE102335
:105180000DB1019A2A6004B1236003B030BD002143
:1051900001A8FFF789FF1123F2E7FEF76BFE072353
:1051A0000190EDE7FEF762FE02230190E8E700239D
:1051B000E6E700BF0080005038B5134B0546D3F832
:1051C00000320C4603F00703013B032B18D8DFE83D
:1051D00003F0020A0E1243F06DFA0A2305B12860AB
:1051E00004B1236038BDFEF787FE0923F6E743F0DC
:1051F00064FA0C23F2E7FEF70DFE0F23800AEDE7B9
:1052000000231846EAE700BF0080005038B5134B72
:105210000546D3F808320C4603F00703013B032B85
:1052200018D8DFE803F0020A0E1243F043FA0A230B
:1052300005B1286004B1236038BDFEF75DFE092387
:10524000F6E743F03AFA0C23F2E7FEF7E3FD0F230B
:10525000800AEDE700231846EAE700BF008000500F
:1052600038B5104B0546D3F840320C4603F0030323
:10527000022B0BD0032B0DD0012B0FD143F01AFAC8
:105280000A2305B1286004B1236038BDFEF734FE5F
:105290000923F6E743F011FA0C23F2E7002318463E
:1052A000EFE700BF0080005038B5104B0546D3F83B
:1052B00060310C4603F00303022B0BD0032B0DD0FF
:1052C000012B0FD143F0F6F90A2305B1286004B190
:1052D000236038BDFEF710FE0923F6E743F0EDF931
:1052E0000C23F2E700231846EFE700BF00800050D0
:1052F000B0F5207F1FD009D8B0F5007F15D003D8B6
:1053000068B1B0F5C07F0AD000200CE0B0F5607F36
:10531000FAD10B4BD3F88000C0F3011003E0084B27
:10532000186FC0F3033001307047054BD3F890007D
:10533000C0F30460F7E7024B186FC0F38020F2E778
:105340000080005002464FF48030104B10B5986634
:105350000020FFF7CDFF504341F671320C4BDC6962
:10536000DA635A6804F4803422F4401259B90949C6
:1053700088428CBF4FF480100020104358600CB15D
:105380000022DA6310BD0449F2E700BF009000502C
:1053900000000350005A6202002D3101430905D07C
:1053A000012B0DD0022B094B18BF002300F01F006A
:1053B00041B103F58053012202FA00F018607047F2
:1053C000034BF3E703F50053F5E700BF6880005097
:1053D000648000501FB5002180280446CDE90011EB
:1053E00000F0A58035D85E2846D85E2844D8DFE88E
:1053F00000F0A243434343434343434343434343B4
:10540000434343434343434343434343434343436C
:105410004343A2AAA2AAB9B9B9B9B9AAC34DD971CD
:105420004DAAAAAA4343434343434343AAAAAA79A2
:10543000E3AA43434343434343434343434343B9BF
:10544000A2A2A2DE4D4DE8885EBE4343434343998A
:10545000A200B0F5B06F00F08F802DD8B0F5207F9E
:1054600071D00CD8B0F5C07F65D0B0F5007F65D0A5
:10547000B0F5807F00F08580009804B010BDB0F5D5
:10548000607F6AD00DD8B0F5407FF5D1FEF7C2FC41
:1054900002464FF42070FFF72BFFB2FBF0F04008FC
:1054A00047E0B0F5806F5DD0B0F5A06FE4D100218A
:1054B0006846FFF7C9FDDFE7B0F5106F77D016D863
:1054C000B0F5E06F78D00AD8B0F5C06F6AD0B0F50B
:1054D000D06FD1D100216846FFF76EFECCE7B0F562
:1054E000F06FC9D100216846FFF7DEFEC4E7B0F5D2
:1054F000406F3CD013D8B0F5206F62D0B0F5286F64
:10550000BAD10021314B0391D3F8703203F0030379
:10551000012B02D103A8FFF7C7FD039B3BE0B0F5C9
:10552000486FA9D100216846FFF714FEA4E7FEF7F3
:1055300057FC0090A0E7FEF76DFCFAE7FEF750FC81
:105540000246204604E0FEF765FC02464FF4207058
:10555000FFF7CEFEB2FBF0F0EBE701A8FFF7C4FCCB
:10556000019AEEE700216846FFF7E2FC84E700219C
:105570006846FFF70FFD7FE700216846FFF73CFD17
:105580007AE74FF0E02302911B695B0705D5FEF730
:1055900041FC0290029B00936EE703A902A8FFF76B
:1055A00083FDF7E700216846FFF77EFD64E70021F1
:1055B0006846FFF72BFE5FE700216846FFF750FEC5
:1055C0005AE700216846FFF793FD55E70080005039
:1055D00008B58020FFF7FEFE034B98429EBF4FF4B4
:1055E0008032024B1A6708BD005A620200A00050C8
:1055F0001FB50023B0F5807F019300F0C38064D80D
:105600005D2855D84C2807D82D2847D823282BD8D3
:10561000019805B05DF804FB4D381028F8D801A3B7
:1056200053F820F07B570008115600081156000867
:10563000115600082D570008115600081156000891
:10564000015800084B570008F1560008F7570008AA
:10565000115600081156000811560008115600088E
:10566000115600080B58000824380928D0D801A387
:1056700053F820F07B5700087B5700087B57000841
:105680007B5700087B570008115600087157000827
:10569000115600080D570008B15700083D2800F0CA
:1056A00082803E28B4D1002001A9FFF7D9FDAFE7E1
:1056B0008028ADD15A4B1B6F03F00703013B032B2E
:1056C000A6D8DFE803F05350878FB0F5F06F6AD0AB
:1056D00021D8B0F5B06F4BD00FD8B0F5607F00F097
:1056E000858095D3B0F5806F47D0B0F5A06F8FD18E
:1056F000002001A9FFF7A8FC8AE7B0F5D06F57D0CA
:10570000B0F5E06FCFD0B0F5C06F81D1002001A916
:10571000FFF7CAFC7CE7B0F5206F71D00BD8B0F56D
:10572000086F4AD0B0F5106F7FF472AF002001A966
:10573000FFF76CFD6CE7B0F5406F5CD0B0F5486FDB
:1057400063D0B0F5286F7FF463AF0021344B039131
:10575000D3F8703203F00303012B5BD0022B14BF8C
:105760000B46152300E00523019351E70223FBE7D5
:10577000002001A9FFF740FC4AE7002001A9FFF73C
:10578000D7FB45E702934FF0E0231B695B0705D584
:10579000FEF740FB0D230393039BE5E703A902A853
:1057A000FFF782FCF8E7002001A9FFF77DFD2FE756
:1057B000002001A9FFF700FD2AE7194BD3F80031BB
:1057C00003F00303022B07D0032B09D0012B0BD1CD
:1057D000FEF736FB0323C7E7FEF78EFB0923C3E77B
:1057E00042F066FF0823BFE70123BDE7184601A981
:1057F000FFF77AFB0CE7002001A9FFF7CBFB07E7D7
:10580000002001A9FFF774FC02E7002001A9FFF7BF
:10581000A1FCFDE603A8FFF747FC1123A4E700BFA6
:10582000008000504FF48012034B5A664FF48032D0
:10583000024B9A62704700BF009000500050005A1F
:1058400038B504468020FFF7D3FE032800F083809C
:105850004FF48012504B4FF0A0615A6645F60E038C
:105860004E4AC2F880304E4B99624FF4803103F5B6
:1058700080539962916D11F48031FBD1D4E900031A
:105880001B0543EA0063E07B0343207B43EA0043BC
:10589000607B43EA0033A07B43EA80131361906985
:1058A000D4E904531B0643EA856300F00040034338
:1058B000A07EE57E0343207E43EA0043607E43EA08
:1058C00000239361E069136A00280CBF00220822BC
:1058D00023F00F0343EA000343EA850343EA02038C
:1058E0002E4A304D136237D194F82430916A94F8DF
:1058F0002000DB000D4043EA401394F821102B43B5
:1059000043EA011343F480339362274B916D33EAEA
:105910000101FBD14FF08071214881621369A568B4
:1059200023F4700343EA055313614FF0004383618E
:1059300094F822300BB91D4B996294F823301BB9AF
:105940004FF48032194B9A6294F825301BB1134BF7
:10595000174AC3F8802038BD022808D111611548C4
:1059600091614FF408524FF47F4142F0A0FF0B4980
:1059700094F822308A6A94F820001B06154043EA06
:10598000401394F824202B4343EAC20394F82320C5
:1059900043EA02438B62D7E7009000500040005A70
:1059A0000050005AC7FFFEFE030001000060005ACD
:1059B000F1A7FFFF3440005A014B93F900007047F4
:1059C000D9160020B0F5207F10B50C4657D008D866
:1059D000B0F5007F48D003D830B3B0F5C07F23D0F6
:1059E00010BDB0F5607FFBD129492A48D1F8FC20D1
:1059F00012F080721EBFD1F8FC3023F08073C1F822
:105A0000FC30D0F88030611E23F0300444EA0114E9
:105A1000C0F88040002AE3D01D4AD2F8FC3043F0A1
:105A20008073C2F8FC30DBE742F052FF42F05EFFC9
:105A30004FF48031184B174A1967136F611E23F416
:105A4000704444EA01341467FEF7E4F90446FFF7B2
:105A50003FFAC0F10201204642F042FF00F02EF86A
:105A6000BDE81040FFF7B4BD0A4A0139D2F89030C2
:105A700023F0F85444EA0164C2F89040B0E7054BC3
:105A8000013C196F21F4806141EA84241C67A7E777
:105A900000ED00E0008000500090005008B50121AA
:105AA000022000F0C3FA42F013FF42F01FFF4FF450
:105AB0008032014B1A6708BD0090005008B54FF4C2
:105AC000C070FFF787FCBDE80840044988428CBFDE
:105AD000022101214FF42070FFF774BF80F0FA0219
