:020000040800F2
:1000000000120020DD1F00083F5403083F5403087E
:10001000D37403083F5403083F5403083F540308B4
:100020003F5403083F5403083F5403083F54030858
:100030003F5403083F5403083F5403083F54030848
:100040003F5403083F5403083F5403083F54030838
:100050003F5403083F5403083F5403083F54030828
:100060003F5403083F5403083F5403083F54030818
:100070003F5403083F5403083F5403083F54030808
:100080003F540308351800083F5403083F54030841
:100090003F540308C92500083F5403083F54030890
:1000A0003F540308C9260008A52600083F5403084A
:1000B0003F540308852503089D2F03085DE50408C8
:1000C00059E504086927030869E5040861E504089F
:1000D000752F030865E50408DD2F03084130030888
:1000E0003F5403083F5403083F5403083F54030898
:1000F000CF7403083F5403083F5403083F540308D8
:100100003F540308FD1700083F5403083F540308F9
:100110003F5403083F5403083F5403083F54030867
:100120003F5403083F5403083F5403083F54030857
:100130003F5403083F5403083F5403083F54030847
:100140003F5403083F5403083F540308DB7503087A
:100150007D0C03083F54030821E2040827E2040849
:100160003F5403083F5403083F5403083F54030817
:10017000013800D0FCE770477F4B73B51C8814F042
:10018000010440F0F38041F60B227C4D7C4B7F2133
:10019000C5E900347B4B7C489A8010221C60AC601F
:1001A0004EF08CFA7F22794B1A70794B1B6ADB0771
:1001B00006D440F20E41774B774A784833F094FBEF
:1001C000214628462BF0FAFC044620B940F21241A1
:1001D000734B714AF1E72CF02BFC20B140F2164131
:1001E000704B6D4AE9E74FF0011120464DF0FCFCE1
:1001F00020B140F21A416B4B674ADEE702212046EC
:100200004DF0D4FB20B140F21D41664B624AD4E769
:10021000204665492CF068FA20B14FF48461614BA7
:100220005D4ACAE7012120464DF0D6FD20B140F2DB
:1002300025415C4B584AC0E7012120464DF0DCFDCA
:10024000064620B14FF48561564B534AB5E7014647
:10025000382256484EF032FA80233246204605F1C5
:1002600010014DF0CAFC802804D040F22F41504BC1
:10027000494AA2E74F4D01202BF0F4FC3CA3D3E9FF
:1002800000232C602046CDE900234FF0FF324FF0D1
:10029000FF334DF0C6FB014620B140F26E31414BB9
:1002A000454A8AE737480AF0CBFF012108460BF0A0
:1002B0003BF8012128684DF01BFB044620B140F2B9
:1002C000C141384B3D4A78E701464FF408723C483B
:1002D0004EF0F4F93B4A3C4B02F188011A609962F6
:1002E00002F5887102F5CC729C809A679C85374A2A
:1002F000A3F854401965A3F87C40354B6FF06300B8
:100300001A609C80334A344B1A60344A9C801470C3
:10031000334A5A6117F098FF0B200AF04BFF314B1C
:10032000186020B940F2D9412F4B244A45E705F027
:1003300027F920460BF064F80822286811464DF092
:1003400072FB044620B140F2DE41284B1B4A34E7E1
:100350000CF04EF9264B27481C70274B1C70274B7E
:100360001C7002B0BDE870403EF097BF02B070BD97
:100370000BE020FF22020000F65D00203C5300202D
:1003800085B60008345300207B6000206C6000209C
:100390000080E00F73F4040818F6040818F204084B
:1003A0008CF4040897F1040828F70408D8530020B7
:1003B0009BF40408305300200BF6040894F604085C
:1003C0001054002018540020D81600208C60002003
:1003D000B016002011610020781700200B6100206A
:1003E000A0170020D4530020D3F40408EEF404082E
:1003F0006F60002072F50408106100200F6100207A
:10040000B0EE401AF0EE601A9FED010B00F004B858
:100410000000000000000040F8B52DED028B57EC05
:10042000106B55EC114B00F0CBF8634BB0EE408AEB
:10043000F0EE608A93F9003001332AD022462B4631
:100440002046294634F098FE18BB32463B463046DB
:10045000394634F091FE002844D100220023304672
:10046000394634F057FED8B10022002320462946F1
:1004700034F050FE00283DD145EC104B34F032FBF7
:1004800038B1204629460022002334F04DFE0028D2
:100490005CD1B0EE480AF0EE680ABDEC028BF8BD04
:1004A000B0EE480AF0EE680A34F01CFB58B30022A4
:1004B000002351EC180B34F02DFE0028E9D047EC56
:1004C000106B34F00FFB0028E3D045EC104B34F0F8
:1004D00009FB0028DDD034F0AFFB22239FED2E8BEB
:1004E0000360D6E7204629460022002334F012FE9E
:1004F0000028CED09FED2A8BB0EE480AF0EE680AB5
:10050000BDEC028BF8BD47EC106B34F0EBFA002821
:10051000CDD045EC104B34F0E5FA0028C7D018EEEA
:10052000100A53EC182B194634F026FE20BB34F089
:1005300083FB22220346394630461A6000220023FC
:1005400034F0F2FD48B99FED188BA2E734F074FB4C
:1005500021239FED178B03609BE745EC104B34F094
:10056000CFFA22462B4651EC100B34F0D3FD002875
:10057000E9D19FED0F8B8CE734F05EFB0022002366
:10058000212101601046194634F086FC41EC180B1D
:100590007FE700BFAFF30080000000000000000014
:1005A000000000000000F03F000000000000F07FAD
:1005B000000000000000F0FF981400200000000080
:1005C0002DE9F04F55EC114B25F0004A5AEA040290
:1005D0002DED0C8B87B01FD05D4910EE102A57EC23
:1005E000106B27F00048B946884511DCAB4611EE88
:1005F000103A08D13EB1574807B0BDEC0C8BBDE8AE
:10060000F04F00F071BD52498A4501DC0BD153B166
:10061000514B43441343EED19FED490B07B0BDEC62
:100620000C8BBDE8F08FB9F1000F45DB0021009184
:1006300083B9474B9A455BD0484B9A456AD0BBF18A
:10064000804F00F0B084464B9B4503D1B9F1000FB9
:1006500080F20D85029247EC106B34F039FA029A61
:100660004AB929F040433D4A934200F0A883B8F1CB
:10067000000F00F0A4834FEAD973009A013B049362
:1006800013434ED0374B9A4572DD03F104739A45FC
:10069000354B40F32B84984540F3A983BBF1000F01
:1006A00040F3A98328A3D3E900231046194634F068
:1006B000C9FA41EC100BB1E72C498A4527DCA1F1BE
:1006C00054718A45B2DD4FEA2A51A1F2FF31142953
:1006D00040F37D84C1F1340123FA01F000FA01F105
:1006E0009942A3D100F00100C0F1020100919FE7FF
:1006F000194B434413438FD01B4B984540F3AB83B6
:10070000BBF1000FC0F2778345EC104B86E7022166
:1007100000918DE7BBF1000FC0F24F8447EC106BE6
:100720007CE732463B461046194632F045FD02460C
:100730000B4634F0B1FB41EC100B6FE7AFF30080D8
:10074000000000000000F03F9C7500883CE4377E0C
:100750000000F07F5C730508000010C00000F03F4F
:100760000000E03F0000E041FFFFEF3FFFFF3F439D
:10077000E34B002209EA030353B9E24B51EC100B9F
:1007800034F060FA6FF0340241EC100B10EE908AF6
:100790004FEA2853C8F31308DB4EA3F2FF3348EAAD
:1007A00006069A18D94B9845059207DDD84B98450F
:1007B00040F333840132A6F58016059200279FEDA1
:1007C000B87B9FEDB96BB0EE47DAF0EE67DAB0EECA
:1007D00047CAF0EE67CA51EC160B53EC102B3346A8
:1007E000761043EC192B41EC1A0B02460B4646F0EF
:1007F000005651EC190B32F0DFFC8046894653EC71
:100800001A2B51EC190B32F0D9FC02460B46002092
:10081000BD4934F041FB41EC1B0B53EC1B2B404614
:10082000494634F00FFA0A4606F5002341EC180B4E
:1008300001460020CDE9021200210646024602913F
:10084000D919DDE902AB0F460B465046594634F044
:10085000F9F902460B464046494632F0ADFC804667
:1008600089463046394653EC1A2B32F0A5FC024635
:100870000B4651EC190B32F09FFC52465B4634F0AC
:10088000E1F902460B464046494632F095FC53ECEE
:100890001B2B34F0D7F953EC182B41EC1A0B51EC0D
:1008A000180B34F0CFF906460F4681A3D3E9002395
:1008B00034F0C8F980A3D3E9002332F07FFC32463C
:1008C0003B4634F0BFF97EA3D3E9002332F076FC37
:1008D00032463B4634F0B6F97BA3D3E9002332F02D
:1008E0006DFC32463B4634F0ADF979A3D3E90023E1
:1008F00032F064FC32463B4634F0A4F976A3D3E9E7
:10090000002332F05BFC8046894632463B46304647
:10091000394634F097F902460B46404649464FF0B7
:10092000000834F08FF9524606460F465B4651ECFC
:10093000180B32F043FC53EC1A2B34F083F9324697
:100940003B4632F03BFC52465B4641EC190B5046AD
:10095000594634F077F900226E4B06460F4632F0C6
:100960002DFC53EC192B32F029FC894642465046A7
:100970004B46594634F066F9002282468B46654B59
:100980004046494632F018FC32463B4632F014FCF1
:1009900002460B4651EC190B32F00EFC53EC182BAF
:1009A00034F050F906460F4642464B4651EC1A0BBE
:1009B00034F048F902460B463046394632F0FEFB29
:1009C000804689465046424659464B4632F0F6FB31
:1009D00000200F46064642A3D3E9002334F032F943
:1009E00052465B4641EC190B3046394632F0E4FB87
:1009F00002460B464046494632F0DEFB3AA3D3E9B5
:100A0000002334F01FF9804689463046394638A322
:100A1000D3E9002334F016F902460B464046494616
:100A200032F0CCFB53EC1C2B32F0C8FB06460F46D1
:100A3000059832F00FFD3246804689463B4651EC20
:100A4000190B32F0BBFB53EC1D2B32F0B7FB4246C7
:100A50004B4632F0B3FB002042464B4682468B4663
:100A600032F0AAFB53EC1D2B32F0A6FB53EC192BF2
:100A700032F0A2FB02460B463046394632F09CFB70
:100A8000009B049A013B134341EC180B40F0DC81BE
:100A90009FED197BB0EE479AF0EE679A3CE000BFFD
:100AA0000000000000000000000000000000F03F17
:100AB000EF4E454A287ECA3F65DBC9934A86CD3F43
:100AC00001411DA96074D13F4D268F515555D53F29
:100AD000FFAB6FDBB66DDB3F033333333333E33FC1
:100AE000000000E009C7EE3FFD033ADC09C7EE3F16
:100AF000F5015B14E02F3EBE000000000000F0BFD7
:100B00000000F07F000040430000F03F8E9803009B
:100B100079B60B0000000840002320462946CDE9A5
:100B200000450093DDE9008942464B4632F044FB24
:100B30005B46524634F086F806460F4622462B4660
:100B400051EC180B34F07EF802460B46304639461D
:100B500032F034FB424604460D464B465946504659
:100B6000A04634F06FF806460F4620462946324626
:100B70003B46A94632F022FBD54B04460D4699422E
:100B80008B4640F33B81D34B0B44034340F035820B
:100B900040464946B6A3D3E9002332F00FFB324664
:100BA0003B4641EC180B2046294632F005FB024635
:100BB0000B4651EC180B34F0D5FA002840F01D829A
:100BC000CBF30A534FF48012A3F2FE33C24CBBF1B5
:100BD000000F42FA03F34FF000005B44C3F30A52E4
:100BE000C3F3130AA2F2FF324AF4801A44FA02F461
:100BF000C2F1140223EA04014AFA02FA024630461C
:100C00000B46B8BFCAF1000A394632F0D5FA02469F
:100C10000B4606460F46404649464FEA0A5B32F00D
:100C2000CDFA0D460024294693A3D3E9002320469C
:100C300034F008F832463B4606460F462046294621
:100C400032F0BAFA02460B464046494632F0B4FA50
:100C50008BA3D3E9002333F0F5FF80468946204675
:100C6000294689A3D3E9002333F0ECFF02460B4663
:100C70004046494632F0A2FA80468946304642460E
:100C800039464B4632F09AFA324604460D463B4608
:100C900032F092FA02460B464046494632F08CFA50
:100CA0002246804689462B462046294633F0CAFF15
:100CB00006460F4676A3D3E9002333F0C3FF76A39D
:100CC000D3E9002332F078FA32463B4633F0BAFFDC
:100CD00073A3D3E9002332F071FA32463B4633F076
:100CE000B1FF71A3D3E9002332F066FA32463B46E6
:100CF00033F0A8FF6EA3D3E9002332F05FFA324647
:100D00003B4633F09FFF02460B462046294632F011
:100D100053FA06460F462046324629463B4633F0F4
:100D200091FF00224FF0804341EC180B30463946CA
:100D300032F042FA02460B4651EC180B34F0ACF894
:100D4000424606460F464B462046294633F07AFF78
:100D500042464B4632F032FA02460B46304639469E
:100D600032F02AFA22462B4632F026FA02460B4689
:100D700000205A4932F020FA8B4402460B46BBF55C
:100D8000801FC0F26C81594653EC192B33F05AFF87
:100D900041EC100B42E447EC106B009233F098FEEC
:100DA000009A002A7FF4BDAC29F040434B4A93429D
:100DB00003D0B8F1000F7FF4B4AC00230093BBF173
:100DC000000F07DA0020454953EC102B34F064F88B
:100DD00041EC100BB9F1000FBFF620AC404B009A6C
:100DE0004344134340F02D8153EC102B9BE4BBF1A3
:100DF000000FFFF657AC9FED300B0FE421F00043DE
:100E0000DFF8E4C0634540F3F080364B0B44034306
:100E10000AD132463B4632F0CFF942464B4634F0D7
:100E200097F900283FF4CCAE25A3D3E9002351EC79
:100E3000190B33F007FF22A3D3E9002333F002FF9D
:100E400041EC100BFFF7EABB9FED1F7BB0EE479A1A
:100E5000F0EE679A60E6BBF1000FCCDA05F10043D3
:100E600000EE104A00EE903AFFF7D8BBAFF30080D7
:100E7000FE822B654715973C00000000432EE63F9D
:100E8000EF39FAFE422EE63F396CA80C615C20BEB9
:100E9000D0A4BE726937663EF16BD2C541BDBB3E80
:100EA0002CDE25AF6A56113F93BDBE166CC1663F5E
:100EB0003E5555555555C53F000000000000000047
:100EC00059F3F8C21F6EA501000000000000F03FBA
:100ED000FFFF8F40000070BFFFFF0F000000F03FDA
:100EE000000010C000346F3FFFCB90409845FFF6E4
:100EF0007EAF794B98453FF7D1AB0022764B51EC52
:100F0000100B32F059F906460F4663A3D3E90023CC
:100F100033F098FE82468B463046394660A3D3E9CB
:100F2000002333F08FFE00226C4B41EC180B30464F
:100F3000394633F087FE02460B465BA1D1E900013A
:100F400032F03AF932463B4633F07CFE02460B461D
:100F50000020634932F030F98046894632463B46EC
:100F60003046394633F06EFE02460B46404649464F
:100F700033F068FE4EA3D3E9002333F063FE02464C
:100F80000B4651EC180B32F017F906460F46504647
:100F9000594632463B4632F011F9002052465B4634
:100FA00082468B4664E532463B463046394633F04E
:100FB00049FE41EC100BFFF731BB00204649324699
:100FC0003B4633F069FF41EC100BFFF727BB002BCA
:100FD0007FF4E1AEC1F114014AFA01F000FA01F127
:100FE00051454DD00093FFF727BB3D4A93424EDC5D
:100FF000DDE900239346924614E62FA3D3E90023AC
:1010000051EC190B33F01EFE2BA3D3E9002333F070
:1010100019FE41EC100BFFF701BB9FED297B4FF44C
:101020008027B0EE47DAF0EE67DA9FED277BB0EE6F
:1010300047CAF0EE67CA9FED267B51EC170BFFF70E
:10104000CCBB009B012B7FF4E9AA10EE901A10EEA6
:10105000102A01F1004343EC102BFFF7DFBA504692
:1010600043EC102B00F048F851EC100B8CE647ECE9
:10107000106B07B0BDEC0C8BBDE8F04F33F066BCD5
:1010800000F00100C0F102030093FFF7D5BA1B1571
:1010900098E500BFAFF30080000000604715F73F00
:1010A00044DF5DF80BAE543E555555555555D53F6B
:1010B000FE822B654715F73F9C7500883CE4377E20
:1010C0000000004003B8E23F06D0CF43EBFD4C3EAA
:1010D000000000000000F83F0000F03F0000D03F9B
:1010E0000000E03F000000009FED010B704700BFD3
:1010F000000000000000F87F38B553EC102BC3F35C
:101100000A519C46044689BB23F0004C10EE101A8D
:101110005CEA010129D03E4D194600223D4B10EEFC
:10112000100A33F08FFDAC4202460B4616DB8C46AC
:10113000C1F30A513639214440F2FE70814221DC6C
:10114000002947DC11F1350F34DA4CF250318C4272
:1011500018DC002B26A1D1E9000143DB24A3D3E94D
:10116000002333F06FFD41EC100B38BD40F2FF7EE1
:101170007145E0D110EE100A194632F01FF841EC2B
:10118000100B38BD002B1CA1D1E9000107DB1AA30D
:10119000D3E9002333F056FD41EC100B38BD18A104
:1011A000D1E9000114A3D3E9002333F04BFD41EC56
:1011B000100BF3E7184836311446184B0CEA0000C0
:1011C000002240EA01552046294633F03BFD41EC20
:1011D000100B38BD10480CEA000040EA015343EC04
:1011E000102B38BD08A1D1E90001B7E7AFF30080AB
:1011F00059F3F8C21F6EA5019C7500883CE4377E48
:101200009C7500883CE437FE59F3F8C21F6EA58137
:10121000B03CFFFF00005043FFFF0F800000903CF8
:1012200010B5054C237833B9044B13B1044800E0E2
:1012300000BF0123237010BD5045002000000000B6
:101240007073050808B5034B1BB10349034800E060
:1012500000BF08BD00000000544500207073050861
:10126000A3F5803A704700BF174B002B08BF134B04
:101270009D46FFF7F5FF00218B460F461348144AA1
:10128000121A4DF01BFA0E4B002B00D098470D4B55
:10129000002B00D098470020002104000D000D48CD
:1012A000002802D00C4800E000BF32F069FB2000AB
:1012B000290000F0D9FD32F03DFB00BF000008001E
:1012C0000000000000000000001200205416002062
:1012D000B869002000000000000000002DE9F34183
:1012E000164602F1100407460D46A446384A06F198
:1012F000200E234603CB7345106051601C4602F15B
:101300000802F6D13446334A234603CB63451060C6
:1013100051601C4602F10802F6D128463DF029FD35
:101320000021804638463DF0EAFC044690B3442351
:10133000022229463DF0F2FC28463DF02BFD0190AB
:1013400028463DF020FD0199024620463DF0FDFC77
:1013500020463DF005FD28463DF0A9FF1F2301462C
:101360001D4A28463DF0A7FFB8F1010F18D11B4BCD
:101370001968084601914DF09AFA019982B2204607
:101380003DF097FF0346F0B93246214638461CF03F
:1013900075F9C0B90122124B1A7002B0BDE8F08194
:1013A000104B1968084601914DF081FA019982B2FB
:1013B00020463DF07EFF0546852120463DF0DEFCBF
:1013C0000DB92B46E0E720463DF06DFFE2E700BF98
:1013D000F75E00202660002006600020001200203A
:1013E000F65E00200C12002038B50E4C0E4D00F0B9
:1013F000FFF941F233613DF0E4FC256000F0F8F9BB
:101400000A4A0B4BA060636013682B6053686B60E3
:101410009368AB6000F0ECF92146BDE838403DF040
:10142000DBBC00BF7445002064EC040810EC040829
:10143000DD12000810B500F0DBF93EF087F9022854
:101440000C4C02D123680A2B13D900F0D1F93EF0DD
:1014500073F900F00FFC00F0CBF901213DF074FDB1
:1014600000F0C6F901213EF0A4F9FFF7BDFF00230B
:10147000236010BD6C4500202DE9F041DFF88C8120
:10148000044698F800500E469CB025B905702846D1
:101490001CB0BDE8F0810025544F3D7000F0A8F964
:1014A0000DF133013EF076F9EEB1012EEFD1504B44
:1014B0001B680A939DF93330099363690893236984
:1014C0000793E368069363680593A36804936388AE
:1014D000039363780293474B1A6801925B68464A0C
:1014E000009302231AE0424B1B680A939DF93330A4
:1014F00009936369089323690793E3680693636814
:101500000593A36804936388039363780293394B2C
:101510001A6801925B68394A00930223FE2138461B
:10152000126832F09BFDFD282CD82778FFF782FF48
:1015300098F80050002DAAD00DAA9046304B03F128
:10154000100C164618685968083303C663453246BE
:10155000F7D100F04DF900213DF0D1FB0646032202
:1015600087F001013DF0D8FB022130463DF0EFFB52
:10157000304624493DF0F2FB30B1234C86BB236852
:1015800001332360002582E718484DF090F90746A3
:1015900058B130463DF0E4FB0028EED13046134907
:1015A000BAB23DF086FE0028E7D12C22002111A816
:1015B00015AF4DF083F898E80F0087E80F0041F26F
:1015C0003363ADF8663000F013F900233146CDE9FE
:1015D000003311AA1CF032F80028CED1207056E753
:1015E0000023304623603DF05EFEC8E7075F002021
:1015F0007045002058160020041200200812002018
:10160000F75E0020066000206C450020F65E00209A
:101610002DE9F0410446036894B000930389C28821
:10162000818835483DF022F8E16834483DF01EF8E5
:1016300033483DF01BF8282204F112000DEB0201A3
:101640003DF0E5FC2F480AA93DF010F8616A2E48EC
:101650003DF00CF82D483DF009F894F82E302C4858
:10166000002B3DD13DF002F8A28DA16A05A83DF006
:1016700020FC0125274FDFF8AC80274E02A905A8E2
:101680003DF019FC08BB15B938463CF0EFFF029954
:1016900061B91F483CF0EAFF03989DF810103CF038
:1016A000D8FF1E483CF0E2FF0025E7E740463CF04B
:1016B000DDFF039B002BF7D030463CF0D7FF9DF8B1
:1016C000101003983CF0C5FFEEE714483CF0CEFF45
:1016D00094F82C10A06A3CF0BCFF14B0BDE8F08177
:1016E0003CF0C4FFA06A94F82C103CF0B2FF0C4808
:1016F0003CF0BCFFF1E700BF70EC04089AEC040872
:10170000A3EC0408B0EC040890EC0408B5EC040861
:10171000BAEC0408BCEC0408991E0508C2EC0408E5
:10172000BFEC0408890C05082DE9F04704460F4674
:101730000025DFF87090DFF870808CB0D4F8A4201A
:10174000AEB201AB3146384602EB05123DF0CDFB9F
:101750004FEA051A94F8A830B0B9B34214D9D4F8B6
:10176000A400282202A950443DF051FC484602A999
:101770003CF07CFF404601993CF078FF04F16C009E
:10178000FFF746FF0135D9E7B3428CBF00230123A1
:1017900084F8AB30012384F8A95084F8AA300CB047
:1017A000BDE8F087B0EC0408C4EC04081FB503687A
:1017B00004460391984780B1002384F86A3004F10D
:1017C00044030093064A234603993DF087FB002813
:1017D0000CBF2420032004B010BD0D20FBE700BF88
:1017E000A55103080122014B1A7070473C6000208C
:1017F000014B1868704700BF8445002013B50B4C9F
:101800006846214634F053F84FF49662009B04F585
:10181000005453434FF47A72B3FBF2F3044A5B0073
:1018200093614FF40073636202B010BD0040005931
:10183000A8450020022208B5184B5A6101F080FC2F
:10184000174B5A6812B19A6A002AFAD10222DA605A
:10185000144BDA7862B11A7812B901221A7005E0D5
:101860005A784AB99A783AB901225A700022DA7045
:1018700002220A4B9A6108BD5A780AB19A784AB195
:101880005A78002AF2D09A78002AEFD000225A70B3
:101890009A70E3E701229A70E8E700BF0060065003
:1018A0000040065037600020F0B53C4C41F28830D3
:1018B0008DB033F0F1FC00F0DDF9012120683DF03E
:1018C00043FB28B17221364B364A374832F00CF8C8
:1018D000012120683DF06DFF18B17321334B314A6F
:1018E000F3E7FFF781FD324B324E1A78002A42D1DE
:1018F00001220DF10E0120681A703DF0D1FD054660
:101900002D4F206839463DF099FD3B6820682B60DB
:101910003B792B713DF097FD20683DF0CDFD48F2FD
:101920009A230546254A03822021337804A832F001
:1019300095FB0DF10E0128463DF0DFFDBDF80E20B0
:1019400004A94CF094FE0DF10E0128463DF0D1FDA6
:10195000BDF80E201A494CF08AFE294620683DF059
:101960007CFD024618B1F621164B174AADE7014639
:1019700020683DF02AFD0422144B1A6703F096FB01
:101980000023C6E90001CDE900334EF66021104A7C
:10199000104808F077FF0DB0F0BD00BF844500206F
:1019A000CEEC040800ED040810ED040820ED040856
:1019B000366000205816002055ED040860ED04083C
:1019C00069ED040872ED040889ED040800E0035095
:1019D000E517000888450020F0B56C4C8FB02068F2
:1019E0003DF098FD20686A4C0AF0C4FE33F068FCB4
:1019F000E378A3B90123E3702378F3B9654828F0AD
:101A000069FC2071217964483CF030FE01F098FBBC
:101A10001421002001F088FB0222604B9A61604C87
:101A20002678002E00F0A68000212046FFF724FD36
:101A300080F0010020700FB0F0BD637873BBA37815
:101A400003F0FF0553BB534828F07CFC207121793B
:101A500054483CF00BFE54480DF10B0203A98DF8DD
:101A60000B5033F007FC00286AD09DF80B104F484C
:101A70003CF0FCFD2C464E4D9DF80B20E3B29A4203
:101A80005ED90398282200EB031004A93DF0BFFAA9
:101A9000284604A93CF0EAFD0134EDE76378002B09
:101AA0005CD16378002BBAD0A378002BB7D008267E
:101AB0003B4D404BAA191E67A91C2B1D354828F029
:101AC00081FC207123793C480093D5E90132698873
:101AD0003CF0CCFD394F2F4805F1140305F11002FD
:101AE00005F10C014BF05FF9D5E903216B6934482E
:101AF0003CF0BCFDD7F8A420D7F8A43002F00102D6
:101B000003F00203134323482B7728F0FFFB002147
:101B100020712846FFF7B0FC80F0010029492870A9
:101B20002148FFF743FE01F00BFB0020264901F09E
:101B3000FBFA0222194B9A61A3F51C331E676EE76C
:101B4000194833F0A6FB38B920483CF08FFD01F06E
:101B5000F7FA41F250415CE71D48F6E7A378002B05
:101B60009FD10C4828F00CFC2071217919483CF0D9
:101B70007DFDECE7184D2B78002B3FF45CAF012185
:101B80002046FFF779FC2E7055E700BF8445002002
:101B900037600020744600209BED0408005006507A
:101BA000A8450020AAED0408C8450020B8ED0408A7
:101BB000B0EC040800D0035035EE040800C0035018
:101BC00072EE0408AFEE0408E0930400F2ED04089E
:101BD00005EE04082AEE04083C60002008B53DF03C
:101BE000A8F9054B186030B94FF49571034B044ABE
:101BF000044831F079FE08BD84450020BAEE04089F
:101C0000C4EE040810ED0408014B186816F0BCBAC5
:101C1000844500207FB50C4B0C4A04930C4B0D49B6
:101C200003930D4B0D4802930D4B01930D4B009305
:101C30000D4B4BF099F804231A460C490C4807B099
:101C40005DF804EB33F0B3BA8775030817CD0408C9
:101C500009A1020841CD040847CC040874460020BD
:101C60000FCC0408CBCC040835A10208F1170008FA
:101C7000C845002070B5A4B07822002106A84CF019
:101C80001DFD224B224A1C936B461068516802AC22
:101C900003C36B46224603CB1E4BCDF85900CDF84B
:101CA0005D1003F11006254618685968083303C50E
:101CB000B3422C46F7D10FCA0EAC84E80F00BDF832
:101CC0008C30154843F4CA7343F00103ADF88C30EF
:101CD0004CF0EDFD1049024612A84CF0C8FC9DF8EE
:101CE0008C3043F008038DF88C30FFF781FD06A996
:101CF0003DF080F8044630B13DF019F92146024626
:101D000006483CF0B3FC24B070BD00BFADDE0F0050
:101D10000AEF040813EF04087C140020E1EE040825
:101D20001FB50C214FF4F06002F038F801213D207E
:101D300001F084FC01213C2001F080FC0C4A01AB45
:101D400007CA83E8070040F201121846ADF80C20DC
:101D500001F094F90222074B9A614FF40032064BCE
:101D60001A60012001F0BEF905B05DF804FB00BF68
:101D700024EF04080050065000E100E0F0B5354EB5
:101D800093B008AD0FCE0FC50FCE0FC596E8030078
:101D900001260024032785E8030031463B20CDE9D6
:101DA0000344CDE9054407948DF80E708DF8086062
:101DB0008DF809408DF80A408DF80B4001F03EFC8B
:101DC00020464FF42C524FF4285133F085FD9022D9
:101DD0002146204633F085FD31462A2001F02EFCB5
:101DE0004FF496631C4D0B939DF8193022460093D7
:101DF0002846234619498DF823408DF8214002F0EA
:101E000065FEB2230A9008AA284605A98DF8093074
:101E10008DF810708DF80E708DF813608DF80860D5
:101E200002F07AFE02AA03A9284633F0FFFC0C4A0E
:101E300005F500535A6270214FF40032AB6A43F447
:101E40000073AB62074BC3F8842183F819135A60FF
:101E500013B0F0BD30EF04080040005940420F00BD
:101E60008F330F8000E100E070B50424082535F0C1
:101E7000D1FB33F026FAFFF753FFFFF77FFF4AF05D
:101E800070FE124B124E1D671C67C3F8A0504AF03B
:101E90007EFE28F015F934674AF052FF1E2008F044
:101EA000B7FC002034674AF0F5FE1E2008F0B0FCB5
:101EB00034674AF030FFFFF7F7FC064B1D6735F03B
:101EC000B6FBFFF789FD07F0F5FFF8E700D00350F8
:101ED00000F0035000E0035010B5274C01F0F2FD74
:101EE00001F03AFF236F23F0070343F00303236756
:101EF00033F0DAFB214B00209B6ADB015EBF4FF41D
:101F000080321F4B9A62D4F8203123F0070343F04C
:101F10000203C4F82031D4F8283123F0070343F03A
:101F20000203C4F82831D4F8403123F0030343F00E
:101F30000103C4F84031D4F8603123F0030343F0C7
:101F40000103C4F86031D4F8403223F0030343F0B6
:101F50000103C4F84032D4F8003223F0070343F001
:101F60000103C4F80032D4F8083223F0070343F029
:101F70000103C4F8083210BD008000500040005A30
:101F80000060005A08B501213A2001F057FB0448CF
:101F900000F030F9BDE80840024800F02BB900BF5E
:101FA000101200202412002018B1034B18600020EA
:101FB00070472520704700BF1C47002010B5054C16
:101FC0000549206800F086FE2068BDE81040FFF754
:101FD000EBBF00BF5C1200203812002008B500F0F3
:101FE0002DF8124B12498B4212D30020114B12498B
:101FF0008B4218D3FFF738F9186850F82240586818
:1020000040F82240013298688242F5D30C33EAE767
:102010000022F8E71C6844F8220001325C68A24202
:10202000F8D30833E4E70022F8E700BF7873050827
:102030008473050884730508847305084FF4804190
:102040004FF0FF30114B124A10B59A60D3F8882038
:1020500042F47002C3F888200E4A91660E4901F5D9
:10206000005210660D4850660220C3F8D000BFF33E
:102070004F8FBFF36F8F01244FF440330848C0F8EF
:102080008041D36004600B6110BD00BF00ED00E033
:10209000000000080090005000800044F7FF370067
:1020A00000E100E0014B1868704700BF6413002096
:1020B000084B1B6F03F00703022B04D0032B05D042
:1020C000012B05D0FEE7044B18687047034BFBE774
:1020D00003487047008000506413002068130020FC
:1020E000002D310108B5FFF7E3FF054B1B6FC3F36C
:1020F00003330133B0FBF3F0024B186008BD00BF9F
:1021000000800050601300200048704700B4C404F1
:10211000014B1868704700BF68130020054B18601A
:10212000054B1B6F03F00703032B01D1FFF7DABF49
:10213000704700BF681300200080005000487047BF
:10214000002D31014FF0B4439868C0F304400C28CF
:1021500022D8DFE800F009212121212107171921C8
:102160001B1D1F000F4870479B6803F04073B3F1BD
:10217000807F13D0B3F1007F12D00B4A002B08BF31
:10218000104670470948704709487047094870472A
:102190000948704709487047002070470848704751
:1021A00008487047405DC60000093D000024F40067
:1021B000C0EA210180BA8C010048E801005A62029D
:1021C00080841E0040420F00014B1868704700BF1A
:1021D0006C13002005490A681318054883428CBF18
:1021E0004FF0FF320B601046704700BF70130020A5
:1021F000000004202DE9FF4103680446B3F1B64F07
:1022000004D0354A934251D12F2000E02E200121E5
:1022100001F014FA01230A226179207902F01CFAF4
:1022200001230A22E179A07902F016FA0A27012691
:102230002A4D4FF030082279637908FB025206FAE2
:1022400003F302F501521360642008F05DFD237969
:10225000627908FB035306FA02F203F58253642005
:102260001A6008F051FD013FE3D12068B0F1B64F8C
:102270001FD10323C5F8E8346279237943EA024386
:10228000C5F8EC34E279A37943EA0243C5F8F034A7
:1022900040F20113ADF80030E36869460293A36889
:1022A0000193237C8DF80C3002F052FA04B0BDE8A3
:1022B000F081094B9842EBD10323C5F8F8346279D9
:1022C000237943EA0243C5F8FC34E279A37943EA6F
:1022D0000243C5F80035DBE70080065000C003501C
:1022E00038B5054602F062FB044C012801D1013CDF
:1022F00000D138BD284602F04DFAF6E7E19304001C
:102300002DE9F04F9A46564B85B01B7806460F468E
:102310001546DDF83C909DF844B0DDF85080002B68
:1023200000F08D80072A00F28C800E9B002B00F0BD
:102330008880B9F1000F00F08480129BB3F5006F24
:102340007FDC012802D1109B002B7AD0454B03EB98
:1023500005131B7B002B76D0434C102200216846CE
:102360004CF0ACF904EB45141022002F59D139463A
:1023700020464CF0A3F943F210036380BBF1000F39
:1023800003D1E37843F00303E370374A0E9B02EB7B
:10239000451CCCE90193129B6901013BC3F30A0080
:1023A0009DF84C30012E03F003034FEA836343EAA8
:1023B000001E53582D48CDF800A000EA03004EEA55
:1023C0000003535041D113230CF1100ECCF80C3004
:1023D0009CE80F008EE80F006FF00301DCF81C2072
:1023E000109B61F39F02012FCCF81C20CCF8143015
:1023F00003D1CCF81890CCF804300027194A2901F1
:1024000002EB051342F80180159A28465A60694686
:1024100022469F605E7302F035FD384605B0BDE888
:10242000F08F002120464CF049F94FF4447363804B
:10243000BBF1000FA9D1E37843F03003A4E70C48C7
:10244000ECE70C48EAE70C48E8E7B8F1000FD4D114
:102450009CF8023068F304138CF80230CDE700BF1B
:102460003D60002020470020A04700200F80FFF3A0
:10247000028000F0018000F0078000F038B5124BB8
:1024800005461B78DBB1E0B133F032F90F4A002387
:102490001146147B54B92B6001251A0101EB03137B
:1024A0001D738C5033F02AF9204638BD0133082BB8
:1024B00002F11002EDD133F021F90548F5E70548A6
:1024C000F3E70548F1E700BF3D600020204700200A
:1024D000048000F0028000F0018000F0154B13B57D
:1024E0001868002301908DF8043033F001F9124B85
:1024F0001C7824B133F002F9104802B010BD01225B
:102500001A7033F0FBF80E4B01A81C731C7783F88C
:102510002C4083F83C4083F84C4083F85C4083F8BF
:102520006C4083F87C4008238DF8073002F078FC7B
:102530002046E2E758EF04083D600020038000F0E9
:10254000204700200A4A08B5127852B107280AD855
:10255000084A02EB00131B7B3BB102F0E1FC0020B8
:1025600008BD0548FCE70548FAE70548F8E700BF5D
:102570003D60002020470020028000F0018000F034
:10258000078000F00B4A10B512780C4662B107289C
:102590000CD859B1084A02EB00131B7B43B102F07F
:1025A000D1FC2060002010BD0448FCE70448FAE795
:1025B0000448F8E73D60002020470020028000F03A
:1025C000018000F0078000F02DE9F843174B1F6DE4
:1025D0005B6D1F4000D5FEE701260025144CDFF897
:1025E0005480DFF85490374217D02368C8F8506001
:1025F0009BB1A168284601316268A1609847637B5E
:10260000012B0AD148B909EB45131A7B60F341024B
:102610001A731A7F60F341021A770135082D4FEAC9
:10262000460604F11004DED1BDE8F8830000045032
:102630002047002000200450A047002070B5044629
:1026400001250B4E04B970BD94FAA4F0B0FA80F0E5
:1026500005FA00F306EB001224EA03045368002B8A
:10266000F0D0117B11B191689847EBE79847E9E703
:10267000A048002008B5192001F0E2FD28B14FF074
:102680000072074BC3F880211A601A2001F0D8FDB0
:1026900028B14FF08062024BC3F880211A6008BD58
:1026A00000E100E0074BD3F82404D3F8202403F51D
:1026B0000053104000F0553020F05020C3F82004A3
:1026C000FFF7BCBF00C00350074BD3F82404D3F876
:1026D000202403F50053104000F0AA3020F0A02081
:1026E000C3F82004FFF7AABF00C00350024B1968CB
:1026F000024B186828F0BEBE781300207413002027
:1027000037B5920004460D4601924CF071FA431C15
:102710000BD060B929462046019A4BF098FF00285B
:10272000044808BF002003B030BD0348FBE703485E
:10273000F9E700BF10E000F021E000F024E000F035
:1027400010B504464CF05CFA431C10D088B902F076
:10275000B3FC234620F003002044984201D100201E
:1027600010BD53F8042B0132F7D00348F8E70348B3
:10277000F6E70348F4E700BF0EE000F021E000F0C8
:1027800024E000F008B532F0A4FF014B186008BD4A
:10279000E0500020014B186832F09FBFE05000204D
:1027A00038B141B1013AB2F5006F044838BF00209A
:1027B0007047034870470148704700BF037000F03E
:1027C000027000F038B504460D4632F091FFA38840
:1027D0009BB223B92B6032F091FF064838BD14221A
:1027E00063889BB202FB034408342C6032F086FFFE
:1027F0000020F3E70B7000F0F8B5044616460F46CC
:1028000032F076FFA388E2889BB29A42054605D84B
:102810000023336032F072FF1748F8BD142223887A
:1028200007F1100C9BB202FB03433A4608331746EC
:1028300003CF6745186059603A4603F10803F6D1A3
:10284000142238681860238828469BB202FB034391
:10285000083333602388E2889BB20133B3FBF2F183
:1028600002FB11339BB22380A38801339BB2A38068
:1028700032F044FF0020D0E70A7000F0104930B574
:102880000B78104A2BB9C2E90033C2E902330123A5
:102890000B700C4C0023214651F8045B854208D094
:1028A0000133042BF8D1002154F8043B1BB942F842
:1028B0002100002003E001310429F5D1024830BD98
:1028C0003E60002094510020027000F010B50446D4
:1028D000FFF704FE002104F10800FFF7CFFD0146D9
:1028E00020B904F10C00FFF7C9FD00B1004810BD8C
:1028F0000E7000F090F8363053B9042103790A4A7B
:1029000003F239135B01D150022203685A61704708
:10291000022B07D10068816C11F0020118BF06215B
:1029200032F02FBF704700BF00C0035090F8363020
:1029300063B9012203685A619A69D207FCD5042160
:102940000379084AB9335B01D1507047022B07D194
:102950000068836C9B074CBF0521092132F011BF31
:10296000704700BF00C0035010B590F836300446E1
:1029700063B9042203685A619A699207FCD52379E6
:102980000C4AB9335B011021995010BD022BFCD1C8
:102990000068836CDB074CBF0521062132F0F1FE95
:1029A000237941F294425B0103F1A04303F57033B4
:1029B000E9E700BF00C0035037B50446836B32F02F
:1029C00097FEA36B0546013BA363A16B79B9019107
:1029D00032F07FFE04460199012007F0B7F901208B
:1029E000064A019907F0BAFB204632F076FE2846E7
:1029F00003B0BDE8304032F081BE00BF80EF040874
:102A000013B591F836200B68022A0CBF9B6C9B69AA
:102A10000C469B06084605D5FFF7CEFF0223E3656B
:102A200002B010BD32F096FD00230146CDE900331F
:102A3000034A234604F13C0034F081FDF0E700BF77
:102A4000012A000870B5044632F052FEA36B054619
:102A500073B932F03EFE01210646084607F076F9CA
:102A60000121074A084607F079FB304632F035FE6F
:102A7000A36B28460133A363BDE8704032F03EBE2D
:102A800080EF04087FB5012380F8303090F83630AD
:102A900083B9036824330D4A049003920022029202
:102AA0004A680192012200920A684169C06832F0C6
:102AB00002FD07E0022B02D103683C33EBE7002361
:102AC00080F8303007B05DF804FB00BFE12B000850
:102AD00001232DE9F04180F8313090F8363004467A
:102AE0000E4688B063BB05683C3532F001FE04F148
:102AF0003C0807460DF11F01404607F0F5FD40B9BF
:102B00009DF81F302BB1404607F0C6FD2046FFF769
:102B100053FF3846012732F0F1FD2046E765FFF705
:102B200091FF0D4B2A46039300230293736821699A
:102B3000CDE90073A0683368049432F0A2FC07E08A
:102B4000022B02D105684435CFE7002380F83130ED
:102B500008B0BDE8F08100BF5D2B0008F0B585B07E
:102B6000D06A03A91446FFF72DFE0646204632F030
:102B7000F1FC002501462346CDE90055164A04F133
:102B80003C0034F0DCFC154B9E421FD0039B1D61C2
:102B90009D6032F0ADFD039A0646D76827B1D2E9B1
:102BA000002329462046B847E06A03A932F0FAFC20
:102BB000E06A83889BB263B103A9FFF703FE204656
:102BC0000399FFF785FF304632F098FD012005B0EC
:102BD000F0BD84F83130F6E7012A00080B7000F0F0
:102BE00073B5906A01A91446FFF7ECFD364B984285
:102BF00031D094F83600019B00283AD12268916CBC
:102C000011F400712AD03149986019614FF40073B2
:102C100002F50052936432F06BFD01990546CE68CF
:102C200036B14A688B682046D31A0A680969B047EA
:102C3000A06A01A932F0B6FCA06A83889BB2002B7F
:102C400037D001A9FFF7BEFD20460199FFF71AFF13
:102C5000284632F053FD012002B070BD906CC505CE
:102C600023D51B489960186102F500524FF4807318
:102C7000D0E7022819D12268D16C11F4007109D073
:102C8000124902F500521961002199604FF4007356
:102C9000D364C0E7D06CC00507D50D4899601861B2
:102CA00002F500524FF48073F2E700221A619A6035
:102CB000B1E784F8303094F83530032BC8D0204683
:102CC000FFF718FEC4E700BF0B7000F00D7000F0B6
:102CD0000C7000F02DE9F0410446524F88B001AE6F
:102CE0000D460FCF0FC697E8070086E80700002CB7
:102CF00000F0968025B94C4E304608B0BDE8F08112
:102D00006022002120464BF0D9FC2046FFF7B6FD9B
:102D100006460028F0D1012184F835002B6884F89C
:102D2000360023602A7BE1652271404A9342E2D15A
:102D3000292363624FF4802305273D48C4E9040337
:102D4000D5E90723A26216805680968084F8306009
:102D5000E3621E805E809E806B6884F8316003931E
:102D6000EB8984F83360ADF814302B8A3A20ADF843
:102D70001230AB7C8DF811708DF81030EB7C8DF833
:102D8000163000F05BFC606A012100F057FC2868F7
:102D900001A98DF8046002F01BFA1420297B254B51
:102DA00001F13902BA4098502E7AA87A03EB411308
:102DB00046EA0042C3F83827697AEA7A41EA024CC7
:102DC000C3F830C7217784F82020E676E0776B7D62
:102DD00020466377AB7D84F82130EB7DA3772B7E93
:102DE00084F8223032F0CDFB32F082FC4FF0FF321B
:102DF0008046286800F500539A642B7D032B0CBF96
:102E00003946042132F0CBFD4FF440622B68204656
:102E10005A61FFF75BFD0646404632F06FFC6BE7F8
:102E2000054E69E788EF0408037000F000C0055004
:102E30000200040000C00350027000F02DE9F341CD
:102E40000D46044600287FD032F052FC012D064684
:102E500041D1E36A9B889BB2002B43D0A068FFF767
:102E600071FB0023E06A84F8313083889BB273B130
:102E700001A9FFF7A7FC0199A0680831FFF782FBC1
:102E8000374F019B1F61E06A83889BB283BB20465A
:102E900032F0ABFB8304FAD5023D012D10D8E06877
:102EA000FFF750FB0023A06A84F8303083889BB280
:102EB0006BBB94F83530032B02D02046FFF71AFD88
:102EC000A36B002B02DD2046FFF776FD304632F083
:102ED00015FC002009E0022D38D1A36A9B889BB223
:102EE000002BDCD132F00AFC1E4802B0BDE8F081B4
:102EF00001A932F057FB019BD3F80C80B8F1000F09
:102F0000C1D00022394620469B68C047BBE76946CE
:102F1000FFF758FC0099E0680831FFF733FB104DCC
:102F2000009B1D61A06A83889BB2002BC1D06946BB
:102F300032F038FB009BDF68002FF3D000222946D7
:102F400020469B68B847EDE70748CEE7032DA3D19D
:102F5000E36A9B889BB2002B80D1A36A7AE700BF0B
:102F6000097000F0087000F0027000F0F0B587B052
:102F700005461646FFF714FC0446B0B904930C4B03
:102F8000CDE901166A46A86A01A903960593FFF7E1
:102F900033FC044648B995F8303033B92846FFF77A
:102FA000C5FC28460099FFF76DFD204607B0F0BD2F
:102FB000017000F0F0B587B004461646FFF7F0FB4D
:102FC000054658BB0493194BCDE90116059394F8B7
:102FD000363003962BBB23689B6903F0020313B9B9
:102FE0002046FFF7C1FC6A46E06A01A9FFF704FC2E
:102FF000054698B994F8313083B932F079FBE36A29
:1030000006469B889BB233B120460099FFF760FDCE
:10301000012384F83430304632F070FB284607B084
:10302000F0BD022BDCD123689B6CD6E7017000F069
:103030000B4B30B51B7883B10120002305460949AD
:1030400051F8042B2AB192F85C40022C04BF2046B0
:10305000D5650133042BF3D130BD0120FCE700BF5F
:103060003E60002094510020034B5A6812B19A6AC6
:10307000002AFAD1704700BF00400650426810B5E0
:10308000B2FA82F2144CC2F11F0163680BB1FFF770
:10309000EBFF0122114B5A60636813F00203FBD16E
:1030A000027A002A14BF02240024427842EA011264
:1030B000094922438A60427A0124002A18BF022368
:1030C000827A13434B62064B5C60037813B1FFF7BF
:1030D000CBFFCC6010BD00BF004006500060065022
:1030E0000050065008B50D4B5A6802B938B15B68FC
:1030F0000BB1FFF7B9FF18B10122094B5A6008BDA7
:10310000FFF7B2FF02230549CB60FFF7ADFF0122B5
:10311000044B5A604B689B07FCD4F0E70040065014
:103120000050065000600650044B9A6AD006FCD44A
:1031300019639A6AD206FCD4704700BF004006505B
:1031400008B5FFF791FF02230449CB6000230B620F
:10315000FFF78AFF0123CB6008BD00BF0040065087
:10316000044BD3F88420D206FBD4D3F88400C0F3F8
:10317000811070470040005038B5104B0546D3F819
:1031800080300C4603F00303022B0BD0032B0DD031
:10319000012B0FD1FEF78CFF0E2305B1286004B17F
:1031A000236038BDFEF7CEFF0723F6E7FEF77AFF70
:1031B0000623F2E700231846EFE700BF0080005027
:1031C00038B5184B0546D3F820010C4600F007002F
:1031D000062805D8DFE800F0230B0F17131B1F008C
:1031E0000023184605B1286004B1236038BDFEF7FE
:1031F00059FF0523F6E7FEF78BFF0323F2E7FEF7FF
:10320000A1FF0723EEE7FEF799FF0223EAE7FEF7A7
:1032100049FF0623E6E7FEF77BFF0423E2E70123ED
:10322000E0E700BF0080005038B5174B0546D3F8E3
:1032300028310C4603F00703013B052B20D8DFE8BB
:1032400003F003131B0F0B17FEF72CFF052305B12B
:10325000286004B1236038BDFEF724FF0623F6E79B
:10326000FEF770FF0723F2E7FEF752FF0323EEE7B6
:10327000FEF74EFF0423EAE7FEF760FF0223E6E7CE
:1032800000231846E3E700BF0080005073B50D46E9
:103290000021114B0191D3F88041064604F003044C
:1032A000022C13D0032C0CD0012C13D101A8FFF752
:1032B00087FF10240EB1019B336005B12C6002B072
:1032C00070BDFEF73FFF07240190F3E7FEF736FFDE
:1032D0000190EFE70C46EDE700800050002337B582
:1032E0000193164B0546D3F820320C4603F0070332
:1032F000042B04D8DFE803F0200B11161B00002379
:103300000DB1019A2A6004B1236003B030BD0021E1
:1033100001A8FFF789FF1223F2E7FEF713FF072347
:103320000190EDE732F08EF80A230190E8E7FEF70E
:103330004BFF09230190E3E70123E1E70080005000
:1033400038B5104B0546D3F840310C4603F0030363
:10335000022B0BD0032B0DD0012B0FD132F072F8C2
:103360000A2305B1286004B1236038BDFEF72CFFA5
:103370000923F6E732F069F80C23F2E70123002075
:10338000EFE700BF00800050002337B50193164BD4
:103390000546D3F860320C4603F00703013B032BCC
:1033A0001FD8DFE803F0020E1914002101A8FFF76F
:1033B00007FF10230DB1019A2A6004B1236003B006
:1033C00030BD002101A8FFF7BBFF1123F2E7FEF794
:1033D000B9FE07230190EDE7FEF7B0FE022301904E
:1033E000E8E70023E6E700BF00800050002337B580
:1033F0000193164B0546D3F894320C4603F00703AD
:10340000013B032B1FD8DFE803F0020E1914002143
:1034100001A8FFF7D5FE10230DB1019A2A6004B16F
:10342000236003B030BD002101A8FFF789FF1123FD
:10343000F2E7FEF787FE07230190EDE7FEF77EFE39
:1034400002230190E8E70023E6E700BF0080005078
:1034500038B5144B0546D3F800020C4600F00700BF
:10346000042804D8DFE800F01B0A0E12160000231F
:10347000184605B1286004B1236038BD31F0E2FF81
:103480000A23F6E7FEF7A0FE0923F2E731F0DDFF9D
:103490000C23EEE7FEF726FE0F23800AE9E701235F
:1034A000E7E700BF0080005038B5144B0546D3F85D
:1034B00008020C4600F00700042804D8DFE800F0FA
:1034C0001B0A0E1216000023184605B1286004B12D
:1034D000236038BD31F0B6FF0A23F6E7FEF774FE2D
:1034E0000923F2E731F0B1FF0C23EEE7FEF7FAFD16
:1034F0000F23800AE9E70123E7E700BF00800050BF
:1035000038B5104B0546D3F840320C4603F00303A0
:10351000022B0BD0032B0DD0012B0FD131F092FFDA
:103520000A2305B1286004B1236038BDFEF74CFEC4
:103530000923F6E731F089FF0C23F2E7012300208D
:10354000EFE700BF0080005038B5104B0546D3F8B8
:1035500060310C4603F00303022B0BD0032B0DD07C
:10356000012B0FD131F06EFF0A2305B1286004B1A1
:10357000236038BDFEF728FE0923F6E731F065FF2A
:103580000C23F2E701230020EFE700BF008000508A
:10359000B0F5207F1FD009D8B0F5007F15D003D833
:1035A00068B1B0F5C07F0AD000200CE0B0F5607FB4
:1035B000FAD10B4BD3F88000C0F3011003E0084BA5
:1035C000186FC0F3033001307047054BD3F89000FB
:1035D000C0F30460F7E7024B186FC0F38020F2E7F6
:1035E0000080005002464FF48030104B10B59866B2
:1035F0000020FFF7CDFF504341F671320C4BDC69E0
:10360000DA635A6804F4803422F4401259B9094943
:1036100088428CBF4FF480100020104358600CB1DA
:103620000022DA6310BD0449F2E700BF00900050A9
:1036300000000350005A6202002D3101430905D0F9
:10364000012B0DD0022B094B18BF002300F01F00E7
:1036500041B103F58053012202FA00F0186070476F
:10366000034BF3E703F50053F5E700BF6880005014
:10367000648000501FB5002180280446CDE9001168
:1036800000F0A58035D85E2846D85E2844D8DFE80B
:1036900000F0A24343434343434343434343434331
:1036A00043434343434343434343434343434343EA
:1036B0004343A2AAA2AAB9B9B9B9B9AAC34DD9714B
:1036C0004DAAAAAA4343434343434343AAAAAA7920
:1036D000E3AA43434343434343434343434343B93D
:1036E000A2A2A2DE4D4DE8885EBE43434343439908
:1036F000A200B0F5B06F00F08F802DD8B0F5207F1C
:1037000071D00CD8B0F5C07F65D0B0F5007F65D022
:10371000B0F5807F00F08580009804B010BDB0F552
:10372000607F6AD00DD8B0F5407FF5D1FEF7DAFCA6
:1037300002464FF42070FFF72BFFB2FBF0F0400879
:1037400047E0B0F5806F5DD0B0F5A06FE4D1002107
:103750006846FFF7C3FDDFE7B0F5106F77D016D8E6
:10376000B0F5E06F78D00AD8B0F5C06F6AD0B0F588
:10377000D06FD1D100216846FFF76AFECCE7B0F5E3
:10378000F06FC9D100216846FFF7DEFEC4E7B0F54F
:10379000406F3CD013D8B0F5206F62D0B0F5286FE1
:1037A000BAD10021314B0391D3F8703203F00303F7
:1037B000012B02D103A8FFF7C3FD039B3BE0B0F54B
:1037C000486FA9D100216846FFF710FEA4E7FEF775
:1037D0006FFC0090A0E7FEF785FCFAE7FEF768FCB7
:1037E0000246204604E0FEF77DFC02464FF42070BE
:1037F000FFF7CEFEB2FBF0F0EBE701A8FFF7BCFC51
:10380000019AEEE700216846FFF7DAFC84E7002121
:103810006846FFF709FD7FE700216846FFF736FDA0
:103820007AE74FF0E02302911B695B0705D5FEF7AD
:1038300059FC0290029B00936EE703A902A8FFF7D0
:103840007FFDF7E700216846FFF77AFD64E7002176
:103850006846FFF729FE5FE700216846FFF750FE44
:103860005AE700216846FFF78FFD55E700800050BA
:1038700008B58020FFF7FEFE034B98429EBF4FF431
:103880008032024B1A6708BD005A620200A0005045
:103890001FB50023B0F5807F019300F0C38064D88A
:1038A0005D2855D84C2807D82D2847D823282BD851
:1038B000019805B05DF804FB4D381028F8D801A335
:1038C00053F820F01B3A0008B1380008B13800085E
:1038D000B1380008CD390008B1380008B138000807
:1038E000A13A0008EB39000891390008973A00081E
:1038F000B1380008B1380008B1380008B138000804
:10390000B1380008AB3A000824380928D0D801A300
:1039100053F820F01B3A00081B3A00081B3A000835
:103920001B3A00081B3A0008B1380008113A000899
:10393000B1380008AD390008513A00083D2800F0C0
:1039400082803E28B4D1002001A9FFF7D9FDAFE75E
:103950008028ADD15A4B1B6F03F00703013B032BAB
:10396000A6D8DFE803F05350878FB0F5F06F6AD028
:1039700021D8B0F5B06F4BD00FD8B0F5607F00F014
:10398000858095D3B0F5806F47D0B0F5A06F8FD10B
:10399000002001A9FFF7A2FC8AE7B0F5D06F57D04D
:1039A000B0F5E06FCFD0B0F5C06F81D1002001A994
:1039B000FFF7C6FC7CE7B0F5206F71D00BD8B0F5EF
:1039C000086F4AD0B0F5106F7FF472AF002001A9E4
:1039D000FFF76AFD6CE7B0F5406F5CD0B0F5486F5B
:1039E00063D0B0F5286F7FF463AF0021344B0391AF
:1039F000D3F8703203F00303012B5BD0022B14BF0A
:103A00000B46152300E00523019351E70223FBE752
:103A1000002001A9FFF73AFC4AE7002001A9FFF7BF
:103A2000CFFB45E702934FF0E0231B695B0705D509
:103A3000FEF758FB0D230393039BE5E703A902A8B8
:103A4000FFF77EFCF8E7002001A9FFF77DFD2FE7D7
:103A5000002001A9FFF7FCFC2AE7194BD3F800313D
:103A600003F00303022B07D0032B09D0012B0BD14A
:103A7000FEF74EFB0323C7E7FEF7A6FB0923C3E7C8
:103A800031F0DEFC0823BFE70123BDE7184601A99A
:103A9000FFF772FB0CE7002001A9FFF7C5FB07E762
:103AA000002001A9FFF770FC02E7002001A9FFF741
:103AB0009DFCFDE603A8FFF743FC1123A4E700BF2C
:103AC000008000504FF48012034B5A664FF480324E
:103AD000024B9A62704700BF009000500050005A9D
:103AE00038B504468020FFF7D3FE032800F08A8013
:103AF0004FF48012544B4FF0A0615A6645F60E0306
:103B0000524AC2F88030524B99624FF4803103F52B
:103B100080539962936DD903FCD4916D11F080416B
:103B2000FBD1D4E900031B0543EA0063E07B0343B8
:103B3000207B43EA0043607B43EA0033A07B43EAF7
:103B4000801313619069D4E904531B0643EA85632B
:103B500000F000400343A07EE57E0343207E43EA5D
:103B60000043607E43EA00239361E069136A002802
:103B70000CBF0022082223F00F0343EA000343EAAC
:103B8000850343EA0203314A324D13623BD194F874
:103B90002430916A94F82000DB000D4043EA401382
:103BA00094F821102B4343EA011343F480339362CA
:103BB000294B916D33EA0101FBD14FF0807124480C
:103BC00081621369A56823F4700343EA0553136106
:103BD0004FF00043836194F822300BB91F4B996278
:103BE00094F823303BB94FF480321C4B9A62174A49
:103BF000936D5B00FCD494F825301BB1134B184A2D
:103C0000C3F8802038BD022808D1116115489161A0
:103C10004FF408524FF47F4131F022FD0B4994F8E4
:103C200022308A6A94F820001B06154043EA4013AC
:103C300094F824202B4343EAC20394F8232043EA58
:103C400002438B62D7E700BF009000500040005A4B
:103C50000050005AC7FFFEFE030001000060005A3A
:103C6000F1A7FFFF3440005A014B93F90000704761
:103C70008B140020014B1880704700BF5C1400209B
:103C8000B0F5207F10B50C4657D008D8B0F5007FAE
:103C900048D003D830B3B0F5C07F23D010BDB0F505
:103CA000607FFBD129492A48D1F8FC2012F08072AC
:103CB0001EBFD1F8FC3023F08073C1F8FC30D0F87F
:103CC0008030611E23F0300444EA0114C0F88040C3
:103CD000002AE3D01D4AD2F8FC3043F08073C2F8CA
:103CE000FC30DBE731F0CDFC31F0D9FC4FF4803112
:103CF000184B174A1967136F611E23F4704444EA86
:103D000001341467FEF7EEF90446FFF729FAC0F113
:103D10000201204631F0BDFC00F02EF8BDE8104055
:103D2000FFF7A6BD0A4A0139D2F8903023F0F854C3
:103D300044EA0164C2F89040B0E7054B013C196FBA
:103D400021F4806141EA84241C67A7E700ED00E0CC
:103D5000008000500090005008B50121022000F0C2
:103D6000C7FA31F08EFC31F09AFC4FF48032014BEF
:103D70001A6708BD0090005008B54FF4C070FFF7F7
:103D800079FCBDE80840044988428CBF022101212A
:103D90004FF42070FFF774BF80F0FA02B0F5807F17
:103DA000F8B50C4600F052816BD85D285DD84C28E0
:103DB00004D82D2844D8232828D8F8BD4D381028F9
:103DC000FBD801A353F820F02D400008BB3D0008AC
:103DD000BB3D0008BB3D00081F3F0008BB3D00087D
:103DE000BB3D0008E1410008573F0008AF3E000816
:103DF000C1410008BB3D0008BB3D0008BB3D0008B9
:103E0000BB3D0008BB3D00080142000824380928DA
:103E1000D3D801A353F820F02D4000082D4000080E
:103E20002D4000082D4000082D400008BB3D000833
:103E30000D400008BB3D0008E53E0008FB400008BF
:103E40003D2800F04A813E28B7D1093C032C8CBFA5
:103E50000021B24BB24A98BF195DD2F8403223F02C
:103E600003030B43C2F84032A7E78028A5D18B1E7D
:103E7000062B00F2C880DFE803F0C3B1C67EC6C6D9
:103E8000C000B0F5F06F00F028813BD8B0F5B06FFE
:103E900000F0BC801BD8B0F5607F00F06B818CD344
:103EA000B0F5806F00F0C280B0F5A06F85D1073CFF
:103EB0000B2C8CBF00219B4B994A98BF195DD2F8FF
:103EC000203223F007030B43C2F8203275E7B0F528
:103ED000D06F00F01281B0F5E06FB6D0B0F5C06FD2
:103EE0007FF46BAF093C032C8CBF00218E4B8C4AB6
:103EF00098BF195DD2F8403123F003030B43C2F899
:103F000040315AE7B0F5206F00F06A8117D8B0F55C
:103F1000086F00F01F81B0F5106F7FF44EAF093CC1
:103F2000062C8CBF0021814B7D4A98BF195DD2F8C9
:103F3000083223F007030B43C2F808323DE7B0F51F
:103F4000406F00F03D81B0F5486F00F05981B0F549
:103F5000286F7FF432AF112C00F06281152C14BF52
:103F6000002102216E4AD2F8703223F003030B4382
:103F7000C2F8703221E7002502264FF48037012174
:103F8000022000F0B5F931F07CFB31F088FB684B82
:103F9000634A1F67136F23F0070333431367FEF76A
:103FA000A1F80646FFF7DCF8C0F10201304631F017
:103FB00070FB0121002000F0DBF9FFF7DDFEFFF7C9
:103FC00057FC002D7FF4F9AE032C7FF4F6AE594B6D
:103FD000594A9F62936D5800FCD4EEE64FF480126C
:103FE000534B0E465A664FF48032534B9D6A03F58D
:103FF0008053C5F300659A62BFE700250426BCE73D
:1040000000250126B9E700252E46B6E7023C0E2C16
:104010008CBF0021494B424A98BF195DD2F88031CC
:1040200023F003030B43C2F88031C6E6023C052CA3
:104030008CBF0021424B3A4A98BF195DD2F820311B
:1040400023F007030B43C2F82031B6E6A1F10904BF
:10405000082C3FF6B2AE01A353F824F081400008CB
:1040600081400008BB3D000881400008AF400008C7
:10407000BB3D0008BB3D0008BB3D00088140000877
:104080004FF48032264B2F49586E03F580535A6601
:104090004B6A43F001034B62C1035CBF2A4B5A6673
:1040A0004FF0E022136923F00403136185E64FF417
:1040B00080321B4B2349586E03F580535A664B6A76
:1040C00023F001034B62C3035CBF1F4B5A664FF0E2
:1040D000E022136943F00403E7E7093C032C8CBF9B
:1040E00000211A4B0E4A98BF195DD2F8603123F0B7
:1040F00003030B43C2F860315FE6093C062C8CBF1A
:104100000021134B064A98BF195DD2F8003223F004
:1041100007030B43C2F800324FE600BFCAEF0408A2
:1041200000800050E5EF0408CAEF0408CEEF040851
:10413000009000500060005A0040005A01F004084E
:10414000C4EF040800C0075000A00050CAEF0408E4
:10415000CEEF0408CC1E062C8CBF0021314B324A16
:1041600098BF195DD2F8003123F003030B43C2F866
:10417000003122E62D49063CD1F8FC2012F0807275
:104180001EBFD1F8FC3023F08073C1F8FC30082C3E
:104190008CBF0020264B244998BF185DD1F8803091
:1041A00023F003030343C1F88030002A3FF405AE37
:1041B0001E4AD2F8FC3043F08073C2F8FC30FCE5B4
:1041C000023C052C8CBF00211A4B174A98BF195D81
:1041D000D2F8283123F007030B43C2F82831ECE56D
:1041E000023C0F2C8CBF0021134B0F4A98BF195D66
:1041F000D2F8603223F007030B43C2F86032DCE5EB
:10420000023C0F2C8CBF00210C4B074A98BF195D54
:10421000D2F8943223F007030B43C2F89432CCE572
:1042200001219FE6D5EF04080080005000ED00E07A
:10423000DCEF0408C4EF0408F1EF0408F1EF040810
:10424000054B420953F8223000F01F0023FA00F01A
:10425000C04300F00100704700E100E0024A536BE8
:104260000342FCD1704700BF00400950044A417826
:10427000536F23F4407343EA01235367704700BF31
:10428000004000500A4A10B51369044643F0040385
:10429000136106F02FF831F034FA30BF31F032FA02
:1042A00006F03CF81CB9BDE81040FDF71BBF10BD7F
:1042B00000ED00E0084A10B51369044643F004031A
:1042C000136106F017F830BF06F028F81CB9BDE8F6
:1042D0001040FDF707BF10BD00ED00E0034A017973
:1042E000D36E23F030030B43D36670470040005079
:1042F000F8B504461C4BD3F88420D106FBD4D3F880
:104300008430C3F381139C422CD0FDF7D1FE012CE5
:10431000064602D1214631F0BCF931F0DAF94FF00E
:104320000072124B07465A66204631F0EEF94FF400
:1043300080630D4D621E93402B676B6E9A0103D410
:10434000D5F884309B060AD5384631F0C6F9022CE0
:1043500008D13046BDE8F840002131F09AB9D5F8CF
:104360008430EAE7F8BD00BF004000500060005014
:1043700007B518B90191FDF79BFE0199064B1B7813
:1043800043B1064B984205D8012003B05DF804EB19
:10439000FFF7AEBF0220F8E73F600020005A62023C
:1043A0000278034B012100201A70FFF7E1BF00BF24
:1043B0003F6000204FF0004238B5284B28495A662C
:1043C0004AF6CD334D6C044605F001050B6460BB25
:1043D0000120FFF743FF4B68DA0708D4002415B12A
:1043E0001F4B204A1A6449F040FB204638BD1E4B43
:1043F000586020461D4C0B6BDB0706D4A04202D14F
:104400004FF0FF34EBE70130F5E7A0424FF0FF3407
:1044100018BF0024E3E701320B6B13F0080307D049
:104420008242F8D16FF00104D9E700220F48F3E788
:104430008242F7D020210C4A91620121A2F58052DC
:1044400051600749094A886A800603D49342E9D03B
:104450000133F8E79342C1D1E4E700BF0090005078
:10446000004009503254FFFF0060095040420F00E5
:104470004FF0004238B5164B01465A664AF6CD3326
:10448000144C154A656C236443780B205B0043F0A1
:104490000103D363FFF7E2FE63688A7823F4F873BD
:1044A00043EA02136360CA784B7943EA0223A360AC
:1044B0000A798B7943EA022323610878FFF77AFFB0
:1044C000EB0744BF054B236449F0CFFA012038BD08
:1044D0000090005000400950004000503254FFFF4F
:1044E0004FF00042124B70B55D6E03F580535A6673
:1044F0004AF6CD3304460F4980204E6C0B64FFF71B
:10450000ADFE0B6A23F00F030F2C94BF234343F03F
:104510000F030B62F30744BF074B0B64002DA2BFD0
:104520004FF00042054B5A6649F09FFA70BD00BF3C
:1045300000800050004009503254FFFF00A000509E
:104540004FF00042104B70B55D6E03F580535A6614
:104550004AF6CD3304460D4980204E6C0B64FFF7BC
:104560007DFE0B6A23F4F85343EA04230B62F3073E
:1045700044BF074B0B64002DA2BF4FF00042054B18
:104580005A6649F072FA70BD008000500040095030
:104590003254FFFF00A000502C4B2DE9F04198420F
:1045A000064612D02A4886420CBF57200020FFF74B
:1045B00061F8B16811F0010109D03169090E0131CA
:1045C000B0FBF1F10846BDE8F0815620EFE7326B11
:1045D000B468204B04F0E004402C03EA020310D03E
:1045E00007D854B3202C2CD0B36DDB0748BF490843
:1045F000E8E7602C27D0802CF6D14FF480750C466C
:104600001CE080250C464FF0030803F5807308FB7F
:1046100003F80023424619462EF0D6FF02FB04F1B0
:1046200000FB05F705FB0311A2FB0505002342462D
:1046300029442EF0C9FF3918D6E710254FF001089C
:10464000E3E72546DBE74025D9E700BF0000015B33
:1046500000000A50F8FF7F002DE9F04105460F46A3
:104660001E4690464AB101233022194C8B4002FB72
:1046700000443EB304F5825423600F21072F05EB5D
:10468000450388BFA7F108044FEA0313114895BFFB
:10469000BC00A40004330C3308FA04F2A14018440F
:1046A00031F074F8B8F1000F0AD101213020084A26
:1046B00001FA07F700FB05223EB102F582521760AE
:1046C000BDE8F08104F50154D6E702F50152F6E7A2
:1046D00000C0035030C00350F8B505460E461446DE
:1046E0005AB3826803F0030722F44072826030F00C
:1046F000F0FFAA6882EA072303F440735340AB60DB
:1047000030F0EBFF36B9B5F1B64F17D12E20FEF7DA
:10471000B1FF0646AB680C4BD85D60430DD06FEA25
:10472000C4040444A319B3FBF0F3AA68013B920745
:1047300002D5002B08BF0123AB61F8BD034B9D429E
:10474000E8D12F20E3E700BF10F0040800800650F6
:1047500038B500230E4A036400F50053DA634A7843
:1047600004460D4600F108037AB903F5805302228E
:104770001A602046D5E901122B7BFFF7ADFF2046DA
:104780002978BDE8384031F012B803F50053EEE760
:10479000FFFF1F00B0F1B64F2DE9F04322D0804B50
:1047A000984240F0FA807F4B402505264FF00008E4
:1047B0004FF0030C996800F50054C26B12F4C06FFF
:1047C00016D0970510D5FD225A7009221A700022C2
:1047D000026493F90110012900D15A7093F9010084
:1047E000BDE8F083704BDFE75605EED5FE22EBE720
:1047F0001F78082F00F2CD80DFE817F009001F00B6
:1048000041004C006900740096009E00C2004C8874
:104810000A88E5060AD5120A02F0060242F0F00202
:10482000012119704263C1600120D9E702F0FE0244
:10483000A10748BF42F00102F2E7170607D5802121
:1048400000F50052D1634FF608721A8062E05206FA
:10485000EAD54A88E563D70604D502221A700B7898
:104860004363E1E7920765D507221A701B7901EBD4
:10487000C3010B89012BD7D10823C360D4E71706E6
:10488000DDD45206D0D54A88E563970752D583F820
:1048900000C092E74C880A88E50643BF120A02F07E
:1048A000060242F0F00202F0FE02640709D51C790C
:1048B00042F0010201EBC4010989012904BF08216A
:1048C000C160042119700123C3604263ACE717067D
:1048D000B5D45706A8D54A88E56352072AD50722DA
:1048E0001A70A1E71A795F8801EBC20EBEF8089032
:1048F000B94511D80132D2B21A714F88A3F802809B
:1049000017F0040FC3D1FF0702D4012A7FF655AF79
:1049100008221A700223B0E7DEF80420791C5980BF
:10492000D25D42630622DBE7170688D457067FF57F
:104930007BAFE5631E7040E794067FF575AF2026D8
:104940001A7900F5005401EBC2010A89456AE66351
:104950005C88A24281BF4968661C5E800D555988FB
:104960008A42D5D90424012AC46004D9013A91426B
:1049700001D10822C2601A78092A3FF428AF53E710
:10498000D2057FF551AF4FF4807100F50052D1632D
:104990001BE74FF609321A8019E76FF003001FE793
:1049A00000800650B0510020A4510020B0F1B64F55
:1049B00010B407D01A4B98422ED06FF003005DF868
:1049C000044B7047174B0269D20744BF2022C260D4
:1049D0004A88940702D50C89002CEED0520702D5E4
:1049E0000A8A002AE9D04FF480721A600022996086
:1049F0001A71C023C3604369DB050FD4202200F580
:104A00000053DA63084A5DF8044BDA63036C43F43D
:104A1000FC630364FFF7BEBE044BD4E7436AEAE7D6
:104A200000800650A4510020FFFF1F00B05100205D
:104A30004369DA01FCD4012300F50050024A4360C7
:104A400053689B07FCD4704700400059084608B5DE
:104A500069B92A20FEF70EFEB0B10C4B984206D978
:104A60000B4B9B68C3F302730133B0FBF3F00949AE
:104A700000F5742000F23F20B0FBF1F001387F28F0
:104A800028BF7F20C0B208BD0120F0E7005A6202B3
:104A90000040005940420F0010B50B4C8C4228BF1B
:104AA0000C461AB92A20FEF7E5FD0246601E0244B4
:104AB000B2FBF4F0A24228BF00F1FF30032828BF68
:104AC0000320C0B210BD00BF005A620210B51048EA
:104AD000104C002B18BF2046884228BF08460446C9
:104AE0001AB92A20FEF7C6FD02469DF808000130DB
:104AF000B2FBF0F2601E0244B2FBF4F340F2FF306E
:104B0000A24228BF03F1FF33984228BF184610BDC8
:104B100080969800404B4C002DE9F04F2DED048B12
:104B2000B44E0C4687B01546314600220746FFF7C3
:104B3000B3FF6379984238BF18465FFA80F8384669
:104B4000FFF776FF207950B92A20FEF793FDB04297
:104B5000014628BFB0FBF8F13846FFF777FFE3784E
:104B60004FEA08721B0102F0E04203F030031343E6
:104B70000004227800F4FE0003430AB143F002036C
:104B800062780AB143F00403A2780AB143F0080343
:104B90004FF00009BB60E38822893B616389DFF83D
:104BA00060A243EA02433B62574502D1B9F1020FCA
:104BB00008D1012307F580577B6007B0BDEC048B5B
:104BC000BDE8F08F00222C788B488C49AE68944267
:104BD00018BF014623468A48CDF80080FFF776FFCC
:104BE000B6B28642334638BF034607EB091103933A
:104BF0008B6C04F0030623F0435323F41D1323F4BA
:104C0000405323F01F0333436E78EA78B60006F072
:104C10001C061E43AB784FEA09101B0303F4E04364
:104C20003343160406F4E02633432E7C760506F45F
:104C3000600633432E79360706F0405633438B64C3
:104C40008B6C7049C3F30233013B042B00F2858067
:104C5000DFE803F0838383030300D1F8843109F193
:104C6000050B002C6FD10AEB00039C6CC4F30234DB
:104C7000631E012B634B73D8DFED637AD3F8804159
:104C8000A4B223044FF001035044806C24F4C046C6
:104C9000C0F3820000F1010E03FA0EFE07EE10EAE7
:104CA0004FEA8646B8EEC79AF6EE008A554B48BFE3
:104CB00046F00046002871D1D3F88C311BB208EEC3
:104CC000103AB8EEC88A37EE888A002A7BD105A848
:104CD00000F0C6F9DFED4D7ADFED4D6A86EE897A98
:104CE000DFED4C6A67EE887A27EE267AF1EE006AED
:104CF000B6F1004F07EEA67A0BD0DFED476A07EE5C
:104D0000904A37EE266AFAEEE87AB0EE667A17EE47
:104D1000867AB5EEC07AF1EE10FACABFB1EE477AE4
:104D200038EEC77A37EE687AFDEEC77A17EE903A1A
:104D3000B3F5003F54DB6FEA56466FEA46464FEA4A
:104D40000B134AF80360039B0AEB0B11C3F3090230
:104D50004A6009F10109143526E7D1F880317EE770
:104D6000032C0AD1D3F88041D3F88C31240C1B14C6
:104D700007EE903AF8EEE77A83E7042CD3F8844103
:104D80000BBFD3F88C31D3F88C311B141B1407BF25
:104D9000A4B25B00240C03EB4303E9E7D3F89001D2
:104DA000D3F8883100B207EE100AB8EEC77A77EE72
:104DB000677A29EE287A1BB287EE878A07EE903A47
:104DC000F8EEE77A7FE7D5ED037ADFED146AF8EEC7
:104DD000677A87EEA67AF7EE046AC6EE877A7BE7F3
:104DE00013F5003FAABFC3F3110346F400361E4378
:104DF000A5E700BF005A6202404B4C008096980025
:104E0000004000590080E00F000000003D3B843F5F
:104E100000008043000020440000004900007A4464
:104E200010B5012104462020FEF708FC01212120B5
:104E3000FEF704FC0122114B5A60227812069A6098
:104E40006178A27842EA01429A61FF229A620022C6
:104E50009A631A644FF000425A654FF0FF324FF4E4
:104E6000001103F500531A65054AC2F88011E37872
:104E70001B01DBB282F81533116010BD0000045035
:104E800000E100E02DE9F0410125C3B2D1F8008036
:104E900091F80AC00F7B91F80DE09D400C46CB7A4B
:104EA0001C491D4E0D65810001F1A04101F58821CD
:104EB000C1F80480302101FB00601B0543EA0C436C
:104EC00043EA475322F00302C0F860E0C36502677B
:104ED00030F00EFC736D2B437365237A13B1336C82
:104EE0002B433364637A13B1B36B2B43B3632279DF
:104EF000A37943EA0243074A93616179E37943EA7C
:104F0000014306498B61044B55639D64BDE8F04144
:104F100030F0F4BB00200450000004500010045096
:104F200010B50124C0B2844030F0E2FB044B5A6D4E
:104F300022EA04025A659C62BDE8104030F0DEBBF4
:104F400000000450F8B50125C3B204469D4030F07E
:104F5000CFFB3022094B1E6D5F6B02FB04335C6E8E
:104F600030F0CCFB3D4206D1C4F30A1008B93542FB
:104F700000D10130F8BD0020FCE700BF0000045064
:104F80004FF48032054B9A6641F6713203F51C33BB
:104F9000DA63012203F50053DA6070470090005095
:104FA00041F671320121064BDA6303F50052D160FC
:104FB0000022DA634FF48032A3F518339A66704703
:104FC00000000350013831289ABF024B185C0020C2
:104FD000704700BF14F00408021E30B54FF0000007
:104FE0000CBF1025042547F60774084952B9831DE4
:104FF00051F82330234023B101308542F6D14FF0E0
:10500000FF3030BD00F11603F2E700BF008003500F
:1050100010B5C2F30623044602F0070241B942EA82
:1050200003220B4B42F44022063443F8242010BDE7
:105030001846114630F043FC01461846FFF7C2FF00
:10504000034B41EA0020163443F82400EFE700BF89
:1050500000800350014BD3F894007047004000508B
:105060004FF48032064B5A6603F5E6239B69C3F37F
:105070008512827003F03F021B0B42700370704771
:105080000090005040F6B732064B5B689BB29342EB
:105090009FBF4FF47A72B3FBF2F3034AD05C88BF30
:1050A000002070470080E00F46F00408014B986C28
:1050B000D96C70470080E00F0120034B9B680A33D6
:1050C00003F01F03984070470080E00F70B505465D
:1050D00016461C4621B94FF42070FEF7CBFA014664
:1050E000402C1BD003D8DCB1202C1BD070BD602C11
:1050F000FCD1042303FB06F2560806EB4113B3FB75
:10510000F2F3094A203B02EAC303AA6822F06002D4
:10511000AA60AA681443AC60EB61E7E70623E9E7FD
:105120001023E7E70823E5E7F8FF7F002DE9B84102
:10513000154F15460F40FAB9202B20D0402B20D018
:10514000002B14BF40241024012307F580775F4310
:1051500000233A4619462EF037FA554300FB04F86F
:1051600004FB0351A2FB040400233A4621442EF021
:105170002BFA4044BDE8B88180240025E4E71C46B2
:10518000E2E780240323E0E7F8FF7F00012100F538
:10519000805310B5596040F6AA6341F2050243619D
:1051A0000023094C8360C365C26000F500520361AF
:1051B000C361C3649464054C8365A04204BF036566
:1051C0004365516010BD00BFFFFF010000C00550E6
:1051D00070B50D46FFF7DAFF012300F580567360C6
:1051E000AB7C04461BB1836843F080438360EB7C57
:1051F0005BB1244B9C4202BF2A7DA3F51033C3F858
:10520000C821E36D43F08003E3652A8A6B7B204667
:105210001343EA891343E3602B7BD5E90112FFF7BF
:1052200055FF6B7D1BB1A36843F48033A360AB7D56
:105230001BB1A36843F40043A360EB7D2A7E1B07E8
:10524000120502F4E00203F0E0431343A3656B7E12
:105250009A1E012A4FF0020209D80B49032BC1F80C
:10526000202709D10423F3652B78636170BD0749BA
:10527000012BC1F82027F4E7042204F50053DA6576
:10528000F2E700BF00C0055000D0035000E003501B
:10529000054B9A689107FCD45A689207F9D4DA69E9
:1052A000002AF6D1704700BF00800A5008B5FFF70A
:1052B000EFFF0122024B03F580514A601A6108BDDD
:1052C00000800A50074B5A68012A0AD15A68D2074F
:1052D00002D5DA69002AF9D102221A610122024BB1
:1052E0005A60704700800A5000A00A5010B5064C62
:1052F000FFF7CEFF6368012B03D1FFF7E3FFFFF752
:10530000C7FF0378E36010BD00800A50E8B94A681F
:105310000B7812B1127843EAC2034A78002A14BF0C
:105320000222002213438A6812B1127843EA8213E0
:105330008A78002A14BF042200221343CA6812B1DB
:10534000127843EA4223014A9364704700800A506E
:1053500008B9014B5964704700900A5008B9014BD5
:105360005964704700A00A5008B9014B196470478E
:1053700000A00A5010B9024B186C7047002070470B
:1053800000800A5048B911B1012903D07047044B7D
:10539000D86C7047024B186D70470020704700BFF3
:1053A00000800A5040B911B1012903D07047034B66
:1053B000DA647047014B1A65704700BF00800A50DD
:1053C00038B50446054D48F065FB0FCC0FC594E891
:1053D000030085E80300002038BD00BFBC51002059
:1053E00047F6FF739A42F0B566D0012966D8344D6E
:1053F000CF0015F8313005EBC100012B847813D1B3
:105400000025C3781B1B9D4202D3E018C0B2F0BD3B
:10541000591B4668A3EB510136F911609642D4BF7F
:105420000D4601F1FF33EEE740680028EFD0B0F9F8
:105430000030934204DBB0F902309342B8BF134608
:1054400082883D44FF2A19BFC8214FF0280CB0F9CB
:105450000610B0F908C0A1EB03020CBF012600261C
:1054600092FBFCF26D78324412B2954201DD002AC3
:1054700001DA6A1E12B24FF47A7700EBC206F188A5
:10548000B668013213FB016112B221EAE1715C31AD
:105490009542B1FBF7F104DD00EBC206B6888E42FF
:1054A000EBD200EBC20232F8040C884228BF084657
:1054B000A04238BF2046A9E7FF20A8E70020A6E7C2
:1054C000BC5100200129F0B553D82B4800EBC10492
:1054D00010F83110636801290FD1E078A478904268
:1054E00094BFC4EB0001C4EB0201001BCAB28242AC
:1054F000C8BF002233F91200F0BD002B39D0A178CB
:10550000914202D3B3F90200F6E7E178B3F9000063
:105510009142F1D999886478A1F1FF06013C71426A
:1055200003F10405E4B2714103F10C071FFA82FC98
:10553000CEB2B44216D805EBC1014FF47A756A4376
:10554000B1F902404968521A04EBD47102EB6102CE
:1055500092FBF4F29042CFDBB3F902009042CBDC35
:1055600010B2C9E737F831E04E1CE645E3D33146C7
:10557000DEE70248C0E700BFBC5100200080FFFF0B
:105580000148FFF71DBF00BFE82D05087FB51422B5
:10559000002101A849F092F8044B01A94FF0FF3017
:1055A000029348F03EFB07B05DF804FB006A180068
:1055B0004FF48062014B00209A66704700900050C3
:1055C0004FF48062014B00209A66704700A00050A3
:1055D00008B5B0B14FF480620B4B9A6630F0B0F969
:1055E0004FF098435A6CD202FCD54FF48062586D4C
:1055F000064B10F470209A6604D0BDE8084030F0E5
:10560000EAB9212008BD00BF0090005000A0005062
:105610002DE9F0418CB08846DDE912761D4604463E
:10562000002847D0002945D0002F43D0002E41D07C
:1056300013F00F033ED120482049A360002A18BF71
:105640000146E361C4E90013404609A930F033FB89
:1056500068BB2046099930F06AF92946204630F0A7
:1056600066F96946404600F079FF00BB694620466E
:1056700030F049F9404603A930F0EBFBB8B92046B9
:1056800003A930F040F906970127204645F0005560
:1056900006A90797089530F036F9204609A909961A
:1056A0000A970B9530F039F92046FFF791FF0CB0BF
:1056B000BDE8F0812120FAE70001010400010004A7
:1056C0002DE9F04792B08846DDE91A571C46064698
:1056D000DDF87090002864D0002962D0002F60D0DF
:1056E000B9F1000F5DD0002D5BD013F00F0358D13E
:1056F0002D482E49B360002A18BF0146F361C6E960
:10570000001340460FA930F0D6FA002846D13046A3
:105710000F9930F00CF92146304630F008F969460F
:10572000404600F01BFF002838D16946304630F073
:10573000EAF8404603A930F08CFB78BB4FF0010833
:105740003046DFF86CA003A930F0DDF844F00054D7
:10575000304606A90695CDF81C80CDF820A0099703
:10576000CDF828800B9430F0CEF8304609A930F0FF
:10577000CAF830460CA9CDF83090CDF834800E949C
:105780000F95CDF84080CDF844A030F0C6F83046F3
:105790000FA930F0C2F83046FFF71AFF12B0BDE88B
:1057A000F0872120FAE700BF03020104030200048E
:1057B000100000202DE9F04F97B0894690461F4613
:1057C0000546DDF880A0002800F0BD80002900F02B
:1057D000BA803AB1229B002B00F0B580239B002BAE
:1057E00000F0B180BAF1000F00F0AD80219B002BDA
:1057F00000F0A98077B13C680026229B43440293C5
:10580000464509D3002F00F0A08000203C6017B06F
:10581000BDE8F08F3C46EFE75CB1229B219A9B5D8F
:10582000125D01345340239A04F00F04935501365E
:10583000E6E7A8EB060BBBF10F0F58D9444B4846DF
:10584000C5E90034AC60EC6113A930F034FA0028EB
:10585000DDD1284613992BF00F0B30F068F859462C
:10586000284630F064F8484604A900F077FE002886
:10587000CDD1284604A930F046F8484607A930F0B3
:10588000E8FA0028C3D1284607A930F03CF80123E4
:105890002299304ACDF828A00B930C928A190D92C8
:1058A00028464BF000520AA90E9303920F9230F053
:1058B0002AF828460DA930F026F8239B039A991957
:1058C0000123109111931292224A284610A9CDF873
:1058D0004CA01493159230F020F8284613A930F00C
:1058E0001CF82846FFF774FE5E4400288FD1229BE7
:1058F00003EB060B239B1E44029B5B4501D14646EE
:105900007EE7ACB9219B2246CDE900A3494610238E
:105910002846FFF77DFE00287FF479AF0AF11002D8
:1059200012F8013D0133DBB213700BB99245F7D188
:10593000219A1BF8013B125D0134534006F8013BEC
:1059400004F00F04D8E7212061E738465FE700BF85
:1059500003030004100000202DE9F04F97B00F461C
:10596000144699468346209EDDF88880DDF890A095
:10597000269D002800F09F80002900F09C801DB12A
:10598000259B002B00F09780B9F1000F00F0938069
:10599000B8F1000F03D0219B002B00F08C803CB1AC
:1059A000239B002B00F08780BAF1000F00F083806A
:1059B000C6F10F02D2B2032A05D80121D20001FAA2
:1059C00002F2A24277D9022D75D0102D73D815F0AE
:1059D000010270D1F11F06296DD838490AEB040085
:1059E000884268D836493846CBE90012CBF80820FF
:1059F000CBF81C2013A930F05EF9002858D1584686
:105A000013992FF094FF584645EA06412FF08FFF77
:105A1000414658462FF08BFF214658462FF087FF0E
:105A2000384601A900F09AFD002841D1584601A945
:105A30002FF069FF384604A930F00BFA002837D15F
:105A40000127584604A92FF05EFF239B48F000521F
:105A50000793219B584644F000540DA946F0005688
:105A6000089709940A930B970C92CDF834900E97EF
:105A70000F962FF048FF58460AA92FF044FF5846CA
:105A800007A92FF040FF259B584610A945F0005567
:105A9000CDF840A0119712941393149715952FF0F9
:105AA0003CFF584613A92FF038FF5846FFF790FDEA
:105AB00017B0BDE8F08F2120FAE700BFFFFF0320F9
:105AC000000005042DE9F04F99B00F4614469B469F
:105AD0008046229EDDF89890289D002800F0B28034
