S00C0000636F32736E2E73333703
S31508000000001200202D200008014F0308014F0308A5
S315080000107F6F0308014F0308014F0308014F0308C8
S31508000020014F0308014F0308014F0308014F030856
S31508000030014F0308014F0308014F0308014F030846
S31508000040014F0308014F0308014F0308014F030836
S31508000050014F0308014F0308014F0308014F030826
S31508000060014F0308014F0308014F0308014F030816
S31508000070014F0308014F0308014F0308014F030806
S31508000080014F0308F5170008014F0308014F03083D
S31508000090014F030819260008014F0308014F0308FA
S315080000A0014F030819270008F5260008014F030821
S315080000B0014F030879210308912B03083DE0040842
S315080000C039E004085D23030849E0040841E0040810
S315080000D0692B030845E00408D12B0308352C0308CF
S315080000E0014F0308014F0308014F0308014F030896
S315080000F07B6F0308014F0308014F0308014F0308EC
S31508000100014F0308BD170008014F0308014F0308F4
S31508000110014F0308014F0308014F0308014F030865
S31508000120014F0308014F0308014F0308014F030855
S31508000130014F0308014F0308014F0308014F030845
S31508000140014F0308014F0308014F03084B700308CA
S3150800015071080308014F030801DD040807DD0408D8
S31508000160014F0308014F0308014F0308014F030815
S31508000170013800D0FCE770477F4B73B51C8814F034
S31508000180010440F0F38041F60B227C4D7C4B7F2125
S31508000190C5E900347B4B7C489A8010221C60AC6011
S315080001A04DF0FCFF7F22794B1A70794B1B6ADB07EF
S315080001B006D440F20E41774B774A784833F08EF9E9
S315080001C0214628462BF0F4FA044620B940F212419B
S315080001D0734B714AF1E72CF025FA20B140F216412B
S315080001E0704B6D4AE9E74FF0011120464DF070FA61
S315080001F020B140F21A416B4B674ADEE702212046DE
S315080002004DF048F920B140F21D41664B624AD4E7E9
S31508000210204665492CF062F820B14FF48461614BA1
S315080002205D4ACAE7012120464DF04AFB20B140F25B
S3150800023025415C4B584AC0E7012120464DF050FB4A
S31508000240064620B14FF48561564B534AB5E7014639
S31508000250382256484DF0A2FF80233246204605F143
S3150800026010014DF03EFA802804D040F22F41504B41
S31508000270494AA2E74F4D01202BF0EEFA3CA3D3E9F9
S3150800028000232C602046CDE900234FF0FF324FF0C3
S31508000290FF334DF03AF9014620B140F26E31414B39
S315080002A0454A8AE737480AF09FFE012108460AF0C0
S315080002B00FFF012128684DF08FF8044620B140F25F
S315080002C0C141384B3D4A78E701464FF408723C482D
S315080002D04DF064FF3B4A3C4B02F188011A60996273
S315080002E002F5887102F5CC729C809A679C85374A1C
S315080002F0A3F854401965A3F87C40354B6FF06300AA
S315080003001A609C80334A344B1A60344A9C801470B5
S31508000310334A5A6117F026FE0B200AF01FFE314BAE
S31508000320186020B940F2D9412F4B244A45E705F019
S3150800033007F920460AF038FF0822286811464DF0CA
S31508000340E6F8044620B140F2DE41284B1B4A34E762
S315080003500CF022F8264B27481C70274B1C70274B9D
S315080003601C7002B0BDE870403EF0DBBC02B070BD48
S315080003700BE020FF2202000092620020D8570020DE
S315080003802DB40008D0570020566500204765002088
S315080003900080E00FACEF040850F1040851ED0408A2
S315080003A0C5EF0408AFEC040860F20408745800208E
S315080003B0D4EF0408CC57002043F10408CCF1040814
S315080003C0AC580020B4580020281C0020676500207F
S315080003D0001C0020EC650020C81C0020E6650020F3
S315080003E0F01C0020705800200CF0040827F00408C0
S315080003F04A650020ABF00408EB650020EA6500209A
S31508000400B0EE401AF0EE601A9FED010B00F004B84A
S315080004100000000000000040F8B52DED028B57ECF7
S31508000420106B55EC114B00F0CBF8634BB0EE408ADD
S31508000430F0EE608A93F9003001332AD022462B4623
S315080004402046294634F092FC18BB32463B463046D5
S31508000450394634F08BFC002844D10022002330466C
S31508000460394634F051FCD8B10022002320462946EB
S3150800047034F04AFC00283DD145EC104B34F02CF9F9
S3150800048038B1204629460022002334F047FC0028CC
S315080004905CD1B0EE480AF0EE680ABDEC028BF8BDF6
S315080004A0B0EE480AF0EE680A34F016F958B300229E
S315080004B0002351EC180B34F027FC0028E9D047EC50
S315080004C0106B34F009F90028E3D045EC104B34F0F2
S315080004D003F90028DDD034F0A9F922239FED2E8BED
S315080004E00360D6E7204629460022002334F00CFC98
S315080004F00028CED09FED2A8BB0EE480AF0EE680AA7
S31508000500BDEC028BF8BD47EC106B34F0E5F800281B
S31508000510CDD045EC104B34F0DFF80028C7D018EEE4
S31508000520100A53EC182B194634F020FC20BB34F083
S315080005307DF922220346394630461A6000220023F6
S3150800054034F0ECFB48B99FED188BA2E734F06EF94E
S3150800055021239FED178B03609BE745EC104B34F086
S31508000560C9F822462B4651EC100B34F0CDFB002877
S31508000570E9D19FED0F8B8CE734F058F90022002360
S31508000580212101601046194634F080FA41EC180B17
S315080005907FE700BFAFF30080000000000000000006
S315080005A0000000000000F03F000000000000F07F9F
S315080005B0000000000000F0FF981400200000000072
S315080005C02DE9F04F55EC114B25F0004A5AEA040282
S315080005D02DED0C8B87B01FD05D4910EE102A57EC15
S315080005E0106B27F00048B946884511DCAB4611EE7A
S315080005F0103A08D13EB1574807B0BDEC0C8BBDE8A0
S31508000600F04F00F071BD52498A4501DC0BD153B158
S31508000610514B43441343EED19FED490B07B0BDEC54
S315080006200C8BBDE8F08FB9F1000F45DB0021009176
S3150800063083B9474B9A455BD0484B9A456AD0BBF17C
S31508000640804F00F0B084464B9B4503D1B9F1000FAB
S3150800065080F20D85029247EC106B34F033F8029A5B
S315080006604AB929F040433D4A934200F0A883B8F1BD
S31508000670000F00F0A4834FEAD973009A013B049354
S3150800068013434ED0374B9A4572DD03F104739A45EE
S31508000690354B40F32B84984540F3A983BBF1000FF3
S315080006A040F3A98328A3D3E900231046194634F05A
S315080006B0C3F841EC100BB1E72C498A4527DCA1F1B8
S315080006C054718A45B2DD4FEA2A51A1F2FF31142945
S315080006D040F37D84C1F1340123FA01F000FA01F1F7
S315080006E09942A3D100F00100C0F1020100919FE7F1
S315080006F0194B434413438FD01B4B984540F3AB83A8
S31508000700BBF1000FC0F2778345EC104B86E7022158
S3150800071000918DE7BBF1000FC0F24F8447EC106BD8
S315080007207CE732463B461046194632F03FFB024606
S315080007300B4634F0ABF941EC100B6FE7AFF30080D2
S31508000740000000000000F03F9C7500883CE4377EFE
S315080007500000F07F2C6F0508000010C00000F03F75
S315080007600000E03F0000E041FFFFEF3FFFFF3F438F
S31508000770E34B002209EA030353B9E24B51EC100B91
S3150800078034F05AF86FF0340241EC100B10EE908AF0
S315080007904FEA2853C8F31308DB4EA3F2FF3348EA9F
S315080007A006069A18D94B9845059207DDD84B984501
S315080007B040F333840132A6F58016059200279FED93
S315080007C0B87B9FEDB96BB0EE47DAF0EE67DAB0EEBC
S315080007D047CAF0EE67CA51EC160B53EC102B33469A
S315080007E0761043EC192B41EC1A0B02460B4646F0E1
S315080007F0005651EC190B32F0D9FA8046894653EC6B
S315080008001A2B51EC190B32F0D3FA02460B4600208C
S31508000810BD4934F03BF941EC1B0B53EC1B2B40460E
S31508000820494634F009F80A4606F5002341EC180B48
S3150800083001460020CDE90212002106460246029131
S31508000840D919DDE902AB0F460B465046594633F037
S31508000850F3FF02460B464046494632F0A7FA804661
S3150800086089463046394653EC1A2B32F09FFA02462F
S315080008700B4651EC190B32F099FA52465B4633F0A7
S31508000880DBFF02460B464046494632F08FFA53ECE8
S315080008901B2B33F0D1FF53EC182B41EC1A0B51EC00
S315080008A0180B33F0C9FF06460F4681A3D3E9002388
S315080008B033F0C2FF80A3D3E9002332F079FA324637
S315080008C03B4633F0B9FF7EA3D3E9002332F070FA32
S315080008D032463B4633F0B0FF7BA3D3E9002332F020
S315080008E067FA32463B4633F0A7FF79A3D3E90023DC
S315080008F032F05EFA32463B4633F09EFF76A3D3E9E2
S31508000900002332F055FA8046894632463B46304641
S31508000910394633F091FF02460B46404649464FF0AA
S31508000920000833F089FF524606460F465B4651ECEF
S31508000930180B32F03DFA53EC1A2B33F07DFF324692
S315080009403B4632F035FA52465B4641EC190B5046A7
S31508000950594633F071FF00226E4B06460F4632F0B9
S3150800096027FA53EC192B32F023FA894642465046A9
S315080009704B46594633F060FF002282468B46654B4C
S315080009804046494632F012FA32463B4632F00EFAF3
S3150800099002460B4651EC190B32F008FA53EC182BA9
S315080009A033F04AFF06460F4642464B4651EC1A0BB1
S315080009B033F042FF02460B463046394632F0F8F924
S315080009C0804689465046424659464B4632F0F0F92B
S315080009D000200F46064642A3D3E9002333F02CFF36
S315080009E052465B4641EC190B3046394632F0DEF981
S315080009F002460B464046494632F0D8F93AA3D3E9AF
S31508000A00002333F019FF804689463046394638A315
S31508000A10D3E9002333F010FF02460B464046494609
S31508000A2032F0C6F953EC1C2B32F0C2F906460F46D3
S31508000A30059832F009FB3246804689463B4651EC1A
S31508000A40190B32F0B5F953EC1D2B32F0B1F94246C9
S31508000A504B4632F0ADF9002042464B4682468B465D
S31508000A6032F0A4F953EC1D2B32F0A0F953EC192BF4
S31508000A7032F09CF902460B463046394632F096F972
S31508000A80009B049A013B134341EC180B40F0DC81B0
S31508000A909FED197BB0EE479AF0EE679A3CE000BFEF
S31508000AA00000000000000000000000000000F03F09
S31508000AB0EF4E454A287ECA3F65DBC9934A86CD3F35
S31508000AC001411DA96074D13F4D268F515555D53F1B
S31508000AD0FFAB6FDBB66DDB3F033333333333E33FB3
S31508000AE0000000E009C7EE3FFD033ADC09C7EE3F08
S31508000AF0F5015B14E02F3EBE000000000000F0BFC9
S31508000B000000F07F000040430000F03F8E9803008D
S31508000B1079B60B0000000840002320462946CDE997
S31508000B2000450093DDE9008942464B4632F03EF91E
S31508000B305B46524633F080FE06460F4622462B4653
S31508000B4051EC180B33F078FE02460B463046394610
S31508000B5032F02EF9424604460D464B465946504653
S31508000B60A04633F069FE06460F4620462946324619
S31508000B703B46A94632F01CF9D54B04460D46994228
S31508000B808B4640F33B81D34B0B44034340F03582FD
S31508000B9040464946B6A3D3E9002332F009F932465E
S31508000BA03B4641EC180B2046294632F0FFF8024630
S31508000BB00B4651EC180B34F0CFF8002840F01D8294
S31508000BC0CBF30A534FF48012A3F2FE33C24CBBF1A7
S31508000BD0000F42FA03F34FF000005B44C3F30A52D6
S31508000BE0C3F3130AA2F2FF324AF4801A44FA02F453
S31508000BF0C2F1140223EA04014AFA02FA024630460E
S31508000C000B46B8BFCAF1000A394632F0CFF8024699
S31508000C100B4606460F46404649464FEA0A5B32F0FF
S31508000C20C7F80D460024294693A3D3E90023204696
S31508000C3033F002FE32463B4606460F462046294614
S31508000C4032F0B4F802460B464046494632F0AEF852
S31508000C508BA3D3E9002333F0EFFD8046894620466F
S31508000C60294689A3D3E9002333F0E6FD02460B465D
S31508000C704046494632F09CF8804689463046424608
S31508000C8039464B4632F094F8324604460D463B4602
S31508000C9032F08CF802460B464046494632F086F852
S31508000CA02246804689462B462046294633F0C4FD0F
S31508000CB006460F4676A3D3E9002333F0BDFD76A397
S31508000CC0D3E9002332F072F832463B4633F0B4FDDE
S31508000CD073A3D3E9002332F06BF832463B4633F070
S31508000CE0ABFD71A3D3E9002332F060F832463B46E8
S31508000CF033F0A2FD6EA3D3E9002332F059F8324649
S31508000D003B4633F099FD02460B462046294632F00B
S31508000D104DF806460F462046324629463B4633F0EE
S31508000D208BFD00224FF0804341EC180B30463946C4
S31508000D3032F03CF802460B4651EC180B33F0A6FE8F
S31508000D40424606460F464B462046294633F074FD72
S31508000D5042464B4632F02CF802460B463046394698
S31508000D6032F024F822462B4632F020F802460B468B
S31508000D7000205A4932F01AF88B4402460B46BBF556
S31508000D80801FC0F26C81594653EC192B33F054FD81
S31508000D9041EC100B42E447EC106B009233F092FCE6
S31508000DA0009A002A7FF4BDAC29F040434B4A93428F
S31508000DB003D0B8F1000F7FF4B4AC00230093BBF165
S31508000DC0000F07DA0020454953EC102B33F05EFE7E
S31508000DD041EC100BB9F1000FBFF620AC404B009A5E
S31508000DE04344134340F02D8153EC102B9BE4BBF195
S31508000DF0000FFFF657AC9FED300B0FE421F00043D0
S31508000E00DFF8E4C0634540F3F080364B0B440343F8
S31508000E100AD132463B4631F0C9FF42464B4633F0CB
S31508000E2091FF00283FF4CCAE25A3D3E9002351EC6B
S31508000E30190B33F001FD22A3D3E9002333F0FCFCA0
S31508000E4041EC100BFFF7EABB9FED1F7BB0EE479A0C
S31508000E50F0EE679A60E6BBF1000FCCDA05F10043C5
S31508000E6000EE104A00EE903AFFF7D8BBAFF30080C9
S31508000E70FE822B654715973C00000000432EE63F8F
S31508000E80EF39FAFE422EE63F396CA80C615C20BEAB
S31508000E90D0A4BE726937663EF16BD2C541BDBB3E72
S31508000EA02CDE25AF6A56113F93BDBE166CC1663F50
S31508000EB03E5555555555C53F000000000000000039
S31508000EC059F3F8C21F6EA501000000000000F03FAC
S31508000ED0FFFF8F40000070BFFFFF0F000000F03FCC
S31508000EE0000010C000346F3FFFCB90409845FFF6D6
S31508000EF07EAF794B98453FF7D1AB0022764B51EC44
S31508000F00100B31F053FF06460F4663A3D3E90023BF
S31508000F1033F092FC82468B463046394660A3D3E9C5
S31508000F20002333F089FC00226C4B41EC180B304649
S31508000F30394633F081FC02460B465BA1D1E9000134
S31508000F4031F034FF32463B4633F076FC02460B4618
S31508000F500020634931F02AFF8046894632463B46DF
S31508000F603046394633F068FC02460B464046494649
S31508000F7033F062FC4EA3D3E9002333F05DFC02464E
S31508000F800B4651EC180B31F011FF06460F4650463A
S31508000F90594632463B4631F00BFF002052465B4627
S31508000FA082468B4664E532463B463046394633F040
S31508000FB043FC41EC100BFFF731BB00204649324693
S31508000FC03B4633F063FD41EC100BFFF727BB002BC4
S31508000FD07FF4E1AEC1F114014AFA01F000FA01F119
S31508000FE051454DD00093FFF727BB3D4A93424EDC4F
S31508000FF0DDE900239346924614E62FA3D3E900239E
S3150800100051EC190B33F018FC2BA3D3E9002333F06A
S3150800101013FC41EC100BFFF701BB9FED297B4FF446
S315080010208027B0EE47DAF0EE67DA9FED277BB0EE61
S3150800103047CAF0EE67CA9FED267B51EC170BFFF700
S31508001040CCBB009B012B7FF4E9AA10EE901A10EE98
S31508001050102A01F1004343EC102BFFF7DFBA504684
S3150800106043EC102B00F048F851EC100B8CE647ECDB
S31508001070106B07B0BDEC0C8BBDE8F04F33F060BACF
S3150800108000F00100C0F102030093FFF7D5BA1B1563
S3150800109098E500BFAFF30080000000604715F73FF2
S315080010A044DF5DF80BAE543E555555555555D53F5D
S315080010B0FE822B654715F73F9C7500883CE4377E12
S315080010C00000004003B8E23F06D0CF43EBFD4C3E9C
S315080010D0000000000000F83F0000F03F0000D03F8D
S315080010E00000E03F000000009FED010B704700BFC5
S315080010F0000000000000F87F38B553EC102BC3F34E
S315080011000A519C46044689BB23F0004C10EE101A7F
S315080011105CEA010129D03E4D194600223D4B10EEEE
S31508001120100A33F089FBAC4202460B4616DB8C46A6
S31508001130C1F30A513639214440F2FE70814221DC5E
S31508001140002947DC11F1350F34DA4CF250318C4264
S3150800115018DC002B26A1D1E9000143DB24A3D3E93F
S31508001160002333F069FB41EC100B38BD40F2FF7EDB
S315080011707145E0D110EE100A194631F019FE41EC1E
S31508001180100B38BD002B1CA1D1E9000107DB1AA3FF
S31508001190D3E9002333F050FB41EC100B38BD18A1FE
S315080011A0D1E9000114A3D3E9002333F045FB41EC50
S315080011B0100BF3E7184836311446184B0CEA0000B2
S315080011C0002240EA01552046294633F035FB41EC1A
S315080011D0100B38BD10480CEA000040EA015343ECF6
S315080011E0102B38BD08A1D1E90001B7E7AFF300809D
S315080011F059F3F8C21F6EA5019C7500883CE4377E3A
S315080012009C7500883CE437FE59F3F8C21F6EA58129
S31508001210B03CFFFF00005043FFFF0F800000903CEA
S3150800122010B5054C237833B9044B13B1044800E0D4
S3150800123000BF0123237010BD904A00200000000063
S31508001240406F050808B5034B1BB10349034800E086
S3150800125000BF08BD00000000944A0020406F050842
S31508001260A3F5803A704700BF174B002B08BF134BF6
S315080012709D46FFF7F5FF00218B460F461348144A93
S31508001280121A4CF08BFF0E4B002B00D098470D4BD3
S31508001290002B00D098470020002104000D000D48BF
S315080012A0002802D00C4800E000BF32F063F92000A5
S315080012B0290000F0C7FD32F037F900BF000008002A
S315080012C0000000000000000000120020A81B0020FB
S315080012D0946E002000000000000000002DE9F34194
S315080012E0164602F1100407460D46A446384A06F18A
S315080012F0200E234603CB7345106051601C4602F14D
S315080013000802F6D13446334A234603CB63451060B8
S3150800131051601C4602F10802F6D128463DF071FAE2
S315080013200021804638463DF032FA044690B34423FD
S31508001330022229463DF03AFA28463DF073FA019012
S3150800134028463DF068FA0199024620463DF045FADE
S3150800135020463DF04DFA28463DF0EDFC1F23014698
S315080013601D4A28463DF0EBFCB8F1010F18D11B4B7E
S315080013701968084601914DF00AF8019982B220468B
S315080013803DF0DBFC0346F0B93246214638461CF0F0
S315080013905BF8C0B90122124B1A7002B0BDE8F081A1
S315080013A0104B1968084601914CF0F1FF019982B279
S315080013B020463DF0C2FC0546852120463DF026FA2A
S315080013C00DB92B46E0E720463DF0B1FCE2E700BF49
S315080013D093630020C2640020A2640020001200204B
S315080013E0926300200C12002038B50E4C0E4D00F00A
S315080013F039FA41F233613DF02CFA256000F032FAF1
S315080014000A4A0B4BA060636013682B6053686B60D5
S315080014109368AB6000F026FA2146BDE838403DF0F7
S3150800142023BA00BFB44A002044E70408F0E60408DB
S31508001430DD12000810B500F015FA3DF0B4FE0228DA
S315080014400D4C02D123680A2B15D900F00BFA3DF092
S31508001450A0FE00F0D9FB00F0FBFB00F003FA012127
S315080014603DF0B8FA00F0FEF901213DF0CFFEFFF796
S31508001470BBFF0023236010BDAC4A00202DE9F041D4
S31508001480DFF88C81044698F800500E469CB025B9C2
S31508001490057028461CB0BDE8F0810025544F3D7004
S315080014A000F0E0F90DF133013DF0A1FEEEB1012E99
S315080014B0EFD1504B1B680A939DF933300993636942
S315080014C0089323690793E368069363680593A368FB
S315080014D004936388039363780293474B1A680192CF
S315080014E05B68464A009302231AE0424B1B680A933C
S315080014F09DF9333009936369089323690793E36871
S31508001500069363680593A3680493638803936378D3
S315080015100293394B1A6801925B68394A0093022391
S31508001520FE213846126832F093FBFD282CD827781E
S31508001530FFF780FF98F80050002DAAD00DAA904614
S31508001540304B03F1100C164618685968083303C661
S3150800155063453246F7D100F085F900213DF017F9C9
S315080015600646032287F001013DF01EF902213046A6
S315080015703DF035F9304624493DF038F930B1234C71
S3150800158086BB236801332360002582E718484CF0A0
S31508001590FEFE074658B130463DF02AF90028EED13E
S315080015A030461349BAB23DF0C8FB0028E7D12C22D1
S315080015B0002111A815AF4CF0F1FD98E80F0087E857
S315080015C00F0041F23363ADF8663000F04BF90023A3
S315080015D03146CDE9003311AA1BF016FF0028CED1FB
S315080015E0207056E70023304623603DF0A0FBC8E78D
S315080015F0A3630020B04A0020A81B00200412002084
S315080016000812002093630020A2640020AC4A002040
S31508001610926300202DE9F04F04460E4600254B4FF5
S31508001620DFF84C8197B040233A463046A9B23DF0E0
S31508001630B1F9002840F0848034231FFA85FA03FBA9
S315080016400AFA22683946304652443DF0A5F9002880
S3150800165069D1206800EB0A0950F80A00B9F8083081
S31508001660B9F80620B9F80410009039483CF045FD51
S31508001670D9F80C1040463CF040FD36483CF03DFD9C
S3150800168028220CA909F112003DF007FA32480CA9E4
S315080016903CF033FDD9F8241030483CF02EFD304894
S315080016A03CF02BFD99F82E30002B3ED1B9F82C20B2
S315080016B0D9F8281007A83DF042F92A483CF01DFD44
S315080016C00123DFF8B0A0DFF8B0B0DFF8B09004A9C6
S315080016D007A803933DF035F910BB039B13B9504691
S315080016E03CF00BFD049961B91E483CF006FD0598CF
S315080016F09DF818103CF0F4FC1B483CF0FEFC002357
S31508001700E5E758463CF0F9FC059B002BF7D0484620
S315080017103CF0F3FC9DF8181005983CF0E1FCEEE768
S3150800172011483CF0EAFC01357DE70E483CF0E5FC43
S31508001730D9F8280099F82C103CF0D2FC0B48F0E7B1
S3150800174001232571637117B0BDE8F08FD2640020BC
S3150800175050E7040883E7040890E7040870E70408DC
S3150800176095E704089AE70408A2E704089FE704082F
S315080017707AE704089CE7040808080508211A0508FA
S315080017801FB5002304464371039100F06BF8064B1E
S31508001790064A0093039923463DF0F5F800280CBF46
S315080017A02420032004B010BDC44A0020994D030824
S315080017B00122014B1A7070471865002013B50B4CAF
S315080017C06846214633F0C9FD4FF49662009B04F53E
S315080017D0005453434FF47A72B3FBF2F3044A5B00A6
S315080017E093614FF40073636202B010BD0040005964
S315080017F0084B0020022208B5174B5A6101F0ACFCD1
S31508001800164B5A6812B19A6A002AFAD10222DA608D
S31508001810134B1A7812B901221A7005E05A784AB998
S315080018209A783AB901225A700022DA7002220A4BD3
S315080018309A6108BD5A780AB19A784AB15A78002A44
S31508001840F2D09A78002AEFD000225A709A70E3E70D
S3150800185001229A70E8E700BF006006500040065073
S3150800186013650020014B1868704700BFE44A002042
S3150800187008B53DF0A4F8054B186028B98921044B32
S31508001880044A054831F02AFE08BD00BFE44A002094
S31508001890A4E70408AEE70408CBE70408014B186878
S315080018A016F000BBE44A002070B5334C8AB000F04D
S315080018B0ABF900F0CDF9012120683DF08BF828B18D
S315080018C0C7212E4B2E4A2F4831F008FE01212068E9
S315080018D03DF09CFC18B1C8212B4B294AF3E7FFF7CA
S315080018E083FD2A4B1A78002A43D101220DF10601FD
S315080018F020681A703DF00DFB0546254E20683146D6
S315080019003DF0DDFA336820682B6033792B713DF0A2
S31508001910DAFA20683DF009FB48F29A230546038265
S315080019201C4B1D4A1B78202102A832F091F90DF1B3
S31508001930060128463DF01AFBBDF8062002A94CF020
S3150800194006FC0DF1060128463DF00CFBBDF8062005
S3150800195012494CF0FCFB294620683DF0BCFA0246C9
S3150800196018B1B6210E4B0F4AADE7014620683DF087
S3150800197070FA0AB070BD00BFE44A0020DBE704082D
S315080019800DE80408CBE704081DE8040812650020E2
S3150800199052E80408A81B00205DE8040866E8040865
S315080019A06FE8040886E8040870B5634C8EB02068B2
S315080019B03DF0E9FA2068614C0AF06AFD33F0FCF95B
S315080019C0E378002B4BD10123E37023788BB95C486D
S315080019D028F02CFA207121795A483CF08EFB01F048
S315080019E0BBFB1421002001F0ABFB0222564B9A6187
S315080019F035E063787BBBA37803F0FF055BBB5048F3
S31508001A0028F04CFA2071217950483CF076FB504872
S31508001A100DF10B0203A98DF80B5033F0C2F958B338
S31508001A209DF80B104B483CF068FB34262C464A4D73
S31508001A309DF80B20E3B29A421ED90398282206FB8A
S31508001A40030004A912303DF028F8284604A93CF002
S31508001A5054FB0134ECE76378B3B9637803BB3F4CB6
S31508001A602678002E5ED000212046FFF707FD80F07D
S31508001A70010020700EB070BD39483CF03EFB01F005
S31508001A806BFB41F25041ADE7A378002BE5D12C481A
S31508001A9028F022FA2071217932483CF02EFBEEE735
S31508001AA0A378002BDBD02D4D25482B1D05F1080208
S31508001AB0A91C28F033FA207123792B480093D5E91D
S31508001AC0013269883CF019FB1D4805F1140305F13C
S31508001AD0100205F10C014AF0DAFED5E903216B691B
S31508001AE022483CF00AFB224B1548D3F8A420D3F829
S31508001AF0A43002F0010203F0020313432B7728F007
S31508001B00B1F9002120712846FFF7B8FC80F00100E2
S31508001B10184928700E48FFF733FE01F01DFB41F601
S31508001B204C515FE7144D2B78002BA3D0012120469A
S31508001B30FFF7A4FC2E709DE7E44A002013650020F9
S31508001B40304B002098E8040800500650A7E804081F
S31508001B50284B0020B5E8040890E70408084B002045
S31508001B60F1E8040804E904080FE904084CE9040844
S31508001B7000C0035089E904081865002070B5184BA1
S31508001B8086B00493174B184A0393184B18490293C7
S31508001B90184B19480193194B194C0093194B4AF0E5
S31508001BA057FE00234FF4D070A3804CF0A6FAFF2509
S31508001BB02060044600F5D0760121FF2031F0ACFC08
S31508001BC02582E0600121FF2031F0A6FC343444F878
S31508001BD00C0C24F8085CB442EED106B070BD00BF08
S31508001BE0F76F0308619C0208FFC704082FC704089B
S31508001BF029C80408F7C60408304B0020B3C70408F0
S31508001C00284B00208D9C020810B50F483CF075FA49
S31508001C10FFF728FE4FF4FA613CF0C6FF044638B9D0
S31508001C20FFF720FE4FF000013DF0EEF9044648B1FB
S31508001C3020463CF0C2FE2146BDE810400246034855
S31508001C403CF05BBA10BD00BFA8E90408C2E9040865
S31508001C5070B5A4B07822002106A84CF09FFA224B52
S31508001C60224A1C936B461068516802AC03C36B4644
S31508001C70224603CB1E4BCDF85900CDF85D1003F173
S31508001C801006254618685968083303C5B3422C461A
S31508001C90F7D10FCA0EAC84E80F00BDF88C30154892
S31508001CA043F4CA7343F00103ADF88C304CF06FFB74
S31508001CB01049024612A84CF04AFA9DF88C3043F0B7
S31508001CC008038DF88C30FFF7CDFD06A93CF0DBFD47
S31508001CD0044630B13CF071FE2146024606483CF007
S31508001CE00CFA24B070BD00BFADDE0F0010EA040880
S31508001CF019EA04087C140020E7E904081FB50C213A
S31508001D004FF4F06002F056F801213D2001F0A2FCE4
S31508001D1001213C2001F09EFC0C4A01AB07CA83E86E
S31508001D20070040F201121846ADF80C2001F0B2F98E
S31508001D300222074B9A614FF40032064B1A600120C3
S31508001D4001F0DCF905B05DF804FB00BF58EA0408A9
S31508001D500050065000E100E0F0B5354E93B008ADEE
S31508001D600FCE0FC50FCE0FC596E803000126002437
S31508001D70032785E8030031463B20CDE90344CDE936
S31508001D80054407948DF80E708DF808608DF80940A3
S31508001D908DF80A408DF80B4001F05CFC20464FF4A4
S31508001DA02C524FF4285133F0EDFA90222146204662
S31508001DB033F0EDFA31462A2001F04CFC4FF49663D5
S31508001DC01C4D0B939DF8193022460093284623464E
S31508001DD019498DF823408DF8214002F057FEB223A9
S31508001DE00A9008AA284605A98DF809308DF81070BA
S31508001DF08DF80E708DF813608DF8086002F06CFE91
S31508001E0002AA03A9284633F067FA0C4A05F50053D7
S31508001E105A6270214FF40032AB6A43F40073AB6226
S31508001E20074BC3F8842183F819135A6013B0F0BD21
S31508001E3064EA04080040005940420F008F330F80BF
S31508001E4000E100E073B5002435F01CF932F0C6FF56
S31508001E50FFF754FFFFF780FF234641F64C512A4A05
S31508001E60CDE90044294808F0FDFA29483CF045F92F
S31508001E70284D4FF0B640E1B232F09FFF18B921461F
S31508001E8028463CF03AF90134802CF2D122483CF03D
S31508001E9034F90024214D1F4E2846E1B232F08DFF59
S31508001EA018B9214630463CF028F90134802CF3D184
S31508001EB04AF0CBFB4AF0DFFB27F098FE10EE100A3B
S31508001EC031F0D4F802460B4615483CF016F94AF0AC
S31508001ED0ABFC1E2008F08CFA27F0ACFE4FF4FA7023
S31508001EE008F086FA00204AF049FC1E2008F080FA1D
S31508001EF0FFF7DAFC03F0BAF80A4BC3E9000135F03C
S31508001F00CEF8FFF751FDFAE7B1170008E84A0020B6
S31508001F102AEA04088321050837EA040800800650DF
S31508001F2044EA0408A81B002010B5274C01F0D6FD8A
S31508001F3001F01EFF236F23F0070343F00303236713
S31508001F4033F013F9214B00209B6ADB015EBF4FF487
S31508001F5080321F4B9A62D4F8203123F0070343F0EE
S31508001F600203C4F82031D4F8283123F0070343F0DC
S31508001F700203C4F82831D4F8403123F0030343F0B0
S31508001F800103C4F84031D4F8603123F0030343F069
S31508001F900103C4F86031D4F8403223F0030343F058
S31508001FA00103C4F84032D4F8003223F0070343F0A3
S31508001FB00103C4F80032D4F8083223F0070343F0CB
S31508001FC00103C4F8083210BD008000500040005AD2
S31508001FD00060005A08B501213A2001F03BFB04488D
S31508001FE000F030F9BDE80840024800F02BB900BF00
S31508001FF0101200202412002018B1034B186000208C
S3150800200070472520704700BFD84B002010B5054CF7
S315080020100549206800F086FE2068BDE81040FFF7F5
S31508002020EBBF00BF5C1200203812002008B500F094
S315080020302DF8124B12498B4212D30020114B12492C
S315080020408B4218D3FFF710F9186850F822405868E1
S3150800205040F82240013298688242F5D30C33EAE709
S315080020600022F8E71C6844F8220001325C68A242A4
S31508002070F8D30833E4E70022F8E700BF486F0508FD
S31508002080546F0508546F0508546F05084FF48041CE
S315080020904FF0FF30114B124A10B59A60D3F88820DA
S315080020A042F47002C3F888200E4A91660E4901F57B
S315080020B0005210660D4850660220C3F8D000BFF3E0
S315080020C04F8FBFF36F8F01244FF440330848C0F891
S315080020D08041D36004600B6110BD00BF00ED00E0D5
S315080020E0000000080090005000800044F7FF370009
S315080020F000E100E0014B1868704700BF6413002038
S31508002100084B1B6F03F00703022B04D0032B05D0E3
S31508002110012B05D0FEE7044B18687047034BFBE715
S31508002120034870470080005064130020681300209D
S31508002130002D310108B5FFF7E3FF054B1B6FC3F30D
S3150800214003330133B0FBF3F0024B186008BD00BF40
S3150800215000800050601300200048704700B4C40493
S31508002160014B1868704700BF68130020054B1860BC
S31508002170054B1B6F03F00703032B01D1FFF7DABFEB
S31508002180704700BF68130020008000500048704761
S31508002190002D31014FF0B4439868C0F304400C2871
S315080021A022D8DFE800F0092121212121071719216A
S315080021B01B1D1F000F4870479B6803F04073B3F15F
S315080021C0807F13D0B3F1007F12D00B4A002B08BFD3
S315080021D010467047094870470948704709487047CC
S315080021E009487047094870470020704708487047F3
S315080021F008487047405DC60000093D000024F40009
S31508002200C0EA210180BA8C010048E801005A62023E
S3150800221080841E0040420F00014B1868704700BFBB
S315080022206C13002005490A681318054883428CBFB9
S315080022304FF0FF320B601046704700BF7013002046
S31508002240000004202DE9FF4103680446B3F1B64FA8
S3150800225004D0354A934251D12F2000E02E20012187
S3150800226001F0F8F901230A226179207902F0D4F9FC
S3150800227001230A22E179A07902F0CEF90A2701267C
S315080022802A4D4FF030082279637908FB025206FA84
S3150800229003F302F501521360642008F019FB237951
S315080022A0627908FB035306FA02F203F582536420A7
S315080022B01A6008F00DFB013FE3D12068B0F1B64F74
S315080022C01FD10323C5F8E8346279237943EA024328
S315080022D0C5F8EC34E279A37943EA0243C5F8F03449
S315080022E040F20113ADF80030E36869460293A3682B
S315080022F00193237C8DF80C3002F00AFA04B0BDE88D
S31508002300F081094B9842EBD10323C5F8F83462797A
S31508002310237943EA0243C5F8FC34E279A37943EA10
S315080023200243C5F80035DBE70080065000C00350BD
S3150800233038B5054602F01AFB044C012801D1013CC8
S3150800234000D138BD284602F005FAF6E7E193040005
S315080023502DE9F04F9A46564B85B01B7806460F4630
S315080023601546DDF83C909DF844B0DDF85080002B0A
S3150800237000F08D80072A00F28C800E9B002B00F05F
S315080023808880B9F1000F00F08480129BB3F5006FC6
S315080023907FDC012802D1109B002B7AD0454B03EB3A
S315080023A005131B7B002B76D0434C10220021684670
S315080023B04BF0F4FE04EB45141022002F59D1394690
S315080023C020464BF0EBFE43F210036380BBF1000F8F
S315080023D003D1E37843F00303E370374A0E9B02EB1D
S315080023E0451CCCE90193129B6901013BC3F30A0022
S315080023F09DF84C30012E03F003034FEA836343EA4A
S31508002400001E53582D48CDF800A000EA03004EEAF6
S315080024100003535041D113230CF1100ECCF80C30A5
S315080024209CE80F008EE80F006FF00301DCF81C2013
S31508002430109B61F39F02012FCCF81C20CCF81430B6
S3150800244003D1CCF81890CCF804300027194A290192
S3150800245002EB051342F80180159A28465A60694628
S3150800246022469F605E7302F0EDFC384605B0BDE873
S31508002470F08F002120464BF091FE4FF444736380A1
S31508002480BBF1000FA9D1E37843F03003A4E70C4869
S31508002490ECE70C48EAE70C48E8E7B8F1000FD4D1B6
S315080024A09CF8023068F304138CF80230CDE700BFBD
S315080024B019650020DC4B00205C4C00200F80FFF3E0
S315080024C0028000F0018000F0078000F038B5124B5A
S315080024D005461B78DBB1E0B132F063FE0F4A0023F4
S315080024E01146147B54B92B6001251A0101EB03131D
S315080024F01D738C5032F05BFE204638BD0133082B25
S3150800250002F11002EDD132F052FE0548F5E7054812
S31508002510F3E70548F1E700BF19650020DC4B00200A
S31508002520048000F0028000F0018000F0154B13B51E
S315080025301868002301908DF8043032F032FE124BF1
S315080025401C7824B132F033FE104802B010BD0122C7
S315080025501A7032F02CFE0E4B01A81C731C7783F8F8
S315080025602C4083F83C4083F84C4083F85C4083F861
S315080025706C4083F87C4008238DF8073002F030FC65
S315080025802046E2E78CEA040819650020038000F07B
S31508002590DC4B00200A4A08B5127852B107280AD837
S315080025A0084A02EB00131B7B3BB102F099FC0020A2
S315080025B008BD0548FCE70548FAE70548F8E700BFFF
S315080025C019650020DC4B0020028000F0018000F035
S315080025D0078000F00B4A10B512780C4662B107283E
S315080025E00CD859B1084A02EB00131B7B43B102F021
S315080025F089FC2060002010BD0448FCE70448FAE77F
S315080026000448F8E719650020DC4B0020028000F03A
S31508002610018000F0078000F02DE9F843174B1F6D85
S315080026205B6D1F4000D5FEE701260025144CDFF838
S315080026305480DFF85490374217D02368C8F85060A2
S315080026409BB1A168284601316268A1609847637BFF
S31508002650012B0AD148B909EB45131A7B60F34102ED
S315080026601A731A7F60F341021A770135082D4FEA6B
S31508002670460604F11004DED1BDE8F88300000450D4
S31508002680DC4B0020002004505C4C002070B504464A
S3150800269001250B4E04B970BD94FAA4F0B0FA80F087
S315080026A005FA00F306EB001224EA03045368002B2C
S315080026B0F0D0117B11B191689847EBE79847E9E7A5
S315080026C05C4D002008B5192001F0C6FD28B14FF071
S315080026D00072074BC3F880211A601A2001F0BCFD6E
S315080026E028B14FF08062024BC3F880211A6008BDFA
S315080026F000E100E0074BD3F82404D3F8202403F5BF
S315080027000053104000F0553020F05020C3F8200444
S31508002710FFF7BCBF00C00350074BD3F82404D3F817
S31508002720202403F50053104000F0AA3020F0A02022
S31508002730C3F82004FFF7AABF00C00350024B19686C
S31508002740024B186828F042BC781300207413002046
S3150800275037B5920004460D4601924BF0B9FF431C6B
S315080027600BD060B929462046019A4BF0E0FC0028B8
S31508002770044808BF002003B030BD0348FBE7034800
S31508002780F9E700BF10E000F021E000F024E000F0D7
S3150800279010B504464BF0A4FF431C10D088B902F0CC
S315080027A06BFC234620F003002044984201D1002008
S315080027B010BD53F8042B0132F7D00348F8E7034855
S315080027C0F6E70348F4E700BF0EE000F021E000F06A
S315080027D024E000F008B532F0DDFC014B186008BDB6
S315080027E09C550020014B186832F0D8BC9C55002037
S315080027F038B141B1013AB2F5006F044838BF00203C
S315080028007047034870470148704700BF037000F0DF
S31508002810027000F038B504460D4632F0C2FCA388B3
S315080028209BB223B92B6032F0C2FC064838BD14228D
S3150800283063889BB202FB034408342C6032F0B7FC71
S315080028400020F3E70B7000F0F8B5044616460F466D
S3150800285032F0A7FCA388E2889BB29A42054605D8BF
S315080028600023336032F0A3FC1748F8BD14222388EE
S3150800287007F1100C9BB202FB03433A46083317468E
S3150800288003CF6745186059603A4603F10803F6D145
S31508002890142238681860238828469BB202FB034333
S315080028A0083333602388E2889BB20133B3FBF2F125
S315080028B002FB11339BB22380A38801339BB2A3800A
S315080028C032F075FC0020D0E70A7000F0104930B5E8
S315080028D00B78104A2BB9C2E90033C2E90233012347
S315080028E00B700C4C0023214651F8045B854208D036
S315080028F00133042BF8D1002154F8043B1BB942F8E4
S315080029002100002003E001310429F5D1024830BD39
S315080029101A65002050560020027000F010B50446D3
S31508002920FFF704FE002104F10800FFF7CFFD01467A
S3150800293020B904F10C00FFF7C9FD00B1004810BD2D
S315080029400E7000F090F8363053B9042103790A4A1C
S3150800295003F239135B01D150022203685A617047AA
S31508002960022B07D10068816C11F0020118BF0621FD
S3150800297032F05DBC704700BF00C0035090F8363097
S3150800298063B9012203685A619A69D207FCD5042102
S315080029900379084AB9335B01D1507047022B07D136
S315080029A00068836C9B074CBF0521092132F03FBCA8
S315080029B0704700BF00C0035010B590F83630044683
S315080029C063B9042203685A619A699207FCD5237988
S315080029D00C4AB9335B011021995010BD022BFCD16A
S315080029E00068836CDB074CBF0521062132F01FFC0B
S315080029F0237941F294425B0103F1A04303F5703356
S31508002A00E9E700BF00C0035037B50446836B32F0D0
S31508002A10C8FBA36B0546013BA363A16B79B901917A
S31508002A2032F0B8FB04460199012007F039F9012074
S31508002A30064A019907F024FA204632F0AFFB2846E9
S31508002A4003B0BDE8304032F0B2BB00BFB4EA0408B8
S31508002A5013B591F836200B68022A0CBF9B6C9B694C
S31508002A600C469B06084605D5FFF7CEFF0223E3650D
S31508002A7002B010BD32F0CFFA00230146CDE900338B
S31508002A80034A234604F13C0034F091FAF0E700BF0C
S31508002A90512A000870B5044632F083FBA36B05463D
S31508002AA073B932F077FB01210646084607F0F8F8B5
S31508002AB00121074A084607F0E3F9304632F06EFB73
S31508002AC0A36B28460133A363BDE8704032F06FBBA1
S31508002AD0B4EA04087FB5012380F8303090F8363020
S31508002AE083B9036824330D4A0490039200220292A4
S31508002AF04A680192012200920A684169C06832F068
S31508002B003BFA07E0022B02D103683C33EBE70023CC
S31508002B1080F8303007B05DF804FB00BF312C0008A0
S31508002B2001232DE9F04180F8313090F8363004461B
S31508002B300E4688B063BB05683C3532F032FB04F1BB
S31508002B403C0807460DF11F01404607F003FC40B953
S31508002B509DF81F302BB1404607F0D4FB2046FFF7FF
S31508002B6053FF3846012732F022FB2046E765FFF778
S31508002B7091FF0D4B2A46039300230293736821693C
S31508002B80CDE90073A0683368049432F0DBF907E0F6
S31508002B90022B02D105684435CFE7002380F831308F
S31508002BA008B0BDE8F08100BFAD2B0008F0B585B0D0
S31508002BB0D06A03A91446FFF72DFE0646204632F0D2
S31508002BC02AFA002501462346CDE90055164A04F19E
S31508002BD03C0034F0ECF9154B9E421FD0039B1D6157
S31508002BE09D6032F0DEFA039A0646D76827B1D2E925
S31508002BF0002329462046B847E06A03A932F033FA8B
S31508002C00E06A83889BB263B103A9FFF703FE2046F7
S31508002C100399FFF785FF304632F0C9FA012005B05F
S31508002C20F0BD84F83130F6E7512A00080B7000F041
S31508002C3073B5906A01A91446FFF7ECFD364B984226
S31508002C4031D094F83600019B00283AD12268916C5D
S31508002C5011F400712AD03149986019614FF4007354
S31508002C6002F50052936432F09CFA01990546CE6843
S31508002C7036B14A688B682046D31A0A680969B0478C
S31508002C80A06A01A932F0EFF9A06A83889BB2002BEB
S31508002C9037D001A9FFF7BEFD20460199FFF71AFFB5
S31508002CA0284632F084FA012002B070BD906CC50542
S31508002CB023D51B489960186102F500524FF48073BA
S31508002CC0D0E7022819D12268D16C11F4007109D015
S31508002CD0124902F500521961002199604FF40073F8
S31508002CE0D364C0E7D06CC00507D50D489960186154
S31508002CF002F500524FF48073F2E700221A619A60D7
S31508002D00B1E784F8303094F83530032BC8D0204624
S31508002D10FFF718FEC4E700BF0B7000F00D7000F057
S31508002D200C7000F02DE9F0410446524F88B001AE10
S31508002D300D460FCF0FC697E8070086E80700002C58
S31508002D4000F0968025B94C4E304608B0BDE8F081B3
S31508002D506022002120464BF021FA2046FFF7B6FDF7
S31508002D6006460028F0D1012184F835002B6884F83E
S31508002D70360023602A7BE1652271404A9342E2D1FC
S31508002D80292363624FF4802305273D48C4E90403D9
S31508002D90D5E90723A26216805680968084F83060AB
S31508002DA0E3621E805E809E806B6884F831600393C0
S31508002DB0EB8984F83360ADF814302B8A3A20ADF8E5
S31508002DC01230AB7C8DF811708DF81030EB7C8DF8D5
S31508002DD0163000F03FFC606A012100F03BFC2868D1
S31508002DE001A98DF8046002F0D3F91420297B254B3C
S31508002DF001F13902BA4098502E7AA87A03EB4113AA
S31508002E0046EA0042C3F83827697AEA7A41EA024C68
S31508002E10C3F830C7217784F82020E676E0776B7D03
S31508002E2020466377AB7D84F82130EB7DA3772B7E34
S31508002E3084F8223032F006F932F0B3F94FF0FF3257
S31508002E408046286800F500539A642B7D032B0CBF37
S31508002E503946042132F0F9FA4FF440622B682046CD
S31508002E605A61FFF75BFD0646404632F0A0F96BE76C
S31508002E70054E69E7BCEA0408037000F000C0055077
S31508002E800200040000C00350027000F02DE9F3416F
S31508002E900D46044600287FD032F083F9012D0646F8
S31508002EA041D1E36A9B889BB2002B43D0A068FFF709
S31508002EB071FB0023E06A84F8313083889BB273B1D2
S31508002EC001A9FFF7A7FC0199A0680831FFF782FB63
S31508002ED0374F019B1F61E06A83889BB283BB2046FC
S31508002EE032F0E4F88304FAD5023D012D10D8E068E3
S31508002EF0FFF750FB0023A06A84F8303083889BB222
S31508002F006BBB94F83530032B02D02046FFF71AFD29
S31508002F10A36B002B02DD2046FFF776FD304632F024
S31508002F2046F9002009E0022D38D1A36A9B889BB296
S31508002F30002BDCD132F03BF91E4802B0BDE8F08127
S31508002F4001A932F090F8019BD3F80C80B8F1000F74
S31508002F50C1D00022394620469B68C047BBE7694670
S31508002F60FFF758FC0099E0680831FFF733FB104D6E
S31508002F70009B1D61A06A83889BB2002BC1D069465D
S31508002F8032F071F8009BDF68002FF3D00022294643
S31508002F9020469B68B847EDE70748CEE7032DA3D13F
S31508002FA0E36A9B889BB2002B80D1A36A7AE700BFAD
S31508002FB0097000F0087000F0027000F0F0B587B0F4
S31508002FC005461646FFF714FC0446B0B904930C4BA5
S31508002FD0CDE901166A46A86A01A903960593FFF783
S31508002FE033FC044648B995F8303033B92846FFF71C
S31508002FF0C5FC28460099FFF76DFD204607B0F0BDD1
S31508003000017000F0F0B587B004461646FFF7F0FBEE
S31508003010054658BB0493194BCDE90116059394F858
S31508003020363003962BBB23689B6903F0020313B95A
S315080030302046FFF7C1FC6A46E06A01A9FFF704FCCF
S31508003040054698B994F8313083B932F0AAF8E36A9C
S3150800305006469B889BB233B120460099FFF760FD70
S31508003060012384F83430304632F0A1F8284607B0F8
S31508003070F0BD022BDCD123689B6CD6E7017000F00B
S31508003080034B5A6812B19A6A002AFAD1704700BFF0
S3150800309000400650426810B5B2FA82F2144CC2F1EA
S315080030A01F0163680BB1FFF7EBFF0122114B5A6052
S315080030B0636813F00203FBD1027A002A14BF0224C4
S315080030C00024427842EA0112094922438A60427A78
S315080030D00124002A18BF0223827A13434B62064B47
S315080030E05C60037813B1FFF7CBFFCC6010BD00BF5F
S315080030F000400650006006500050065008B50D4BBB
S315080031005A6802B938B15B680BB1FFF7B9FF18B155
S315080031100122094B5A6008BDFFF7B2FF0223054991
S31508003120CB60FFF7ADFF0122044B5A604B689B0743
S31508003130FCD4F0E7004006500050065000600650E8
S31508003140044B9A6AD006FCD419639A6AD206FCD450
S31508003150704700BF0040065008B5FFF791FF0223ED
S315080031600449CB6000230B62FFF78AFF0123CB607B
S3150800317008BD00BF00400650044BD3F88420D20691
S31508003180FBD4D3F88400C0F3811070470040005088
S3150800319038B5104B0546D3F880300C4603F00303C8
S315080031A0022B0BD0032B0DD0012B0FD1FEF7A8FF56
S315080031B00E2305B1286004B1236038BDFEF7EAFF87
S315080031C00723F6E7FEF796FF0623F2E700231846DD
S315080031D0EFE700BF0080005038B5184B0546D3F816
S315080031E020010C4600F00700062805D8DFE800F0A5
S315080031F0230B0F17131B1F000023184605B1286061
S3150800320004B1236038BDFEF775FF0523F6E7FEF720
S31508003210A7FF0323F2E7FEF7BDFF0723EEE7FEF756
S31508003220B5FF0223EAE7FEF765FF0623E6E7FEF7A2
S3150800323097FF0423E2E70123E0E700BF0080005080
S3150800324038B5174B0546D3F828310C4603F0070363
S31508003250013B052B20D8DFE803F003131B0F0B17E0
S31508003260FEF748FF052305B1286004B1236038BD81
S31508003270FEF740FF0623F6E7FEF78CFF0723F2E783
S31508003280FEF76EFF0323EEE7FEF76AFF0423EAE77D
S31508003290FEF77CFF0223E6E700231846E3E700BFB4
S315080032A00080005073B50D460021114B0191D3F8EB
S315080032B08041064604F00304022C13D0032C0CD0DC
S315080032C0012C13D101A8FFF787FF10240EB1019B2B
S315080032D0336005B12C6002B070BDFEF75BFF0724B2
S315080032E00190F3E7FEF752FF0190EFE70C46EDE792
S315080032F000800050002337B50193164B0546D3F8D6
S3150800330020320C4603F00703042B04D8DFE803F049
S31508003310200B11161B0000230DB1019A2A6004B177
S31508003320236003B030BD002101A8FFF789FF1223EF
S31508003330F2E7FEF72FFF07230190EDE731F0E3FDF3
S315080033400A230190E8E7FEF767FF09230190E3E700
S315080033500123E1E70080005038B5104B0546D3F845
S3150800336040310C4603F00303022B0BD0032B0DD080
S31508003370012B0FD131F0C7FD0A2305B1286004B12E
S31508003380236038BDFEF748FF0923F6E731F0BEFD96
S315080033900C23F2E701230020EFE700BF008000506E
S315080033A0002337B50193164B0546D3F860320C4611
S315080033B003F00703013B032B1FD8DFE803F0020ED7
S315080033C01914002101A8FFF707FF10230DB1019A70
S315080033D02A6004B1236003B030BD002101A8FFF7BD
S315080033E0BBFF1123F2E7FEF7D5FE07230190EDE7B1
S315080033F0FEF7CCFE02230190E8E70023E6E700BFCC
S3150800340000800050002337B50193164B0546D3F8C4
S3150800341094320C4603F00703013B032B1FD8DFE861
S3150800342003F0020E1914002101A8FFF7D5FE102398
S315080034300DB1019A2A6004B1236003B030BD0021A2
S3150800344001A8FFF789FF1123F2E7FEF7A3FE07237A
S315080034500190EDE7FEF79AFE02230190E8E70023C4
S31508003460E6E700BF0080005038B5144B0546D3F890
S3150800347000020C4600F00700042804D8DFE800F034
S315080034801B0A0E1216000023184605B1286004B15F
S31508003490236038BD31F037FD0A23F6E7FEF7BCFE98
S315080034A00923F2E731F032FD0C23EEE7FEF742FE80
S315080034B00F23800AE9E70123E7E700BF00800050F1
S315080034C038B5144B0546D3F808020C4600F0070039
S315080034D0042804D8DFE800F01B0A0E1216000023A1
S315080034E0184605B1286004B1236038BD31F00BFDDC
S315080034F00A23F6E7FEF790FE0923F2E731F006FD08
S315080035000C23EEE7FEF716FE0F23800AE9E70123F0
S31508003510E7E700BF0080005038B5104B0546D3F8E2
S3150800352040320C4603F00303022B0BD0032B0DD0BD
S31508003530012B0FD131F0E7FC0A2305B1286004B14D
S31508003540236038BDFEF768FE0923F6E731F0DEFC96
S315080035500C23F2E701230020EFE700BF00800050AC
S3150800356038B5104B0546D3F860310C4603F0030313
S31508003570022B0BD0032B0DD0012B0FD131F0C3FC3E
S315080035800A2305B1286004B1236038BDFEF744FE5E
S315080035900923F6E731F0BAFC0C23F2E701230020F1
S315080035A0EFE700BF00800050B0F5207F1FD009D894
S315080035B0B0F5007F15D003D868B1B0F5C07F0AD042
S315080035C000200CE0B0F5607FFAD10B4BD3F88000F1
S315080035D0C0F3011003E0084B186FC0F30330013045
S315080035E07047054BD3F89000C0F30460F7E7024B29
S315080035F0186FC0F38020F2E70080005002464FF4AF
S315080036008030104B10B598660020FFF7CDFF504369
S3150800361041F671320C4BDC69DA635A6804F480347B
S3150800362022F4401259B9094988428CBF4FF48010D8
S315080036300020104358600CB10022DA6310BD04491B
S31508003640F2E700BF0090005000000350005A6202E3
S31508003650002D3101430905D0012B0DD0022B094B52
S3150800366018BF002300F01F0041B103F58053012263
S3150800367002FA00F018607047034BF3E703F50053AE
S31508003680F5E700BF68800050648000501FB5002130
S3150800369080280446CDE9001100F0A58035D85E28BB
S315080036A046D85E2844D8DFE800F0A24343434343A4
S315080036B043434343434343434343434343434343CC
S315080036C043434343434343434343A2AAA2AAB9B944
S315080036D0B9B9B9AAC34DD9714DAAAAAA4343434356
S315080036E043434343AAAAAA79E3AA4343434343432A
S315080036F043434343434343B9A2A2A2DE4D4DE88860
S315080037005EBE434343434399A200B0F5B06F00F051
S315080037108F802DD8B0F5207F71D00CD8B0F5C07F3A
S3150800372065D0B0F5007F65D0B0F5807F00F0858064
S31508003730009804B010BDB0F5607F6AD00DD8B0F51A
S31508003740407FF5D1FEF7F6FC02464FF42070FFF7EE
S315080037502BFFB2FBF0F0400847E0B0F5806F5DD074
S31508003760B0F5A06FE4D100216846FFF7C3FDDFE797
S31508003770B0F5106F77D016D8B0F5E06F78D00AD8C4
S31508003780B0F5C06F6AD0B0F5D06FD1D100216846C8
S31508003790FFF76AFECCE7B0F5F06FC9D1002168469D
S315080037A0FFF7DEFEC4E7B0F5406F3CD013D8B0F59E
S315080037B0206F62D0B0F5286FBAD10021314B039142
S315080037C0D3F8703203F00303012B02D103A8FFF7E5
S315080037D0C3FD039B3BE0B0F5486FA9D100216846BD
S315080037E0FFF710FEA4E7FEF78BFC0090A0E7FEF7B4
S315080037F0A1FCFAE7FEF784FC0246204604E0FEF741
S3150800380099FC02464FF42070FFF7CEFEB2FBF0F0AB
S31508003810EBE701A8FFF7BCFC019AEEE70021684632
S31508003820FFF7DAFC84E700216846FFF709FD7FE722
S3150800383000216846FFF736FD7AE74FF0E02302914C
S315080038401B695B0705D5FEF775FC0290029B009382
S315080038506EE703A902A8FFF77FFDF7E70021684690
S31508003860FFF77AFD64E700216846FFF729FE5FE760
S3150800387000216846FFF750FE5AE700216846FFF721
S315080038808FFD55E70080005008B58020FFF7FEFE43
S31508003890034B98429EBF4FF48032024B1A6708BD0D
S315080038A0005A620200A000501FB50023B0F5807FC1
S315080038B0019300F0C38064D85D2855D84C2807D8F2
S315080038C02D2847D823282BD8019805B05DF804FB86
S315080038D04D381028F8D801A353F820F0333A0008D9
S315080038E0C9380008C9380008C9380008E539000889
S315080038F0C9380008C9380008B93A0008033A000868
S31508003900A9390008AF3A0008C9380008C9380008BC
S31508003910C9380008C9380008C9380008C33A000879
S3150800392024380928D0D801A353F820F0333A0008E0
S31508003930333A0008333A0008333A0008333A0008A5
S31508003940C9380008293A0008C9380008C5390008E6
S31508003950693A00083D2800F082803E28B4D100204C
S3150800396001A9FFF7D9FDAFE78028ADD15A4B1B6FE8
S3150800397003F00703013B032BA6D8DFE803F05350F7
S31508003980878FB0F5F06F6AD021D8B0F5B06F4BD0FD
S315080039900FD8B0F5607F00F0858095D3B0F5806FBD
S315080039A047D0B0F5A06F8FD1002001A9FFF7A2FC80
S315080039B08AE7B0F5D06F57D0B0F5E06FCFD0B0F545
S315080039C0C06F81D1002001A9FFF7C6FC7CE7B0F5DE
S315080039D0206F71D00BD8B0F5086F4AD0B0F5106FCC
S315080039E07FF472AF002001A9FFF76AFD6CE7B0F516
S315080039F0406F5CD0B0F5486F63D0B0F5286F7FF4A0
S31508003A0063AF0021344B0391D3F8703203F00303FC
S31508003A10012B5BD0022B14BF0B46152300E00523B0
S31508003A20019351E70223FBE7002001A9FFF73AFCBF
S31508003A304AE7002001A9FFF7CFFB45E702934FF0BD
S31508003A40E0231B695B0705D5FEF774FB0D2303937B
S31508003A50039BE5E703A902A8FFF77EFCF8E7002029
S31508003A6001A9FFF77DFD2FE7002001A9FFF7FCFC60
S31508003A702AE7194BD3F8003103F00303022B07D0CA
S31508003A80032B09D0012B0BD1FEF76AFB0323C7E7EB
S31508003A90FEF7C2FB0923C3E731F033FA0823BFE771
S31508003AA00123BDE7184601A9FFF772FB0CE70020C2
S31508003AB001A9FFF7C5FB07E7002001A9FFF770FC7E
S31508003AC002E7002001A9FFF79DFCFDE603A8FFF722
S31508003AD043FC1123A4E700BF008000504FF4801276
S31508003AE0034B5A664FF48032024B9A62704700BF06
S31508003AF0009000500050005A38B504468020FFF761
S31508003B00D3FE032800F08A804FF48012544B4FF0FE
S31508003B10A0615A6645F60E03524AC2F88030524BE7
S31508003B2099624FF4803103F580539962936DD903F6
S31508003B30FCD4916D11F08041FBD1D4E900031B053B
S31508003B4043EA0063E07B0343207B43EA0043607B50
S31508003B5043EA0033A07B43EA801313619069D4E9F2
S31508003B6004531B0643EA856300F000400343A07E26
S31508003B70E57E0343207E43EA0043607E43EA002352
S31508003B809361E069136A00280CBF0022082223F01B
S31508003B900F0343EA000343EA850343EA0203314A73
S31508003BA0324D13623BD194F82430916A94F8200080
S31508003BB0DB000D4043EA401394F821102B4343EAF7
S31508003BC0011343F480339362294B916D33EA010163
S31508003BD0FBD14FF08071244881621369A56823F4EC
S31508003BE0700343EA055313614FF00043836194F869
S31508003BF022300BB91F4B996294F823303BB94FF426
S31508003C0080321C4B9A62174A936D5B00FCD494F879
S31508003C1025301BB1134B184AC3F8802038BD02283B
S31508003C2008D11161154891614FF408524FF47F414C
S31508003C3031F077FA0B4994F822308A6A94F8200012
S31508003C401B06154043EA401394F824202B4343EA05
S31508003C50C20394F8232043EA02438B62D7E700BFE6
S31508003C60009000500040005A0050005AC7FFFEFE60
S31508003C70030001000060005AF1A7FFFF3440005A14
S31508003C80014B93F9000070478B140020014B1880F4
S31508003C90704700BF5C140020B0F5207F10B50C46B5
S31508003CA057D008D8B0F5007F48D003D830B3B0F560
S31508003CB0C07F23D010BDB0F5607FFBD129492A48C3
S31508003CC0D1F8FC2012F080721EBFD1F8FC3023F028
S31508003CD08073C1F8FC30D0F88030611E23F03004C0
S31508003CE044EA0114C0F88040002AE3D01D4AD2F8FD
S31508003CF0FC3043F08073C2F8FC30DBE731F022FA7F
S31508003D0031F02EFA4FF48031184B174A1967136FA2
S31508003D10611E23F4704444EA01341467FEF70AFA74
S31508003D200446FFF729FAC0F10201204631F012FADB
S31508003D3000F02EF8BDE81040FFF7A6BD0A4A013983
S31508003D40D2F8903023F0F85444EA0164C2F890405F
S31508003D50B0E7054B013C196F21F4806141EA8424E0
S31508003D601C67A7E700ED00E00080005000900050B7
S31508003D7008B50121022000F09BFA31F0E3F931F091
S31508003D80EFF94FF48032014B1A6708BD00900050D6
S31508003D9008B54FF4C070FFF779FCBDE80840044940
S31508003DA088428CBF022101214FF42070FFF774BFAF
S31508003DB080F0FA02B0F5807FF8B50C4600F0528123
S31508003DC06BD85D285DD84C2804D82D2844D82328DC
S31508003DD028D8F8BD4D381028FBD801A353F820F091
S31508003DE045400008D33D0008D33D0008D33D0008F0
S31508003DF0373F0008D33D0008D33D0008F9410008C5
S31508003E006F3F0008C73E0008D9410008D33D0008A7
S31508003E10D33D0008D33D0008D33D0008D33D000834
S31508003E201942000824380928D3D801A353F820F0EA
S31508003E304540000845400008454000084540000840
S31508003E4045400008D33D000825400008D33D00083A
S31508003E50FD3E0008134100083D2800F04A813E282F
S31508003E60B7D1093C032C8CBF0021B24BB24A98BF8C
S31508003E70195DD2F8403223F003030B43C2F84032EF
S31508003E80A7E78028A5D18B1E062B00F2C880DFE89D
S31508003E9003F0C3B1C67EC6C6C000B0F5F06F00F029
S31508003EA028813BD8B0F5B06F00F0BC801BD8B0F5C0
S31508003EB0607F00F06B818CD3B0F5806F00F0C28014
S31508003EC0B0F5A06F85D1073C0B2C8CBF00219B4B0E
S31508003ED0994A98BF195DD2F8203223F007030B439D
S31508003EE0C2F8203275E7B0F5D06F00F01281B0F550
S31508003EF0E06FB6D0B0F5C06F7FF46BAF093C032C0A
S31508003F008CBF00218E4B8C4A98BF195DD2F8403180
S31508003F1023F003030B43C2F840315AE7B0F5206F8C
S31508003F2000F06A8117D8B0F5086F00F01F81B0F568
S31508003F30106F7FF44EAF093C062C8CBF0021814BD5
S31508003F407D4A98BF195DD2F8083223F007030B4360
S31508003F50C2F808323DE7B0F5406F00F03D81B0F594
S31508003F60486F00F05981B0F5286F7FF432AF112CF5
S31508003F7000F06281152C14BF002102216E4AD2F886
S31508003F80703223F003030B43C2F8703221E7002591
S31508003F9002264FF480370121022000F089F931F01A
S31508003FA0D1F831F0DDF8684B634A1F67136F23F0C9
S31508003FB0070333431367FEF7BDF80646FFF7DCF839
S31508003FC0C0F10201304631F0C5F80121002000F0A9
S31508003FD0AFF9FFF7DDFEFFF757FC002D7FF4F9AECA
S31508003FE0032C7FF4F6AE594B594A9F62936D5800DD
S31508003FF0FCD4EEE64FF48012534B0E465A664FF445
S315080040008032534B9D6A03F58053C5F300659A6267
S31508004010BFE700250426BCE700250126B9E70025E9
S315080040202E46B6E7023C0E2C8CBF0021494B424A6D
S3150800403098BF195DD2F8803123F003030B43C2F809
S315080040408031C6E6023C052C8CBF0021424B3A4A19
S3150800405098BF195DD2F8203123F007030B43C2F845
S315080040602031B6E6A1F10904082C3FF6B2AE01A349
S3150800407053F824F09940000899400008D33D0008F9
S3150800408099400008C7400008D33D0008D33D000802
S31508004090D33D0008994000084FF48032264B2F493B
S315080040A0586E03F580535A664B6A43F001034B6218
S315080040B0C1035CBF2A4B5A664FF0E022136923F00E
S315080040C00403136185E64FF480321B4B2349586E6F
S315080040D003F580535A664B6A23F001034B62C30308
S315080040E05CBF1F4B5A664FF0E022136943F0040386
S315080040F0E7E7093C032C8CBF00211A4B0E4A98BFF0
S31508004100195DD2F8603123F003030B43C2F860311E
S315080041105FE6093C062C8CBF0021134B064A98BF64
S31508004120195DD2F8003223F007030B43C2F80032B8
S315080041304FE600BFFEEA04080080005019EB0408A9
S31508004140FEEA040802EB0408009000500060005ADA
S315080041500040005A35EB0408F8EA040800C0075086
S3150800416000A00050FEEA040802EB0408CC1E062C48
S315080041708CBF0021314B324A98BF195DD2F8003105
S3150800418023F003030B43C2F8003122E62D49063C0F
S31508004190D1F8FC2012F080721EBFD1F8FC3023F053
S315080041A08073C1F8FC30082C8CBF0020264B2449AC
S315080041B098BF185DD1F8803023F003030343C1F894
S315080041C08030002A3FF405AE1E4AD2F8FC3043F090
S315080041D08073C2F8FC30FCE5023C052C8CBF00213C
S315080041E01A4B174A98BF195DD2F8283123F00703EE
S315080041F00B43C2F82831ECE5023C0F2C8CBF00219A
S31508004200134B0F4A98BF195DD2F8603223F00703A3
S315080042100B43C2F86032DCE5023C0F2C8CBF002150
S315080042200C4B074A98BF195DD2F8943223F007035E
S315080042300B43C2F89432CCE501219FE609EB04084A
S315080042400080005000ED00E010EB0408F8EA0408CE
S3150800425025EB040825EB0408054B420953F82230E0
S3150800426000F01F0023FA00F0C04300F00100704779
S3150800427000E100E0024A536B0342FCD1704700BFDD
S3150800428000400950044A4178536F23F4407343EAC7
S3150800429001235367704700BF00400050034A017965
S315080042A0D36E23F030030B43D366704700400050AB
S315080042B0F8B504461C4BD3F88420D106FBD4D3F8B2
S315080042C08430C3F381139C422CD0FDF719FF012CCF
S315080042D0064602D1214630F03DFF30F05BFF4FF035
S315080042E00072124B07465A66204630F064FF4FF4B8
S315080042F080630D4D621E93402B676B6E9A0103D443
S31508004300D5F884309B060AD5384630F047FF022C8C
S3150800431008D13046BDE8F840002130F01BBFD5F87B
S315080043208430EAE7F8BD00BF004000500060005046
S3150800433007B518B90191FDF7E3FE0199064B1B78FD
S3150800434043B1064B984205D8012003B05DF804EB4B
S31508004350FFF7AEBF0220F8E71B650020005A62028D
S315080043600278034B012100201A70FFF7E1BF00BF56
S315080043701B6500204FF0004238B5284B28495A667D
S315080043804AF6CD334D6C044605F001050B6460BB57
S315080043900120FFF76FFF4B68DA0708D4002415B130
S315080043A01F4B204A1A6449F0D4F8204638BD1E4BE4
S315080043B0586020461D4C0B6BDB0706D4A04202D181
S315080043C04FF0FF34EBE70130F5E7A0424FF0FF343A
S315080043D018BF0024E3E701320B6B13F0080307D07C
S315080043E08242F8D16FF00104D9E700220F48F3E7BB
S315080043F08242F7D020210C4A91620121A2F580520F
S3150800440051600749094A886A800603D49342E9D06D
S315080044100133F8E79342C1D1E4E700BF00900050AA
S31508004420004009503254FFFF0060095040420F0017
S315080044304FF0004238B5164B01465A664AF6CD3358
S31508004440144C154A656C236443780B205B0043F0D3
S315080044500103D363FFF70EFF63688A7823F4F873C2
S3150800446043EA02136360CA784B7943EA0223A360DE
S315080044700A798B7943EA022323610878FFF77AFFE2
S31508004480EB0744BF054B236449F063F8012038BDA8
S315080044900090005000400950004000503254FFFF81
S315080044A04FF00042124B70B55D6E03F580535A66A5
S315080044B04AF6CD3304460F4980204E6C0B64FFF74D
S315080044C0D9FE0B6A23F00F030F2C94BF234343F046
S315080044D00F030B62F30744BF074B0B64002DA2BF03
S315080044E04FF00042054B5A6649F033F870BD00BFDD
S315080044F000800050004009503254FFFF00A00050D1
S315080045004FF00042104B70B55D6E03F580535A6646
S315080045104AF6CD3304460D4980204E6C0B64FFF7EE
S31508004520A9FE0B6A23F4F85343EA04230B62F30744
S3150800453044BF074B0B64002DA2BF4FF00042054B4A
S315080045405A6649F006F870BD0080005000400950D0
S315080045503254FFFF00A000502C4B2DE9F041984241
S31508004560064612D02A4886420CBF57200020FFF77D
S315080045708DF8B16811F0010109D03169090E0131D0
S31508004580B0FBF1F10846BDE8F0815620EFE7326B43
S31508004590B468204B04F0E004402C03EA020310D070
S315080045A007D854B3202C2CD0B36DDB0748BF490875
S315080045B0E8E7602C27D0802CF6D14FF480750C469E
S315080045C01CE080250C464FF0030803F5807308FBB2
S315080045D003F80023424619462EF0F0FD02FB04F1CB
S315080045E000FB05F705FB0311A2FB05050023424660
S315080045F029442EF0E3FD3918D6E710254FF00108B7
S31508004600E3E72546DBE74025D9E700BF0000015B65
S3150800461000000A50F8FF7F002DE9F04105460F46D5
S315080046201E4690464AB101233022194C8B4002FBA4
S3150800463000443EB304F5825423600F21072F05EB8F
S31508004640450388BFA7F108044FEA0313114895BF2D
S31508004650BC00A40004330C3308FA04F2A140184441
S3150800466030F0EAFDB8F1000F0AD101213020084ADE
S3150800467001FA07F700FB05223EB102F582521760E0
S31508004680BDE8F08104F50154D6E702F50152F6E7D4
S3150800469000C0035030C00350F8B505460E46144610
S315080046A05AB3826803F0030722F44072826030F03E
S315080046B071FDAA6882EA072303F440735340AB608E
S315080046C030F06CFD36B9B5F1B64F17D12E20FEF78E
S315080046D0DDFF0646AB680C4BD85D60430DD06FEA2C
S315080046E0C4040444A319B3FBF0F3AA68013B920778
S315080046F002D5002B08BF0123AB61F8BD034B9D42D1
S31508004700E8D12F20E3E700BF44EB040800800650F9
S3150800471038B500230E4A036400F50053DA634A7875
S3150800472004460D4600F108037AB903F580530222C0
S315080047301A602046D5E901122B7BFFF7ADFF20460C
S315080047402978BDE8384030F088BD03F50053EEE718
S31508004750FFFF1F00B0F1B64F2DE9F04322D0804B82
S31508004760984240F0FA807F4B402505264FF0000816
S315080047704FF0030C996800F50054C26B12F4C06F31
S3150800478016D0970510D5FD225A7009221A700022F4
S31508004790026493F90110012900D15A7093F90100B6
S315080047A0BDE8F083704BDFE75605EED5FE22EBE752
S315080047B01F78082F00F2CD80DFE817F009001F00E8
S315080047C041004C006900740096009E00C2004C88A7
S315080047D00A88E5060AD5120A02F0060242F0F00235
S315080047E0012119704263C1600120D9E702F0FE0277
S315080047F0A10748BF42F00102F2E7170607D5802154
S3150800480000F50052D1634FF608721A8062E052062C
S31508004810EAD54A88E563D70604D502221A700B78CA
S315080048204363E1E7920765D507221A701B7901EB06
S31508004830C3010B89012BD7D10823C360D4E7170618
S31508004840DDD45206D0D54A88E563970752D583F852
S3150800485000C092E74C880A88E50643BF120A02F0B0
S31508004860060242F0F00202F0FE02640709D51C793E
S3150800487042F0010201EBC4010989012904BF08219C
S31508004880C160042119700123C3604263ACE71706AF
S31508004890B5D45706A8D54A88E56352072AD507220C
S315080048A01A70A1E71A795F8801EBC20EBEF8089064
S315080048B0B94511D80132D2B21A714F88A3F80280CD
S315080048C017F0040FC3D1FF0702D4012A7FF655AFAC
S315080048D008221A700223B0E7DEF80420791C5980F2
S315080048E0D25D42630622DBE7170688D457067FF5B2
S315080048F07BAFE5631E7040E794067FF575AF20260B
S315080049001A7900F5005401EBC2010A89456AE66383
S315080049105C88A24281BF4968661C5E800D5559882D
S315080049208A42D5D90424012AC46004D9013A91429D
S3150800493001D10822C2601A78092A3FF428AF53E742
S31508004940D2057FF551AF4FF4807100F50052D1635F
S315080049501BE74FF609321A8019E76FF003001FE7C5
S31508004960008006506C56002060560020B0F1B64F05
S3150800497010B407D01A4B98422ED06FF003005DF89A
S31508004980044B7047174B0269D20744BF2022C26006
S315080049904A88940702D50C89002CEED0520702D516
S315080049A00A8A002AE9D04FF480721A6000229960B8
S315080049B01A71C023C3604369DB050FD4202200F5B2
S315080049C00053DA63084A5DF8044BDA63036C43F470
S315080049D0FC630364FFF7BEBE044BD4E7436AEAE709
S315080049E00080065060560020FFFF1F006C5600200E
S315080049F04369DA01FCD4012300F50050024A4360FA
S31508004A0053689B07FCD4704700400059084608B510
S31508004A1069B92A20FEF73AFEB0B10C4B984206D97E
S31508004A200B4B9B68C3F302730133B0FBF3F00949E0
S31508004A3000F5742000F23F20B0FBF1F001387F2822
S31508004A4028BF7F20C0B208BD0120F0E7005A6202E5
S31508004A500040005940420F0010B50B4C8C4228BF4D
S31508004A600C461AB92A20FEF711FE0246601E0244B9
S31508004A70B2FBF4F0A24228BF00F1FF30032828BF9A
S31508004A800320C0B210BD00BF005A620210B510481C
S31508004A90104C002B18BF2046884228BF08460446FB
S31508004AA01AB92A20FEF7F2FD02469DF808000130E1
S31508004AB0B2FBF0F2601E0244B2FBF4F340F2FF30A0
S31508004AC0A24228BF03F1FF33984228BF184610BDFB
S31508004AD080969800404B4C002DE9F04F2DED048B45
S31508004AE0B44E0C4687B01546314600220746FFF7F6
S31508004AF0B3FF6379984238BF18465FFA80F838469C
S31508004B00FFF776FF207950B92A20FEF7BFFDB0429D
S31508004B10014628BFB0FBF8F13846FFF777FFE37880
S31508004B204FEA08721B0102F0E04203F03003134318
S31508004B300004227800F4FE0003430AB143F002039E
S31508004B4062780AB143F00403A2780AB143F0080375
S31508004B504FF00009BB60E38822893B616389DFF86F
S31508004B6060A243EA02433B62574502D1B9F1020FFC
S31508004B7008D1012307F580577B6007B0BDEC048B8D
S31508004B80BDE8F08F00222C788B488C49AE68944299
S31508004B9018BF014623468A48CDF80080FFF776FFFE
S31508004BA0B6B28642334638BF034607EB091103936C
S31508004BB08B6C04F0030623F0435323F41D1323F4EC
S31508004BC0405323F01F0333436E78EA78B60006F0A5
S31508004BD01C061E43AB784FEA09101B0303F4E04397
S31508004BE03343160406F4E02633432E7C760506F492
S31508004BF0600633432E79360706F0405633438B64F6
S31508004C008B6C7049C3F30233013B042B00F2858099
S31508004C10DFE803F0838383030300D1F8843109F1C5
S31508004C20050B002C6FD10AEB00039C6CC4F302340D
S31508004C30631E012B634B73D8DFED637AD3F880418B
S31508004C40A4B223044FF001035044806C24F4C046F8
S31508004C50C0F3820000F1010E03FA0EFE07EE10EA19
S31508004C604FEA8646B8EEC79AF6EE008A554B48BF15
S31508004C7046F00046002871D1D3F88C311BB208EEF5
S31508004C80103AB8EEC88A37EE888A002A7BD105A87A
S31508004C9000F0C6F9DFED4D7ADFED4D6A86EE897ACA
S31508004CA0DFED4C6A67EE887A27EE267AF1EE006A1F
S31508004CB0B6F1004F07EEA67A0BD0DFED476A07EE8E
S31508004CC0904A37EE266AFAEEE87AB0EE667A17EE7A
S31508004CD0867AB5EEC07AF1EE10FACABFB1EE477A17
S31508004CE038EEC77A37EE687AFDEEC77A17EE903A4D
S31508004CF0B3F5003F54DB6FEA56466FEA46464FEA7D
S31508004D000B134AF80360039B0AEB0B11C3F3090262
S31508004D104A6009F10109143526E7D1F880317EE7A2
S31508004D20032C0AD1D3F88041D3F88C31240C1B14F8
S31508004D3007EE903AF8EEE77A83E7042CD3F8844135
S31508004D400BBFD3F88C31D3F88C311B141B1407BF57
S31508004D50A4B25B00240C03EB4303E9E7D3F8900104
S31508004D60D3F8883100B207EE100AB8EEC77A77EEA4
S31508004D70677A29EE287A1BB287EE878A07EE903A79
S31508004D80F8EEE77A7FE7D5ED037ADFED146AF8EEF9
S31508004D90677A87EEA67AF7EE046AC6EE877A7BE725
S31508004DA013F5003FAABFC3F3110346F400361E43AA
S31508004DB0A5E700BF005A6202404B4C008096980057
S31508004DC0004000590080E00F000000003D3B843F92
S31508004DD000008043000020440000004900007A4497
S31508004DE010B5012104462020FEF734FC01212120BC
S31508004DF0FEF730FC0122114B5A60227812069A609F
S31508004E006178A27842EA01429A61FF229A620022F8
S31508004E109A631A644FF000425A654FF0FF324FF416
S31508004E20001103F500531A65054AC2F88011E378A4
S31508004E301B01DBB282F81533116010BD0000045067
S31508004E4000E100E02DE9F0410125C3B2D1F8008068
S31508004E5091F80AC00F7B91F80DE09D400C46CB7A7D
S31508004E601C491D4E0D65810001F1A04101F58821FF
S31508004E70C1F80480302101FB00601B0543EA0C439E
S31508004E8043EA475322F00302C0F860E0C3650267AD
S31508004E9030F087F9736D2B437365237A13B1336C3E
S31508004EA02B433364637A13B1B36B2B43B363227911
S31508004EB0A37943EA0243074A93616179E37943EAAE
S31508004EC0014306498B61044B55639D64BDE8F04177
S31508004ED030F06DB900200450000004500010045052
S31508004EE010B50124C0B2844030F05BF9044B5A6D0A
S31508004EF022EA04025A659C62BDE8104030F057B9B0
S31508004F0000000450F8B50125C3B204469D4030F0B0
S31508004F1048F93022094B1E6D5F6B02FB04335C6E49
S31508004F2030F045F93D4206D1C4F30A1008B93542B6
S31508004F3000D10130F8BD0020FCE700BF0000045096
S31508004F404FF48032054B9A6641F6713203F51C33ED
S31508004F50DA63012203F50053DA60704700900050C7
S31508004F6041F671320121064BDA6303F50052D1602E
S31508004F700022DA634FF48032A3F518339A66704735
S31508004F8000000350013831289ABF024B185C0020F4
S31508004F90704700BF48EB0408021E30B54FF000000A
S31508004FA00CBF1025042547F60774084952B9831D16
S31508004FB051F82330234023B101308542F6D14FF012
S31508004FC0FF3030BD00F11603F2E700BF0080035042
S31508004FD010B5C2F30623044602F0070241B942EAB5
S31508004FE003220B4B42F44022063443F8242010BD1A
S31508004FF01846114630F0B9F901461846FFF7C2FFC0
S31508005000034B41EA0020163443F82400EFE700BFBB
S3150800501000800350014BD3F89400704700400050BD
S315080050204FF48032064B5A6603F5E6239B69C3F3B1
S315080050308512827003F03F021B0B427003707047A3
S315080050400090005040F6B732064B5B689BB293421D
S315080050509FBF4FF47A72B3FBF2F3034AD05C88BF62
S31508005060002070470080E00F7AEB0408014B986C2B
S31508005070D96C70470080E00F0120034B9B680A3308
S3150800508003F01F03984070470080E00F70B505468F
S3150800509016461C4621B94FF42070FEF7F7FA01466A
S315080050A0402C1BD003D8DCB1202C1BD070BD602C43
S315080050B0FCD1042303FB06F2560806EB4113B3FBA7
S315080050C0F2F3094A203B02EAC303AA6822F0600207
S315080050D0AA60AA681443AC60EB61E7E70623E9E730
S315080050E01023E7E70823E5E7F8FF7F002DE9B84135
S315080050F0154F15460F40FAB9202B20D0402B20D04B
S31508005100002B14BF40241024012307F580775F4342
S3150800511000233A4619462EF051F8554300FB04F889
S3150800512004FB0351A2FB040400233A4621442EF053
S3150800513045F84044BDE8B88180240025E4E71C46CC
S31508005140E2E780240323E0E7F8FF7F00012100F56A
S31508005150805310B5596040F6AA6341F205024361CF
S315080051600023094C8360C365C26000F500520361E1
S31508005170C361C3649464054C8365A04204BF036598
S315080051804365516010BD00BFFFFF010000C0055018
S3150800519070B50D46FFF7DAFF012300F580567360F8
S315080051A0AB7C04461BB1836843F080438360EB7C89
S315080051B05BB1244B9C4202BF2A7DA3F51033C3F88A
S315080051C0C821E36D43F08003E3652A8A6B7B20469A
S315080051D01343EA891343E3602B7BD5E90112FFF7F2
S315080051E055FF6B7D1BB1A36843F48033A360AB7D89
S315080051F01BB1A36843F40043A360EB7D2A7E1B071B
S31508005200120502F4E00203F0E0431343A3656B7E44
S315080052109A1E012A4FF0020209D80B49032BC1F83E
S31508005220202709D10423F3652B78636170BD0749EC
S31508005230012BC1F82027F4E7042204F50053DA65A8
S31508005240F2E700BF00C0055000D0035000E003504D
S31508005250054B9A689107FCD45A689207F9D4DA691B
S31508005260002AF6D1704700BF00800A5008B5FFF73C
S31508005270EFFF0122024B03F580514A601A6108BD0F
S3150800528000800A50074B5A68012A0AD15A68D20781
S3150800529002D5DA69002AF9D102221A610122024BE3
S315080052A05A60704700800A5000A00A5010B5064C94
S315080052B0FFF7CEFF6368012B03D1FFF7E3FFFFF784
S315080052C0C7FF0378E36010BD00800A50E8B94A6852
S315080052D00B7812B1127843EAC2034A78002A14BF3F
S315080052E00222002213438A6812B1127843EA821313
S315080052F08A78002A14BF042200221343CA6812B10E
S31508005300127843EA4223014A9364704700800A50A0
S3150800531008B9014B5964704700900A5008B9014B07
S315080053205964704700A00A5008B9014B19647047C0
S3150800533000A00A5010B9024B186C7047002070473D
S3150800534000800A5048B911B1012903D07047044BAF
S31508005350D86C7047024B186D70470020704700BF25
S3150800536000800A5040B911B1012903D07047034B98
S31508005370DA647047014B1A65704700BF00800A500F
S3150800538038B50446054D48F0F9F80FCC0FC594E832
S31508005390030085E80300002038BD00BF78560020CA
S315080053A047F6FF739A42F0B566D0012966D8344DA0
S315080053B0CF0015F8313005EBC100012B847813D1E5
S315080053C00025C3781B1B9D4202D3E018C0B2F0BD6E
S315080053D0591B4668A3EB510136F911609642D4BFB2
S315080053E00D4601F1FF33EEE740680028EFD0B0F92B
S315080053F00030934204DBB0F902309342B8BF13463B
S3150800540082883D44FF2A19BFC8214FF0280CB0F9FD
S315080054100610B0F908C0A1EB03020CBF012600264E
S3150800542092FBFCF26D78324412B2954201DD002AF5
S3150800543001DA6A1E12B24FF47A7700EBC206F188D7
S31508005440B668013213FB016112B221EAE1715C31DF
S315080054509542B1FBF7F104DD00EBC206B6888E4231
S31508005460EBD200EBC20232F8040C884228BF084689
S31508005470A04238BF2046A9E7FF20A8E70020A6E7F4
S31508005480785600200129F0B553D82B4800EBC10403
S3150800549010F83110636801290FD1E078A47890429A
S315080054A094BFC4EB0001C4EB0201001BCAB28242DE
S315080054B0C8BF002233F91200F0BD002B39D0A178FD
S315080054C0914202D3B3F90200F6E7E178B3F9000096
S315080054D09142F1D999886478A1F1FF06013C71429D
S315080054E003F10405E4B2714103F10C071FFA82FCCB
S315080054F0CEB2B44216D805EBC1014FF47A756A43A9
S31508005500B1F902404968521A04EBD47102EB610200
